Component: ARM Compiler 5.06 update 6 (build 750) Tool: armlink [4d35ed]

==============================================================================

Section Cross References

    main.o(i.main) refers to control.o(i.BSP_Init) for BSP_Init
    main.o(i.main) refers to control.o(i.Fly_control) for Fly_control
    main.o(i.main) refers to control.o(.bss) for Fly
    delay.o(i.delay_init) refers to misc.o(i.SysTick_CLKSourceConfig) for SysTick_CLKSourceConfig
    delay.o(i.delay_init) refers to system_stm32f10x.o(.data) for SystemCoreClock
    delay.o(i.delay_init) refers to delay.o(.data) for fac_us
    delay.o(i.delay_ms) refers to delay.o(.data) for fac_ms
    delay.o(i.delay_us) refers to delay.o(.data) for fac_us
    led.o(i.LED_Init) refers to stm32f10x_rcc.o(i.RCC_APB2PeriphClockCmd) for RCC_APB2PeriphClockCmd
    led.o(i.LED_Init) refers to stm32f10x_gpio.o(i.GPIO_Init) for GPIO_Init
    led.o(i.LED_Init) refers to stm32f10x_gpio.o(i.GPIO_SetBits) for GPIO_SetBits
    led.o(i.Led_Task) refers to led.o(.data) for led0_time0
    beep.o(i.BEEP_Init) refers to stm32f10x_rcc.o(i.RCC_APB2PeriphClockCmd) for RCC_APB2PeriphClockCmd
    beep.o(i.BEEP_Init) refers to stm32f10x_gpio.o(i.GPIO_Init) for GPIO_Init
    exit.o(i.EXIT_MPU_INT_Init) refers to stm32f10x_gpio.o(i.GPIO_PinRemapConfig) for GPIO_PinRemapConfig
    exit.o(i.EXIT_MPU_INT_Init) refers to stm32f10x_rcc.o(i.RCC_APB2PeriphClockCmd) for RCC_APB2PeriphClockCmd
    exit.o(i.EXIT_MPU_INT_Init) refers to stm32f10x_gpio.o(i.GPIO_Init) for GPIO_Init
    exit.o(i.EXIT_MPU_INT_Init) refers to stm32f10x_exti.o(i.EXTI_Init) for EXTI_Init
==============================================================================

Removing Unused input sections from the image.

    Removing sys.o(.emb_text), (6 bytes).
    Removing sys.o(i.INTX_DISABLE), (4 bytes).
    Removing sys.o(i.INTX_ENABLE), (4 bytes).
    Removing sys.o(i.WFI_SET), (4 bytes).
    Removing exit.o(i.JTAG_Set), (48 bytes).
    Removing oled.o(i.OLED_Display_Off), (28 bytes).
    Removing oled.o(i.OLED_Display_On), (28 bytes).
    Removing oled.o(i.OLED_DrawBMP), (118 bytes).
    Removing oled.o(i.OLED_DrawBitmap), (120 bytes).
    Removing oled.o(i.OLED_DrawPoint), (78 bytes).
    Removing oled.o(i.OLED_DrawnullPoint), (24 bytes).
    Removing oled.o(i.OLED_On), (62 bytes).
    Removing oled.o(i.OLED_ShowCHinese), (112 bytes).
    Removing oled.o(i.OLED_Showsign), (86 bytes).
    Removing oled.o(i.fill_picture), (64 bytes).
    Removing oled.o(.data), (3080 bytes).
    Removing timer.o(i.TIM1_IRQHandler), (44 bytes).
    Removing utils.o(i.constrain), (22 bytes).
==============================================================================

Image Symbol Table

    Local Symbols

    Symbol Name                              Value     Ov Type        Size  Object(Section)

    ../clib/../cmprslib/zerorunl2.c          0x00000000   Number         0  __dczerorl2.o ABSOLUTE
    ../clib/microlib/division.c              0x00000000   Number         0  ldiv.o ABSOLUTE
    ../clib/microlib/division.c              0x00000000   Number         0  uidiv.o ABSOLUTE
    ../clib/microlib/division.c              0x00000000   Number         0  uldiv.o ABSOLUTE
    ../clib/microlib/errno.c                 0x00000000   Number         0  errno.o ABSOLUTE
    ../clib/microlib/init/entry.s            0x00000000   Number         0  entry11a.o ABSOLUTE
    ../clib/microlib/init/entry.s            0x00000000   Number         0  entry10b.o ABSOLUTE
    ../clib/microlib/init/entry.s            0x00000000   Number         0  entry10a.o ABSOLUTE
    ../clib/microlib/init/entry.s            0x00000000   Number         0  entry9b.o ABSOLUTE
    ../clib/microlib/init/entry.s            0x00000000   Number         0  entry9a.o ABSOLUTE
    ../clib/microlib/init/entry.s            0x00000000   Number         0  entry7b.o ABSOLUTE
    ../clib/microlib/init/entry.s            0x00000000   Number         0  entry2.o ABSOLUTE
    ../clib/microlib/init/entry.s            0x00000000   Number         0  entry8b.o ABSOLUTE
    ../clib/microlib/init/entry.s            0x00000000   Number         0  entry8a.o ABSOLUTE
    ../clib/microlib/init/entry.s            0x00000000   Number         0  entry5.o ABSOLUTE
    ../clib/microlib/init/entry.s            0x00000000   Number         0  entry.o ABSOLUTE
    ../clib/microlib/init/entry.s            0x00000000   Number         0  entry7a.o ABSOLUTE
    ../clib/microlib/init/entry.s            0x00000000   Number         0  entry11b.o ABSOLUTE
    ../clib/microlib/longlong.c              0x00000000   Number         0  llsshr.o ABSOLUTE
    ../clib/microlib/longlong.c              0x00000000   Number         0  llshl.o ABSOLUTE
    ../clib/microlib/longlong.c              0x00000000   Number         0  llushr.o ABSOLUTE
    ../clib/microlib/printf/printf.c         0x00000000   Number         0  printf7.o ABSOLUTE
    ../clib/microlib/printf/printf.c         0x00000000   Number         0  printf8.o ABSOLUTE
    ../clib/microlib/printf/printf.c         0x00000000   Number         0  printfa.o ABSOLUTE
    ../clib/microlib/printf/printf.c         0x00000000   Number         0  printf1.o ABSOLUTE
    ../clib/microlib/printf/printf.c         0x00000000   Number         0  printfb.o ABSOLUTE
    ../clib/microlib/printf/printf.c         0x00000000   Number         0  printf0.o ABSOLUTE
    ../clib/microlib/printf/printf.c         0x00000000   Number         0  printf2.o ABSOLUTE
    ../clib/microlib/printf/printf.c         0x00000000   Number         0  printf3.o ABSOLUTE
    ../clib/microlib/printf/printf.c         0x00000000   Number         0  printf4.o ABSOLUTE
    ../clib/microlib/printf/printf.c         0x00000000   Number         0  printf5.o ABSOLUTE
    ../clib/microlib/printf/printf.c         0x00000000   Number         0  printf6.o ABSOLUTE
    ../clib/microlib/string/memcmp.c         0x00000000   Number         0  memcmp.o ABSOLUTE
    ../clib/microlib/string/memcpy.c         0x00000000   Number         0  memcpyb.o ABSOLUTE
    ../clib/microlib/string/memcpy.c         0x00000000   Number         0  memcpya.o ABSOLUTE
    ../clib/microlib/string/memset.c         0x00000000   Number         0  memseta.o ABSOLUTE
    ../clib/microlib/string/strlen.c         0x00000000   Number         0  strlen.o ABSOLUTE
    ../clib/microlib/string/strstr.c         0x00000000   Number         0  strstr.o ABSOLUTE
    ../clib/microlib/stubs.s                 0x00000000   Number         0  useno.o ABSOLUTE
    ../clib/microlib/stubs.s                 0x00000000   Number         0  iusefp.o ABSOLUTE
    ../fplib/microlib/d2f.c                  0x00000000   Number         0  d2f.o ABSOLUTE
    ../fplib/microlib/f2d.c                  0x00000000   Number         0  f2d.o ABSOLUTE
    ../fplib/microlib/fpadd.c                0x00000000   Number         0  fadd.o ABSOLUTE
    ../fplib/microlib/fpadd.c                0x00000000   Number         0  dadd.o ABSOLUTE
    ../fplib/microlib/fpdiv.c                0x00000000   Number         0  fdiv.o ABSOLUTE
    ../fplib/microlib/fpdiv.c                0x00000000   Number         0  ddiv.o ABSOLUTE
    ../fplib/microlib/fpepilogue.c           0x00000000   Number         0  depilogue.o ABSOLUTE
    ../fplib/microlib/fpepilogue.c           0x00000000   Number         0  fepilogue.o ABSOLUTE
    ../fplib/microlib/fpfix.c                0x00000000   Number         0  dfixui.o ABSOLUTE
    ../fplib/microlib/fpfix.c                0x00000000   Number         0  ffixui.o ABSOLUTE
    ../fplib/microlib/fpfix.c                0x00000000   Number         0  ffixir.o ABSOLUTE
    ../fplib/microlib/fpfix.c                0x00000000   Number         0  dfixul.o ABSOLUTE
    ../fplib/microlib/fpfix.c                0x00000000   Number         0  dfixi.o ABSOLUTE
    ../fplib/microlib/fpfix.c                0x00000000   Number         0  ffixi.o ABSOLUTE
    ../fplib/microlib/fpflt.c                0x00000000   Number         0  fflti.o ABSOLUTE
    ../fplib/microlib/fpflt.c                0x00000000   Number         0  ffltui.o ABSOLUTE
    ../fplib/microlib/fpflt.c                0x00000000   Number         0  dflti.o ABSOLUTE
    ../fplib/microlib/fpflt.c                0x00000000   Number         0  dfltui.o ABSOLUTE
    ../fplib/microlib/fpflt.c                0x00000000   Number         0  ffltl.o ABSOLUTE
    ../fplib/microlib/fpmul.c                0x00000000   Number         0  dmul.o ABSOLUTE
    ../fplib/microlib/fpmul.c                0x00000000   Number         0  fmul.o ABSOLUTE
    ../fplib/microlib/fprnd.c                0x00000000   Number         0  frnd.o ABSOLUTE
    ../fplib/microlib/fpscalb.c              0x00000000   Number         0  dscalb.o ABSOLUTE
    ../fplib/microlib/fpscalb.c              0x00000000   Number         0  fscalb.o ABSOLUTE
    ../fplib/microlib/fpsqrt.c               0x00000000   Number         0  dsqrt.o ABSOLUTE
    ../fplib/microlib/fpstat.c               0x00000000   Number         0  fpstat.o ABSOLUTE
    ../mathlib/asin.c                        0x00000000   Number         0  asin_x.o ABSOLUTE
    ../mathlib/asin.c                        0x00000000   Number         0  asin.o ABSOLUTE
    ../mathlib/atan.c                        0x00000000   Number         0  atan.o ABSOLUTE
    ../mathlib/atan.c                        0x00000000   Number         0  atan_x.o ABSOLUTE
    ../mathlib/atan2.c                       0x00000000   Number         0  atan2.o ABSOLUTE
    ../mathlib/atan2.c                       0x00000000   Number         0  atan2_x.o ABSOLUTE
    ../mathlib/cos.c                         0x00000000   Number         0  cos_x.o ABSOLUTE
    ../mathlib/cos.c                         0x00000000   Number         0  cos.o ABSOLUTE
    ../mathlib/cos_i.c                       0x00000000   Number         0  cos_i.o ABSOLUTE
    ../mathlib/cosf.c                        0x00000000   Number         0  cosf_x.o ABSOLUTE
    ../mathlib/cosf.c                        0x00000000   Number         0  cosf.o ABSOLUTE
    ../mathlib/dunder.c                      0x00000000   Number         0  dunder.o ABSOLUTE
    ../mathlib/fpclassify.c                  0x00000000   Number         0  fpclassify.o ABSOLUTE
    ../mathlib/fpclassifyf.c                 0x00000000   Number         0  fpclassifyf.o ABSOLUTE
    ../mathlib/funder.c                      0x00000000   Number         0  funder.o ABSOLUTE
    ../mathlib/log.c                         0x00000000   Number         0  log_x.o ABSOLUTE
    ../mathlib/log.c                         0x00000000   Number         0  log.o ABSOLUTE
    ../mathlib/lrint.c                       0x00000000   Number         0  lrintf_x.o ABSOLUTE
    ../mathlib/lrint.c                       0x00000000   Number         0  lrintf.o ABSOLUTE
    ../mathlib/poly.c                        0x00000000   Number         0  poly.o ABSOLUTE
    ../mathlib/pow.c                         0x00000000   Number         0  pow.o ABSOLUTE
    ../mathlib/pow.c                         0x00000000   Number         0  pow_x.o ABSOLUTE
    ../mathlib/powf.c                        0x00000000   Number         0  powf.o ABSOLUTE
    ../mathlib/powf.c                        0x00000000   Number         0  powf_x.o ABSOLUTE
    ../mathlib/qnan.c                        0x00000000   Number         0  qnan.o ABSOLUTE
    ../mathlib/rred.c                        0x00000000   Number         0  rred.o ABSOLUTE
    ../mathlib/rredf.c                       0x00000000   Number         0  rredf.o ABSOLUTE
    ../mathlib/sin.c                         0x00000000   Number         0  sin.o ABSOLUTE
    ../mathlib/sin.c                         0x00000000   Number         0  sin_x.o ABSOLUTE
    ../mathlib/sin_i.c                       0x00000000   Number         0  sin_i_x.o ABSOLUTE
    ../mathlib/sin_i.c                       0x00000000   Number         0  sin_i.o ABSOLUTE
    ../mathlib/sinf.c                        0x00000000   Number         0  sinf.o ABSOLUTE
    ../mathlib/sinf.c                        0x00000000   Number         0  sinf_x.o ABSOLUTE
    ../mathlib/sqrt.c                        0x00000000   Number         0  sqrt_x.o ABSOLUTE
    ../mathlib/sqrt.c                        0x00000000   Number         0  sqrt.o ABSOLUTE
    ../mathlib/tanf.c                        0x00000000   Number         0  tanf_x.o ABSOLUTE
    ../mathlib/tanf.c                        0x00000000   Number         0  tanf.o ABSOLUTE
    ..\CM3\core_cm3.c                        0x00000000   Number         0  core_cm3.o ABSOLUTE
    ..\CM3\startup_stm32f10x_md.s            0x00000000   Number         0  startup_stm32f10x_md.o ABSOLUTE
    ..\CM3\system_stm32f10x.c                0x00000000   Number         0  system_stm32f10x.o ABSOLUTE
    ..\Libraries\misc.c                      0x00000000   Number         0  misc.o ABSOLUTE
    ..\Libraries\stm32f10x_adc.c             0x00000000   Number         0  stm32f10x_adc.o ABSOLUTE
    ..\Libraries\stm32f10x_bkp.c             0x00000000   Number         0  stm32f10x_bkp.o ABSOLUTE
    ..\Libraries\stm32f10x_can.c             0x00000000   Number         0  stm32f10x_can.o ABSOLUTE
    ..\Libraries\stm32f10x_cec.c             0x00000000   Number         0  stm32f10x_cec.o ABSOLUTE
    ..\Libraries\stm32f10x_crc.c             0x00000000   Number         0  stm32f10x_crc.o ABSOLUTE
    ..\Libraries\stm32f10x_dac.c             0x00000000   Number         0  stm32f10x_dac.o ABSOLUTE
    ..\Libraries\stm32f10x_dbgmcu.c          0x00000000   Number         0  stm32f10x_dbgmcu.o ABSOLUTE
    ..\Libraries\stm32f10x_dma.c             0x00000000   Number         0  stm32f10x_dma.o ABSOLUTE
    ..\Libraries\stm32f10x_exti.c            0x00000000   Number         0  stm32f10x_exti.o ABSOLUTE
    ..\Libraries\stm32f10x_flash.c           0x00000000   Number         0  stm32f10x_flash.o ABSOLUTE
    ..\Libraries\stm32f10x_fsmc.c            0x00000000   Number         0  stm32f10x_fsmc.o ABSOLUTE
    ..\Libraries\stm32f10x_gpio.c            0x00000000   Number         0  stm32f10x_gpio.o ABSOLUTE
    ..\Libraries\stm32f10x_i2c.c             0x00000000   Number         0  stm32f10x_i2c.o ABSOLUTE
    ..\Libraries\stm32f10x_iwdg.c            0x00000000   Number         0  stm32f10x_iwdg.o ABSOLUTE
    ..\Libraries\stm32f10x_pwr.c             0x00000000   Number         0  stm32f10x_pwr.o ABSOLUTE
    ..\Libraries\stm32f10x_rcc.c             0x00000000   Number         0  stm32f10x_rcc.o ABSOLUTE
    ..\Libraries\stm32f10x_rtc.c             0x00000000   Number         0  stm32f10x_rtc.o ABSOLUTE
    ..\Libraries\stm32f10x_sdio.c            0x00000000   Number         0  stm32f10x_sdio.o ABSOLUTE
    ..\Libraries\stm32f10x_spi.c             0x00000000   Number         0  stm32f10x_spi.o ABSOLUTE
    ..\Libraries\stm32f10x_tim.c             0x00000000   Number         0  stm32f10x_tim.o ABSOLUTE
    ..\Libraries\stm32f10x_usart.c           0x00000000   Number         0  stm32f10x_usart.o ABSOLUTE
    ..\Libraries\stm32f10x_wwdg.c            0x00000000   Number         0  stm32f10x_wwdg.o ABSOLUTE
    ..\MYLIB\AK8975.c                        0x00000000   Number         0  ak8975.o ABSOLUTE
    ..\MYLIB\AK8975IIC.c                     0x00000000   Number         0  ak8975iic.o ABSOLUTE
    ..\MYLIB\MS5611.c                        0x00000000   Number         0  ms5611.o ABSOLUTE
    ..\MYLIB\MS5611iic.c                     0x00000000   Number         0  ms5611iic.o ABSOLUTE
    ..\MYLIB\Moto.c                          0x00000000   Number         0  moto.o ABSOLUTE
    ..\MYLIB\Serial_oscilloscope.c           0x00000000   Number         0  serial_oscilloscope.o ABSOLUTE
    ..\MYLIB\beep.c                          0x00000000   Number         0  beep.o ABSOLUTE
    ..\MYLIB\control.c                       0x00000000   Number         0  control.o ABSOLUTE
    ..\MYLIB\delay.c                         0x00000000   Number         0  delay.o ABSOLUTE
    ..\MYLIB\exit.c                          0x00000000   Number         0  exit.o ABSOLUTE
    ..\MYLIB\flash.c                         0x00000000   Number         0  flash.o ABSOLUTE
    ..\MYLIB\gps.c                           0x00000000   Number         0  gps.o ABSOLUTE
    ..\MYLIB\imu.c                           0x00000000   Number         0  imu.o ABSOLUTE
    ..\MYLIB\inv_mpu.c                       0x00000000   Number         0  inv_mpu.o ABSOLUTE
    ..\MYLIB\inv_mpu_dmp_motion_driver.c     0x00000000   Number         0  inv_mpu_dmp_motion_driver.o ABSOLUTE
    ..\MYLIB\led.c                           0x00000000   Number         0  led.o ABSOLUTE
    ..\MYLIB\mpu9250.c                       0x00000000   Number         0  mpu9250.o ABSOLUTE
    ..\MYLIB\mpuiic.c                        0x00000000   Number         0  mpuiic.o ABSOLUTE
    ..\MYLIB\oled.c                          0x00000000   Number         0  oled.o ABSOLUTE
    ..\MYLIB\paramsave.c                     0x00000000   Number         0  paramsave.o ABSOLUTE
    ..\MYLIB\sys.c                           0x00000000   Number         0  sys.o ABSOLUTE
    ..\MYLIB\timer.c                         0x00000000   Number         0  timer.o ABSOLUTE
    ..\MYLIB\usart1.c                        0x00000000   Number         0  usart1.o ABSOLUTE
    ..\MYLIB\usart3.C                        0x00000000   Number         0  usart3.o ABSOLUTE
    ..\MYLIB\utils.c                         0x00000000   Number         0  utils.o ABSOLUTE
    ..\User\main.c                           0x00000000   Number         0  main.o ABSOLUTE
    ..\User\stm32f10x_it.c                   0x00000000   Number         0  stm32f10x_it.o ABSOLUTE
    ..\\CM3\\core_cm3.c                      0x00000000   Number         0  core_cm3.o ABSOLUTE
    ..\\MYLIB\\sys.c                         0x00000000   Number         0  sys.o ABSOLUTE
    cdcmple.s                                0x00000000   Number         0  cdcmple.o ABSOLUTE
    cdrcmple.s                               0x00000000   Number         0  cdrcmple.o ABSOLUTE
    cfcmple.s                                0x00000000   Number         0  cfcmple.o ABSOLUTE
    cfrcmple.s                               0x00000000   Number         0  cfrcmple.o ABSOLUTE
    dc.s                                     0x00000000   Number         0  dc.o ABSOLUTE
    handlers.s                               0x00000000   Number         0  handlers.o ABSOLUTE
    init.s                                   0x00000000   Number         0  init.o ABSOLUTE
    RESET                                    0x08000000   Section      236  startup_stm32f10x_md.o(RESET)
    .ARM.Collect$$$$00000000                 0x080000ec   Section        0  entry.o(.ARM.Collect$$$$00000000)
    .ARM.Collect$$$$00000001                 0x080000ec   Section        4  entry2.o(.ARM.Collect$$$$00000001)
    .ARM.Collect$$$$00000004                 0x080000f0   Section        4  entry5.o(.ARM.Collect$$$$00000004)
    .ARM.Collect$$$$00000008                 0x080000f4   Section        0  entry7b.o(.ARM.Collect$$$$00000008)
    .ARM.Collect$$$$0000000A                 0x080000f4   Section        0  entry8b.o(.ARM.Collect$$$$0000000A)
    .ARM.Collect$$$$0000000B                 0x080000f4   Section        8  entry9a.o(.ARM.Collect$$$$0000000B)
    .ARM.Collect$$$$0000000D                 0x080000fc   Section        0  entry10a.o(.ARM.Collect$$$$0000000D)
    .ARM.Collect$$$$0000000F                 0x080000fc   Section        0  entry11a.o(.ARM.Collect$$$$0000000F)
    .ARM.Collect$$$$00002712                 0x080000fc   Section        4  entry2.o(.ARM.Collect$$$$00002712)
    __lit__00000000                          0x080000fc   Data           4  entry2.o(.ARM.Collect$$$$00002712)
    .text                                    0x08000100   Section       36  startup_stm32f10x_md.o(.text)
    .text                                    0x08000124   Section        0  memcpya.o(.text)
    .text                                    0x08000148   Section        0  memseta.o(.text)
    .text                                    0x0800016c   Section        0  strstr.o(.text)
    .text                                    0x08000190   Section        0  strlen.o(.text)
    .text                                    0x0800019e   Section        0  memcmp.o(.text)
    .text                                    0x080001b8   Section        0  fadd.o(.text)
    .text                                    0x08000268   Section        0  fmul.o(.text)
    .text                                    0x080002cc   Section        0  fdiv.o(.text)
    .text                                    0x08000348   Section        0  dadd.o(.text)
    .text                                    0x08000496   Section        0  dmul.o(.text)
    .text                                    0x0800057a   Section        0  ddiv.o(.text)
    .text                                    0x08000658   Section        0  fflti.o(.text)
    .text                                    0x0800066a   Section        0  ffltui.o(.text)
    .text                                    0x08000674   Section        0  ffltl.o(.text)
    .text                                    0x080006a0   Section        0  dflti.o(.text)
    .text                                    0x080006c2   Section        0  dfltui.o(.text)
    .text                                    0x080006dc   Section        0  ffixi.o(.text)
    .text                                    0x0800070e   Section        0  ffixui.o(.text)
    .text                                    0x08000736   Section        0  dfixui.o(.text)
    .text                                    0x08000768   Section        0  f2d.o(.text)
    .text                                    0x08000790   Section       48  cdcmple.o(.text)
    .text                                    0x080007c0   Section       48  cdrcmple.o(.text)
    .text                                    0x080007f0   Section        0  d2f.o(.text)
    .text                                    0x08000828   Section       20  cfcmple.o(.text)
    .text                                    0x0800083c   Section       20  cfrcmple.o(.text)
    .text                                    0x08000850   Section        0  uidiv.o(.text)
    .text                                    0x0800087c   Section        0  uldiv.o(.text)
    .text                                    0x080008de   Section        0  llshl.o(.text)
    .text                                    0x080008fc   Section        0  llushr.o(.text)
    .text                                    0x0800091c   Section        0  llsshr.o(.text)
    .text                                    0x08000940   Section        0  iusefp.o(.text)
    .text                                    0x08000940   Section        0  fepilogue.o(.text)
    .text                                    0x080009ae   Section        0  fscalb.o(.text)
    .text                                    0x080009c6   Section        0  frnd.o(.text)
    .text                                    0x08000a02   Section        0  depilogue.o(.text)
    .text                                    0x08000abc   Section        0  dscalb.o(.text)
    .text                                    0x08000aea   Section        0  dsqrt.o(.text)
    .text                                    0x08000b8c   Section        0  dfixul.o(.text)
    .text                                    0x08000bbc   Section        0  ffixir.o(.text)
    .text                                    0x08000c08   Section        0  fpstat.o(.text)
    .text                                    0x08000c0c   Section       36  init.o(.text)
    .text                                    0x08000c30   Section        0  dfixi.o(.text)
    .text                                    0x08000c6e   Section        0  __dczerorl2.o(.text)
    i.AK8975Init                             0x08000cc4   Section        0  ak8975.o(i.AK8975Init)
    i.AK8975Read                             0x08000d84   Section        0  ak8975.o(i.AK8975Read)
    i.AK8975_IIC_Ack                         0x08000e50   Section        0  ak8975iic.o(i.AK8975_IIC_Ack)
    i.AK8975_IIC_Init                        0x08000ea0   Section        0  ak8975iic.o(i.AK8975_IIC_Init)
    i.AK8975_IIC_NAck                        0x08000ee0   Section        0  ak8975iic.o(i.AK8975_IIC_NAck)
    i.AK8975_IIC_ReadByte                    0x08000f2c   Section        0  ak8975iic.o(i.AK8975_IIC_ReadByte)
    i.AK8975_IIC_ReadByteFromSlave           0x08000f9c   Section        0  ak8975iic.o(i.AK8975_IIC_ReadByteFromSlave)
    i.AK8975_IIC_ReadMultByteFromSlave       0x08000fe6   Section        0  ak8975iic.o(i.AK8975_IIC_ReadMultByteFromSlave)
    i.AK8975_IIC_SendByte                    0x08001058   Section        0  ak8975iic.o(i.AK8975_IIC_SendByte)
    i.AK8975_IIC_Start                       0x080010bc   Section        0  ak8975iic.o(i.AK8975_IIC_Start)
    i.AK8975_IIC_Stop                        0x08001108   Section        0  ak8975iic.o(i.AK8975_IIC_Stop)
    i.AK8975_IIC_WaitAck                     0x08001154   Section        0  ak8975iic.o(i.AK8975_IIC_WaitAck)
    i.AK8975_IIC_WriteByteToSlave            0x080011b8   Section        0  ak8975iic.o(i.AK8975_IIC_WriteByteToSlave)
    i.ANO_DT_Data_Exchange                   0x08001200   Section        0  serial_oscilloscope.o(i.ANO_DT_Data_Exchange)
    i.ANO_DT_Data_Receive_Anl                0x08001718   Section        0  serial_oscilloscope.o(i.ANO_DT_Data_Receive_Anl)
    i.ANO_DT_Data_Receive_Prepare            0x08001e7c   Section        0  serial_oscilloscope.o(i.ANO_DT_Data_Receive_Prepare)
    i.ANO_DT_Send_Check                      0x08001f68   Section        0  serial_oscilloscope.o(i.ANO_DT_Send_Check)
    ANO_DT_Send_Check                        0x08001f69   Thumb Code    66  serial_oscilloscope.o(i.ANO_DT_Send_Check)
    i.ANO_DT_Send_Data                       0x08001fb0   Section        0  serial_oscilloscope.o(i.ANO_DT_Send_Data)
    i.ANO_DT_Send_MotoPWM                    0x08001ff4   Section        0  serial_oscilloscope.o(i.ANO_DT_Send_MotoPWM)
    i.ANO_DT_Send_PID                        0x08002120   Section        0  serial_oscilloscope.o(i.ANO_DT_Send_PID)
    i.ANO_DT_Send_RCData                     0x080022e0   Section        0  serial_oscilloscope.o(i.ANO_DT_Send_RCData)
    i.ANO_DT_Send_Senser                     0x08002444   Section        0  serial_oscilloscope.o(i.ANO_DT_Send_Senser)
    i.ANO_DT_Send_Status                     0x080025c0   Section        0  serial_oscilloscope.o(i.ANO_DT_Send_Status)
    i.BEEP_Init                              0x08002708   Section        0  beep.o(i.BEEP_Init)
    i.BSP_Init                               0x08002740   Section        0  control.o(i.BSP_Init)
    i.Baro_Common                            0x0800278c   Section        0  ms5611.o(i.Baro_Common)
    i.Baro_init                              0x080027d8   Section        0  ms5611.o(i.Baro_init)
    i.Baro_update                            0x08002840   Section        0  ms5611.o(i.Baro_update)
    i.BusFault_Handler                       0x08002878   Section        0  stm32f10x_it.o(i.BusFault_Handler)
    i.Butterworth_Parameter_Init             0x0800287c   Section        0  control.o(i.Butterworth_Parameter_Init)
    i.Control                                0x08002898   Section        0  control.o(i.Control)
    i.Control_Device_LPF                     0x08002b48   Section        0  control.o(i.Control_Device_LPF)
    i.Deal_Remote_date                       0x08002bbc   Section        0  control.o(i.Deal_Remote_date)
    i.DebugMon_Handler                       0x08002bfa   Section        0  stm32f10x_it.o(i.DebugMon_Handler)
    i.DefaultParams                          0x08002bfc   Section        0  paramsave.o(i.DefaultParams)
    i.DefaultParams_WriteFlash               0x08002c9c   Section        0  paramsave.o(i.DefaultParams_WriteFlash)
    i.EXIT_MPU_INT_Init                      0x08002cd8   Section        0  exit.o(i.EXIT_MPU_INT_Init)
    i.EXTI15_10_IRQHandler                   0x08002d6c   Section        0  exit.o(i.EXTI15_10_IRQHandler)
    i.EXTI_ClearITPendingBit                 0x08002da4   Section        0  stm32f10x_exti.o(i.EXTI_ClearITPendingBit)
    i.EXTI_GetITStatus                       0x08002db0   Section        0  stm32f10x_exti.o(i.EXTI_GetITStatus)
    i.EXTI_Init                              0x08002dd8   Section        0  stm32f10x_exti.o(i.EXTI_Init)
    i.FLASH_ErasePage                        0x08002e6c   Section        0  stm32f10x_flash.o(i.FLASH_ErasePage)
    i.FLASH_GetBank1Status                   0x08002eb8   Section        0  stm32f10x_flash.o(i.FLASH_GetBank1Status)
    i.FLASH_Lock                             0x08002eec   Section        0  stm32f10x_flash.o(i.FLASH_Lock)
    i.FLASH_ProgramWord                      0x08002f00   Section        0  stm32f10x_flash.o(i.FLASH_ProgramWord)
    i.FLASH_Unlock                           0x08002f6c   Section        0  stm32f10x_flash.o(i.FLASH_Unlock)
    i.FLASH_WaitForLastOperation             0x08002f84   Section        0  stm32f10x_flash.o(i.FLASH_WaitForLastOperation)
    i.FLY_Start                              0x08002fac   Section        0  control.o(i.FLY_Start)
    i.Fly_Protect                            0x08003114   Section        0  control.o(i.Fly_Protect)
    i.Fly_control                            0x08003126   Section        0  control.o(i.Fly_control)
    i.GPIO_EXTILineConfig                    0x08003204   Section        0  stm32f10x_gpio.o(i.GPIO_EXTILineConfig)
    i.GPIO_Init                              0x08003244   Section        0  stm32f10x_gpio.o(i.GPIO_Init)
    i.GPIO_PinRemapConfig                    0x0800335c   Section        0  stm32f10x_gpio.o(i.GPIO_PinRemapConfig)
    i.GPIO_ResetBits                         0x080033ec   Section        0  stm32f10x_gpio.o(i.GPIO_ResetBits)
    i.GPIO_SetBits                           0x080033f0   Section        0  stm32f10x_gpio.o(i.GPIO_SetBits)
    i.GPS_Analysis                           0x080033f4   Section        0  gps.o(i.GPS_Analysis)
    i.GPS_Check                              0x08003418   Section        0  gps.o(i.GPS_Check)
    i.GPS_Data_Receive_Prepare               0x08003464   Section        0  gps.o(i.GPS_Data_Receive_Prepare)
    i.GPS_Init                               0x0800354c   Section        0  gps.o(i.GPS_Init)
    i.GPS_xy                                 0x08003628   Section        0  gps.o(i.GPS_xy)
    i.HardFault_Handler                      0x080038d4   Section        0  stm32f10x_it.o(i.HardFault_Handler)
    i.High_Control                           0x080038d8   Section        0  control.o(i.High_Control)
    i.IMUupdate                              0x08003904   Section        0  imu.o(i.IMUupdate)
    i.LED_Init                               0x08003e10   Section        0  led.o(i.LED_Init)
    i.LPButter_BaroAlt                       0x08003e48   Section        0  ms5611.o(i.LPButter_BaroAlt)
    i.Led_Task                               0x08003ef0   Section        0  led.o(i.Led_Task)
    i.MOTO1_SetPulse                         0x08003fd8   Section        0  moto.o(i.MOTO1_SetPulse)
    i.MOTO2_SetPulse                         0x08003fec   Section        0  moto.o(i.MOTO2_SetPulse)
    i.MOTO3_SetPulse                         0x08004000   Section        0  moto.o(i.MOTO3_SetPulse)
    i.MOTO4_SetPulse                         0x08004014   Section        0  moto.o(i.MOTO4_SetPulse)
    i.MPU9250_Init                           0x08004028   Section        0  mpu9250.o(i.MPU9250_Init)
    i.MPU_IIC_Ack                            0x08004110   Section        0  mpuiic.o(i.MPU_IIC_Ack)
    i.MPU_IIC_Init                           0x08004160   Section        0  mpuiic.o(i.MPU_IIC_Init)
    i.MPU_IIC_NAck                           0x080041a0   Section        0  mpuiic.o(i.MPU_IIC_NAck)
    i.MPU_IIC_ReadByte                       0x080041ec   Section        0  mpuiic.o(i.MPU_IIC_ReadByte)
    i.MPU_IIC_ReadMultByteFromSlave          0x0800425c   Section        0  mpuiic.o(i.MPU_IIC_ReadMultByteFromSlave)
    i.MPU_IIC_SendByte                       0x080042d0   Section        0  mpuiic.o(i.MPU_IIC_SendByte)
    i.MPU_IIC_Start                          0x08004334   Section        0  mpuiic.o(i.MPU_IIC_Start)
    i.MPU_IIC_Stop                           0x08004380   Section        0  mpuiic.o(i.MPU_IIC_Stop)
    i.MPU_IIC_WaitAck                        0x080043cc   Section        0  mpuiic.o(i.MPU_IIC_WaitAck)
    i.MPU_IIC_WriteMultByteToSlave           0x08004430   Section        0  mpuiic.o(i.MPU_IIC_WriteMultByteToSlave)
    i.MS5611_IIC_Init                        0x0800448c   Section        0  ms5611iic.o(i.MS5611_IIC_Init)
    i.MS5611_StateMachine                    0x080044b8   Section        0  ms5611.o(i.MS5611_StateMachine)
    i.Mahony_Filter                          0x08004538   Section        0  ms5611.o(i.Mahony_Filter)
    i.MemManage_Handler                      0x08004594   Section        0  stm32f10x_it.o(i.MemManage_Handler)
    i.Missing_Check                          0x08004598   Section        0  control.o(i.Missing_Check)
    i.Mode_select                            0x080045e8   Section        0  control.o(i.Mode_select)
    i.NMEA_Comma_Pos                         0x080046d2   Section        0  gps.o(i.NMEA_Comma_Pos)
    i.NMEA_GNRMC_Analysis                    0x08004704   Section        0  gps.o(i.NMEA_GNRMC_Analysis)
    i.NMEA_GPGSV_Analysis                    0x08004878   Section        0  gps.o(i.NMEA_GPGSV_Analysis)
    i.NMEA_Pow                               0x080048b4   Section        0  gps.o(i.NMEA_Pow)
    i.NMEA_Str2num                           0x080048ca   Section        0  gps.o(i.NMEA_Str2num)
    i.NMI_Handler                            0x080049b4   Section        0  stm32f10x_it.o(i.NMI_Handler)
    i.NVIC_Init                              0x080049b8   Section        0  misc.o(i.NVIC_Init)
    i.NVIC_PriorityGroupConfig               0x08004a28   Section        0  misc.o(i.NVIC_PriorityGroupConfig)
    i.OLED_Clear                             0x08004a3c   Section        0  oled.o(i.OLED_Clear)
    i.OLED_Clear_data                        0x08004a7a   Section        0  oled.o(i.OLED_Clear_data)
    i.OLED_FloatNumber                       0x08004ab8   Section        0  oled.o(i.OLED_FloatNumber)
    i.OLED_IIC_Start                         0x08004bcc   Section        0  oled.o(i.OLED_IIC_Start)
    i.OLED_IIC_Stop                          0x08004bf4   Section        0  oled.o(i.OLED_IIC_Stop)
    i.OLED_IIC_Wait_Ack                      0x08004c14   Section        0  oled.o(i.OLED_IIC_Wait_Ack)
    i.OLED_Init                              0x08004c2c   Section        0  oled.o(i.OLED_Init)
    i.OLED_SHOW                              0x08004d58   Section        0  oled.o(i.OLED_SHOW)
    i.OLED_Set_Pos                           0x08004f14   Section        0  oled.o(i.OLED_Set_Pos)
    i.OLED_ShowChar                          0x08004f3c   Section        0  oled.o(i.OLED_ShowChar)
    i.OLED_ShowNum                           0x08004fe0   Section        0  oled.o(i.OLED_ShowNum)
    i.OLED_ShowString                        0x08005076   Section        0  oled.o(i.OLED_ShowString)
    i.OLED_WR_Byte                           0x080050b0   Section        0  oled.o(i.OLED_WR_Byte)
    i.PID_Data_Init                          0x080050c8   Section        0  control.o(i.PID_Data_Init)
    i.PID_Gyro_Cal                           0x08005204   Section        0  control.o(i.PID_Gyro_Cal)
    i.PID_Integrate_Reset                    0x080053e8   Section        0  control.o(i.PID_Integrate_Reset)
    i.PID_LPF_Reset                          0x08005410   Section        0  control.o(i.PID_LPF_Reset)
    i.PID_Postion_Cal                        0x0800545c   Section        0  control.o(i.PID_Postion_Cal)
    i.PID_ReadFlash                          0x08005540   Section        0  paramsave.o(i.PID_ReadFlash)
    i.PID_WriteFlash                         0x080055a8   Section        0  paramsave.o(i.PID_WriteFlash)
    i.PWM_PPM_TIM_Init                       0x080055e8   Section        0  timer.o(i.PWM_PPM_TIM_Init)
    i.Parameter_init                         0x08005648   Section        0  control.o(i.Parameter_init)
    i.ParamsToTable                          0x080056e8   Section        0  paramsave.o(i.ParamsToTable)
    i.Pose_Check                             0x08005920   Section        0  control.o(i.Pose_Check)
    i.Pose_Control                           0x08005988   Section        0  control.o(i.Pose_Control)
    i.Position_Control                       0x08005b04   Section        0  control.o(i.Position_Control)
    i.RCC_APB1PeriphClockCmd                 0x08005b3c   Section        0  stm32f10x_rcc.o(i.RCC_APB1PeriphClockCmd)
    i.RCC_APB1PeriphResetCmd                 0x08005b5c   Section        0  stm32f10x_rcc.o(i.RCC_APB1PeriphResetCmd)
    i.RCC_APB2PeriphClockCmd                 0x08005b7c   Section        0  stm32f10x_rcc.o(i.RCC_APB2PeriphClockCmd)
    i.RCC_APB2PeriphResetCmd                 0x08005b9c   Section        0  stm32f10x_rcc.o(i.RCC_APB2PeriphResetCmd)
    i.RCC_GetClocksFreq                      0x08005bbc   Section        0  stm32f10x_rcc.o(i.RCC_GetClocksFreq)
    i.Read_MS5611_Offset                     0x08005c90   Section        0  ms5611.o(i.Read_MS5611_Offset)
    i.STMFLASH_Read                          0x08005d18   Section        0  flash.o(i.STMFLASH_Read)
    i.STMFLASH_ReadWord                      0x08005d38   Section        0  flash.o(i.STMFLASH_ReadWord)
    i.STMFLASH_Write                         0x08005d40   Section        0  flash.o(i.STMFLASH_Write)
    i.SVC_Handler                            0x08005dc8   Section        0  stm32f10x_it.o(i.SVC_Handler)
    i.SetSysClock                            0x08005dca   Section        0  system_stm32f10x.o(i.SetSysClock)
    SetSysClock                              0x08005dcb   Thumb Code     8  system_stm32f10x.o(i.SetSysClock)
    i.SetSysClockTo72                        0x08005dd4   Section        0  system_stm32f10x.o(i.SetSysClockTo72)
    SetSysClockTo72                          0x08005dd5   Thumb Code   214  system_stm32f10x.o(i.SetSysClockTo72)
    i.Set_Cutoff_Frequency                   0x08005eb4   Section        0  control.o(i.Set_Cutoff_Frequency)
    i.Set_Pwm                                0x08005fcc   Section        0  control.o(i.Set_Pwm)
    i.Set_home_xy                            0x08006024   Section        0  gps.o(i.Set_home_xy)
    i.SysTick_CLKSourceConfig                0x08006078   Section        0  misc.o(i.SysTick_CLKSourceConfig)
    i.SystemInit                             0x080060a0   Section        0  system_stm32f10x.o(i.SystemInit)
    i.TI1_Config                             0x08006100   Section        0  stm32f10x_tim.o(i.TI1_Config)
    TI1_Config                               0x08006101   Thumb Code   108  stm32f10x_tim.o(i.TI1_Config)
    i.TI2_Config                             0x08006180   Section        0  stm32f10x_tim.o(i.TI2_Config)
    TI2_Config                               0x08006181   Thumb Code   130  stm32f10x_tim.o(i.TI2_Config)
    i.TI3_Config                             0x08006218   Section        0  stm32f10x_tim.o(i.TI3_Config)
    TI3_Config                               0x08006219   Thumb Code   122  stm32f10x_tim.o(i.TI3_Config)
    i.TI4_Config                             0x080062a8   Section        0  stm32f10x_tim.o(i.TI4_Config)
    TI4_Config                               0x080062a9   Thumb Code   130  stm32f10x_tim.o(i.TI4_Config)
    i.TIM2_IRQHandler                        0x08006340   Section        0  timer.o(i.TIM2_IRQHandler)
    i.TIM3_IRQHandler                        0x08006754   Section        0  timer.o(i.TIM3_IRQHandler)
    i.TIM4_IRQHandler                        0x08006864   Section        0  timer.o(i.TIM4_IRQHandler)
    i.TIM_ARRPreloadConfig                   0x08006978   Section        0  stm32f10x_tim.o(i.TIM_ARRPreloadConfig)
    i.TIM_ClearITPendingBit                  0x08006990   Section        0  stm32f10x_tim.o(i.TIM_ClearITPendingBit)
    i.TIM_Cmd                                0x08006996   Section        0  stm32f10x_tim.o(i.TIM_Cmd)
    i.TIM_CtrlPWMOutputs                     0x080069ae   Section        0  stm32f10x_tim.o(i.TIM_CtrlPWMOutputs)
    i.TIM_GetCapture1                        0x080069cc   Section        0  stm32f10x_tim.o(i.TIM_GetCapture1)
    i.TIM_GetCapture2                        0x080069d2   Section        0  stm32f10x_tim.o(i.TIM_GetCapture2)
    i.TIM_GetCapture3                        0x080069d8   Section        0  stm32f10x_tim.o(i.TIM_GetCapture3)
    i.TIM_GetCapture4                        0x080069de   Section        0  stm32f10x_tim.o(i.TIM_GetCapture4)
    i.TIM_GetITStatus                        0x080069e6   Section        0  stm32f10x_tim.o(i.TIM_GetITStatus)
    i.TIM_ICInit                             0x08006a08   Section        0  stm32f10x_tim.o(i.TIM_ICInit)
    i.TIM_ITConfig                           0x08006ab4   Section        0  stm32f10x_tim.o(i.TIM_ITConfig)
    i.TIM_Init                               0x08006ac8   Section        0  timer.o(i.TIM_Init)
    i.TIM_OC1Init                            0x08006b1c   Section        0  stm32f10x_tim.o(i.TIM_OC1Init)
    i.TIM_OC1PolarityConfig                  0x08006bb4   Section        0  stm32f10x_tim.o(i.TIM_OC1PolarityConfig)
    i.TIM_OC1PreloadConfig                   0x08006bc6   Section        0  stm32f10x_tim.o(i.TIM_OC1PreloadConfig)
    i.TIM_OC2Init                            0x08006bd8   Section        0  stm32f10x_tim.o(i.TIM_OC2Init)
    i.TIM_OC2PolarityConfig                  0x08006c7c   Section        0  stm32f10x_tim.o(i.TIM_OC2PolarityConfig)
    i.TIM_OC2PreloadConfig                   0x08006c96   Section        0  stm32f10x_tim.o(i.TIM_OC2PreloadConfig)
    i.TIM_OC3Init                            0x08006cb0   Section        0  stm32f10x_tim.o(i.TIM_OC3Init)
    i.TIM_OC3PolarityConfig                  0x08006d50   Section        0  stm32f10x_tim.o(i.TIM_OC3PolarityConfig)
    i.TIM_OC3PreloadConfig                   0x08006d6a   Section        0  stm32f10x_tim.o(i.TIM_OC3PreloadConfig)
    i.TIM_OC4Init                            0x08006d7c   Section        0  stm32f10x_tim.o(i.TIM_OC4Init)
    i.TIM_OC4PolarityConfig                  0x08006df8   Section        0  stm32f10x_tim.o(i.TIM_OC4PolarityConfig)
    i.TIM_OC4PreloadConfig                   0x08006e12   Section        0  stm32f10x_tim.o(i.TIM_OC4PreloadConfig)
    i.TIM_PPM_Init                           0x08006e2c   Section        0  timer.o(i.TIM_PPM_Init)
    i.TIM_PPWM_Init                          0x08006f40   Section        0  timer.o(i.TIM_PPWM_Init)
    i.TIM_PWM_Init                           0x08006fe8   Section        0  timer.o(i.TIM_PWM_Init)
    i.TIM_SetCompare1                        0x080070c4   Section        0  stm32f10x_tim.o(i.TIM_SetCompare1)
    i.TIM_SetCompare2                        0x080070c8   Section        0  stm32f10x_tim.o(i.TIM_SetCompare2)
    i.TIM_SetCompare3                        0x080070cc   Section        0  stm32f10x_tim.o(i.TIM_SetCompare3)
    i.TIM_SetCompare4                        0x080070d0   Section        0  stm32f10x_tim.o(i.TIM_SetCompare4)
    i.TIM_SetCounter                         0x080070d6   Section        0  stm32f10x_tim.o(i.TIM_SetCounter)
    i.TIM_SetIC1Prescaler                    0x080070da   Section        0  stm32f10x_tim.o(i.TIM_SetIC1Prescaler)
    i.TIM_SetIC2Prescaler                    0x080070ec   Section        0  stm32f10x_tim.o(i.TIM_SetIC2Prescaler)
    i.TIM_SetIC3Prescaler                    0x08007106   Section        0  stm32f10x_tim.o(i.TIM_SetIC3Prescaler)
    i.TIM_SetIC4Prescaler                    0x08007118   Section        0  stm32f10x_tim.o(i.TIM_SetIC4Prescaler)
    i.TIM_TimeBaseInit                       0x08007134   Section        0  stm32f10x_tim.o(i.TIM_TimeBaseInit)
    i.TableToParams                          0x080071d8   Section        0  paramsave.o(i.TableToParams)
    i.USART1_IRQHandler                      0x080074e4   Section        0  usart1.o(i.USART1_IRQHandler)
    i.USART3_IRQHandler                      0x0800756c   Section        0  usart3.o(i.USART3_IRQHandler)
    i.USART3_Init                            0x08007604   Section        0  usart3.o(i.USART3_Init)
    i.USART_ClearFlag                        0x080076d4   Section        0  stm32f10x_usart.o(i.USART_ClearFlag)
    i.USART_ClearITPendingBit                0x080076e6   Section        0  stm32f10x_usart.o(i.USART_ClearITPendingBit)
    i.USART_Cmd                              0x08007704   Section        0  stm32f10x_usart.o(i.USART_Cmd)
    i.USART_DeInit                           0x0800771c   Section        0  stm32f10x_usart.o(i.USART_DeInit)
    i.USART_GetFlagStatus                    0x080077b8   Section        0  stm32f10x_usart.o(i.USART_GetFlagStatus)
    i.USART_GetITStatus                      0x080077d2   Section        0  stm32f10x_usart.o(i.USART_GetITStatus)
    i.USART_ITConfig                         0x08007826   Section        0  stm32f10x_usart.o(i.USART_ITConfig)
    i.USART_Init                             0x08007870   Section        0  stm32f10x_usart.o(i.USART_Init)
    i.USART_ReceiveData                      0x08007948   Section        0  stm32f10x_usart.o(i.USART_ReceiveData)
    i.USART_SendData                         0x08007952   Section        0  stm32f10x_usart.o(i.USART_SendData)
    i.UsageFault_Handler                     0x0800795a   Section        0  stm32f10x_it.o(i.UsageFault_Handler)
    i.Write_IIC_Byte                         0x08007960   Section        0  oled.o(i.Write_IIC_Byte)
    i.Write_IIC_Command                      0x080079b4   Section        0  oled.o(i.Write_IIC_Command)
    i.Write_IIC_Data                         0x080079e0   Section        0  oled.o(i.Write_IIC_Data)
    i.__0vsprintf                            0x08007a0c   Section        0  printfa.o(i.__0vsprintf)
    i.__ARM_fpclassify                       0x08007a30   Section        0  fpclassify.o(i.__ARM_fpclassify)
    i.__ARM_fpclassifyf                      0x08007a58   Section        0  fpclassifyf.o(i.__ARM_fpclassifyf)
    i.__ieee754_rem_pio2                     0x08007a80   Section        0  rred.o(i.__ieee754_rem_pio2)
    i.__kernel_cos                           0x08007e08   Section        0  cos_i.o(i.__kernel_cos)
    i.__kernel_poly                          0x08007f04   Section        0  poly.o(i.__kernel_poly)
    i.__kernel_sin                           0x08007fb0   Section        0  sin_i.o(i.__kernel_sin)
    i.__mathlib_dbl_divzero                  0x0800809c   Section        0  dunder.o(i.__mathlib_dbl_divzero)
    i.__mathlib_dbl_infnan                   0x080080ac   Section        0  dunder.o(i.__mathlib_dbl_infnan)
    i.__mathlib_dbl_infnan2                  0x080080b2   Section        0  dunder.o(i.__mathlib_dbl_infnan2)
    i.__mathlib_dbl_invalid                  0x080080b6   Section        0  dunder.o(i.__mathlib_dbl_invalid)
    i.__mathlib_dbl_overflow                 0x080080c2   Section        0  dunder.o(i.__mathlib_dbl_overflow)
    i.__mathlib_dbl_underflow                0x080080d0   Section        0  dunder.o(i.__mathlib_dbl_underflow)
    i.__mathlib_flt_divzero                  0x080080e0   Section        0  funder.o(i.__mathlib_flt_divzero)
    i.__mathlib_flt_infnan                   0x080080ea   Section        0  funder.o(i.__mathlib_flt_infnan)
    i.__mathlib_flt_infnan2                  0x080080f0   Section        0  funder.o(i.__mathlib_flt_infnan2)
    i.__mathlib_flt_invalid                  0x080080f4   Section        0  funder.o(i.__mathlib_flt_invalid)
    i.__mathlib_flt_overflow                 0x080080fc   Section        0  funder.o(i.__mathlib_flt_overflow)
    i.__mathlib_flt_underflow                0x08008106   Section        0  funder.o(i.__mathlib_flt_underflow)
    i.__mathlib_rredf2                       0x08008110   Section        0  rredf.o(i.__mathlib_rredf2)
    i.__scatterload_copy                     0x08008278   Section       14  handlers.o(i.__scatterload_copy)
    i.__scatterload_null                     0x08008286   Section        2  handlers.o(i.__scatterload_null)
    i.__scatterload_zeroinit                 0x08008288   Section       14  handlers.o(i.__scatterload_zeroinit)
    i.__set_errno                            0x08008298   Section        0  errno.o(i.__set_errno)
    i._fp_digits                             0x080082a4   Section        0  printfa.o(i._fp_digits)
    _fp_digits                               0x080082a5   Thumb Code   366  printfa.o(i._fp_digits)
    i._printf_core                           0x08008428   Section        0  printfa.o(i._printf_core)
    _printf_core                             0x08008429   Thumb Code  1744  printfa.o(i._printf_core)
    i._printf_post_padding                   0x08008b04   Section        0  printfa.o(i._printf_post_padding)
    _printf_post_padding                     0x08008b05   Thumb Code    36  printfa.o(i._printf_post_padding)
    i._printf_pre_padding                    0x08008b28   Section        0  printfa.o(i._printf_pre_padding)
    _printf_pre_padding                      0x08008b29   Thumb Code    46  printfa.o(i._printf_pre_padding)
    i._sputc                                 0x08008b56   Section        0  printfa.o(i._sputc)
    _sputc                                   0x08008b57   Thumb Code    10  printfa.o(i._sputc)
    i.abs_limit                              0x08008b60   Section        0  control.o(i.abs_limit)
    i.alignBoard                             0x08008b88   Section        0  utils.o(i.alignBoard)
    i.alignSensors                           0x08008ca0   Section        0  utils.o(i.alignSensors)
    i.asin                                   0x08008d70   Section        0  asin.o(i.asin)
    i.atan                                   0x08008fe0   Section        0  atan.o(i.atan)
    i.atan2                                  0x08009200   Section        0  atan2.o(i.atan2)
    i.cos                                    0x08009380   Section        0  cos.o(i.cos)
    i.cosf                                   0x0800941c   Section        0  cosf.o(i.cosf)
    i.delay_init                             0x08009598   Section        0  delay.o(i.delay_init)
    i.delay_ms                               0x080095dc   Section        0  delay.o(i.delay_ms)
    i.delay_us                               0x08009628   Section        0  delay.o(i.delay_us)
    i.dmp_enable_6x_lp_quat                  0x08009674   Section        0  inv_mpu_dmp_motion_driver.o(i.dmp_enable_6x_lp_quat)
    i.dmp_enable_feature                     0x080096b0   Section        0  inv_mpu_dmp_motion_driver.o(i.dmp_enable_feature)
    i.dmp_enable_gyro_cal                    0x080098cc   Section        0  inv_mpu_dmp_motion_driver.o(i.dmp_enable_gyro_cal)
    i.dmp_enable_lp_quat                     0x08009924   Section        0  inv_mpu_dmp_motion_driver.o(i.dmp_enable_lp_quat)
    i.dmp_load_motion_driver_firmware        0x08009960   Section        0  inv_mpu_dmp_motion_driver.o(i.dmp_load_motion_driver_firmware)
    i.dmp_read_fifo                          0x08009978   Section        0  inv_mpu_dmp_motion_driver.o(i.dmp_read_fifo)
    i.dmp_set_fifo_rate                      0x08009b38   Section        0  inv_mpu_dmp_motion_driver.o(i.dmp_set_fifo_rate)
    i.dmp_set_orientation                    0x08009ba8   Section        0  inv_mpu_dmp_motion_driver.o(i.dmp_set_orientation)
    i.dmp_set_shake_reject_thresh            0x08009ce0   Section        0  inv_mpu_dmp_motion_driver.o(i.dmp_set_shake_reject_thresh)
    i.dmp_set_shake_reject_time              0x08009d18   Section        0  inv_mpu_dmp_motion_driver.o(i.dmp_set_shake_reject_time)
    i.dmp_set_shake_reject_timeout           0x08009d3e   Section        0  inv_mpu_dmp_motion_driver.o(i.dmp_set_shake_reject_timeout)
    i.dmp_set_tap_axes                       0x08009d64   Section        0  inv_mpu_dmp_motion_driver.o(i.dmp_set_tap_axes)
    i.dmp_set_tap_count                      0x08009daa   Section        0  inv_mpu_dmp_motion_driver.o(i.dmp_set_tap_count)
    i.dmp_set_tap_thresh                     0x08009dd0   Section        0  inv_mpu_dmp_motion_driver.o(i.dmp_set_tap_thresh)
    i.dmp_set_tap_time                       0x08009f70   Section        0  inv_mpu_dmp_motion_driver.o(i.dmp_set_tap_time)
    i.dmp_set_tap_time_multi                 0x08009f96   Section        0  inv_mpu_dmp_motion_driver.o(i.dmp_set_tap_time_multi)
    i.getEstimatedAltitude                   0x08009fbc   Section        0  ms5611.o(i.getEstimatedAltitude)
    i.get_ms                                 0x0800a028   Section        0  delay.o(i.get_ms)
    i.i2c_MS561101BA_Calculate               0x0800a02c   Section        0  ms5611.o(i.i2c_MS561101BA_Calculate)
    i.i2c_MS561101BA_UP_Read                 0x0800a1b0   Section        0  ms5611.o(i.i2c_MS561101BA_UP_Read)
    i.i2c_MS561101BA_UP_Start                0x0800a1e4   Section        0  ms5611.o(i.i2c_MS561101BA_UP_Start)
    i.i2c_MS561101BA_UT_Read                 0x0800a1f8   Section        0  ms5611.o(i.i2c_MS561101BA_UT_Read)
    i.i2c_MS561101BA_UT_Start                0x0800a22c   Section        0  ms5611.o(i.i2c_MS561101BA_UT_Start)
    i.i2c_MS561101BA_readCalibration         0x0800a240   Section        0  ms5611.o(i.i2c_MS561101BA_readCalibration)
    i.i2c_MS561101BA_reset                   0x0800a290   Section        0  ms5611.o(i.i2c_MS561101BA_reset)
    i.i2c_delay                              0x0800a29e   Section        0  ms5611iic.o(i.i2c_delay)
    i2c_delay                                0x0800a29f   Thumb Code     2  ms5611iic.o(i.i2c_delay)
    i.i2c_read                               0x0800a2a0   Section        0  ms5611iic.o(i.i2c_read)
    i.i2c_readAck                            0x0800a394   Section        0  ms5611iic.o(i.i2c_readAck)
    i.i2c_readNak                            0x0800a39e   Section        0  ms5611iic.o(i.i2c_readNak)
    i.i2c_rep_start                          0x0800a3a8   Section        0  ms5611iic.o(i.i2c_rep_start)
    i.i2c_stop                               0x0800a3f8   Section        0  ms5611iic.o(i.i2c_stop)
    i.i2c_write                              0x0800a444   Section        0  ms5611iic.o(i.i2c_write)
    i.i2c_writeReg                           0x0800a4cc   Section        0  ms5611iic.o(i.i2c_writeReg)
    i.initBoardAlignment                     0x0800a4f0   Section        0  utils.o(i.initBoardAlignment)
    i.inv_orientation_matrix_to_scalar       0x0800a604   Section        0  mpu9250.o(i.inv_orientation_matrix_to_scalar)
    inv_orientation_matrix_to_scalar         0x0800a605   Thumb Code    40  mpu9250.o(i.inv_orientation_matrix_to_scalar)
    i.inv_row_2_scale                        0x0800a62c   Section        0  mpu9250.o(i.inv_row_2_scale)
    inv_row_2_scale                          0x0800a62d   Thumb Code    78  mpu9250.o(i.inv_row_2_scale)
    i.kalmanFilter                           0x0800a67a   Section        0  imu.o(i.kalmanFilter)
    i.log                                    0x0800a6d4   Section        0  log.o(i.log)
    i.lrintf                                 0x0800aa30   Section        0  lrintf.o(i.lrintf)
    i.main                                   0x0800aa64   Section        0  main.o(i.main)
    i.mpu_configure_fifo                     0x0800aa78   Section        0  inv_mpu.o(i.mpu_configure_fifo)
    i.mpu_get_accel_fsr                      0x0800aae8   Section        0  inv_mpu.o(i.mpu_get_accel_fsr)
    i.mpu_init                               0x0800ab34   Section        0  inv_mpu.o(i.mpu_init)
    i.mpu_load_firmware                      0x0800ac5c   Section        0  inv_mpu.o(i.mpu_load_firmware)
    i.mpu_lp_accel_mode                      0x0800ad14   Section        0  inv_mpu.o(i.mpu_lp_accel_mode)
    i.mpu_read_fifo_stream                   0x0800ae30   Section        0  inv_mpu.o(i.mpu_read_fifo_stream)
    i.mpu_read_mem                           0x0800aef0   Section        0  inv_mpu.o(i.mpu_read_mem)
    i.mpu_reset_fifo                         0x0800af70   Section        0  inv_mpu.o(i.mpu_reset_fifo)
    i.mpu_set_accel_fsr                      0x0800b130   Section        0  inv_mpu.o(i.mpu_set_accel_fsr)
    i.mpu_set_bypass                         0x0800b1b4   Section        0  inv_mpu.o(i.mpu_set_bypass)
    i.mpu_set_compass_sample_rate            0x0800b300   Section        0  inv_mpu.o(i.mpu_set_compass_sample_rate)
    i.mpu_set_dmp_state                      0x0800b360   Section        0  inv_mpu.o(i.mpu_set_dmp_state)
    i.mpu_set_gyro_fsr                       0x0800b3f0   Section        0  inv_mpu.o(i.mpu_set_gyro_fsr)
    i.mpu_set_int_latched                    0x0800b478   Section        0  inv_mpu.o(i.mpu_set_int_latched)
    i.mpu_set_lpf                            0x0800b4e4   Section        0  inv_mpu.o(i.mpu_set_lpf)
    i.mpu_set_sample_rate                    0x0800b568   Section        0  inv_mpu.o(i.mpu_set_sample_rate)
    i.mpu_set_sensors                        0x0800b61c   Section        0  inv_mpu.o(i.mpu_set_sensors)
    i.mpu_write_mem                          0x0800b784   Section        0  inv_mpu.o(i.mpu_write_mem)
    i.oled_pow                               0x0800b804   Section        0  oled.o(i.oled_pow)
    i.pow                                    0x0800b81c   Section        0  pow.o(i.pow)
    i.powf                                   0x0800c1f4   Section        0  powf.o(i.powf)
    i.set_int_enable                         0x0800c814   Section        0  inv_mpu.o(i.set_int_enable)
    set_int_enable                           0x0800c815   Thumb Code   138  inv_mpu.o(i.set_int_enable)
    i.setup_compass                          0x0800c8a4   Section        0  inv_mpu.o(i.setup_compass)
    setup_compass                            0x0800c8a5   Thumb Code   588  inv_mpu.o(i.setup_compass)
    i.sin                                    0x0800cb0c   Section        0  sin.o(i.sin)
    i.sinf                                   0x0800cbac   Section        0  sinf.o(i.sinf)
    i.sqrt                                   0x0800cd34   Section        0  sqrt.o(i.sqrt)
    i.tanf                                   0x0800cd80   Section        0  tanf.o(i.tanf)
    i.u3_printf                              0x0800cef4   Section        0  usart3.o(i.u3_printf)
    .constdata                               0x0800cf44   Section     2264  oled.o(.constdata)
    .constdata                               0x0800d81c   Section       24  ms5611.o(.constdata)
    b_baro_pressure                          0x0800d81c   Data          12  ms5611.o(.constdata)
    a_baro_pressure                          0x0800d828   Data          12  ms5611.o(.constdata)
    .constdata                               0x0800d834   Section      184  gps.o(.constdata)
    .constdata                               0x0800d8ec   Section       96  inv_mpu.o(.constdata)
    .constdata                               0x0800d94c   Section     3062  inv_mpu_dmp_motion_driver.o(.constdata)
    dmp_memory                               0x0800d94c   Data        3062  inv_mpu_dmp_motion_driver.o(.constdata)
    .constdata                               0x0800e548   Section       80  asin.o(.constdata)
    pS                                       0x0800e548   Data          48  asin.o(.constdata)
    qS                                       0x0800e578   Data          32  asin.o(.constdata)
    .constdata                               0x0800e598   Section      152  atan.o(.constdata)
    atanhi                                   0x0800e598   Data          32  atan.o(.constdata)
    atanlo                                   0x0800e5b8   Data          32  atan.o(.constdata)
    aTodd                                    0x0800e5d8   Data          40  atan.o(.constdata)
    aTeven                                   0x0800e600   Data          48  atan.o(.constdata)
    .constdata                               0x0800e630   Section       56  log.o(.constdata)
    Lg2                                      0x0800e630   Data          24  log.o(.constdata)
    Lg                                       0x0800e648   Data          32  log.o(.constdata)
    .constdata                               0x0800e668   Section      136  pow.o(.constdata)
    bp                                       0x0800e668   Data          16  pow.o(.constdata)
    dp_h                                     0x0800e678   Data          16  pow.o(.constdata)
    dp_l                                     0x0800e688   Data          16  pow.o(.constdata)
    L                                        0x0800e698   Data          48  pow.o(.constdata)
    P                                        0x0800e6c8   Data          40  pow.o(.constdata)
    .constdata                               0x0800e6f0   Section      320  powf.o(.constdata)
    table                                    0x0800e6f0   Data         128  powf.o(.constdata)
    powersof2to1over16top                    0x0800e770   Data          64  powf.o(.constdata)
    powersof2to1over16bot                    0x0800e7b0   Data          64  powf.o(.constdata)
    powersof2to1over16all                    0x0800e7f0   Data          64  powf.o(.constdata)
    .constdata                               0x0800e830   Section       48  cos_i.o(.constdata)
    C                                        0x0800e830   Data          48  cos_i.o(.constdata)
    .constdata                               0x0800e860   Section        8  qnan.o(.constdata)
    .constdata                               0x0800e868   Section      200  rred.o(.constdata)
    pio2s                                    0x0800e868   Data          48  rred.o(.constdata)
    twooverpi                                0x0800e898   Data         152  rred.o(.constdata)
    .constdata                               0x0800e930   Section       32  rredf.o(.constdata)
    twooverpi                                0x0800e930   Data          32  rredf.o(.constdata)
    .constdata                               0x0800e950   Section       40  sin_i.o(.constdata)
    S                                        0x0800e950   Data          40  sin_i.o(.constdata)
    .data                                    0x20000000   Section        4  delay.o(.data)
    fac_us                                   0x20000000   Data           1  delay.o(.data)
    fac_ms                                   0x20000002   Data           2  delay.o(.data)
    .data                                    0x20000004   Section        3  led.o(.data)
    led0_time0                               0x20000004   Data           1  led.o(.data)
    led0_time1                               0x20000005   Data           1  led.o(.data)
    led_flage                                0x20000006   Data           1  led.o(.data)
    .data                                    0x20000008   Section       32  timer.o(.data)
    temp                                     0x20000018   Data           8  timer.o(.data)
    temp                                     0x20000020   Data           2  timer.o(.data)
    time_2ms                                 0x20000022   Data           1  timer.o(.data)
    time_5ms                                 0x20000023   Data           1  timer.o(.data)
    time_10ms                                0x20000024   Data           1  timer.o(.data)
    time_20ms                                0x20000025   Data           1  timer.o(.data)
    time_100ms                               0x20000026   Data           1  timer.o(.data)
    time_200ms                               0x20000027   Data           1  timer.o(.data)
    .data                                    0x20000028   Section        4  control.o(.data)
    time                                     0x20000028   Data           1  control.o(.data)
    move2middle                              0x20000029   Data           1  control.o(.data)
    time                                     0x2000002a   Data           1  control.o(.data)
    time                                     0x2000002b   Data           1  control.o(.data)
    .data                                    0x2000002c   Section        1  utils.o(.data)
    .data                                    0x2000002d   Section       18  mpu9250.o(.data)
    gyro_orientation                         0x2000002d   Data           9  mpu9250.o(.data)
    compass_orientation                      0x20000036   Data           9  mpu9250.o(.data)
    .data                                    0x20000040   Section        9  ms5611.o(.data)
    baroHistIdx                              0x20000040   Data           1  ms5611.o(.data)
    filter_date                              0x20000044   Data           4  ms5611.o(.data)
    MS5611_status                            0x20000048   Data           1  ms5611.o(.data)
    .data                                    0x20000049   Section        1  ak8975.o(.data)
    magAlign                                 0x20000049   Data           1  ak8975.o(.data)
    .data                                    0x2000004a   Section        3  gps.o(.data)
    point                                    0x2000004a   Data           2  gps.o(.data)
    flag                                     0x2000004c   Data           1  gps.o(.data)
    .data                                    0x2000004d   Section        1  usart3.o(.data)
    .data                                    0x2000004e   Section        9  serial_oscilloscope.o(.data)
    senser_cnt                               0x2000004e   Data           1  serial_oscilloscope.o(.data)
    status_cnt                               0x2000004f   Data           1  serial_oscilloscope.o(.data)
    rcdata_cnt                               0x20000050   Data           1  serial_oscilloscope.o(.data)
    motopwm_cnt                              0x20000051   Data           1  serial_oscilloscope.o(.data)
    power_cnt                                0x20000052   Data           1  serial_oscilloscope.o(.data)
    i                                        0x20000053   Data           1  serial_oscilloscope.o(.data)
    _data_len                                0x20000054   Data           1  serial_oscilloscope.o(.data)
    _data_cnt                                0x20000055   Data           1  serial_oscilloscope.o(.data)
    state                                    0x20000056   Data           1  serial_oscilloscope.o(.data)
    .data                                    0x20000058   Section        6  usart1.o(.data)
    .data                                    0x20000060   Section      180  imu.o(.data)
    more                                     0x20000104   Data           1  imu.o(.data)
    sensors                                  0x20000106   Data           2  imu.o(.data)
    circle_number                            0x20000108   Data           2  imu.o(.data)
    yaw_now                                  0x2000010c   Data           4  imu.o(.data)
    yaw_last                                 0x20000110   Data           4  imu.o(.data)
    .data                                    0x20000114   Section       56  inv_mpu.o(.data)
    st                                       0x20000114   Data          56  inv_mpu.o(.data)
    .data                                    0x2000014c   Section       20  stm32f10x_rcc.o(.data)
    APBAHBPrescTable                         0x2000014c   Data          16  stm32f10x_rcc.o(.data)
    ADCPrescTable                            0x2000015c   Data           4  stm32f10x_rcc.o(.data)
    .data                                    0x20000160   Section       20  system_stm32f10x.o(.data)
    .data                                    0x20000174   Section        4  errno.o(.data)
    _errno                                   0x20000174   Data           4  errno.o(.data)
    .bss                                     0x20000178   Section     2648  control.o(.bss)
    .bss                                     0x20000bd0   Section       36  utils.o(.bss)
    boardRotation                            0x20000bd0   Data          36  utils.o(.bss)
    .bss                                     0x20000bf4   Section      140  ms5611.o(.bss)
    ms561101ba_ctx                           0x20000bf4   Data          32  ms5611.o(.bss)
    input                                    0x20000c14   Data          12  ms5611.o(.bss)
    output                                   0x20000c20   Data          12  ms5611.o(.bss)
    baroHistTab                              0x20000c2c   Data          84  ms5611.o(.bss)
    .bss                                     0x20000c80   Section      200  usart3.o(.bss)
    .bss                                     0x20000d48   Section      100  serial_oscilloscope.o(.bss)
    RxBuffer                                 0x20000d7a   Data          50  serial_oscilloscope.o(.bss)
    .bss                                     0x20000dac   Section      200  usart1.o(.bss)
    .bss                                     0x20000e74   Section       16  imu.o(.bss)
    .bss                                     0x20000e84   Section       16  inv_mpu_dmp_motion_driver.o(.bss)
    dmp                                      0x20000e84   Data          16  inv_mpu_dmp_motion_driver.o(.bss)
    STACK                                    0x20000e98   Section     1024  startup_stm32f10x_md.o(STACK)

    Global Symbols

    Symbol Name                              Value     Ov Type        Size  Object(Section)

    BuildAttributes$$THM_ISAv4$P$D$K$B$S$PE$A:L22UL41UL21$X:L11$S22US41US21$IEEE1$IW$USESV6$~STKCKD$USESV7$~SHL$OTIME$ROPI$IEEEX$EBA8$MICROLIB$REQ8$PRES8$EABIv2 0x00000000   Number         0  anon$$obj.o ABSOLUTE
    __ARM_use_no_argv                        0x00000000   Number         0  main.o ABSOLUTE
    __use_no_errno                           0x00000000   Number         0  useno.o ABSOLUTE
    __use_no_exception_handling              0x00000000   Number         0  useno.o ABSOLUTE
    __use_no_fp                              0x00000000   Number         0  useno.o ABSOLUTE
    __use_no_heap                            0x00000000   Number         0  useno.o ABSOLUTE
    __use_no_heap_region                     0x00000000   Number         0  useno.o ABSOLUTE
    __use_no_semihosting                     0x00000000   Number         0  useno.o ABSOLUTE
    __use_no_semihosting_swi                 0x00000000   Number         0  useno.o ABSOLUTE
    __use_no_signal_handling                 0x00000000   Number         0  useno.o ABSOLUTE
    __cpp_initialize__aeabi_                  - Undefined Weak Reference
    __cxa_finalize                            - Undefined Weak Reference
    _clock_init                               - Undefined Weak Reference
    _microlib_exit                            - Undefined Weak Reference
    __Vectors_Size                           0x000000ec   Number         0  startup_stm32f10x_md.o ABSOLUTE
    __Vectors                                0x08000000   Data           4  startup_stm32f10x_md.o(RESET)
    __Vectors_End                            0x080000ec   Data           0  startup_stm32f10x_md.o(RESET)
    __main                                   0x080000ed   Thumb Code     0  entry.o(.ARM.Collect$$$$00000000)
    _main_stk                                0x080000ed   Thumb Code     0  entry2.o(.ARM.Collect$$$$00000001)
    _main_scatterload                        0x080000f1   Thumb Code     0  entry5.o(.ARM.Collect$$$$00000004)
    __main_after_scatterload                 0x080000f5   Thumb Code     0  entry5.o(.ARM.Collect$$$$00000004)
    _main_clock                              0x080000f5   Thumb Code     0  entry7b.o(.ARM.Collect$$$$00000008)
    _main_cpp_init                           0x080000f5   Thumb Code     0  entry8b.o(.ARM.Collect$$$$0000000A)
    _main_init                               0x080000f5   Thumb Code     0  entry9a.o(.ARM.Collect$$$$0000000B)
    __rt_final_cpp                           0x080000fd   Thumb Code     0  entry10a.o(.ARM.Collect$$$$0000000D)
    __rt_final_exit                          0x080000fd   Thumb Code     0  entry11a.o(.ARM.Collect$$$$0000000F)
    Reset_Handler                            0x08000101   Thumb Code     8  startup_stm32f10x_md.o(.text)
    PendSV_Handler                           0x08000117   Thumb Code     2  startup_stm32f10x_md.o(.text)
    SysTick_Handler                          0x08000119   Thumb Code     2  startup_stm32f10x_md.o(.text)
    ADC1_2_IRQHandler                        0x0800011b   Thumb Code     0  startup_stm32f10x_md.o(.text)
    CAN1_RX1_IRQHandler                      0x0800011b   Thumb Code     0  startup_stm32f10x_md.o(.text)
    CAN1_SCE_IRQHandler                      0x0800011b   Thumb Code     0  startup_stm32f10x_md.o(.text)
    DMA1_Channel1_IRQHandler                 0x0800011b   Thumb Code     0  startup_stm32f10x_md.o(.text)
    DMA1_Channel2_IRQHandler                 0x0800011b   Thumb Code     0  startup_stm32f10x_md.o(.text)
    DMA1_Channel3_IRQHandler                 0x0800011b   Thumb Code     0  startup_stm32f10x_md.o(.text)
    DMA1_Channel4_IRQHandler                 0x0800011b   Thumb Code     0  startup_stm32f10x_md.o(.text)
    DMA1_Channel5_IRQHandler                 0x0800011b   Thumb Code     0  startup_stm32f10x_md.o(.text)
    DMA1_Channel6_IRQHandler                 0x0800011b   Thumb Code     0  startup_stm32f10x_md.o(.text)
    DMA1_Channel7_IRQHandler                 0x0800011b   Thumb Code     0  startup_stm32f10x_md.o(.text)
    EXTI0_IRQHandler                         0x0800011b   Thumb Code     0  startup_stm32f10x_md.o(.text)
    EXTI1_IRQHandler                         0x0800011b   Thumb Code     0  startup_stm32f10x_md.o(.text)
    EXTI2_IRQHandler                         0x0800011b   Thumb Code     0  startup_stm32f10x_md.o(.text)
    EXTI3_IRQHandler                         0x0800011b   Thumb Code     0  startup_stm32f10x_md.o(.text)
    EXTI4_IRQHandler                         0x0800011b   Thumb Code     0  startup_stm32f10x_md.o(.text)
    EXTI9_5_IRQHandler                       0x0800011b   Thumb Code     0  startup_stm32f10x_md.o(.text)
    FLASH_IRQHandler                         0x0800011b   Thumb Code     0  startup_stm32f10x_md.o(.text)
    I2C1_ER_IRQHandler                       0x0800011b   Thumb Code     0  startup_stm32f10x_md.o(.text)
    I2C1_EV_IRQHandler                       0x0800011b   Thumb Code     0  startup_stm32f10x_md.o(.text)
    I2C2_ER_IRQHandler                       0x0800011b   Thumb Code     0  startup_stm32f10x_md.o(.text)
    I2C2_EV_IRQHandler                       0x0800011b   Thumb Code     0  startup_stm32f10x_md.o(.text)
    PVD_IRQHandler                           0x0800011b   Thumb Code     0  startup_stm32f10x_md.o(.text)
    RCC_IRQHandler                           0x0800011b   Thumb Code     0  startup_stm32f10x_md.o(.text)
    RTCAlarm_IRQHandler                      0x0800011b   Thumb Code     0  startup_stm32f10x_md.o(.text)
    RTC_IRQHandler                           0x0800011b   Thumb Code     0  startup_stm32f10x_md.o(.text)
    SPI1_IRQHandler                          0x0800011b   Thumb Code     0  startup_stm32f10x_md.o(.text)
    SPI2_IRQHandler                          0x0800011b   Thumb Code     0  startup_stm32f10x_md.o(.text)
    TAMPER_IRQHandler                        0x0800011b   Thumb Code     0  startup_stm32f10x_md.o(.text)
    TIM1_BRK_IRQHandler                      0x0800011b   Thumb Code     0  startup_stm32f10x_md.o(.text)
    TIM1_CC_IRQHandler                       0x0800011b   Thumb Code     0  startup_stm32f10x_md.o(.text)
    TIM1_TRG_COM_IRQHandler                  0x0800011b   Thumb Code     0  startup_stm32f10x_md.o(.text)
    TIM1_UP_IRQHandler                       0x0800011b   Thumb Code     0  startup_stm32f10x_md.o(.text)
    USART2_IRQHandler                        0x0800011b   Thumb Code     0  startup_stm32f10x_md.o(.text)
    USBWakeUp_IRQHandler                     0x0800011b   Thumb Code     0  startup_stm32f10x_md.o(.text)
    USB_HP_CAN1_TX_IRQHandler                0x0800011b   Thumb Code     0  startup_stm32f10x_md.o(.text)
    USB_LP_CAN1_RX0_IRQHandler               0x0800011b   Thumb Code     0  startup_stm32f10x_md.o(.text)
    WWDG_IRQHandler                          0x0800011b   Thumb Code     0  startup_stm32f10x_md.o(.text)
    __aeabi_memcpy                           0x08000125   Thumb Code    36  memcpya.o(.text)
    __aeabi_memcpy4                          0x08000125   Thumb Code     0  memcpya.o(.text)
    __aeabi_memcpy8                          0x08000125   Thumb Code     0  memcpya.o(.text)
    __aeabi_memset                           0x08000149   Thumb Code    14  memseta.o(.text)
    __aeabi_memset4                          0x08000149   Thumb Code     0  memseta.o(.text)
    __aeabi_memset8                          0x08000149   Thumb Code     0  memseta.o(.text)
    __aeabi_memclr                           0x08000157   Thumb Code     4  memseta.o(.text)
    __aeabi_memclr4                          0x08000157   Thumb Code     0  memseta.o(.text)
    __aeabi_memclr8                          0x08000157   Thumb Code     0  memseta.o(.text)
    _memset$wrapper                          0x0800015b   Thumb Code    18  memseta.o(.text)
    strstr                                   0x0800016d   Thumb Code    36  strstr.o(.text)
    strlen                                   0x08000191   Thumb Code    14  strlen.o(.text)
    memcmp                                   0x0800019f   Thumb Code    26  memcmp.o(.text)
    __aeabi_fadd                             0x080001b9   Thumb Code   164  fadd.o(.text)
    __aeabi_fsub                             0x0800025d   Thumb Code     6  fadd.o(.text)
    __aeabi_frsub                            0x08000263   Thumb Code     6  fadd.o(.text)
    __aeabi_fmul                             0x08000269   Thumb Code   100  fmul.o(.text)
    __aeabi_fdiv                             0x080002cd   Thumb Code   124  fdiv.o(.text)
    __aeabi_dadd                             0x08000349   Thumb Code   322  dadd.o(.text)
    __aeabi_dsub                             0x0800048b   Thumb Code     6  dadd.o(.text)
    __aeabi_drsub                            0x08000491   Thumb Code     6  dadd.o(.text)
    __aeabi_dmul                             0x08000497   Thumb Code   228  dmul.o(.text)
    __aeabi_ddiv                             0x0800057b   Thumb Code   222  ddiv.o(.text)
    __aeabi_i2f                              0x08000659   Thumb Code    18  fflti.o(.text)
    __aeabi_ui2f                             0x0800066b   Thumb Code    10  ffltui.o(.text)
    __aeabi_l2f                              0x08000675   Thumb Code    44  ffltl.o(.text)
    __aeabi_i2d                              0x080006a1   Thumb Code    34  dflti.o(.text)
    __aeabi_ui2d                             0x080006c3   Thumb Code    26  dfltui.o(.text)
    __aeabi_f2iz                             0x080006dd   Thumb Code    50  ffixi.o(.text)
    __aeabi_f2uiz                            0x0800070f   Thumb Code    40  ffixui.o(.text)
    __aeabi_d2uiz                            0x08000737   Thumb Code    50  dfixui.o(.text)
    __aeabi_f2d                              0x08000769   Thumb Code    38  f2d.o(.text)
    __aeabi_cdcmpeq                          0x08000791   Thumb Code     0  cdcmple.o(.text)
    __aeabi_cdcmple                          0x08000791   Thumb Code    48  cdcmple.o(.text)
    __aeabi_cdrcmple                         0x080007c1   Thumb Code    48  cdrcmple.o(.text)
    __aeabi_d2f                              0x080007f1   Thumb Code    56  d2f.o(.text)
    __aeabi_cfcmpeq                          0x08000829   Thumb Code     0  cfcmple.o(.text)
    __aeabi_cfcmple                          0x08000829   Thumb Code    20  cfcmple.o(.text)
    __aeabi_cfrcmple                         0x0800083d   Thumb Code    20  cfrcmple.o(.text)
    __aeabi_uidiv                            0x08000851   Thumb Code     0  uidiv.o(.text)
    __aeabi_uidivmod                         0x08000851   Thumb Code    44  uidiv.o(.text)
    __aeabi_uldivmod                         0x0800087d   Thumb Code    98  uldiv.o(.text)
    __aeabi_llsl                             0x080008df   Thumb Code    30  llshl.o(.text)
    _ll_shift_l                              0x080008df   Thumb Code     0  llshl.o(.text)
    __aeabi_llsr                             0x080008fd   Thumb Code    32  llushr.o(.text)
    _ll_ushift_r                             0x080008fd   Thumb Code     0  llushr.o(.text)
    __aeabi_lasr                             0x0800091d   Thumb Code    36  llsshr.o(.text)
    _ll_sshift_r                             0x0800091d   Thumb Code     0  llsshr.o(.text)
    __I$use$fp                               0x08000941   Thumb Code     0  iusefp.o(.text)
    _float_round                             0x08000941   Thumb Code    18  fepilogue.o(.text)
    _float_epilogue                          0x08000953   Thumb Code    92  fepilogue.o(.text)
    __ARM_scalbnf                            0x080009af   Thumb Code    24  fscalb.o(.text)
    scalbnf                                  0x080009af   Thumb Code     0  fscalb.o(.text)
    _frnd                                    0x080009c7   Thumb Code    60  frnd.o(.text)
    _double_round                            0x08000a03   Thumb Code    30  depilogue.o(.text)
    _double_epilogue                         0x08000a21   Thumb Code   156  depilogue.o(.text)
    __ARM_scalbn                             0x08000abd   Thumb Code    46  dscalb.o(.text)
    scalbn                                   0x08000abd   Thumb Code     0  dscalb.o(.text)
    _dsqrt                                   0x08000aeb   Thumb Code   162  dsqrt.o(.text)
    __aeabi_d2ulz                            0x08000b8d   Thumb Code    48  dfixul.o(.text)
    _ffix_r                                  0x08000bbd   Thumb Code    76  ffixir.o(.text)
    __fp_status                              0x08000c09   Thumb Code     4  fpstat.o(.text)
    __ieee_status                            0x08000c09   Thumb Code     0  fpstat.o(.text)
    __scatterload                            0x08000c0d   Thumb Code    28  init.o(.text)
    __scatterload_rt2                        0x08000c0d   Thumb Code     0  init.o(.text)
    __aeabi_d2iz                             0x08000c31   Thumb Code    62  dfixi.o(.text)
    __decompress                             0x08000c6f   Thumb Code     0  __dczerorl2.o(.text)
    __decompress1                            0x08000c6f   Thumb Code    86  __dczerorl2.o(.text)
    AK8975Init                               0x08000cc5   Thumb Code   130  ak8975.o(i.AK8975Init)
    AK8975Read                               0x08000d85   Thumb Code   192  ak8975.o(i.AK8975Read)
    AK8975_IIC_Ack                           0x08000e51   Thumb Code    66  ak8975iic.o(i.AK8975_IIC_Ack)
    AK8975_IIC_Init                          0x08000ea1   Thumb Code    50  ak8975iic.o(i.AK8975_IIC_Init)
    AK8975_IIC_NAck                          0x08000ee1   Thumb Code    62  ak8975iic.o(i.AK8975_IIC_NAck)
    AK8975_IIC_ReadByte                      0x08000f2d   Thumb Code    98  ak8975iic.o(i.AK8975_IIC_ReadByte)
    AK8975_IIC_ReadByteFromSlave             0x08000f9d   Thumb Code    74  ak8975iic.o(i.AK8975_IIC_ReadByteFromSlave)
    AK8975_IIC_ReadMultByteFromSlave         0x08000fe7   Thumb Code   114  ak8975iic.o(i.AK8975_IIC_ReadMultByteFromSlave)
    AK8975_IIC_SendByte                      0x08001059   Thumb Code    88  ak8975iic.o(i.AK8975_IIC_SendByte)
    AK8975_IIC_Start                         0x080010bd   Thumb Code    64  ak8975iic.o(i.AK8975_IIC_Start)
    AK8975_IIC_Stop                          0x08001109   Thumb Code    64  ak8975iic.o(i.AK8975_IIC_Stop)
    AK8975_IIC_WaitAck                       0x08001155   Thumb Code    86  ak8975iic.o(i.AK8975_IIC_WaitAck)
    AK8975_IIC_WriteByteToSlave              0x080011b9   Thumb Code    70  ak8975iic.o(i.AK8975_IIC_WriteByteToSlave)
    ANO_DT_Data_Exchange                     0x08001201   Thumb Code  1302  serial_oscilloscope.o(i.ANO_DT_Data_Exchange)
    ANO_DT_Data_Receive_Anl                  0x08001719   Thumb Code  1882  serial_oscilloscope.o(i.ANO_DT_Data_Receive_Anl)
    ANO_DT_Data_Receive_Prepare              0x08001e7d   Thumb Code   216  serial_oscilloscope.o(i.ANO_DT_Data_Receive_Prepare)
    ANO_DT_Send_Data                         0x08001fb1   Thumb Code    60  serial_oscilloscope.o(i.ANO_DT_Send_Data)
    ANO_DT_Send_MotoPWM                      0x08001ff5   Thumb Code   294  serial_oscilloscope.o(i.ANO_DT_Send_MotoPWM)
    ANO_DT_Send_PID                          0x08002121   Thumb Code   442  serial_oscilloscope.o(i.ANO_DT_Send_PID)
    ANO_DT_Send_RCData                       0x080022e1   Thumb Code   350  serial_oscilloscope.o(i.ANO_DT_Send_RCData)
    ANO_DT_Send_Senser                       0x08002445   Thumb Code   374  serial_oscilloscope.o(i.ANO_DT_Send_Senser)
    ANO_DT_Send_Status                       0x080025c1   Thumb Code   318  serial_oscilloscope.o(i.ANO_DT_Send_Status)
    BEEP_Init                                0x08002709   Thumb Code    46  beep.o(i.BEEP_Init)
    BSP_Init                                 0x08002741   Thumb Code    72  control.o(i.BSP_Init)
    Baro_Common                              0x0800278d   Thumb Code    62  ms5611.o(i.Baro_Common)
    Baro_init                                0x080027d9   Thumb Code    72  ms5611.o(i.Baro_init)
    Baro_update                              0x08002841   Thumb Code    50  ms5611.o(i.Baro_update)
    BusFault_Handler                         0x08002879   Thumb Code     4  stm32f10x_it.o(i.BusFault_Handler)
    Butterworth_Parameter_Init               0x0800287d   Thumb Code    14  control.o(i.Butterworth_Parameter_Init)
    Control                                  0x08002899   Thumb Code   672  control.o(i.Control)
    Control_Device_LPF                       0x08002b49   Thumb Code   116  control.o(i.Control_Device_LPF)
    Deal_Remote_date                         0x08002bbd   Thumb Code    62  control.o(i.Deal_Remote_date)
    DebugMon_Handler                         0x08002bfb   Thumb Code     2  stm32f10x_it.o(i.DebugMon_Handler)
    DefaultParams                            0x08002bfd   Thumb Code   158  paramsave.o(i.DefaultParams)
    DefaultParams_WriteFlash                 0x08002c9d   Thumb Code    56  paramsave.o(i.DefaultParams_WriteFlash)
    EXIT_MPU_INT_Init                        0x08002cd9   Thumb Code   140  exit.o(i.EXIT_MPU_INT_Init)
    EXTI15_10_IRQHandler                     0x08002d6d   Thumb Code    50  exit.o(i.EXTI15_10_IRQHandler)
    EXTI_ClearITPendingBit                   0x08002da5   Thumb Code     6  stm32f10x_exti.o(i.EXTI_ClearITPendingBit)
    EXTI_GetITStatus                         0x08002db1   Thumb Code    34  stm32f10x_exti.o(i.EXTI_GetITStatus)
    EXTI_Init                                0x08002dd9   Thumb Code   142  stm32f10x_exti.o(i.EXTI_Init)
    FLASH_ErasePage                          0x08002e6d   Thumb Code    72  stm32f10x_flash.o(i.FLASH_ErasePage)
    FLASH_GetBank1Status                     0x08002eb9   Thumb Code    48  stm32f10x_flash.o(i.FLASH_GetBank1Status)
    FLASH_Lock                               0x08002eed   Thumb Code    14  stm32f10x_flash.o(i.FLASH_Lock)
    FLASH_ProgramWord                        0x08002f01   Thumb Code   102  stm32f10x_flash.o(i.FLASH_ProgramWord)
    FLASH_Unlock                             0x08002f6d   Thumb Code    12  stm32f10x_flash.o(i.FLASH_Unlock)
    FLASH_WaitForLastOperation               0x08002f85   Thumb Code    38  stm32f10x_flash.o(i.FLASH_WaitForLastOperation)
    FLY_Start                                0x08002fad   Thumb Code   338  control.o(i.FLY_Start)
    Fly_Protect                              0x08003115   Thumb Code    18  control.o(i.Fly_Protect)
    Fly_control                              0x08003127   Thumb Code   222  control.o(i.Fly_control)
    GPIO_EXTILineConfig                      0x08003205   Thumb Code    60  stm32f10x_gpio.o(i.GPIO_EXTILineConfig)
    GPIO_Init                                0x08003245   Thumb Code   278  stm32f10x_gpio.o(i.GPIO_Init)
    GPIO_PinRemapConfig                      0x0800335d   Thumb Code   138  stm32f10x_gpio.o(i.GPIO_PinRemapConfig)
    GPIO_ResetBits                           0x080033ed   Thumb Code     4  stm32f10x_gpio.o(i.GPIO_ResetBits)
    GPIO_SetBits                             0x080033f1   Thumb Code     4  stm32f10x_gpio.o(i.GPIO_SetBits)
    GPS_Analysis                             0x080033f5   Thumb Code    36  gps.o(i.GPS_Analysis)
    GPS_Check                                0x08003419   Thumb Code    40  gps.o(i.GPS_Check)
    GPS_Data_Receive_Prepare                 0x08003465   Thumb Code   216  gps.o(i.GPS_Data_Receive_Prepare)
    GPS_Init                                 0x0800354d   Thumb Code   198  gps.o(i.GPS_Init)
    GPS_xy                                   0x08003629   Thumb Code   640  gps.o(i.GPS_xy)
    HardFault_Handler                        0x080038d5   Thumb Code     4  stm32f10x_it.o(i.HardFault_Handler)
    High_Control                             0x080038d9   Thumb Code    42  control.o(i.High_Control)
    IMUupdate                                0x08003905   Thumb Code  1256  imu.o(i.IMUupdate)
    LED_Init                                 0x08003e11   Thumb Code    50  led.o(i.LED_Init)
    LPButter_BaroAlt                         0x08003e49   Thumb Code   150  ms5611.o(i.LPButter_BaroAlt)
    Led_Task                                 0x08003ef1   Thumb Code   214  led.o(i.Led_Task)
    MOTO1_SetPulse                           0x08003fd9   Thumb Code    14  moto.o(i.MOTO1_SetPulse)
    MOTO2_SetPulse                           0x08003fed   Thumb Code    14  moto.o(i.MOTO2_SetPulse)
    MOTO3_SetPulse                           0x08004001   Thumb Code    14  moto.o(i.MOTO3_SetPulse)
    MOTO4_SetPulse                           0x08004015   Thumb Code    14  moto.o(i.MOTO4_SetPulse)
    MPU9250_Init                             0x08004029   Thumb Code   148  mpu9250.o(i.MPU9250_Init)
    MPU_IIC_Ack                              0x08004111   Thumb Code    66  mpuiic.o(i.MPU_IIC_Ack)
    MPU_IIC_Init                             0x08004161   Thumb Code    50  mpuiic.o(i.MPU_IIC_Init)
    MPU_IIC_NAck                             0x080041a1   Thumb Code    62  mpuiic.o(i.MPU_IIC_NAck)
    MPU_IIC_ReadByte                         0x080041ed   Thumb Code    98  mpuiic.o(i.MPU_IIC_ReadByte)
    MPU_IIC_ReadMultByteFromSlave            0x0800425d   Thumb Code   114  mpuiic.o(i.MPU_IIC_ReadMultByteFromSlave)
    MPU_IIC_SendByte                         0x080042d1   Thumb Code    88  mpuiic.o(i.MPU_IIC_SendByte)
    MPU_IIC_Start                            0x08004335   Thumb Code    64  mpuiic.o(i.MPU_IIC_Start)
    MPU_IIC_Stop                             0x08004381   Thumb Code    62  mpuiic.o(i.MPU_IIC_Stop)
    MPU_IIC_WaitAck                          0x080043cd   Thumb Code    86  mpuiic.o(i.MPU_IIC_WaitAck)
    MPU_IIC_WriteMultByteToSlave             0x08004431   Thumb Code    90  mpuiic.o(i.MPU_IIC_WriteMultByteToSlave)
    MS5611_IIC_Init                          0x0800448d   Thumb Code    40  ms5611iic.o(i.MS5611_IIC_Init)
    MS5611_StateMachine                      0x080044b9   Thumb Code   120  ms5611.o(i.MS5611_StateMachine)
    Mahony_Filter                            0x08004539   Thumb Code    76  ms5611.o(i.Mahony_Filter)
    MemManage_Handler                        0x08004595   Thumb Code     4  stm32f10x_it.o(i.MemManage_Handler)
    Missing_Check                            0x08004599   Thumb Code    70  control.o(i.Missing_Check)
    Mode_select                              0x080045e9   Thumb Code   234  control.o(i.Mode_select)
    NMEA_Comma_Pos                           0x080046d3   Thumb Code    50  gps.o(i.NMEA_Comma_Pos)
    NMEA_GNRMC_Analysis                      0x08004705   Thumb Code   358  gps.o(i.NMEA_GNRMC_Analysis)
    NMEA_GPGSV_Analysis                      0x08004879   Thumb Code    50  gps.o(i.NMEA_GPGSV_Analysis)
    NMEA_Pow                                 0x080048b5   Thumb Code    22  gps.o(i.NMEA_Pow)
    NMEA_Str2num                             0x080048cb   Thumb Code   234  gps.o(i.NMEA_Str2num)
    NMI_Handler                              0x080049b5   Thumb Code     2  stm32f10x_it.o(i.NMI_Handler)
    NVIC_Init                                0x080049b9   Thumb Code   100  misc.o(i.NVIC_Init)
    NVIC_PriorityGroupConfig                 0x08004a29   Thumb Code    10  misc.o(i.NVIC_PriorityGroupConfig)
    OLED_Clear                               0x08004a3d   Thumb Code    62  oled.o(i.OLED_Clear)
    OLED_Clear_data                          0x08004a7b   Thumb Code    62  oled.o(i.OLED_Clear_data)
    OLED_FloatNumber                         0x08004ab9   Thumb Code   264  oled.o(i.OLED_FloatNumber)
    OLED_IIC_Start                           0x08004bcd   Thumb Code    36  oled.o(i.OLED_IIC_Start)
    OLED_IIC_Stop                            0x08004bf5   Thumb Code    28  oled.o(i.OLED_IIC_Stop)
    OLED_IIC_Wait_Ack                        0x08004c15   Thumb Code    20  oled.o(i.OLED_IIC_Wait_Ack)
    OLED_Init                                0x08004c2d   Thumb Code   284  oled.o(i.OLED_Init)
    OLED_SHOW                                0x08004d59   Thumb Code   436  oled.o(i.OLED_SHOW)
    OLED_Set_Pos                             0x08004f15   Thumb Code    40  oled.o(i.OLED_Set_Pos)
    OLED_ShowChar                            0x08004f3d   Thumb Code   154  oled.o(i.OLED_ShowChar)
    OLED_ShowNum                             0x08004fe1   Thumb Code   150  oled.o(i.OLED_ShowNum)
    OLED_ShowString                          0x08005077   Thumb Code    58  oled.o(i.OLED_ShowString)
    OLED_WR_Byte                             0x080050b1   Thumb Code    24  oled.o(i.OLED_WR_Byte)
    PID_Data_Init                            0x080050c9   Thumb Code   280  control.o(i.PID_Data_Init)
    PID_Gyro_Cal                             0x08005205   Thumb Code   472  control.o(i.PID_Gyro_Cal)
    PID_Integrate_Reset                      0x080053e9   Thumb Code    40  control.o(i.PID_Integrate_Reset)
    PID_LPF_Reset                            0x08005411   Thumb Code    76  control.o(i.PID_LPF_Reset)
    PID_Postion_Cal                          0x0800545d   Thumb Code   220  control.o(i.PID_Postion_Cal)
    PID_ReadFlash                            0x08005541   Thumb Code    96  paramsave.o(i.PID_ReadFlash)
    PID_WriteFlash                           0x080055a9   Thumb Code    54  paramsave.o(i.PID_WriteFlash)
    PWM_PPM_TIM_Init                         0x080055e9   Thumb Code    70  timer.o(i.PWM_PPM_TIM_Init)
    Parameter_init                           0x08005649   Thumb Code   128  control.o(i.Parameter_init)
    ParamsToTable                            0x080056e9   Thumb Code   562  paramsave.o(i.ParamsToTable)
    Pose_Check                               0x08005921   Thumb Code    90  control.o(i.Pose_Check)
    Pose_Control                             0x08005989   Thumb Code   362  control.o(i.Pose_Control)
    Position_Control                         0x08005b05   Thumb Code    56  control.o(i.Position_Control)
    RCC_APB1PeriphClockCmd                   0x08005b3d   Thumb Code    26  stm32f10x_rcc.o(i.RCC_APB1PeriphClockCmd)
    RCC_APB1PeriphResetCmd                   0x08005b5d   Thumb Code    26  stm32f10x_rcc.o(i.RCC_APB1PeriphResetCmd)
    RCC_APB2PeriphClockCmd                   0x08005b7d   Thumb Code    26  stm32f10x_rcc.o(i.RCC_APB2PeriphClockCmd)
    RCC_APB2PeriphResetCmd                   0x08005b9d   Thumb Code    26  stm32f10x_rcc.o(i.RCC_APB2PeriphResetCmd)
    RCC_GetClocksFreq                        0x08005bbd   Thumb Code   192  stm32f10x_rcc.o(i.RCC_GetClocksFreq)
    Read_MS5611_Offset                       0x08005c91   Thumb Code   128  ms5611.o(i.Read_MS5611_Offset)
    STMFLASH_Read                            0x08005d19   Thumb Code    32  flash.o(i.STMFLASH_Read)
    STMFLASH_ReadWord                        0x08005d39   Thumb Code     6  flash.o(i.STMFLASH_ReadWord)
    STMFLASH_Write                           0x08005d41   Thumb Code   126  flash.o(i.STMFLASH_Write)
    SVC_Handler                              0x08005dc9   Thumb Code     2  stm32f10x_it.o(i.SVC_Handler)
    Set_Cutoff_Frequency                     0x08005eb5   Thumb Code   268  control.o(i.Set_Cutoff_Frequency)
    Set_Pwm                                  0x08005fcd   Thumb Code    88  control.o(i.Set_Pwm)
    Set_home_xy                              0x08006025   Thumb Code    76  gps.o(i.Set_home_xy)
    SysTick_CLKSourceConfig                  0x08006079   Thumb Code    40  misc.o(i.SysTick_CLKSourceConfig)
    SystemInit                               0x080060a1   Thumb Code    78  system_stm32f10x.o(i.SystemInit)
    TIM2_IRQHandler                          0x08006341   Thumb Code  1044  timer.o(i.TIM2_IRQHandler)
    TIM3_IRQHandler                          0x08006755   Thumb Code   252  timer.o(i.TIM3_IRQHandler)
    TIM4_IRQHandler                          0x08006865   Thumb Code   244  timer.o(i.TIM4_IRQHandler)
    TIM_ARRPreloadConfig                     0x08006979   Thumb Code    24  stm32f10x_tim.o(i.TIM_ARRPreloadConfig)
    TIM_ClearITPendingBit                    0x08006991   Thumb Code     6  stm32f10x_tim.o(i.TIM_ClearITPendingBit)
    TIM_Cmd                                  0x08006997   Thumb Code    24  stm32f10x_tim.o(i.TIM_Cmd)
    TIM_CtrlPWMOutputs                       0x080069af   Thumb Code    30  stm32f10x_tim.o(i.TIM_CtrlPWMOutputs)
    TIM_GetCapture1                          0x080069cd   Thumb Code     6  stm32f10x_tim.o(i.TIM_GetCapture1)
    TIM_GetCapture2                          0x080069d3   Thumb Code     6  stm32f10x_tim.o(i.TIM_GetCapture2)
    TIM_GetCapture3                          0x080069d9   Thumb Code     6  stm32f10x_tim.o(i.TIM_GetCapture3)
    TIM_GetCapture4                          0x080069df   Thumb Code     8  stm32f10x_tim.o(i.TIM_GetCapture4)
    TIM_GetITStatus                          0x080069e7   Thumb Code    34  stm32f10x_tim.o(i.TIM_GetITStatus)
    TIM_ICInit                               0x08006a09   Thumb Code   150  stm32f10x_tim.o(i.TIM_ICInit)
    TIM_ITConfig                             0x08006ab5   Thumb Code    18  stm32f10x_tim.o(i.TIM_ITConfig)
    TIM_Init                                 0x08006ac9   Thumb Code    80  timer.o(i.TIM_Init)
    TIM_OC1Init                              0x08006b1d   Thumb Code   132  stm32f10x_tim.o(i.TIM_OC1Init)
    TIM_OC1PolarityConfig                    0x08006bb5   Thumb Code    18  stm32f10x_tim.o(i.TIM_OC1PolarityConfig)
    TIM_OC1PreloadConfig                     0x08006bc7   Thumb Code    18  stm32f10x_tim.o(i.TIM_OC1PreloadConfig)
    TIM_OC2Init                              0x08006bd9   Thumb Code   154  stm32f10x_tim.o(i.TIM_OC2Init)
    TIM_OC2PolarityConfig                    0x08006c7d   Thumb Code    26  stm32f10x_tim.o(i.TIM_OC2PolarityConfig)
    TIM_OC2PreloadConfig                     0x08006c97   Thumb Code    26  stm32f10x_tim.o(i.TIM_OC2PreloadConfig)
    TIM_OC3Init                              0x08006cb1   Thumb Code   150  stm32f10x_tim.o(i.TIM_OC3Init)
    TIM_OC3PolarityConfig                    0x08006d51   Thumb Code    26  stm32f10x_tim.o(i.TIM_OC3PolarityConfig)
    TIM_OC3PreloadConfig                     0x08006d6b   Thumb Code    18  stm32f10x_tim.o(i.TIM_OC3PreloadConfig)
    TIM_OC4Init                              0x08006d7d   Thumb Code   114  stm32f10x_tim.o(i.TIM_OC4Init)
    TIM_OC4PolarityConfig                    0x08006df9   Thumb Code    26  stm32f10x_tim.o(i.TIM_OC4PolarityConfig)
    TIM_OC4PreloadConfig                     0x08006e13   Thumb Code    26  stm32f10x_tim.o(i.TIM_OC4PreloadConfig)
    TIM_PPM_Init                             0x08006e2d   Thumb Code   270  timer.o(i.TIM_PPM_Init)
    TIM_PPWM_Init                            0x08006f41   Thumb Code   160  timer.o(i.TIM_PPWM_Init)
    TIM_PWM_Init                             0x08006fe9   Thumb Code   212  timer.o(i.TIM_PWM_Init)
    TIM_SetCompare1                          0x080070c5   Thumb Code     4  stm32f10x_tim.o(i.TIM_SetCompare1)
    TIM_SetCompare2                          0x080070c9   Thumb Code     4  stm32f10x_tim.o(i.TIM_SetCompare2)
    TIM_SetCompare3                          0x080070cd   Thumb Code     4  stm32f10x_tim.o(i.TIM_SetCompare3)
    TIM_SetCompare4                          0x080070d1   Thumb Code     6  stm32f10x_tim.o(i.TIM_SetCompare4)
    TIM_SetCounter                           0x080070d7   Thumb Code     4  stm32f10x_tim.o(i.TIM_SetCounter)
    TIM_SetIC1Prescaler                      0x080070db   Thumb Code    18  stm32f10x_tim.o(i.TIM_SetIC1Prescaler)
    TIM_SetIC2Prescaler                      0x080070ed   Thumb Code    26  stm32f10x_tim.o(i.TIM_SetIC2Prescaler)
    TIM_SetIC3Prescaler                      0x08007107   Thumb Code    18  stm32f10x_tim.o(i.TIM_SetIC3Prescaler)
    TIM_SetIC4Prescaler                      0x08007119   Thumb Code    26  stm32f10x_tim.o(i.TIM_SetIC4Prescaler)
    TIM_TimeBaseInit                         0x08007135   Thumb Code   122  stm32f10x_tim.o(i.TIM_TimeBaseInit)
    TableToParams                            0x080071d9   Thumb Code   774  paramsave.o(i.TableToParams)
    USART1_IRQHandler                        0x080074e5   Thumb Code   122  usart1.o(i.USART1_IRQHandler)
    USART3_IRQHandler                        0x0800756d   Thumb Code   144  usart3.o(i.USART3_IRQHandler)
    USART3_Init                              0x08007605   Thumb Code   182  usart3.o(i.USART3_Init)
    USART_ClearFlag                          0x080076d5   Thumb Code    18  stm32f10x_usart.o(i.USART_ClearFlag)
    USART_ClearITPendingBit                  0x080076e7   Thumb Code    30  stm32f10x_usart.o(i.USART_ClearITPendingBit)
    USART_Cmd                                0x08007705   Thumb Code    24  stm32f10x_usart.o(i.USART_Cmd)
    USART_DeInit                             0x0800771d   Thumb Code   134  stm32f10x_usart.o(i.USART_DeInit)
    USART_GetFlagStatus                      0x080077b9   Thumb Code    26  stm32f10x_usart.o(i.USART_GetFlagStatus)
    USART_GetITStatus                        0x080077d3   Thumb Code    84  stm32f10x_usart.o(i.USART_GetITStatus)
    USART_ITConfig                           0x08007827   Thumb Code    74  stm32f10x_usart.o(i.USART_ITConfig)
    USART_Init                               0x08007871   Thumb Code   210  stm32f10x_usart.o(i.USART_Init)
    USART_ReceiveData                        0x08007949   Thumb Code    10  stm32f10x_usart.o(i.USART_ReceiveData)
    USART_SendData                           0x08007953   Thumb Code     8  stm32f10x_usart.o(i.USART_SendData)
    UsageFault_Handler                       0x0800795b   Thumb Code     4  stm32f10x_it.o(i.UsageFault_Handler)
    Write_IIC_Byte                           0x08007961   Thumb Code    80  oled.o(i.Write_IIC_Byte)
    Write_IIC_Command                        0x080079b5   Thumb Code    44  oled.o(i.Write_IIC_Command)
    Write_IIC_Data                           0x080079e1   Thumb Code    44  oled.o(i.Write_IIC_Data)
    __0vsprintf                              0x08007a0d   Thumb Code    30  printfa.o(i.__0vsprintf)
    __1vsprintf                              0x08007a0d   Thumb Code     0  printfa.o(i.__0vsprintf)
    __2vsprintf                              0x08007a0d   Thumb Code     0  printfa.o(i.__0vsprintf)
    __c89vsprintf                            0x08007a0d   Thumb Code     0  printfa.o(i.__0vsprintf)
    vsprintf                                 0x08007a0d   Thumb Code     0  printfa.o(i.__0vsprintf)
    __ARM_fpclassify                         0x08007a31   Thumb Code    40  fpclassify.o(i.__ARM_fpclassify)
    __ARM_fpclassifyf                        0x08007a59   Thumb Code    38  fpclassifyf.o(i.__ARM_fpclassifyf)
    __ieee754_rem_pio2                       0x08007a81   Thumb Code   828  rred.o(i.__ieee754_rem_pio2)
    __kernel_cos                             0x08007e09   Thumb Code   230  cos_i.o(i.__kernel_cos)
    __kernel_poly                            0x08007f05   Thumb Code   170  poly.o(i.__kernel_poly)
    __kernel_sin                             0x08007fb1   Thumb Code   224  sin_i.o(i.__kernel_sin)
    __mathlib_dbl_divzero                    0x0800809d   Thumb Code    12  dunder.o(i.__mathlib_dbl_divzero)
    __mathlib_dbl_infnan                     0x080080ad   Thumb Code     6  dunder.o(i.__mathlib_dbl_infnan)
    __mathlib_dbl_infnan2                    0x080080b3   Thumb Code     4  dunder.o(i.__mathlib_dbl_infnan2)
    __mathlib_dbl_invalid                    0x080080b7   Thumb Code    12  dunder.o(i.__mathlib_dbl_invalid)
    __mathlib_dbl_overflow                   0x080080c3   Thumb Code    14  dunder.o(i.__mathlib_dbl_overflow)
    __mathlib_dbl_underflow                  0x080080d1   Thumb Code    10  dunder.o(i.__mathlib_dbl_underflow)
    __mathlib_flt_divzero                    0x080080e1   Thumb Code    10  funder.o(i.__mathlib_flt_divzero)
    __mathlib_flt_infnan                     0x080080eb   Thumb Code     6  funder.o(i.__mathlib_flt_infnan)
    __mathlib_flt_infnan2                    0x080080f1   Thumb Code     4  funder.o(i.__mathlib_flt_infnan2)
    __mathlib_flt_invalid                    0x080080f5   Thumb Code     8  funder.o(i.__mathlib_flt_invalid)
    __mathlib_flt_overflow                   0x080080fd   Thumb Code    10  funder.o(i.__mathlib_flt_overflow)
    __mathlib_flt_underflow                  0x08008107   Thumb Code    10  funder.o(i.__mathlib_flt_underflow)
    __mathlib_rredf2                         0x08008111   Thumb Code   344  rredf.o(i.__mathlib_rredf2)
    __scatterload_copy                       0x08008279   Thumb Code    14  handlers.o(i.__scatterload_copy)
    __scatterload_null                       0x08008287   Thumb Code     2  handlers.o(i.__scatterload_null)
    __scatterload_zeroinit                   0x08008289   Thumb Code    14  handlers.o(i.__scatterload_zeroinit)
    __set_errno                              0x08008299   Thumb Code     6  errno.o(i.__set_errno)
    abs_limit                                0x08008b61   Thumb Code    40  control.o(i.abs_limit)
    alignBoard                               0x08008b89   Thumb Code   276  utils.o(i.alignBoard)
    alignSensors                             0x08008ca1   Thumb Code   204  utils.o(i.alignSensors)
    asin                                     0x08008d71   Thumb Code   572  asin.o(i.asin)
    atan                                     0x08008fe1   Thumb Code   474  atan.o(i.atan)
    atan2                                    0x08009201   Thumb Code   346  atan2.o(i.atan2)
    cos                                      0x08009381   Thumb Code   148  cos.o(i.cos)
    cosf                                     0x0800941d   Thumb Code   328  cosf.o(i.cosf)
    delay_init                               0x08009599   Thumb Code    50  delay.o(i.delay_init)
    delay_ms                                 0x080095dd   Thumb Code    72  delay.o(i.delay_ms)
    delay_us                                 0x08009629   Thumb Code    72  delay.o(i.delay_us)
    dmp_enable_6x_lp_quat                    0x08009675   Thumb Code    60  inv_mpu_dmp_motion_driver.o(i.dmp_enable_6x_lp_quat)
    dmp_enable_feature                       0x080096b1   Thumb Code   530  inv_mpu_dmp_motion_driver.o(i.dmp_enable_feature)
    dmp_enable_gyro_cal                      0x080098cd   Thumb Code    62  inv_mpu_dmp_motion_driver.o(i.dmp_enable_gyro_cal)
    dmp_enable_lp_quat                       0x08009925   Thumb Code    60  inv_mpu_dmp_motion_driver.o(i.dmp_enable_lp_quat)
    dmp_load_motion_driver_firmware          0x08009961   Thumb Code    20  inv_mpu_dmp_motion_driver.o(i.dmp_load_motion_driver_firmware)
    dmp_read_fifo                            0x08009979   Thumb Code   442  inv_mpu_dmp_motion_driver.o(i.dmp_read_fifo)
    dmp_set_fifo_rate                        0x08009b39   Thumb Code    96  inv_mpu_dmp_motion_driver.o(i.dmp_set_fifo_rate)
    dmp_set_orientation                      0x08009ba9   Thumb Code   290  inv_mpu_dmp_motion_driver.o(i.dmp_set_orientation)
    dmp_set_shake_reject_thresh              0x08009ce1   Thumb Code    56  inv_mpu_dmp_motion_driver.o(i.dmp_set_shake_reject_thresh)
    dmp_set_shake_reject_time                0x08009d19   Thumb Code    38  inv_mpu_dmp_motion_driver.o(i.dmp_set_shake_reject_time)
    dmp_set_shake_reject_timeout             0x08009d3f   Thumb Code    38  inv_mpu_dmp_motion_driver.o(i.dmp_set_shake_reject_timeout)
    dmp_set_tap_axes                         0x08009d65   Thumb Code    70  inv_mpu_dmp_motion_driver.o(i.dmp_set_tap_axes)
    dmp_set_tap_count                        0x08009dab   Thumb Code    38  inv_mpu_dmp_motion_driver.o(i.dmp_set_tap_count)
    dmp_set_tap_thresh                       0x08009dd1   Thumb Code   396  inv_mpu_dmp_motion_driver.o(i.dmp_set_tap_thresh)
    dmp_set_tap_time                         0x08009f71   Thumb Code    38  inv_mpu_dmp_motion_driver.o(i.dmp_set_tap_time)
    dmp_set_tap_time_multi                   0x08009f97   Thumb Code    38  inv_mpu_dmp_motion_driver.o(i.dmp_set_tap_time_multi)
    getEstimatedAltitude                     0x08009fbd   Thumb Code    92  ms5611.o(i.getEstimatedAltitude)
    get_ms                                   0x0800a029   Thumb Code     2  delay.o(i.get_ms)
    i2c_MS561101BA_Calculate                 0x0800a02d   Thumb Code   366  ms5611.o(i.i2c_MS561101BA_Calculate)
    i2c_MS561101BA_UP_Read                   0x0800a1b1   Thumb Code    46  ms5611.o(i.i2c_MS561101BA_UP_Read)
    i2c_MS561101BA_UP_Start                  0x0800a1e5   Thumb Code    20  ms5611.o(i.i2c_MS561101BA_UP_Start)
    i2c_MS561101BA_UT_Read                   0x0800a1f9   Thumb Code    46  ms5611.o(i.i2c_MS561101BA_UT_Read)
    i2c_MS561101BA_UT_Start                  0x0800a22d   Thumb Code    20  ms5611.o(i.i2c_MS561101BA_UT_Start)
    i2c_MS561101BA_readCalibration           0x0800a241   Thumb Code    76  ms5611.o(i.i2c_MS561101BA_readCalibration)
    i2c_MS561101BA_reset                     0x0800a291   Thumb Code    14  ms5611.o(i.i2c_MS561101BA_reset)
    i2c_read                                 0x0800a2a1   Thumb Code   238  ms5611iic.o(i.i2c_read)
    i2c_readAck                              0x0800a395   Thumb Code    10  ms5611iic.o(i.i2c_readAck)
    i2c_readNak                              0x0800a39f   Thumb Code    10  ms5611iic.o(i.i2c_readNak)
    i2c_rep_start                            0x0800a3a9   Thumb Code    74  ms5611iic.o(i.i2c_rep_start)
    i2c_stop                                 0x0800a3f9   Thumb Code    70  ms5611iic.o(i.i2c_stop)
    i2c_write                                0x0800a445   Thumb Code   132  ms5611iic.o(i.i2c_write)
    i2c_writeReg                             0x0800a4cd   Thumb Code    34  ms5611iic.o(i.i2c_writeReg)
    initBoardAlignment                       0x0800a4f1   Thumb Code   264  utils.o(i.initBoardAlignment)
    kalmanFilter                             0x0800a67b   Thumb Code    90  imu.o(i.kalmanFilter)
    log                                      0x0800a6d5   Thumb Code   808  log.o(i.log)
    lrintf                                   0x0800aa31   Thumb Code    50  lrintf.o(i.lrintf)
    main                                     0x0800aa65   Thumb Code    14  main.o(i.main)
    mpu_configure_fifo                       0x0800aa79   Thumb Code   106  inv_mpu.o(i.mpu_configure_fifo)
    mpu_get_accel_fsr                        0x0800aae9   Thumb Code    72  inv_mpu.o(i.mpu_get_accel_fsr)
    mpu_init                                 0x0800ab35   Thumb Code   292  inv_mpu.o(i.mpu_init)
    mpu_load_firmware                        0x0800ac5d   Thumb Code   180  inv_mpu.o(i.mpu_load_firmware)
    mpu_lp_accel_mode                        0x0800ad15   Thumb Code   280  inv_mpu.o(i.mpu_lp_accel_mode)
    mpu_read_fifo_stream                     0x0800ae31   Thumb Code   186  inv_mpu.o(i.mpu_read_fifo_stream)
    mpu_read_mem                             0x0800aef1   Thumb Code   122  inv_mpu.o(i.mpu_read_mem)
    mpu_reset_fifo                           0x0800af71   Thumb Code   444  inv_mpu.o(i.mpu_reset_fifo)
    mpu_set_accel_fsr                        0x0800b131   Thumb Code   126  inv_mpu.o(i.mpu_set_accel_fsr)
    mpu_set_bypass                           0x0800b1b5   Thumb Code   328  inv_mpu.o(i.mpu_set_bypass)
    mpu_set_compass_sample_rate              0x0800b301   Thumb Code    92  inv_mpu.o(i.mpu_set_compass_sample_rate)
    mpu_set_dmp_state                        0x0800b361   Thumb Code   138  inv_mpu.o(i.mpu_set_dmp_state)
    mpu_set_gyro_fsr                         0x0800b3f1   Thumb Code   132  inv_mpu.o(i.mpu_set_gyro_fsr)
    mpu_set_int_latched                      0x0800b479   Thumb Code   102  inv_mpu.o(i.mpu_set_int_latched)
    mpu_set_lpf                              0x0800b4e5   Thumb Code   126  inv_mpu.o(i.mpu_set_lpf)
    mpu_set_sample_rate                      0x0800b569   Thumb Code   174  inv_mpu.o(i.mpu_set_sample_rate)
    mpu_set_sensors                          0x0800b61d   Thumb Code   354  inv_mpu.o(i.mpu_set_sensors)
    mpu_write_mem                            0x0800b785   Thumb Code   122  inv_mpu.o(i.mpu_write_mem)
    oled_pow                                 0x0800b805   Thumb Code    22  oled.o(i.oled_pow)
    pow                                      0x0800b81d   Thumb Code  2512  pow.o(i.pow)
    __mathlib_powf                           0x0800c1f5   Thumb Code     0  powf.o(i.powf)
    powf                                     0x0800c1f5   Thumb Code  1548  powf.o(i.powf)
    sin                                      0x0800cb0d   Thumb Code   150  sin.o(i.sin)
    sinf                                     0x0800cbad   Thumb Code   338  sinf.o(i.sinf)
    sqrt                                     0x0800cd35   Thumb Code    76  sqrt.o(i.sqrt)
    tanf                                     0x0800cd81   Thumb Code   314  tanf.o(i.tanf)
    u3_printf                                0x0800cef5   Thumb Code    72  usart3.o(i.u3_printf)
    F6x8                                     0x0800cf44   Data         552  oled.o(.constdata)
    F8X16                                    0x0800d16c   Data        1520  oled.o(.constdata)
    WiFi                                     0x0800d75c   Data         192  oled.o(.constdata)
    GPS_Set_bound                            0x0800d834   Data          74  gps.o(.constdata)
    GPS_Set_rate                             0x0800d87e   Data          44  gps.o(.constdata)
    GPS_Set_hotstart                         0x0800d8aa   Data          24  gps.o(.constdata)
    GPS_Set_save                             0x0800d8c2   Data          42  gps.o(.constdata)
    reg                                      0x0800d8ec   Data          42  inv_mpu.o(.constdata)
    hw                                       0x0800d916   Data          14  inv_mpu.o(.constdata)
    test                                     0x0800d924   Data          40  inv_mpu.o(.constdata)
    __mathlib_zero                           0x0800e860   Data           8  qnan.o(.constdata)
    Region$$Table$$Base                      0x0800e978   Number         0  anon$$obj.o(Region$$Table)
    Region$$Table$$Limit                     0x0800e998   Number         0  anon$$obj.o(Region$$Table)
    TIM2CH1_CAPTURE_STA                      0x20000008   Data           1  timer.o(.data)
    TIM2CH2_CAPTURE_STA                      0x20000009   Data           1  timer.o(.data)
    TIM2CH3_CAPTURE_STA                      0x2000000a   Data           1  timer.o(.data)
    TIM2CH4_CAPTURE_STA                      0x2000000b   Data           1  timer.o(.data)
    TIM3CH1_CAPTURE_STA                      0x2000000c   Data           1  timer.o(.data)
    TIM2CH1_CAPTURE_UPVAL                    0x2000000e   Data           2  timer.o(.data)
    TIM2CH2_CAPTURE_UPVAL                    0x20000010   Data           2  timer.o(.data)
    TIM2CH3_CAPTURE_UPVAL                    0x20000012   Data           2  timer.o(.data)
    TIM2CH4_CAPTURE_UPVAL                    0x20000014   Data           2  timer.o(.data)
    TIM3CH1_CAPTURE_UPVAL                    0x20000016   Data           2  timer.o(.data)
    standardBoardAlignment                   0x2000002c   Data           1  utils.o(.data)
    uart3_data                               0x2000004d   Data           1  usart3.o(.data)
    __stdout                                 0x20000058   Data           4  usart1.o(.data)
    USART_RX_STA                             0x2000005c   Data           2  usart1.o(.data)
    q0                                       0x20000060   Data           4  imu.o(.data)
    q1                                       0x20000064   Data           4  imu.o(.data)
    q2                                       0x20000068   Data           4  imu.o(.data)
    q3                                       0x2000006c   Data           4  imu.o(.data)
    sensor_timestamp                         0x20000070   Data           4  imu.o(.data)
    KFP_gyro_x                               0x20000074   Data          24  imu.o(.data)
    KFP_gyro_y                               0x2000008c   Data          24  imu.o(.data)
    KFP_gyro_z                               0x200000a4   Data          24  imu.o(.data)
    KFP_acc_x                                0x200000bc   Data          24  imu.o(.data)
    KFP_acc_y                                0x200000d4   Data          24  imu.o(.data)
    KFP_acc_z                                0x200000ec   Data          24  imu.o(.data)
    SystemCoreClock                          0x20000160   Data           4  system_stm32f10x.o(.data)
    AHBPrescTable                            0x20000164   Data          16  system_stm32f10x.o(.data)
    Fly                                      0x20000178   Data        2648  control.o(.bss)
    RS485_TX_BUFF                            0x20000c80   Data         100  usart3.o(.bss)
    RS485_RX_BUFF                            0x20000ce4   Data         100  usart3.o(.bss)
    data_to_send                             0x20000d48   Data          50  serial_oscilloscope.o(.bss)
    USART_RX_BUF                             0x20000dac   Data         200  usart1.o(.bss)
    quat                                     0x20000e74   Data          16  imu.o(.bss)
    __initial_sp                             0x20001298   Data           0  startup_stm32f10x_md.o(STACK)



==============================================================================

Memory Map of the image

  Image Entry point : 0x080000ed

  Load Region LR_IROM1 (Base: 0x08000000, Size: 0x0000eb10, Max: 0x00010000, ABSOLUTE, COMPRESSED[0x0000e9e8])

    Execution Region ER_IROM1 (Exec base: 0x08000000, Load base: 0x08000000, Size: 0x0000e998, Max: 0x00010000, ABSOLUTE)

    Exec Addr    Load Addr    Size         Type   Attr      Idx    E Section Name        Object

    0x08000000   0x08000000   0x000000ec   Data   RO         5138    RESET               startup_stm32f10x_md.o
    0x080000ec   0x080000ec   0x00000000   Code   RO         5253  * .ARM.Collect$$$$00000000  mc_w.l(entry.o)
    0x080000ec   0x080000ec   0x00000004   Code   RO         5622    .ARM.Collect$$$$00000001  mc_w.l(entry2.o)
    0x080000f0   0x080000f0   0x00000004   Code   RO         5625    .ARM.Collect$$$$00000004  mc_w.l(entry5.o)
    0x080000f4   0x080000f4   0x00000000   Code   RO         5627    .ARM.Collect$$$$00000008  mc_w.l(entry7b.o)
    0x080000f4   0x080000f4   0x00000000   Code   RO         5629    .ARM.Collect$$$$0000000A  mc_w.l(entry8b.o)
    0x080000f4   0x080000f4   0x00000008   Code   RO         5630    .ARM.Collect$$$$0000000B  mc_w.l(entry9a.o)
    0x080000fc   0x080000fc   0x00000000   Code   RO         5632    .ARM.Collect$$$$0000000D  mc_w.l(entry10a.o)
    0x080000fc   0x080000fc   0x00000000   Code   RO         5634    .ARM.Collect$$$$0000000F  mc_w.l(entry11a.o)
    0x080000fc   0x080000fc   0x00000004   Code   RO         5623    .ARM.Collect$$$$00002712  mc_w.l(entry2.o)
    0x08000100   0x08000100   0x00000024   Code   RO         5139    .text               startup_stm32f10x_md.o
    0x08000124   0x08000124   0x00000024   Code   RO         5258    .text               mc_w.l(memcpya.o)
    0x08000148   0x08000148   0x00000024   Code   RO         5260    .text               mc_w.l(memseta.o)
    0x0800016c   0x0800016c   0x00000024   Code   RO         5262    .text               mc_w.l(strstr.o)
    0x08000190   0x08000190   0x0000000e   Code   RO         5264    .text               mc_w.l(strlen.o)
    0x0800019e   0x0800019e   0x0000001a   Code   RO         5266    .text               mc_w.l(memcmp.o)
    0x080001b8   0x080001b8   0x000000b0   Code   RO         5530    .text               mf_w.l(fadd.o)
    0x08000268   0x08000268   0x00000064   Code   RO         5532    .text               mf_w.l(fmul.o)
    0x080002cc   0x080002cc   0x0000007c   Code   RO         5534    .text               mf_w.l(fdiv.o)
    0x08000348   0x08000348   0x0000014e   Code   RO         5536    .text               mf_w.l(dadd.o)
    0x08000496   0x08000496   0x000000e4   Code   RO         5538    .text               mf_w.l(dmul.o)
    0x0800057a   0x0800057a   0x000000de   Code   RO         5540    .text               mf_w.l(ddiv.o)
    0x08000658   0x08000658   0x00000012   Code   RO         5542    .text               mf_w.l(fflti.o)
    0x0800066a   0x0800066a   0x0000000a   Code   RO         5544    .text               mf_w.l(ffltui.o)
    0x08000674   0x08000674   0x0000002c   Code   RO         5546    .text               mf_w.l(ffltl.o)
    0x080006a0   0x080006a0   0x00000022   Code   RO         5548    .text               mf_w.l(dflti.o)
    0x080006c2   0x080006c2   0x0000001a   Code   RO         5550    .text               mf_w.l(dfltui.o)
    0x080006dc   0x080006dc   0x00000032   Code   RO         5552    .text               mf_w.l(ffixi.o)
    0x0800070e   0x0800070e   0x00000028   Code   RO         5554    .text               mf_w.l(ffixui.o)
    0x08000736   0x08000736   0x00000032   Code   RO         5556    .text               mf_w.l(dfixui.o)
    0x08000768   0x08000768   0x00000026   Code   RO         5558    .text               mf_w.l(f2d.o)
    0x0800078e   0x0800078e   0x00000002   PAD
    0x08000790   0x08000790   0x00000030   Code   RO         5560    .text               mf_w.l(cdcmple.o)
    0x080007c0   0x080007c0   0x00000030   Code   RO         5562    .text               mf_w.l(cdrcmple.o)
    0x080007f0   0x080007f0   0x00000038   Code   RO         5564    .text               mf_w.l(d2f.o)
    0x08000828   0x08000828   0x00000014   Code   RO         5566    .text               mf_w.l(cfcmple.o)
    0x0800083c   0x0800083c   0x00000014   Code   RO         5568    .text               mf_w.l(cfrcmple.o)
    0x08000850   0x08000850   0x0000002c   Code   RO         5636    .text               mc_w.l(uidiv.o)
    0x0800087c   0x0800087c   0x00000062   Code   RO         5638    .text               mc_w.l(uldiv.o)
    0x080008de   0x080008de   0x0000001e   Code   RO         5640    .text               mc_w.l(llshl.o)
    0x080008fc   0x080008fc   0x00000020   Code   RO         5642    .text               mc_w.l(llushr.o)
    0x0800091c   0x0800091c   0x00000024   Code   RO         5644    .text               mc_w.l(llsshr.o)
    0x08000940   0x08000940   0x00000000   Code   RO         5653    .text               mc_w.l(iusefp.o)
    0x08000940   0x08000940   0x0000006e   Code   RO         5654    .text               mf_w.l(fepilogue.o)
    0x080009ae   0x080009ae   0x00000018   Code   RO         5656    .text               mf_w.l(fscalb.o)
    0x080009c6   0x080009c6   0x0000003c   Code   RO         5658    .text               mf_w.l(frnd.o)
    0x08000a02   0x08000a02   0x000000ba   Code   RO         5660    .text               mf_w.l(depilogue.o)
    0x08000abc   0x08000abc   0x0000002e   Code   RO         5662    .text               mf_w.l(dscalb.o)
    0x08000aea   0x08000aea   0x000000a2   Code   RO         5664    .text               mf_w.l(dsqrt.o)
    0x08000b8c   0x08000b8c   0x00000030   Code   RO         5666    .text               mf_w.l(dfixul.o)
    0x08000bbc   0x08000bbc   0x0000004c   Code   RO         5668    .text               mf_w.l(ffixir.o)
    0x08000c08   0x08000c08   0x00000004   Code   RO         5670    .text               mf_w.l(fpstat.o)
    0x08000c0c   0x08000c0c   0x00000024   Code   RO         5672    .text               mc_w.l(init.o)
    0x08000c30   0x08000c30   0x0000003e   Code   RO         5674    .text               mf_w.l(dfixi.o)
    0x08000c6e   0x08000c6e   0x00000056   Code   RO         5684    .text               mc_w.l(__dczerorl2.o)
    0x08000cc4   0x08000cc4   0x000000c0   Code   RO         1244    i.AK8975Init        ak8975.o
    0x08000d84   0x08000d84   0x000000cc   Code   RO         1245    i.AK8975Read        ak8975.o
    0x08000e50   0x08000e50   0x00000050   Code   RO         1157    i.AK8975_IIC_Ack    ak8975iic.o
    0x08000ea0   0x08000ea0   0x00000040   Code   RO         1159    i.AK8975_IIC_Init   ak8975iic.o
    0x08000ee0   0x08000ee0   0x0000004c   Code   RO         1160    i.AK8975_IIC_NAck   ak8975iic.o
    0x08000f2c   0x08000f2c   0x00000070   Code   RO         1161    i.AK8975_IIC_ReadByte  ak8975iic.o
    0x08000f9c   0x08000f9c   0x0000004a   Code   RO         1162    i.AK8975_IIC_ReadByteFromSlave  ak8975iic.o
    0x08000fe6   0x08000fe6   0x00000072   Code   RO         1163    i.AK8975_IIC_ReadMultByteFromSlave  ak8975iic.o
    0x08001058   0x08001058   0x00000064   Code   RO         1164    i.AK8975_IIC_SendByte  ak8975iic.o
    0x080010bc   0x080010bc   0x0000004c   Code   RO         1165    i.AK8975_IIC_Start  ak8975iic.o
    0x08001108   0x08001108   0x0000004c   Code   RO         1166    i.AK8975_IIC_Stop   ak8975iic.o
    0x08001154   0x08001154   0x00000064   Code   RO         1167    i.AK8975_IIC_WaitAck  ak8975iic.o
    0x080011b8   0x080011b8   0x00000046   Code   RO         1168    i.AK8975_IIC_WriteByteToSlave  ak8975iic.o
    0x080011fe   0x080011fe   0x00000002   PAD
    0x08001200   0x08001200   0x00000516   Code   RO         1405    i.ANO_DT_Data_Exchange  serial_oscilloscope.o
    0x08001716   0x08001716   0x00000002   PAD
    0x08001718   0x08001718   0x00000764   Code   RO         1406    i.ANO_DT_Data_Receive_Anl  serial_oscilloscope.o
    0x08001e7c   0x08001e7c   0x000000ec   Code   RO         1407    i.ANO_DT_Data_Receive_Prepare  serial_oscilloscope.o
    0x08001f68   0x08001f68   0x00000048   Code   RO         1408    i.ANO_DT_Send_Check  serial_oscilloscope.o
    0x08001fb0   0x08001fb0   0x00000044   Code   RO         1409    i.ANO_DT_Send_Data  serial_oscilloscope.o
    0x08001ff4   0x08001ff4   0x0000012c   Code   RO         1410    i.ANO_DT_Send_MotoPWM  serial_oscilloscope.o
    0x08002120   0x08002120   0x000001c0   Code   RO         1411    i.ANO_DT_Send_PID   serial_oscilloscope.o
    0x080022e0   0x080022e0   0x00000164   Code   RO         1412    i.ANO_DT_Send_RCData  serial_oscilloscope.o
    0x08002444   0x08002444   0x0000017c   Code   RO         1413    i.ANO_DT_Send_Senser  serial_oscilloscope.o
    0x080025c0   0x080025c0   0x00000148   Code   RO         1414    i.ANO_DT_Send_Status  serial_oscilloscope.o
    0x08002708   0x08002708   0x00000038   Code   RO          288    i.BEEP_Init         beep.o
    0x08002740   0x08002740   0x0000004c   Code   RO          584    i.BSP_Init          control.o
    0x0800278c   0x0800278c   0x0000004c   Code   RO         1054    i.Baro_Common       ms5611.o
    0x080027d8   0x080027d8   0x00000068   Code   RO         1055    i.Baro_init         ms5611.o
    0x08002840   0x08002840   0x00000038   Code   RO         1056    i.Baro_update       ms5611.o
    0x08002878   0x08002878   0x00000004   Code   RO           98    i.BusFault_Handler  stm32f10x_it.o
    0x0800287c   0x0800287c   0x0000001c   Code   RO          585    i.Butterworth_Parameter_Init  control.o
    0x08002898   0x08002898   0x000002b0   Code   RO          586    i.Control           control.o
    0x08002b48   0x08002b48   0x00000074   Code   RO          587    i.Control_Device_LPF  control.o
    0x08002bbc   0x08002bbc   0x0000003e   Code   RO          588    i.Deal_Remote_date  control.o
    0x08002bfa   0x08002bfa   0x00000002   Code   RO           99    i.DebugMon_Handler  stm32f10x_it.o
    0x08002bfc   0x08002bfc   0x0000009e   Code   RO         1507    i.DefaultParams     paramsave.o
    0x08002c9a   0x08002c9a   0x00000002   PAD
    0x08002c9c   0x08002c9c   0x0000003c   Code   RO         1508    i.DefaultParams_WriteFlash  paramsave.o
    0x08002cd8   0x08002cd8   0x00000094   Code   RO          303    i.EXIT_MPU_INT_Init  exit.o
    0x08002d6c   0x08002d6c   0x00000038   Code   RO          304    i.EXTI15_10_IRQHandler  exit.o
    0x08002da4   0x08002da4   0x0000000c   Code   RO         2869    i.EXTI_ClearITPendingBit  stm32f10x_exti.o
    0x08002db0   0x08002db0   0x00000028   Code   RO         2873    i.EXTI_GetITStatus  stm32f10x_exti.o
    0x08002dd8   0x08002dd8   0x00000094   Code   RO         2874    i.EXTI_Init         stm32f10x_exti.o
    0x08002e6c   0x08002e6c   0x0000004c   Code   RO         2927    i.FLASH_ErasePage   stm32f10x_flash.o
    0x08002eb8   0x08002eb8   0x00000034   Code   RO         2928    i.FLASH_GetBank1Status  stm32f10x_flash.o
    0x08002eec   0x08002eec   0x00000014   Code   RO         2937    i.FLASH_Lock        stm32f10x_flash.o
    0x08002f00   0x08002f00   0x0000006c   Code   RO         2942    i.FLASH_ProgramWord  stm32f10x_flash.o
    0x08002f6c   0x08002f6c   0x00000018   Code   RO         2945    i.FLASH_Unlock      stm32f10x_flash.o
    0x08002f84   0x08002f84   0x00000026   Code   RO         2949    i.FLASH_WaitForLastOperation  stm32f10x_flash.o
    0x08002faa   0x08002faa   0x00000002   PAD
    0x08002fac   0x08002fac   0x00000168   Code   RO          589    i.FLY_Start         control.o
    0x08003114   0x08003114   0x00000012   Code   RO          590    i.Fly_Protect       control.o
    0x08003126   0x08003126   0x000000de   Code   RO          591    i.Fly_control       control.o
    0x08003204   0x08003204   0x00000040   Code   RO         3222    i.GPIO_EXTILineConfig  stm32f10x_gpio.o
    0x08003244   0x08003244   0x00000116   Code   RO         3225    i.GPIO_Init         stm32f10x_gpio.o
    0x0800335a   0x0800335a   0x00000002   PAD
    0x0800335c   0x0800335c   0x00000090   Code   RO         3227    i.GPIO_PinRemapConfig  stm32f10x_gpio.o
    0x080033ec   0x080033ec   0x00000004   Code   RO         3232    i.GPIO_ResetBits    stm32f10x_gpio.o
    0x080033f0   0x080033f0   0x00000004   Code   RO         3233    i.GPIO_SetBits      stm32f10x_gpio.o
    0x080033f4   0x080033f4   0x00000024   Code   RO         1267    i.GPS_Analysis      gps.o
    0x08003418   0x08003418   0x0000004c   Code   RO         1268    i.GPS_Check         gps.o
    0x08003464   0x08003464   0x000000e8   Code   RO         1269    i.GPS_Data_Receive_Prepare  gps.o
    0x0800354c   0x0800354c   0x000000dc   Code   RO         1270    i.GPS_Init          gps.o
    0x08003628   0x08003628   0x000002ac   Code   RO         1271    i.GPS_xy            gps.o
    0x080038d4   0x080038d4   0x00000004   Code   RO          100    i.HardFault_Handler  stm32f10x_it.o
    0x080038d8   0x080038d8   0x0000002a   Code   RO          592    i.High_Control      control.o
    0x08003902   0x08003902   0x00000002   PAD
    0x08003904   0x08003904   0x0000050c   Code   RO         1608    i.IMUupdate         imu.o
    0x08003e10   0x08003e10   0x00000038   Code   RO          266    i.LED_Init          led.o
    0x08003e48   0x08003e48   0x000000a8   Code   RO         1057    i.LPButter_BaroAlt  ms5611.o
    0x08003ef0   0x08003ef0   0x000000e8   Code   RO          267    i.Led_Task          led.o
    0x08003fd8   0x08003fd8   0x00000014   Code   RO          764    i.MOTO1_SetPulse    moto.o
    0x08003fec   0x08003fec   0x00000014   Code   RO          765    i.MOTO2_SetPulse    moto.o
    0x08004000   0x08004000   0x00000014   Code   RO          766    i.MOTO3_SetPulse    moto.o
    0x08004014   0x08004014   0x00000014   Code   RO          767    i.MOTO4_SetPulse    moto.o
    0x08004028   0x08004028   0x000000e8   Code   RO          925    i.MPU9250_Init      mpu9250.o
    0x08004110   0x08004110   0x00000050   Code   RO          834    i.MPU_IIC_Ack       mpuiic.o
    0x08004160   0x08004160   0x00000040   Code   RO          836    i.MPU_IIC_Init      mpuiic.o
    0x080041a0   0x080041a0   0x0000004c   Code   RO          837    i.MPU_IIC_NAck      mpuiic.o
    0x080041ec   0x080041ec   0x00000070   Code   RO          838    i.MPU_IIC_ReadByte  mpuiic.o
    0x0800425c   0x0800425c   0x00000072   Code   RO          840    i.MPU_IIC_ReadMultByteFromSlave  mpuiic.o
    0x080042ce   0x080042ce   0x00000002   PAD
    0x080042d0   0x080042d0   0x00000064   Code   RO          841    i.MPU_IIC_SendByte  mpuiic.o
    0x08004334   0x08004334   0x0000004c   Code   RO          842    i.MPU_IIC_Start     mpuiic.o
    0x08004380   0x08004380   0x0000004c   Code   RO          843    i.MPU_IIC_Stop      mpuiic.o
    0x080043cc   0x080043cc   0x00000064   Code   RO          844    i.MPU_IIC_WaitAck   mpuiic.o
    0x08004430   0x08004430   0x0000005a   Code   RO          846    i.MPU_IIC_WriteMultByteToSlave  mpuiic.o
    0x0800448a   0x0800448a   0x00000002   PAD
    0x0800448c   0x0800448c   0x0000002c   Code   RO          966    i.MS5611_IIC_Init   ms5611iic.o
    0x080044b8   0x080044b8   0x00000080   Code   RO         1058    i.MS5611_StateMachine  ms5611.o
    0x08004538   0x08004538   0x0000005c   Code   RO         1059    i.Mahony_Filter     ms5611.o
    0x08004594   0x08004594   0x00000004   Code   RO          101    i.MemManage_Handler  stm32f10x_it.o
    0x08004598   0x08004598   0x00000050   Code   RO          593    i.Missing_Check     control.o
    0x080045e8   0x080045e8   0x000000ea   Code   RO          594    i.Mode_select       control.o
    0x080046d2   0x080046d2   0x00000032   Code   RO         1272    i.NMEA_Comma_Pos    gps.o
    0x08004704   0x08004704   0x00000174   Code   RO         1275    i.NMEA_GNRMC_Analysis  gps.o
    0x08004878   0x08004878   0x0000003c   Code   RO         1277    i.NMEA_GPGSV_Analysis  gps.o
    0x080048b4   0x080048b4   0x00000016   Code   RO         1278    i.NMEA_Pow          gps.o
    0x080048ca   0x080048ca   0x000000ea   Code   RO         1279    i.NMEA_Str2num      gps.o
    0x080049b4   0x080049b4   0x00000002   Code   RO          102    i.NMI_Handler       stm32f10x_it.o
    0x080049b6   0x080049b6   0x00000002   PAD
    0x080049b8   0x080049b8   0x00000070   Code   RO         5056    i.NVIC_Init         misc.o
    0x08004a28   0x08004a28   0x00000014   Code   RO         5057    i.NVIC_PriorityGroupConfig  misc.o
    0x08004a3c   0x08004a3c   0x0000003e   Code   RO          337    i.OLED_Clear        oled.o
    0x08004a7a   0x08004a7a   0x0000003e   Code   RO          338    i.OLED_Clear_data   oled.o
    0x08004ab8   0x08004ab8   0x00000114   Code   RO          345    i.OLED_FloatNumber  oled.o
    0x08004bcc   0x08004bcc   0x00000028   Code   RO          346    i.OLED_IIC_Start    oled.o
    0x08004bf4   0x08004bf4   0x00000020   Code   RO          347    i.OLED_IIC_Stop     oled.o
    0x08004c14   0x08004c14   0x00000018   Code   RO          348    i.OLED_IIC_Wait_Ack  oled.o
    0x08004c2c   0x08004c2c   0x0000012c   Code   RO          349    i.OLED_Init         oled.o
    0x08004d58   0x08004d58   0x000001bc   Code   RO          351    i.OLED_SHOW         oled.o
    0x08004f14   0x08004f14   0x00000028   Code   RO          352    i.OLED_Set_Pos      oled.o
    0x08004f3c   0x08004f3c   0x000000a4   Code   RO          354    i.OLED_ShowChar     oled.o
    0x08004fe0   0x08004fe0   0x00000096   Code   RO          355    i.OLED_ShowNum      oled.o
    0x08005076   0x08005076   0x0000003a   Code   RO          356    i.OLED_ShowString   oled.o
    0x080050b0   0x080050b0   0x00000018   Code   RO          358    i.OLED_WR_Byte      oled.o
    0x080050c8   0x080050c8   0x0000013c   Code   RO          595    i.PID_Data_Init     control.o
    0x08005204   0x08005204   0x000001e4   Code   RO          596    i.PID_Gyro_Cal      control.o
    0x080053e8   0x080053e8   0x00000028   Code   RO          597    i.PID_Integrate_Reset  control.o
    0x08005410   0x08005410   0x0000004c   Code   RO          598    i.PID_LPF_Reset     control.o
    0x0800545c   0x0800545c   0x000000e4   Code   RO          599    i.PID_Postion_Cal   control.o
    0x08005540   0x08005540   0x00000068   Code   RO         1510    i.PID_ReadFlash     paramsave.o
    0x080055a8   0x080055a8   0x00000040   Code   RO         1511    i.PID_WriteFlash    paramsave.o
    0x080055e8   0x080055e8   0x00000060   Code   RO          518    i.PWM_PPM_TIM_Init  timer.o
    0x08005648   0x08005648   0x000000a0   Code   RO          600    i.Parameter_init    control.o
    0x080056e8   0x080056e8   0x00000238   Code   RO         1513    i.ParamsToTable     paramsave.o
    0x08005920   0x08005920   0x00000068   Code   RO          601    i.Pose_Check        control.o
    0x08005988   0x08005988   0x0000017c   Code   RO          602    i.Pose_Control      control.o
    0x08005b04   0x08005b04   0x00000038   Code   RO          603    i.Position_Control  control.o
    0x08005b3c   0x08005b3c   0x00000020   Code   RO         3647    i.RCC_APB1PeriphClockCmd  stm32f10x_rcc.o
    0x08005b5c   0x08005b5c   0x00000020   Code   RO         3648    i.RCC_APB1PeriphResetCmd  stm32f10x_rcc.o
    0x08005b7c   0x08005b7c   0x00000020   Code   RO         3649    i.RCC_APB2PeriphClockCmd  stm32f10x_rcc.o
    0x08005b9c   0x08005b9c   0x00000020   Code   RO         3650    i.RCC_APB2PeriphResetCmd  stm32f10x_rcc.o
    0x08005bbc   0x08005bbc   0x000000d4   Code   RO         3657    i.RCC_GetClocksFreq  stm32f10x_rcc.o
    0x08005c90   0x08005c90   0x00000088   Code   RO         1060    i.Read_MS5611_Offset  ms5611.o
    0x08005d18   0x08005d18   0x00000020   Code   RO         1480    i.STMFLASH_Read     flash.o
    0x08005d38   0x08005d38   0x00000006   Code   RO         1481    i.STMFLASH_ReadWord  flash.o
    0x08005d3e   0x08005d3e   0x00000002   PAD
    0x08005d40   0x08005d40   0x00000088   Code   RO         1482    i.STMFLASH_Write    flash.o
    0x08005dc8   0x08005dc8   0x00000002   Code   RO          103    i.SVC_Handler       stm32f10x_it.o
    0x08005dca   0x08005dca   0x00000008   Code   RO         5102    i.SetSysClock       system_stm32f10x.o
    0x08005dd2   0x08005dd2   0x00000002   PAD
    0x08005dd4   0x08005dd4   0x000000e0   Code   RO         5103    i.SetSysClockTo72   system_stm32f10x.o
    0x08005eb4   0x08005eb4   0x00000118   Code   RO          604    i.Set_Cutoff_Frequency  control.o
    0x08005fcc   0x08005fcc   0x00000058   Code   RO          605    i.Set_Pwm           control.o
    0x08006024   0x08006024   0x00000054   Code   RO         1280    i.Set_home_xy       gps.o
    0x08006078   0x08006078   0x00000028   Code   RO         5060    i.SysTick_CLKSourceConfig  misc.o
    0x080060a0   0x080060a0   0x00000060   Code   RO         5105    i.SystemInit        system_stm32f10x.o
    0x08006100   0x08006100   0x00000080   Code   RO         4271    i.TI1_Config        stm32f10x_tim.o
    0x08006180   0x08006180   0x00000098   Code   RO         4272    i.TI2_Config        stm32f10x_tim.o
    0x08006218   0x08006218   0x00000090   Code   RO         4273    i.TI3_Config        stm32f10x_tim.o
    0x080062a8   0x080062a8   0x00000098   Code   RO         4274    i.TI4_Config        stm32f10x_tim.o
    0x08006340   0x08006340   0x00000414   Code   RO          520    i.TIM2_IRQHandler   timer.o
    0x08006754   0x08006754   0x00000110   Code   RO          521    i.TIM3_IRQHandler   timer.o
    0x08006864   0x08006864   0x00000114   Code   RO          522    i.TIM4_IRQHandler   timer.o
    0x08006978   0x08006978   0x00000018   Code   RO         4275    i.TIM_ARRPreloadConfig  stm32f10x_tim.o
    0x08006990   0x08006990   0x00000006   Code   RO         4282    i.TIM_ClearITPendingBit  stm32f10x_tim.o
    0x08006996   0x08006996   0x00000018   Code   RO         4287    i.TIM_Cmd           stm32f10x_tim.o
    0x080069ae   0x080069ae   0x0000001e   Code   RO         4289    i.TIM_CtrlPWMOutputs  stm32f10x_tim.o
    0x080069cc   0x080069cc   0x00000006   Code   RO         4302    i.TIM_GetCapture1   stm32f10x_tim.o
    0x080069d2   0x080069d2   0x00000006   Code   RO         4303    i.TIM_GetCapture2   stm32f10x_tim.o
    0x080069d8   0x080069d8   0x00000006   Code   RO         4304    i.TIM_GetCapture3   stm32f10x_tim.o
    0x080069de   0x080069de   0x00000008   Code   RO         4305    i.TIM_GetCapture4   stm32f10x_tim.o
    0x080069e6   0x080069e6   0x00000022   Code   RO         4308    i.TIM_GetITStatus   stm32f10x_tim.o
    0x08006a08   0x08006a08   0x000000ac   Code   RO         4310    i.TIM_ICInit        stm32f10x_tim.o
    0x08006ab4   0x08006ab4   0x00000012   Code   RO         4312    i.TIM_ITConfig      stm32f10x_tim.o
    0x08006ac6   0x08006ac6   0x00000002   PAD
    0x08006ac8   0x08006ac8   0x00000054   Code   RO          523    i.TIM_Init          timer.o
    0x08006b1c   0x08006b1c   0x00000098   Code   RO         4316    i.TIM_OC1Init       stm32f10x_tim.o
    0x08006bb4   0x08006bb4   0x00000012   Code   RO         4318    i.TIM_OC1PolarityConfig  stm32f10x_tim.o
    0x08006bc6   0x08006bc6   0x00000012   Code   RO         4319    i.TIM_OC1PreloadConfig  stm32f10x_tim.o
    0x08006bd8   0x08006bd8   0x000000a4   Code   RO         4321    i.TIM_OC2Init       stm32f10x_tim.o
    0x08006c7c   0x08006c7c   0x0000001a   Code   RO         4323    i.TIM_OC2PolarityConfig  stm32f10x_tim.o
    0x08006c96   0x08006c96   0x0000001a   Code   RO         4324    i.TIM_OC2PreloadConfig  stm32f10x_tim.o
    0x08006cb0   0x08006cb0   0x000000a0   Code   RO         4326    i.TIM_OC3Init       stm32f10x_tim.o
    0x08006d50   0x08006d50   0x0000001a   Code   RO         4328    i.TIM_OC3PolarityConfig  stm32f10x_tim.o
    0x08006d6a   0x08006d6a   0x00000012   Code   RO         4329    i.TIM_OC3PreloadConfig  stm32f10x_tim.o
    0x08006d7c   0x08006d7c   0x0000007c   Code   RO         4331    i.TIM_OC4Init       stm32f10x_tim.o
    0x08006df8   0x08006df8   0x0000001a   Code   RO         4332    i.TIM_OC4PolarityConfig  stm32f10x_tim.o
    0x08006e12   0x08006e12   0x0000001a   Code   RO         4333    i.TIM_OC4PreloadConfig  stm32f10x_tim.o
    0x08006e2c   0x08006e2c   0x00000114   Code   RO          524    i.TIM_PPM_Init      timer.o
    0x08006f40   0x08006f40   0x000000a8   Code   RO          525    i.TIM_PPWM_Init     timer.o
    0x08006fe8   0x08006fe8   0x000000dc   Code   RO          526    i.TIM_PWM_Init      timer.o
    0x080070c4   0x080070c4   0x00000004   Code   RO         4348    i.TIM_SetCompare1   stm32f10x_tim.o
    0x080070c8   0x080070c8   0x00000004   Code   RO         4349    i.TIM_SetCompare2   stm32f10x_tim.o
    0x080070cc   0x080070cc   0x00000004   Code   RO         4350    i.TIM_SetCompare3   stm32f10x_tim.o
    0x080070d0   0x080070d0   0x00000006   Code   RO         4351    i.TIM_SetCompare4   stm32f10x_tim.o
    0x080070d6   0x080070d6   0x00000004   Code   RO         4352    i.TIM_SetCounter    stm32f10x_tim.o
    0x080070da   0x080070da   0x00000012   Code   RO         4353    i.TIM_SetIC1Prescaler  stm32f10x_tim.o
    0x080070ec   0x080070ec   0x0000001a   Code   RO         4354    i.TIM_SetIC2Prescaler  stm32f10x_tim.o
    0x08007106   0x08007106   0x00000012   Code   RO         4355    i.TIM_SetIC3Prescaler  stm32f10x_tim.o
    0x08007118   0x08007118   0x0000001a   Code   RO         4356    i.TIM_SetIC4Prescaler  stm32f10x_tim.o
    0x08007132   0x08007132   0x00000002   PAD
    0x08007134   0x08007134   0x000000a4   Code   RO         4358    i.TIM_TimeBaseInit  stm32f10x_tim.o
    0x080071d8   0x080071d8   0x0000030c   Code   RO         1514    i.TableToParams     paramsave.o
    0x080074e4   0x080074e4   0x00000088   Code   RO         1564    i.USART1_IRQHandler  usart1.o
    0x0800756c   0x0800756c   0x00000098   Code   RO         1367    i.USART3_IRQHandler  usart3.o
    0x08007604   0x08007604   0x000000d0   Code   RO         1368    i.USART3_Init       usart3.o
    0x080076d4   0x080076d4   0x00000012   Code   RO         4819    i.USART_ClearFlag   stm32f10x_usart.o
    0x080076e6   0x080076e6   0x0000001e   Code   RO         4820    i.USART_ClearITPendingBit  stm32f10x_usart.o
    0x08007704   0x08007704   0x00000018   Code   RO         4823    i.USART_Cmd         stm32f10x_usart.o
    0x0800771c   0x0800771c   0x0000009c   Code   RO         4825    i.USART_DeInit      stm32f10x_usart.o
    0x080077b8   0x080077b8   0x0000001a   Code   RO         4826    i.USART_GetFlagStatus  stm32f10x_usart.o
    0x080077d2   0x080077d2   0x00000054   Code   RO         4827    i.USART_GetITStatus  stm32f10x_usart.o
    0x08007826   0x08007826   0x0000004a   Code   RO         4829    i.USART_ITConfig    stm32f10x_usart.o
    0x08007870   0x08007870   0x000000d8   Code   RO         4830    i.USART_Init        stm32f10x_usart.o
    0x08007948   0x08007948   0x0000000a   Code   RO         4837    i.USART_ReceiveData  stm32f10x_usart.o
    0x08007952   0x08007952   0x00000008   Code   RO         4840    i.USART_SendData    stm32f10x_usart.o
    0x0800795a   0x0800795a   0x00000004   Code   RO          104    i.UsageFault_Handler  stm32f10x_it.o
    0x0800795e   0x0800795e   0x00000002   PAD
    0x08007960   0x08007960   0x00000054   Code   RO          359    i.Write_IIC_Byte    oled.o
    0x080079b4   0x080079b4   0x0000002c   Code   RO          360    i.Write_IIC_Command  oled.o
    0x080079e0   0x080079e0   0x0000002c   Code   RO          361    i.Write_IIC_Data    oled.o
    0x08007a0c   0x08007a0c   0x00000024   Code   RO         5509    i.__0vsprintf       mc_w.l(printfa.o)
    0x08007a30   0x08007a30   0x00000028   Code   RO         5587    i.__ARM_fpclassify  m_ws.l(fpclassify.o)
    0x08007a58   0x08007a58   0x00000026   Code   RO         5589    i.__ARM_fpclassifyf  m_ws.l(fpclassifyf.o)
    0x08007a7e   0x08007a7e   0x00000002   PAD
    0x08007a80   0x08007a80   0x00000388   Code   RO         5608    i.__ieee754_rem_pio2  m_ws.l(rred.o)
    0x08007e08   0x08007e08   0x000000fc   Code   RO         5570    i.__kernel_cos      m_ws.l(cos_i.o)
    0x08007f04   0x08007f04   0x000000aa   Code   RO         5605    i.__kernel_poly     m_ws.l(poly.o)
    0x08007fae   0x08007fae   0x00000002   PAD
    0x08007fb0   0x08007fb0   0x000000ec   Code   RO         5616    i.__kernel_sin      m_ws.l(sin_i.o)
    0x0800809c   0x0800809c   0x00000010   Code   RO         5573    i.__mathlib_dbl_divzero  m_ws.l(dunder.o)
    0x080080ac   0x080080ac   0x00000006   Code   RO         5574    i.__mathlib_dbl_infnan  m_ws.l(dunder.o)
    0x080080b2   0x080080b2   0x00000004   Code   RO         5575    i.__mathlib_dbl_infnan2  m_ws.l(dunder.o)
    0x080080b6   0x080080b6   0x0000000c   Code   RO         5576    i.__mathlib_dbl_invalid  m_ws.l(dunder.o)
    0x080080c2   0x080080c2   0x0000000e   Code   RO         5577    i.__mathlib_dbl_overflow  m_ws.l(dunder.o)
    0x080080d0   0x080080d0   0x00000010   Code   RO         5579    i.__mathlib_dbl_underflow  m_ws.l(dunder.o)
    0x080080e0   0x080080e0   0x0000000a   Code   RO         5591    i.__mathlib_flt_divzero  m_ws.l(funder.o)
    0x080080ea   0x080080ea   0x00000006   Code   RO         5592    i.__mathlib_flt_infnan  m_ws.l(funder.o)
    0x080080f0   0x080080f0   0x00000004   Code   RO         5593    i.__mathlib_flt_infnan2  m_ws.l(funder.o)
    0x080080f4   0x080080f4   0x00000008   Code   RO         5594    i.__mathlib_flt_invalid  m_ws.l(funder.o)
    0x080080fc   0x080080fc   0x0000000a   Code   RO         5595    i.__mathlib_flt_overflow  m_ws.l(funder.o)
    0x08008106   0x08008106   0x0000000a   Code   RO         5597    i.__mathlib_flt_underflow  m_ws.l(funder.o)
    0x08008110   0x08008110   0x00000168   Code   RO         5613    i.__mathlib_rredf2  m_ws.l(rredf.o)
    0x08008278   0x08008278   0x0000000e   Code   RO         5678    i.__scatterload_copy  mc_w.l(handlers.o)
    0x08008286   0x08008286   0x00000002   Code   RO         5679    i.__scatterload_null  mc_w.l(handlers.o)
    0x08008288   0x08008288   0x0000000e   Code   RO         5680    i.__scatterload_zeroinit  mc_w.l(handlers.o)
    0x08008296   0x08008296   0x00000002   PAD
    0x08008298   0x08008298   0x0000000c   Code   RO         5648    i.__set_errno       mc_w.l(errno.o)
    0x080082a4   0x080082a4   0x00000184   Code   RO         5510    i._fp_digits        mc_w.l(printfa.o)
    0x08008428   0x08008428   0x000006dc   Code   RO         5511    i._printf_core      mc_w.l(printfa.o)
    0x08008b04   0x08008b04   0x00000024   Code   RO         5512    i._printf_post_padding  mc_w.l(printfa.o)
    0x08008b28   0x08008b28   0x0000002e   Code   RO         5513    i._printf_pre_padding  mc_w.l(printfa.o)
    0x08008b56   0x08008b56   0x0000000a   Code   RO         5515    i._sputc            mc_w.l(printfa.o)
    0x08008b60   0x08008b60   0x00000028   Code   RO          606    i.abs_limit         control.o
    0x08008b88   0x08008b88   0x00000118   Code   RO          794    i.alignBoard        utils.o
    0x08008ca0   0x08008ca0   0x000000d0   Code   RO          795    i.alignSensors      utils.o
    0x08008d70   0x08008d70   0x00000270   Code   RO         5144    i.asin              m_ws.l(asin.o)
    0x08008fe0   0x08008fe0   0x00000220   Code   RO         5154    i.atan              m_ws.l(atan.o)
    0x08009200   0x08009200   0x00000180   Code   RO         5164    i.atan2             m_ws.l(atan2.o)
    0x08009380   0x08009380   0x0000009c   Code   RO         5172    i.cos               m_ws.l(cos.o)
    0x0800941c   0x0800941c   0x0000017c   Code   RO         5180    i.cosf              m_ws.l(cosf.o)
    0x08009598   0x08009598   0x00000044   Code   RO          231    i.delay_init        delay.o
    0x080095dc   0x080095dc   0x0000004c   Code   RO          232    i.delay_ms          delay.o
    0x08009628   0x08009628   0x0000004c   Code   RO          233    i.delay_us          delay.o
    0x08009674   0x08009674   0x0000003c   Code   RO         1905    i.dmp_enable_6x_lp_quat  inv_mpu_dmp_motion_driver.o
    0x080096b0   0x080096b0   0x0000021c   Code   RO         1906    i.dmp_enable_feature  inv_mpu_dmp_motion_driver.o
    0x080098cc   0x080098cc   0x00000058   Code   RO         1907    i.dmp_enable_gyro_cal  inv_mpu_dmp_motion_driver.o
    0x08009924   0x08009924   0x0000003c   Code   RO         1908    i.dmp_enable_lp_quat  inv_mpu_dmp_motion_driver.o
    0x08009960   0x08009960   0x00000018   Code   RO         1913    i.dmp_load_motion_driver_firmware  inv_mpu_dmp_motion_driver.o
    0x08009978   0x08009978   0x000001c0   Code   RO         1914    i.dmp_read_fifo     inv_mpu_dmp_motion_driver.o
    0x08009b38   0x08009b38   0x00000070   Code   RO         1918    i.dmp_set_fifo_rate  inv_mpu_dmp_motion_driver.o
    0x08009ba8   0x08009ba8   0x00000138   Code   RO         1921    i.dmp_set_orientation  inv_mpu_dmp_motion_driver.o
    0x08009ce0   0x08009ce0   0x00000038   Code   RO         1924    i.dmp_set_shake_reject_thresh  inv_mpu_dmp_motion_driver.o
    0x08009d18   0x08009d18   0x00000026   Code   RO         1925    i.dmp_set_shake_reject_time  inv_mpu_dmp_motion_driver.o
    0x08009d3e   0x08009d3e   0x00000026   Code   RO         1926    i.dmp_set_shake_reject_timeout  inv_mpu_dmp_motion_driver.o
    0x08009d64   0x08009d64   0x00000046   Code   RO         1927    i.dmp_set_tap_axes  inv_mpu_dmp_motion_driver.o
    0x08009daa   0x08009daa   0x00000026   Code   RO         1928    i.dmp_set_tap_count  inv_mpu_dmp_motion_driver.o
    0x08009dd0   0x08009dd0   0x000001a0   Code   RO         1929    i.dmp_set_tap_thresh  inv_mpu_dmp_motion_driver.o
    0x08009f70   0x08009f70   0x00000026   Code   RO         1930    i.dmp_set_tap_time  inv_mpu_dmp_motion_driver.o
    0x08009f96   0x08009f96   0x00000026   Code   RO         1931    i.dmp_set_tap_time_multi  inv_mpu_dmp_motion_driver.o
    0x08009fbc   0x08009fbc   0x0000006c   Code   RO         1061    i.getEstimatedAltitude  ms5611.o
    0x0800a028   0x0800a028   0x00000002   Code   RO          234    i.get_ms            delay.o
    0x0800a02a   0x0800a02a   0x00000002   PAD
    0x0800a02c   0x0800a02c   0x00000184   Code   RO         1062    i.i2c_MS561101BA_Calculate  ms5611.o
    0x0800a1b0   0x0800a1b0   0x00000034   Code   RO         1063    i.i2c_MS561101BA_UP_Read  ms5611.o
    0x0800a1e4   0x0800a1e4   0x00000014   Code   RO         1064    i.i2c_MS561101BA_UP_Start  ms5611.o
    0x0800a1f8   0x0800a1f8   0x00000034   Code   RO         1065    i.i2c_MS561101BA_UT_Read  ms5611.o
    0x0800a22c   0x0800a22c   0x00000014   Code   RO         1066    i.i2c_MS561101BA_UT_Start  ms5611.o
    0x0800a240   0x0800a240   0x00000050   Code   RO         1067    i.i2c_MS561101BA_readCalibration  ms5611.o
    0x0800a290   0x0800a290   0x0000000e   Code   RO         1068    i.i2c_MS561101BA_reset  ms5611.o
    0x0800a29e   0x0800a29e   0x00000002   Code   RO          967    i.i2c_delay         ms5611iic.o
    0x0800a2a0   0x0800a2a0   0x000000f4   Code   RO          968    i.i2c_read          ms5611iic.o
    0x0800a394   0x0800a394   0x0000000a   Code   RO          969    i.i2c_readAck       ms5611iic.o
    0x0800a39e   0x0800a39e   0x0000000a   Code   RO          970    i.i2c_readNak       ms5611iic.o
    0x0800a3a8   0x0800a3a8   0x00000050   Code   RO          974    i.i2c_rep_start     ms5611iic.o
    0x0800a3f8   0x0800a3f8   0x0000004c   Code   RO          975    i.i2c_stop          ms5611iic.o
    0x0800a444   0x0800a444   0x00000088   Code   RO          976    i.i2c_write         ms5611iic.o
    0x0800a4cc   0x0800a4cc   0x00000022   Code   RO          977    i.i2c_writeReg      ms5611iic.o
    0x0800a4ee   0x0800a4ee   0x00000002   PAD
    0x0800a4f0   0x0800a4f0   0x00000114   Code   RO          797    i.initBoardAlignment  utils.o
    0x0800a604   0x0800a604   0x00000028   Code   RO          926    i.inv_orientation_matrix_to_scalar  mpu9250.o
    0x0800a62c   0x0800a62c   0x0000004e   Code   RO          927    i.inv_row_2_scale   mpu9250.o
    0x0800a67a   0x0800a67a   0x0000005a   Code   RO         1610    i.kalmanFilter      imu.o
    0x0800a6d4   0x0800a6d4   0x0000035c   Code   RO         5188    i.log               m_ws.l(log.o)
    0x0800aa30   0x0800aa30   0x00000032   Code   RO         5249    i.lrintf            m_ws.l(lrintf.o)
    0x0800aa62   0x0800aa62   0x00000002   PAD
    0x0800aa64   0x0800aa64   0x00000014   Code   RO            1    i.main              main.o
    0x0800aa78   0x0800aa78   0x00000070   Code   RO         1637    i.mpu_configure_fifo  inv_mpu.o
    0x0800aae8   0x0800aae8   0x0000004c   Code   RO         1638    i.mpu_get_accel_fsr  inv_mpu.o
    0x0800ab34   0x0800ab34   0x00000128   Code   RO         1654    i.mpu_init          inv_mpu.o
    0x0800ac5c   0x0800ac5c   0x000000b8   Code   RO         1655    i.mpu_load_firmware  inv_mpu.o
    0x0800ad14   0x0800ad14   0x0000011c   Code   RO         1656    i.mpu_lp_accel_mode  inv_mpu.o
    0x0800ae30   0x0800ae30   0x000000c0   Code   RO         1659    i.mpu_read_fifo_stream  inv_mpu.o
    0x0800aef0   0x0800aef0   0x00000080   Code   RO         1660    i.mpu_read_mem      inv_mpu.o
    0x0800af70   0x0800af70   0x000001c0   Code   RO         1663    i.mpu_reset_fifo    inv_mpu.o
    0x0800b130   0x0800b130   0x00000084   Code   RO         1666    i.mpu_set_accel_fsr  inv_mpu.o
    0x0800b1b4   0x0800b1b4   0x0000014c   Code   RO         1667    i.mpu_set_bypass    inv_mpu.o
    0x0800b300   0x0800b300   0x00000060   Code   RO         1668    i.mpu_set_compass_sample_rate  inv_mpu.o
    0x0800b360   0x0800b360   0x00000090   Code   RO         1669    i.mpu_set_dmp_state  inv_mpu.o
    0x0800b3f0   0x0800b3f0   0x00000088   Code   RO         1670    i.mpu_set_gyro_fsr  inv_mpu.o
    0x0800b478   0x0800b478   0x0000006c   Code   RO         1671    i.mpu_set_int_latched  inv_mpu.o
    0x0800b4e4   0x0800b4e4   0x00000084   Code   RO         1673    i.mpu_set_lpf       inv_mpu.o
    0x0800b568   0x0800b568   0x000000b4   Code   RO         1674    i.mpu_set_sample_rate  inv_mpu.o
    0x0800b61c   0x0800b61c   0x00000168   Code   RO         1675    i.mpu_set_sensors   inv_mpu.o
    0x0800b784   0x0800b784   0x00000080   Code   RO         1676    i.mpu_write_mem     inv_mpu.o
    0x0800b804   0x0800b804   0x00000016   Code   RO          363    i.oled_pow          oled.o
    0x0800b81a   0x0800b81a   0x00000002   PAD
    0x0800b81c   0x0800b81c   0x000009d8   Code   RO         5198    i.pow               m_ws.l(pow.o)
    0x0800c1f4   0x0800c1f4   0x00000620   Code   RO         5208    i.powf              m_ws.l(powf.o)
    0x0800c814   0x0800c814   0x00000090   Code   RO         1677    i.set_int_enable    inv_mpu.o
    0x0800c8a4   0x0800c8a4   0x00000268   Code   RO         1678    i.setup_compass     inv_mpu.o
    0x0800cb0c   0x0800cb0c   0x000000a0   Code   RO         5218    i.sin               m_ws.l(sin.o)
    0x0800cbac   0x0800cbac   0x00000188   Code   RO         5226    i.sinf              m_ws.l(sinf.o)
    0x0800cd34   0x0800cd34   0x0000004c   Code   RO         5234    i.sqrt              m_ws.l(sqrt.o)
    0x0800cd80   0x0800cd80   0x00000174   Code   RO         5242    i.tanf              m_ws.l(tanf.o)
    0x0800cef4   0x0800cef4   0x00000050   Code   RO         1369    i.u3_printf         usart3.o
    0x0800cf44   0x0800cf44   0x000008d8   Data   RO          364    .constdata          oled.o
    0x0800d81c   0x0800d81c   0x00000018   Data   RO         1070    .constdata          ms5611.o
    0x0800d834   0x0800d834   0x000000b8   Data   RO         1282    .constdata          gps.o
    0x0800d8ec   0x0800d8ec   0x00000060   Data   RO         1679    .constdata          inv_mpu.o
    0x0800d94c   0x0800d94c   0x00000bf6   Data   RO         1933    .constdata          inv_mpu_dmp_motion_driver.o
    0x0800e542   0x0800e542   0x00000006   PAD
    0x0800e548   0x0800e548   0x00000050   Data   RO         5145    .constdata          m_ws.l(asin.o)
    0x0800e598   0x0800e598   0x00000098   Data   RO         5155    .constdata          m_ws.l(atan.o)
    0x0800e630   0x0800e630   0x00000038   Data   RO         5189    .constdata          m_ws.l(log.o)
    0x0800e668   0x0800e668   0x00000088   Data   RO         5199    .constdata          m_ws.l(pow.o)
    0x0800e6f0   0x0800e6f0   0x00000140   Data   RO         5209    .constdata          m_ws.l(powf.o)
    0x0800e830   0x0800e830   0x00000030   Data   RO         5571    .constdata          m_ws.l(cos_i.o)
    0x0800e860   0x0800e860   0x00000008   Data   RO         5607    .constdata          m_ws.l(qnan.o)
    0x0800e868   0x0800e868   0x000000c8   Data   RO         5610    .constdata          m_ws.l(rred.o)
    0x0800e930   0x0800e930   0x00000020   Data   RO         5614    .constdata          m_ws.l(rredf.o)
    0x0800e950   0x0800e950   0x00000028   Data   RO         5617    .constdata          m_ws.l(sin_i.o)
    0x0800e978   0x0800e978   0x00000020   Data   RO         5676    Region$$Table       anon$$obj.o


    Execution Region RW_IRAM1 (Exec base: 0x20000000, Load base: 0x0800e998, Size: 0x00001298, Max: 0x00005000, ABSOLUTE, COMPRESSED[0x00000050])

    Exec Addr    Load Addr    Size         Type   Attr      Idx    E Section Name        Object

    0x20000000   COMPRESSED   0x00000004   Data   RW          235    .data               delay.o
    0x20000004   COMPRESSED   0x00000003   Data   RW          268    .data               led.o
    0x20000007   COMPRESSED   0x00000001   PAD
    0x20000008   COMPRESSED   0x00000020   Data   RW          527    .data               timer.o
    0x20000028   COMPRESSED   0x00000004   Data   RW          608    .data               control.o
    0x2000002c   COMPRESSED   0x00000001   Data   RW          799    .data               utils.o
    0x2000002d   COMPRESSED   0x00000012   Data   RW          929    .data               mpu9250.o
    0x2000003f   COMPRESSED   0x00000001   PAD
    0x20000040   COMPRESSED   0x00000009   Data   RW         1071    .data               ms5611.o
    0x20000049   COMPRESSED   0x00000001   Data   RW         1246    .data               ak8975.o
    0x2000004a   COMPRESSED   0x00000003   Data   RW         1283    .data               gps.o
    0x2000004d   COMPRESSED   0x00000001   Data   RW         1371    .data               usart3.o
    0x2000004e   COMPRESSED   0x00000009   Data   RW         1417    .data               serial_oscilloscope.o
    0x20000057   COMPRESSED   0x00000001   PAD
    0x20000058   COMPRESSED   0x00000006   Data   RW         1569    .data               usart1.o
    0x2000005e   COMPRESSED   0x00000002   PAD
    0x20000060   COMPRESSED   0x000000b4   Data   RW         1612    .data               imu.o
    0x20000114   COMPRESSED   0x00000038   Data   RW         1680    .data               inv_mpu.o
    0x2000014c   COMPRESSED   0x00000014   Data   RW         3677    .data               stm32f10x_rcc.o
    0x20000160   COMPRESSED   0x00000014   Data   RW         5106    .data               system_stm32f10x.o
    0x20000174   COMPRESSED   0x00000004   Data   RW         5649    .data               mc_w.l(errno.o)
    0x20000178        -       0x00000a58   Zero   RW          607    .bss                control.o
    0x20000bd0        -       0x00000024   Zero   RW          798    .bss                utils.o
    0x20000bf4        -       0x0000008c   Zero   RW         1069    .bss                ms5611.o
    0x20000c80        -       0x000000c8   Zero   RW         1370    .bss                usart3.o
    0x20000d48        -       0x00000064   Zero   RW         1416    .bss                serial_oscilloscope.o
    0x20000dac        -       0x000000c8   Zero   RW         1568    .bss                usart1.o
    0x20000e74        -       0x00000010   Zero   RW         1611    .bss                imu.o
    0x20000e84        -       0x00000010   Zero   RW         1932    .bss                inv_mpu_dmp_motion_driver.o
    0x20000e94   COMPRESSED   0x00000004   PAD
    0x20000e98        -       0x00000400   Zero   RW         5136    STACK               startup_stm32f10x_md.o


==============================================================================

Image component sizes


      Code (inc. data)   RO Data    RW Data    ZI Data      Debug   Object Name

       396         74          0          1          0       1242   ak8975.o
       942        106          0          0          0       6843   ak8975iic.o
        56         10          0          0          0        460   beep.o
      4178        198          0          4       2648      16413   control.o
       222         26          0          4          0       2056   delay.o
       204         14          0          0          0      16850   exit.o
       174         10          0          0          0       2205   flash.o
      2070        150        184          3          0       8022   gps.o
      1382        144          0        180         16       2414   imu.o
      4228        126         96         56          0      19975   inv_mpu.o
      2376        104       3062          0         16      19737   inv_mpu_dmp_motion_driver.o
       288         24          0          3          0       1386   led.o
        20          6          0          0          0     251033   main.o
       172         22          0          0          0       1905   misc.o
        80         24          0          0          0       1924   moto.o
       350         84          0         18          0       2499   mpu9250.o
       888        108          0          0          0       6110   mpuiic.o
      1494        156         24          9        140       9602   ms5611.o
       636         26          0          0          0       4555   ms5611iic.o
      1870         62       2264          0          0      11089   oled.o
      1734         34          0          0          0       4084   paramsave.o
      5382        126          0          9        100       9628   serial_oscilloscope.o
        36          8        236          0       1024        776   startup_stm32f10x_md.o
       200         18          0          0          0       1960   stm32f10x_exti.o
       318         32          0          0          0       4622   stm32f10x_flash.o
       494         10          0          0          0       4280   stm32f10x_gpio.o
        22          0          0          0          0     258103   stm32f10x_it.o
       340         44          0         20          0       5340   stm32f10x_rcc.o
      1968        200          0          0          0      21768   stm32f10x_tim.o
       646         28          0          0          0       7588   stm32f10x_usart.o
         0          0          0          0          0         32   sys.o
       328         28          0         20          0       2081   system_stm32f10x.o
      2436        146          0         32          0       6514   timer.o
       136         14          0          6        200       2992   usart1.o
       440         42          0          1        200       3111   usart3.o
       764         30          0          1         36       3174   utils.o

    ----------------------------------------------------------------------
     37304       2234       5904        372       4384     722373   Object Totals
         0          0         32          0          0          0   (incl. Generated)
        34          0          6          5          4          0   (incl. Padding)

    ----------------------------------------------------------------------

      Code (inc. data)   RO Data    RW Data    ZI Data      Debug   Library Member Name

       624         52         80          0          0        168   asin.o
       544         70        152          0          0        124   atan.o
       384         38          0          0          0        144   atan2.o
       156          8          0          0          0        104   cos.o
       252         22         48          0          0        124   cos_i.o
       380         52          0          0          0        124   cosf.o
        68         10          0          0          0        408   dunder.o
        40          0          0          0          0         68   fpclassify.o
        38          0          0          0          0         68   fpclassifyf.o
        48          0          0          0          0        408   funder.o
       860         52         56          0          0        256   log.o
        50          0          0          0          0         80   lrintf.o
       170          0          0          0          0         96   poly.o
      2520        190        136          0          0        324   pow.o
      1568         80        320          0          0        224   powf.o
         0          0          8          0          0          0   qnan.o
       904         76        200          0          0        140   rred.o
       360         16         32          0          0         88   rredf.o
       160         10          0          0          0        108   sin.o
       236         12         40          0          0        128   sin_i.o
       392         54          0          0          0        124   sinf.o
        76          0          0          0          0         84   sqrt.o
       372         58          0          0          0        124   tanf.o
        86          0          0          0          0          0   __dczerorl2.o
         0          0          0          0          0          0   entry.o
         0          0          0          0          0          0   entry10a.o
         0          0          0          0          0          0   entry11a.o
         8          4          0          0          0          0   entry2.o
         4          0          0          0          0          0   entry5.o
         0          0          0          0          0          0   entry7b.o
         0          0          0          0          0          0   entry8b.o
         8          4          0          0          0          0   entry9a.o
        12          6          0          4          0         68   errno.o
        30          0          0          0          0          0   handlers.o
        36          8          0          0          0         68   init.o
         0          0          0          0          0          0   iusefp.o
        30          0          0          0          0         68   llshl.o
        36          0          0          0          0         68   llsshr.o
        32          0          0          0          0         68   llushr.o
        26          0          0          0          0         80   memcmp.o
        36          0          0          0          0         68   memcpya.o
        36          0          0          0          0        108   memseta.o
      2272         86          0          0          0        516   printfa.o
        14          0          0          0          0         68   strlen.o
        36          0          0          0          0         80   strstr.o
        44          0          0          0          0         80   uidiv.o
        98          0          0          0          0         92   uldiv.o
        48          0          0          0          0         68   cdcmple.o
        48          0          0          0          0         68   cdrcmple.o
        20          0          0          0          0         68   cfcmple.o
        20          0          0          0          0         68   cfrcmple.o
        56          0          0          0          0         88   d2f.o
       334          0          0          0          0        148   dadd.o
       222          0          0          0          0        100   ddiv.o
       186          0          0          0          0        176   depilogue.o
        62          0          0          0          0         80   dfixi.o
        50          0          0          0          0         76   dfixui.o
        48          0          0          0          0         68   dfixul.o
        34          0          0          0          0         76   dflti.o
        26          0          0          0          0         76   dfltui.o
       228          0          0          0          0         96   dmul.o
        46          0          0          0          0         80   dscalb.o
       162          0          0          0          0        100   dsqrt.o
        38          0          0          0          0         68   f2d.o
       176          0          0          0          0        140   fadd.o
       124          0          0          0          0         88   fdiv.o
       110          0          0          0          0        168   fepilogue.o
        50          0          0          0          0         68   ffixi.o
        76          0          0          0          0         76   ffixir.o
        40          0          0          0          0         68   ffixui.o
        18          0          0          0          0         68   fflti.o
        44          0          0          0          0         92   ffltl.o
        10          0          0          0          0         68   ffltui.o
       100          0          0          0          0         76   fmul.o
         4          0          0          0          0         68   fpstat.o
        60          0          0          0          0         76   frnd.o
        24          0          0          0          0         68   fscalb.o

    ----------------------------------------------------------------------
     15520        908       1072          4          0       7576   Library Totals
        10          0          0          0          0          0   (incl. Padding)

    ----------------------------------------------------------------------

      Code (inc. data)   RO Data    RW Data    ZI Data      Debug   Library Name

     10202        800       1072          0          0       3516   m_ws.l
      2844        108          0          4          0       1432   mc_w.l
      2464          0          0          0          0       2628   mf_w.l

    ----------------------------------------------------------------------
     15520        908       1072          4          0       7576   Library Totals

    ----------------------------------------------------------------------

==============================================================================


      Code (inc. data)   RO Data    RW Data    ZI Data      Debug   

     52824       3142       6976        376       4384     712553   Grand Totals
     52824       3142       6976         80       4384     712553   ELF Image Totals (compressed)
     52824       3142       6976         80          0          0   ROM Totals

==============================================================================

    Total RO  Size (Code + RO Data)                59800 (  58.40kB)
    Total RW  Size (RW Data + ZI Data)              4760 (   4.65kB)
    Total ROM Size (Code + RO Data + RW Data)      59880 (  58.48kB)

==============================================================================

