:020000040800F2
:100000009812002001010008B5490008D538000801
:1000100095450008792800085B7900080000000079
:10002000000000000000000000000000C95D0008A2
:10003000FB2B000800000000170100081901000850
:100040001B0100081B0100081B0100081B01000820
:100050001B0100081B0100081B0100081B01000810
:100060001B0100081B0100081B0100081B01000800
:100070001B0100081B0100081B0100081B010008F0
:100080001B0100081B0100081B0100081B010008E0
:100090001B0100081B0100081B0100081B010008D0
:1000A0001B0100081B0100081B0100081B010008C0
:1000B0004163000855670008656800081B010008D7
:1000C0001B0100081B0100081B0100081B010008A0
:1000D0001B010008E57400081B0100086D7500088D
:1000E0006D2D00081B0100081B010008DFF80CD073
:1000F00000F08CFD0048004765AA00089812002017
:100100000648804706480047FEE7FEE7FEE7FEE7B1
:10011000FEE7FEE7FEE7FEE7FEE7FEE7A160000878
:10012000ED00000840EA01039B0703D009E008C97D
:10013000121F08C0042AFAD203E011F8013B00F8AC
:10014000013B521EF9D27047D2B201E000F8012BF8
:10015000491EFBD270470022F6E710B513460A4647
:1001600004461946FFF7F0FF204610BD30B505469E
:100170002A460B4612F8010B13F8014B08B1A042B6
:10018000F8D01CB1002802D06D1CF1E7284630BD24
:10019000421C10F8011B0029FBD1801A704730B5B2
:1001A00004460020034600E05B1C934203D2E05C5F
:1001B000CD5C401BF8D030BDF0B480EA0102D40F12
:1001C0004200B2EB410F02D20246084611464A00F5
:1001D00042D0C30DDDB2C1F3C752AD1A202D35DABE
:1001E000C1F3160141F4000204B15242C5F12006E8
:1001F00002FA06F12A411044B3EBD05F23D0C4B118
:10020000012DA0EBC35009DCF0BC4FF0004202EA24
:10021000C352DBB200F5000000F09BBB400000F1D0
:10022000807000EBC350A0F1807040EAD1704900AB
:1002300009E0490841EAC071A0EBC35000F5000095
:10024000400800EBC350F0BC00F07ABB61420122D1
:1002500002EB4101001BF6E7F0BC704781F0004162
:10026000AAE780F00040A7E780EA010210B502F09B
:100270000043400022D04A001FD0010E01EB126162
:10028000C0F35600C2F3560240F4000042F40002EC
:10029000A0FB022000047F39140400D0401C50EA67
:1002A000124001D44000491EC2B20C0604EBD0102B
:1002B000401C4008802A02D003E0002010BD20F03E
:1002C0000100002900DA0020184310BD30B480EA94
:1002D000010202F0004530F0004221F0004013D04E
:1002E00090B1C30DD40DC2F31601C0F31600E41A89
:1002F00041F4000140F400027D34914201D3641CBA
:1003000000E04900002C02DA30BC002070474FF4B6
:1003100000000023914201D3891A034340084FEAA9
:100320004101F7D151B1914202D14FF0004105E0B6
:1003300002D24FF0010101E06FF0010103EBC45064
:10034000284430BC00F0FCBA2DE9FE4F804681EA1B
:100350000300C00F0C46009021F0004123F000453F
:10036000B8EB0200A94105D24046214690461C4602
:100370000B46024623F00040104347D0270DC7F339
:100380000A00C3F30A510290401A019040286BDA28
:10039000C3F3130040F4801B0098924620B1002361
:1003A000D2EB030A63EB0B0B01985946C0F14002F4
:1003B000504600F094FA06460D4650465946019ABA
:1003C00000F0ACFA10EB08006141002487EA1152FA
:1003D00084EAE7731A4340D0009A62B3019A012A73
:1003E0004FEA075215DC001B61EB02014FF000429F
:1003F00002EA0752CDE90042001C41F58011324665
:100400002B4600F00DFB03B0BDE8F08F40462146BF
:10041000F9E7001B61EB0201001C41F58013001895
:100420005B412018A2F5001747EB030140EAD570A5
:10043000B6196D4111E06D084FEA360645EAC07500
:100440004FEA0752001B61EB0201001C41F58011CD
:1004500049084FEA30000019514132462B4603B09B
:10046000BDE8F04F00F0CDBA009801224000002313
:10047000D0EB020263EBE073009821464FEAE07490
:10048000B8EB000061EB0401E9E783F000435BE7B0
:1004900081F0004158E72DE9FE4F81EA030404F0A2
:1004A000004421F0004100944FF0000B23F0004382
:1004B00050EA01045ED052EA03045BD0C3F30A544D
:1004C000C1F30A552C44A4F2F3340194A0FB025466
:1004D000C1F3130141F48011C3F3130343F48013F8
:1004E00001FB024400FB034E840A970A44EA81544C
:1004F00047EA8357A4FB076802958D0A05FB078529
:100500004FEA932C04FB0C542705029D4FEA065832
:1005100047EA1637B5EB08056EEB070C870E920E0F
:1005200047EA811742EA8312A7FB0201B6EB0B01EF
:1005300064EB00042B0D43EA0C335E1844EB1C50B3
:10054000DA465146E7FB0201C5F313044FEA0B33C9
:1005500043EA14534FEA0432019C43EA0603A4F130
:100560000C040294009CCDE900B400F059FA03B0E9
:10057000BDE8F08F00200146F9E72DE9F04D81EA52
:10058000030404F0004B21F0004514464FF0000A2C
:1005900023F0004150EA050220D054EA01021DD0A8
:1005A000C5F30A570246C5F31303C1F31300C1F3A1
:1005B0000A5640F4801543F48013A7EB0608101B7D
:1005C000D64608F2FD3873EB050002D308F10108A6
:1005D00001E092185B41B8F1000F03DA00200146F8
:1005E000BDE8F08D00204FF48011064684460EE0F1
:1005F000171B73EB050705D3121B63EB05030643BB
:100600004CEA010C49084FEA300092185B4150EA6D
:100610000107EDD152EA030012D082EA040083EA16
:100620000501084305D0101BAB4106D2012200236F
:1006300006E000224FF0004302E06FF00102531089
:100640001AEB06004CEB085110EB0A0041EB0B01D2
:10065000BDE8F04D00F0D5B9C10F80EAE070084464
:10066000CA079623002100F074B996230022114690
:1006700000F06FB9F0B4CA17CB0F50405140C61804
:1006800041F100054FEAC372314628004FF096034E
:1006900003D0B623F0BC00F05CB930460021F9E786
:1006A0000EB5C10F80EAE0700844CA07002140F28D
:1006B00033438DE80E000A460B4600F0B1F903B053
:1006C00000BD0EB540F2334102910021CDE9001189
:1006D0000A460B4600F0A4F903B000BD00F000424A
:1006E00020F00040C10DC0F3160040F400007F2947
:1006F00001DA00207047962903DCC1F19601C84059
:1007000001E096398840002AF4D04042704720F03A
:100710000040C10DC0F3160040F400007F2901DA4B
:1007200000207047962903DCC1F19601C84070474C
:10073000963988407047C1F30A5210B5C1F31301CE
:1007400040F2FF3341F480119A4201DA002010BDDB
:1007500040F233439A42A2F2334203DC524200F0A9
:10076000CDF810BD904010BD00F0004230F00040C8
:100770000AD0C10D01F56071C0F3160042EA0151C3
:10078000C20840071143704700200146704700002F
:1007900030B5041E71F1000404DB4FF00044404208
:1007A00064EB0101141E73F1000405DB1C464FF0DD
:1007B0000043524263EB04038B4208BF824230BDC8
:1007C00030B5041E71F1000404DB4FF000444042D8
:1007D00064EB0101141E73F1000405DB1C464FF0AD
:1007E0000043524263EB0403994208BF904230BD7C
:1007F00001F0004330B421F0004150EA010206D07C
:100800000A0DA2F56072C1F31301002A02DC30BCAC
:1008100000207047440F44EAC104C100E01830BC16
:1008200000EBC25000F08CB8002801DBC0F10040A2
:10083000002901DBC1F1004181427047002801DB42
:10084000C0F10040002901DBC1F10041884270473E
:1008500030B50B46014600202022012409E021FA90
:1008600002F59D4205D303FA02F5491B04FA02F58D
:100870002844151EA2F10102F1DC30BD2DE9F05F24
:100880000546002092469B468846064681464024FF
:100890001BE0284641464746224600F02FF85346C3
:1008A0005A46C01A914110D311461846224600F00C
:1008B00016F82D1A67EB01084F4622460120002149
:1008C00000F00DF817EB00094E41201EA4F10104C1
:1008D000DFDC484631462A464346BDE8F09F202AE1
:1008E00004DB203A00FA02F1002070479140C2F187
:1008F000200320FA03F3194390407047202A04DBB9
:10090000203A21FA02F00021704721FA02F3D04088
:10091000C2F120029140084319467047202A06DBA5
:10092000CB17203A41FA02F043EAE07306E041FABD
:1009300002F3D040C2F120029140084319467047AB
:100940000029A8BF7047401C490008BF20F00100E3
:10095000704710B4B0FA80FC00FA0CF050EA0104C1
:1009600004BF10BC704749B1CCF1200421FA04F453
:1009700011FA0CF118BF012121430843A3EB0C012C
:10098000CB1D4FEA00614FEA102042BF002010BC8F
:10099000704700EBC35010440029A4BF10BC70473F
:1009A000401C490008BF20F0010010BC7047420005
:1009B00005D0C0F3C7525242914201DC002070477B
:1009C00000EBC150704710B541000CD0C0F3C751C7
:1009D000962908DC7E2909DC06DB410204D000F000
:1009E000004040F07E5010BD002010BDC1F19604C3
:1009F000C4F1200100FA01F1E040FFF7A1FFA0409F
:100A000010BD10B5141E73F1000408DA401C41F14A
:100A1000000192185B411A4301D120F0010010BD82
:100A20002DE9F04D92469B4611B1B1FA81F202E0F8
:100A3000B0FA80F220329046FFF751FF04460F468D
:100A400040EA0A0041EA0B0153465A46084313D0D4
:100A5000114653EA010019D0C8F140025046FFF791
:100A60004DFF05460E46504659464246FFF737FFB2
:100A7000084305D0012004E020463946BDE8F08D4A
:100A80000020054346EAE0762C4337430A98630585
:100A9000E40AA0EB08000022FD0A44EA47540A30A9
:100AA00002D500200146E9E7010510196941DDE999
:100AB000084500196941BDE8F04DA2E770B521F085
:100AC000004303430CD0C1F30A550024D5EB0405C1
:100AD00064EB0403D617AD1AB34102DB00200146D4
:100AE00070BD201841EB025170BD2DE9F04D00237F
:100AF0001A461B1A8A4103DB00200146BDE8F08D2F
:100B0000C1F30A52C1F3130141F480154FF0000BF9
:100B1000D10702D100186D41521E0027044640F251
:100B2000FF11384601EB620A3E468046024600202D
:100B30004FF48011FFF7E2FEC2197141BB1846EB7A
:100B40000100B4EB030C75EB000C04D3E41A65EB65
:100B5000000517460E46241908F101006D41804634
:100B60003428E3DDF91946EB0600091BA84103D23E
:100B70004FF0FF32134601E0002213461BEB070043
:100B800046EB0A51BDE8F04DFFF73BBFC1F30A52F7
:100B9000C1F3130140F2FF3341F480119A4202DAAB
:100BA00000200146704740F233439A42A2F233429A
:100BB00002DC5242FFF7A2BEFFF791BE10B500F073
:100BC000004420F00040C20DC0F3160040F40000C5
:100BD0007F2A07DA7D2A00DA7D22763A00FA02F1CE
:100BE000002008E0962A09DCA2F1760100FA01F162
:100BF000C2F19602D040FFF7A3FE01E0963A904082
:100C0000002C00D0404210BD00207047064C074D1C
:100C100006E0E06840F0010394E8070098471034CC
:100C2000AC42F6D3FFF766FA78E9000898E90008C5
:100C300070B5C1F30A5201F000450024C1F313015D
:100C400040F2FF3341F480119A4201DA002070BD76
:100C500040F233439A42A2F2334203DC5242FFF79E
:100C60004DFE00E090402C43F1D0404270BD70B585
:100C70008C1810F8015B15F0070301D110F8013B47
:100C80002A1106D110F8012B03E010F8016B01F8CE
:100C9000016B5B1EF9D12B0705D40023521E0DD426
:100CA00001F8013BFAE710F8013BCB1A921C03E074
:100CB00013F8015B01F8015B521EF9D5A142D8D3AC
:100CC000002070BD08B50020009008231EA2052159
:100CD00004F0D1F900F0E4F8642008F07FFC6A46E3
:100CE0000021182000F05AF99DF8000048280AD089
:100CF000082319A20521002004F0BDF900211B489A
:100D000080F8491A09E0082319A20521002004F0FF
:100D1000B2F90121154880F8491A6A4601211820C4
:100D200000F03CF90220164908701E200F49C880C7
:100D30003A210E4801811A21418101220A211820FD
:100D400000F03AFA08BD0000414B383937355F49A9
:100D50006E69742E2E2E0000414B383937355F49AD
:100D60006E6974204572726F720000007801002075
:100D7000414B383937355F496E6974204F4B21003C
:100D8000490000202DE9FF5F02AB06220321182055
:100D900000F029F908B1BDE8FF9F9DF808009DF813
:100DA000091040EA01202749C988401A00B2ADF86D
:100DB00000009DF80A009DF80B1040EA012021492F
:100DC0000989401A00B2ADF802009DF80C009DF8A8
:100DD0000D1040EA01201B494989401A00B2ADF8C4
:100DE000040009F085FB184802781649684607F0A8
:100DF00057FF144890F8490A01281CD11149B1F94C
:100E00000000FFF74DFC06460F460E49B1F90200FF
:100E1000FFF746FC804632463B4608F0F1F90446AF
:100E20004FF06632094BFFF736FB8246FFF7E0FCD6
:100E30000449C1F8980001220A21182000F0BCF9E9
:100E400000BFA8E7780100204900002066A64C40BA
:100E500010B500200F4908600F48006820F0F0002E
:100E60000D4908600846006840F030000860002026
:100E70000A49C1F88401012008F0D6FB0120054988
:100E80000860022008F0D0FB00200449C1F880016E
:100E900010BD000080812142000C014000802142F1
:100EA00008B50121082004F069FE0320ADF8000018
:100EB00010208DF8030003208DF8020069460548D4
:100EC00002F0C0F90120044908600449C1F8840116
:100ED00008BD0000000C01408081214200802142B9
:100EE00010B500200E4908600E48006820F0F000A0
:100EF0000C4908600846006840F030000860012096
:100F00000949C1F8840108F08FFB012004490860F9
:100F100008F08AFB00200449C1F8800110BD0000E0
:100F200080812142000C01400080214270B50546BD
:100F300000241748006820F0F000154908600846B2
:100F4000006840F080000860002616E0002011498B
:100F50000860012008F068FB01200F49C1F88001FA
:100F60006006040E0B487C38006808B1601CC4B2EF
:100F7000012008F059FB701CC6B2082EE6DB15B143
:100F8000FFF766FF01E0FFF7ABFF204670BD0000F2
:100F9000000C0140808121420080214270B504464E
:100FA0000D46164600F08AF8204600F055F800F08D
:100FB000D1F818B100F0A8F8012070BD284600F063
:100FC0004BF800F0C7F800F079F8611CC8B200F0E7
:100FD00043F800F0BFF80020FFF7A8FF307000F0E2
:100FE00093F80020E9E72DE9F04706460F4615463D
:100FF0009846002400F062F8304600F02DF800F02A
:10100000A9F820B100F080F80120BDE8F08738464B
:1010100000F022F800F09EF800F050F8711CC8B201
:1010200000F01AF800F096F800240FE0681EA042C5
:1010300004D00120FFF77AFF814603E00020FFF78C
:1010400075FF814608F80490601CC4B2AC42EDDB29
:1010500000F05AF80020D8E770B50446144800683C
:1010600020F0F000124908600846006840F03000A7
:10107000086000200F490860002516E0E0090D49CE
:10108000091D08606006040E012008F0CDFA012059
:101090000949C1F8800108F0C7FA00200549086035
:1010A000012008F0C1FA681CC5B2082DE6DB70BD4E
:1010B000000C0140808121420080214210B50F4880
:1010C000006820F0F0000D4908600846006840F014
:1010D0003000086001200A4908600A49C1F880010F
:1010E000022008F0A1FA002005490860022008F05B
:1010F0009BFA01200349C1F8800110BD000C01409A
:10110000848121420080214210B50F48006820F000
:10111000F0000D4908600846006840F030000860A3
:1011200001200A49086000200949C1F88401022011
:1011300008F07AFA0120054908600549C1F88401E0
:10114000022008F071FA10BD000C0140808121429C
:101150000080214210B500241448006820F0F000FF
:10116000124908600846006840F0800008600120CD
:101170000F49086008F058FA01200E49C1F88001B3
:1011800008F052FA07E0601CC4B2FA2C03DDFFF746
:10119000BBFF012010BD0648803800680028F2D14E
:1011A0000349091F086000BFF4E70000000C01407C
:1011B000848121420080214270B506460C461546C6
:1011C000FFF77CFF3046FFF747FFFFF7C3FF18B17B
:1011D000FFF79AFF012070BD2046FFF73DFFFFF7A4
:1011E000B9FF2846FFF738FFFFF7B4FF18B1FFF744
:1011F0008BFF0120EFE7FFF787FF0020EBE7000000
:1012000001B590B0FE480078401CFD490870FD48CB
:101210000078401CFB490870FB480078401CFA49E4
:101220000870FA480078401CF8490870F8480078BF
:10123000401CF7490870F2480078052806DB0020BA
:10124000EF4908700121109880F81211ED480078DC
:101250000A2806DB0020EB4908700121109880F86D
:101260001111E9480078142806DB0020E6490870CF
:101270000121109880F81311E4480078192806DB42
:101280000020E24908700121109880F8141110988C
:1012900090F81201002843D00021109880F8121114
:1012A0001098C06A0990FFF719FA00B20F901098D1
:1012B000806A0990FFF712FA00B20E901098406A07
:1012C0000990FFF70BFA00B20D901098406C09904E
:1012D000FFF704FA00B20C901098006C0990FFF729
:1012E000FDF900B20B901098C06B0990FFF7F6F96A
:1012F00000B200230A901098B0F904001099B1F9D7
:101300000210109AB2F90020CDE90403CDE90221C0
:10131000DDE90E01CDE900010AA80FC801F092F83D
:10132000109890F8110110B30021109880F8111155
:101330001098D0F800010E90FFF7D0F90F90109898
:1013400090F8450A109991F8421ACDE900101098CA
:10135000D0F898000E901098D0F894000D90109846
:10136000D0F890000C900DA90EC901F029F9109841
:1013700090F8130138B30021109880F81311002061
:10138000029003900490014605901098B0F8F80080
:1013900080B2CDE900011098B0F8F40080B20F904F
:1013A0001098B0F8F60080B20E901098B0F8F200E5
:1013B00080B20D901098B0F8F00080B20C900DA99A
:1013C0000EC900F08DFF109890F8140100B30021B1
:1013D000109880F814110020009001900290039062
:1013E0001098B0F8560A80B20F901098B0F8540ACE
:1013F00080B20E901098B0F8520A80B20D901098FA
:10140000B0F8500A80B20C900DA90EC900F0F2FDA0
:10141000109890F81601002855D00021109880F8F7
:10142000161100207B4A7C4BCDE9032002930590E6
:101430007A487B490246CDE90010012000F070FE99
:101440000020744ACDE902020490764905900346D3
:101450000246CDE90010022000F062FE002002905A
:1014600003900490059000900346024601460190C7
:10147000032000F055FE0020029003900490059098
:1014800000900346024601460190042000F048FE09
:1014900000200290039004900590009003460246BD
:1014A00001460190052000F03BFE002002900390D1
:1014B00004900590009003460246014601900620E4
:1014C00000F02EFE25E1109890F81701002854D066
:1014D0000021109880F817111098B0F8D6000690E7
:1014E000FFF7C3F80F901098B0F8D4000690FFF7FC
:1014F000BCF80E901098B0F8D2000690FFF7B5F83F
:101500000D901098B0F8D0000690FFF7AEF80C9050
:101510001098B0F8CE000690FFF7A7F80B9010983F
:10152000B0F8CC000690FFF7A0F80A901098B0F839
:10153000CA000690FFF799F809901098B0F8C80013
:101540000690FFF792F808901098B0F8C600069041
:10155000FFF78BF80790DDE90C23DDE90E10CDE9EC
:101560000223CDE90410DDE90A01CDE900010120E3
:1015700007A90EC900F0D4FDCBE0109890F818012F
:10158000002869D00021109880F818111098B0F840
:10159000C4000690FFF769F80F901098B0F8C200E9
:1015A0000690FFF762F80E901098B0F8C000069011
:1015B000FFF75BF80D901098B0F8BE000690FFF7AB
:1015C00054F80C901098B0F8BC000690FFF74DF856
:1015D0000B901098B0F8BA000690FFF746F80A9002
:1015E0001098B0F8B8000690FFF73FF809901098EF
:1015F000B0F8B6000690FFF738F80890109813E09E
:101600004E0000204F00002050000020510000201C
:101610005200002000803B450000FA4500007A455A
:101620000000FA4400002F45B0F8B4000690FFF720
:101630001CF80790DDE90C23DDE90E10CDE902234B
:10164000CDE90410DDE90A01CDE90001022007A976
:101650000EC900F065FD5CE0109890F81901E8B340
:101660000021109880F819111098B0F8E200099044
:10167000FEF7FBFF0F901098B0F8E0000990FEF71E
:10168000F4FF0E901098B0F8DE000990FEF7EDFF21
:101690000D901098B0F8DC000990FEF7E6FF0C9072
:1016A0001098B0F8DA000990FEF7DFFF0B90109861
:1016B000B0F8D8000990FEF7D8FF00210A900F98E3
:1016C000CDE9020104910591DDE90D01CDE90001AB
:1016D00003200AA90EC900F023FD1AE0FFE71098C5
:1016E00090F81A0120B10021109880F81A1110E02A
:1016F000109890F81B0120B10021109880F81B1160
:1017000007E0109890F81C0118B10021109880F89B
:101710001C1111B000BD000007B588B00020079073
:1017200006900AE006990998415C07980844C0B2FF
:1017300007900698401CC0B206900A98401E069971
:101740008842EFDCDDE90901084410F8011C079824
:10175000814201D00BB000BD09980078AA2803D1BE
:1017600009984078AF2800D0F4E7099880780128DC
:101770000FD109980079A02803D10021089880F89A
:10178000451A09980079A12803D10121089880F809
:10179000451A09988078022826D1099800790128ED
:1017A00012D10121089880F81711089880F81811B3
:1017B000089880F81911089880F81A11089880F88C
:1017C0001B11089880F81C1109980079A02803D1F2
:1017D0000121089880F8101109980079A12803D1F7
:1017E0000121089880F816110998807810287DD179
:1017F000089890F8450A0028F9D109980079000264
:1018000000B20999497908430190FEF749FFFE4A61
:10181000FE4BCDE90201FEF73EFECDE90401FEF7E5
:10182000E7FF0899C1F8180309988079000200B20F
:101830000999C97908430190FEF732FFF24AF34B48
:10184000CDE90201FEF727FECDE90401FEF7D0FF46
:1018500001460898C0F81C130998007A000200B2EB
:101860000999497A08430190FEF71AFFE64AE74BC7
:10187000CDE90201FEF70FFECDE90401FEF7B8FF46
:1018800001460898C0F820130998807A000200B237
:101890000999C97A08430190FEF702FFDA4ADB4B47
:1018A000CDE90201FEF7F7FDCDE90401FEF7A0FF47
:1018B0000899C1F8C0030998007B000200B2099999
:1018C000497B08430190FEF7EBFECF4ACF4BCDE9B1
:1018D0000201FEF7E0FDCDE90401FEF789FF0146B4
:1018E0000898C0F8C4130998807B00E064E0000207
:1018F00000B20999C97B08430190FEF7D1FEC24AA4
:10190000C24BCDE90201FEF7C6FDCDE90401FEF7A9
:101910006FFF01460898C0F8C8130998007C0002C0
:1019200000B20999497C08430190FEF7B9FEB64A16
:10193000B64BCDE90201FEF7AEFDCDE90401FEF79D
:1019400057FF0899C1F868040998807C000200B22A
:101950000999C97C08430190FEF7A2FEAA4AAB4B45
:10196000CDE90201FEF797FDCDE90401FEF740FF46
:1019700001460898C0F86C140998007D000200B276
:101980000999497D08430190FEF78AFE9E4A9F4BC4
:10199000CDE90201FEF77FFDCDE90401FEF728FF46
:1019A00001460898C0F87014099880780590079946
:1019B00000F0DAFA03F0F8FD0998807811287DD15B
:1019C000089890F8450A0028F9D109980079000292
:1019D00000B20999497908430190FEF761FE8A4AED
:1019E0008A4BCDE90201FEF756FDCDE90401FEF771
:1019F000FFFE0899C1F8200109988079000200B221
:101A00000999C97908430190FEF74AFE7E4A7F4B47
:101A1000CDE90201FEF73FFDCDE90401FEF7E8FE46
:101A200001460898C0F824110998007A000200B213
:101A30000999497A08430190FEF732FE724A734BC6
:101A4000CDE90201FEF727FDCDE90401FEF7D0FE46
:101A500001460898C0F828110998807A000200B25F
:101A60000999C97A08430190FEF71AFE664A674B46
:101A7000CDE90201FEF70FFDCDE90401FEF7B8FE46
:101A80000899C1F8C8010998007B000200B20999C1
:101A9000497B08430190FEF703FE5B4A5B4BCDE9AF
:101AA0000201FEF7F8FCCDE90401FEF7A1FE0146B4
:101AB0000898C0F8CC110998807B00E064E000022F
:101AC00000B20999C97B08430190FEF7E9FD4E4A2F
:101AD0004E4BCDE90201FEF7DEFCCDE90401FEF735
:101AE00087FE01460898C0F8D0110998007C0002D2
:101AF00000B20999497C08430190FEF7D1FD424AA2
:101B0000424BCDE90201FEF7C6FCCDE90401FEF728
:101B10006FFE0899C1F870020998807C000200B23B
:101B20000999C97C08430190FEF7BAFD364A374B44
:101B3000CDE90201FEF7AFFCCDE90401FEF758FE46
:101B400001460898C0F874120998007D000200B29E
:101B50000999497D08430190FEF7A2FD2A4A2B4BC3
:101B6000CDE90201FEF797FCCDE90401FEF740FE46
:101B700001460898C0F8781209988078059007996E
:101B800000F0F2F903F010FD0998807812287DD159
:101B9000089890F8450A0028F9D1099800790002C0
:101BA00000B20999497908430190FEF779FD164A78
:101BB000164BCDE90201FEF76EFCCDE90401FEF7FC
:101BC00017FE0899C1F8100509988079000200B243
:101BD0000999C97908430190FEF762FD0A4A0B4B47
:101BE000CDE90201FEF757FCCDE90401FEF700FE46
:101BF00001460898C0F814150998007A000200B24E
:101C00000999497A084303E0FCA9F1D24D62503F9B
:101C10000190FEF745FD974A974BCDE90201FEF78B
:101C20003AFCCDE90401FEF7E3FD01460898C0F84F
:101C300018150998807A000200B20999C97A0843F8
:101C40000190FEF72DFD8B4A8B4BCDE90201FEF78B
:101C500022FCCDE90401FEF7CBFD0899C1F8B805D7
:101C60000998007B000200B20999497B0843019062
:101C7000FEF716FD7F4A804BCDE90201FEF70BFC13
:101C8000CDE90401FEF7B4FD014600E072E00898DA
:101C9000C0F8BC150998807B000200B20999C97B85
:101CA00008430190FEF7FCFC724A734BCDE9020138
:101CB000FEF7F1FBCDE90401FEF79AFD0146089815
:101CC000C0F8C0150998807A000200B20999C97A53
:101CD00008430190FEF7E4FC664A674BCDE9020138
:101CE000FEF7D9FBCDE90401FEF782FD0899C1F8A2
:101CF00060060899C1F808070998007B000200B245
:101D00000999497B08430190FEF7CAFC594A5A4B8E
:101D1000CDE90201FEF7BFFBCDE90401FEF768FD46
:101D200001460898C0F864160898C0F80C1709987E
:101D3000807B000200B20999C97B08430190FEF73D
:101D4000AFFC4C4A4C4BCDE90201FEF7A4FBCDE9B8
:101D50000401FEF74DFD01460898C0F86816089882
:101D6000C0F81017099880780590079900F0FCF8E2
:101D700003F01AFC0998807813285CD1089890F831
:101D8000450A002857D109980079000200B2099944
:101D9000497908430190FEF783FC364A364BCDE97A
:101DA0000201FEF778FBCDE90401FEF721FD089959
:101DB000C1F8B0070899C1F858080998807900025D
:101DC00000B20999C97908430190FEF769FC294AD4
:101DD000294BCDE90201FEF75EFBCDE90401FEF7D8
:101DE00007FD01460898C0F8B4170898C0F85C18B9
:101DF0000998007A000200B20999497A08430190D3
:101E0000FEF74EFC1B4A1C4BCDE90201FEF743FBDB
:101E1000CDE90401FEF7ECFC01460898C0F8B817BC
:101E20000898C0F86018099880780590079900F024
:101E30009BF803F0B9FB09988078142809D1089819
:101E400090F8450A28B9099880780590079900F01C
:101E50008BF809988078152809D1089890F8450AD8
:101E600028B9099880780590079900F07DF800BF9F
:101E700070E40000FCA9F1D24D62503F10B5044659
:101E80003448007838B9AA2C05D1012031490870AE
:101E9000314804705DE02F480078012807D1AF2C4D
:101EA00005D102202B4908702B48447051E0294885
:101EB0000078022807D1F12C05DA032025490870A3
:101EC0002548847045E02348007803280CD1322C43
:101ED0000ADA04201F4908701F48C4701F480470A4
:101EE00000201F49087034E01A480078042819D1EE
:101EF0001A480078002815DD18480078401E174958
:101F000008701748007816490978491C144A11705E
:101F1000001D11490C5411480078D0B905200D4915
:101F2000087016E00B48007805280FD100200949F9
:101F300008700B480078001D07490C5408480078C9
:101F4000401DC2B20748FFF7E7FB02E0002001494D
:101F5000087010BD560000207A0D002054000020AB
:101F600055000020780100202DE9F04105460E467D
:101F70000027AA200D4908704870EF2088700220C1
:101F8000C870084605714671002405E00748005DE9
:101F90003844C7B2601CC4B2062CF7DB0348877113
:101FA000072100F005F8BDE8F0810000480D002091
:101FB00070B504460D4600200C49087011E00B482E
:101FC0000078215C0A4805F0C4FC00BF40210848A5
:101FD00005F0F2FB0028F9D004480078401C0349C2
:101FE000087002480078A842E9DB70BD5300002069
:101FF000004800407FB500240026AA222146641C28
:10200000464842542146641C425406222146641C20
:10201000425400222146641C42549DF8012021466E
:10202000641C42549DF800202146641C42549DF8D3
:1020300005202146641C42549DF804202046611C62
:10204000CCB236490A549DF809202046611CCCB216
:1020500032490A549DF808202046611CCCB22F4911
:102060000A549DF80D202046611CCCB22B490A541D
:102070009DF80C202046611CCCB228490A549DF8DA
:1020800021202046611CCCB224490A549DF820200E
:102090002046611CCCB221490A549DF825202046D7
:1020A000611CCCB21D490A549DF824202046611CB5
:1020B000CCB21A490A549DF829202046611CCCB2A2
:1020C00016490A549DF828202046611CCCB21349B9
:1020D0000A549DF82D202046611CCCB20F490A54A9
:1020E0009DF82C202046611CCCB20C490A54201FBC
:1020F000C870002505E00948405D3044C6B2681C40
:10210000C5B2A542F7DB2046611CCCB203490E5490
:1021100021460248FFF74CFF7FBD0000480D00201C
:102120002DE9F84F06460F4690469946DDF828B04F
:102130000024A246AA222146641C68484254214633
:10214000641C425406F10F00C2B22146641C63486D
:10215000425400222146641C42543846FEF7BEFA1F
:1021600000B200909DF801202146641C5B48425457
:102170009DF800202146641C42544046FEF7AEFA0A
:1021800000B200909DF801202146641C534842543F
:102190009DF800202046611CCCB250490A544846A4
:1021A000FEF79CFA00B200909DF801202046611CC9
:1021B000CCB24A490A549DF800202046611CCCB29A
:1021C00046490A545846FEF789FA00B200909DF835
:1021D00001202046611CCCB240490A549DF80020E1
:1021E0002046611CCCB23D490A540B98FEF776FAA2
:1021F00000B200909DF801202046611CCCB2374906
:102200000A549DF800202046611CCCB233490A5480
:102210000C98FEF763FA00B200909DF8012020466A
:10222000611CCCB22D490A549DF800202046611C47
:10223000CCB22A490A540D98FEF750FA00B2009029
:102240009DF801202046611CCCB224490A549DF817
:1022500000202046611CCCB220490A540E98FEF79B
:102260003DFA00B200909DF801202046611CCCB2DE
:102270001A490A549DF800202046611CCCB2174927
:102280000A540F98FEF72AFA00B200909DF8012038
:102290002046611CCCB211490A549DF8002020460A
:1022A000611CCCB20D490A54201FC870002506E0FD
:1022B0000A48405D504400F0FF0A681CC5B2A542C0
:1022C000F6DB2046611CCCB2044901F800A021468F
:1022D0000248FFF76DFEBDE8F88F0000480D0020B2
:1022E0007FB500240026AA222146641C544842548B
:1022F0002146641C425403222146641C425400229D
:102300002146641C42549DF801202146641C42541D
:102310009DF800202146641C42549DF8052021466A
:10232000641C42549DF804202046611CCCB24449F0
:102330000A549DF809202146601CC4B2404842540A
:102340009DF808202046611CCCB23D490A549DF8F6
:102350000D202046611CCCB239490A549DF80C204E
:102360002046611CCCB236490A549DF821202046F3
:10237000611CCCB232490A549DF820202046611CD1
:10238000CCB22F490A549DF825202146601CC4B2C6
:102390002B4842549DF824202046611CCCB2284989
:1023A0000A549DF829202046611CCCB224490A54C5
:1023B0009DF828202146601CC4B2214842549DF853
:1023C0002D202046611CCCB21D490A549DF82C20BA
:1023D0002046611CCCB21A490A549DF8312020468F
:1023E000611CCCB216490A549DF830202046611C6D
:1023F000CCB213490A549DF835202046611CCCB25A
:102400000F490A549DF834202046611CCCB20C4977
:102410000A54201FC870002505E00948405D30447B
:10242000C6B2681CC5B2A542F7DB2046611CCCB21F
:1024300003490E5421460248FFF7BAFD7FBD000054
:10244000480D00202DE9F84F06460F469046994664
:10245000DDF828B00024A246AA222146641C574871
:1024600042542146641C425402222146641C4254B8
:1024700000222146641C425400969DF8012021460A
:10248000641C42549DF800202146641C425400976D
:102490009DF801202146641C42549DF800202046EE
:1024A000611CCCB245490A54CDF800809DF801204A
:1024B0002046611CCCB241490A549DF800202046B8
:1024C000611CCCB23D490A54CDF800909DF8012022
:1024D0002046611CCCB239490A549DF800202046A0
:1024E000611CCCB235490A54CDF800B09DF80120EA
:1024F0002046611CCCB231490A549DF80020204688
:10250000611CCCB22D490A540B9800909DF8012013
:102510002046611CCCB229490A549DF8002020466F
:10252000611CCCB225490A540C9800909DF80120FA
:102530002046611CCCB221490A549DF80020204657
:10254000611CCCB21D490A540D9800909DF80120E1
:102550002046611CCCB219490A549DF8002020463F
:10256000611CCCB215490A540E9800909DF80120C8
:102570002046611CCCB211490A549DF80020204627
:10258000611CCCB20D490A54201FC870002506E01A
:102590000A48405D504400F0FF0A681CC5B2A542DD
:1025A000F6DB2046611CCCB2044901F800A02146AC
:1025B0000248FFF7FDFCBDE8F88F0000480D002041
:1025C0002DE9FE4F82460E4617469846DDF830B09C
:1025D0000024CDF80480A146AA222146641C484864
:1025E00042542146641C425401222146641C425438
:1025F00000222146641C425442495046FDF734FEF5
:102600000090FEF76BF800B202909DF80920214679
:10261000641C3B4842549DF808202146641C4254E7
:1026200038493046FDF720FE0090FEF757F800B21B
:1026300002909DF809202146641C314842549DF8BF
:1026400008202146601CC4B22D4842542D4938460A
:10265000FDF70AFE0090FEF741F800B202909DF8E7
:1026600009202046611CCCB225490A549DF8082057
:102670002046611CCCB222490A549DF8072020460E
:10268000611CCCB21E490A549DF806202046611CEC
:10269000CCB21B490A549DF805202046611CCCB2DF
:1026A00017490A549DF804202146601CC4B21448FE
:1026B00042542046611CCCB2114901F800B02146B9
:1026C000621CD4B20E4A0D985054201F1146C87097
:1026D000002506E00A48405D484400F0FF09681CF8
:1026E000C5B2A542F6DB2046611CCCB2044901F814
:1026F000009021460248FFF75BFCBDE8FE8F00001A
:10270000480D00200000C84208B50121042003F054
:1027100035FA4FF48050ADF8000010208DF803001A
:1027200003208DF802006946034800F08BFD01206C
:102730000249086008BD000000080140B0012142C4
:1027400010B54FF4A06002F06FF906F025FF01F01C
:102750005FFBFFF7D9FF02F069FA0B4802F074FF44
:10276000472140F6C31004F03FFC00F0EFFE00F0FC
:1027700033F801F059FCFEF7A5FA00F04DFE02F027
:1027800033FF02F07AF910BD7801002070B50F48D0
:102790000078401CC4B2152C00D100240C49D1F89B
:1027A0000801FDF79BFF0B49084A127841F8220007
:1027B00008460649097850F821000544054850F8B4
:1027C00024002D1A0148047070BD00004000002054
:1027D000780100202C0C002010B5082310A2032142
:1027E000002002F048FC01F051FE0A2006F0F6FE3F
:1027F00007F04EFD0A2006F0F1FE07F021FD0A2049
:1028000006F0ECFE07F012FD0A2006F0E7FE03F0EA
:102810003FFA082306A20321002002F02CFC10BD81
:102820004261726F5F496E69742E2E2E00000000A7
:102830004261726F5F496E69745F4F4B0000000028
:1028400010B50C48007E48B907F0D6FC07F0CAFC6A
:10285000FFF79CFF01200749087610BD07F0A8FC90
:1028600007F0E4FC07F0E2FB0020024908760220B2
:10287000F3E70000F40B002000BFFEE710B5034AA9
:102880000349044803F016FB10BD0000C8050020F2
:102890000000F041000048432DE9F0470446B4F839
:1028A000F000A4F84E0A94F8420A032816D12046F4
:1028B00003F028F940F2D250A4F84E0AD4F8322A94
:1028C0009D4B04F5F660616D02F0C8FDD4F8362A20
:1028D000994B04F65800A16D02F0C0FD94F8420A2D
:1028E000022803D094F8420A032818D1204600F0A9
:1028F000F3FF40F2D250A4F84E0AB02002598C20C7
:1029000001598E4B04F5B76002F0A8FD40F2F45077
:1029100001598A4B04F5A260626C02F09FFD94F8A5
:10292000420A012807D094F8420A022803D094F8FA
:10293000420A032835D1204603F026F8804B04F5DF
:102940009070D4F89020E16E02F088FD9420025936
:102950007B4B04F5E470216F02F080FD9820025952
:10296000774B04F51C70616F02F078FD4FF4AE7088
:102970000159744B04F54670626A02F043FC4FF44F
:10298000017001596F4B04F57070A26A02F03AFCB5
:102990004FF42B7001596B4B04F58D60E26A02F025
:1029A0005DFD94F8450A01287ED1B4F94E0A40F243
:1029B0009441884279DBB4F94E0AFDF74DFE814619
:1029C00040F24C5001594846FDF7F6FB80464FF463
:1029D000557001594046FDF741FC07464FF47F70A2
:1029E00001593846FDF7E8FB064640F2A44001597C
:1029F0003046FDF7E1FB0546FDF770FE00B2A4F896
:102A0000500AB4F94E0AFDF727FE814640F24C50B9
:102A100001594846FDF7D0FB80464FF455700159E7
:102A20004046FDF7C9FB07464FF47F700159384611
:102A3000FDF714FC064640F2A44001593046FDF76C
:102A4000BBFB0546FDF74AFE01B240F6522001539A
:102A5000B4F94E0AFDF700FE814640F24C50015990
:102A60004846FDF7A9FB80464FF455700159404692
:102A7000FDF7A2FB07464FF47F7001593846FDF77A
:102A80009BFB064640F2A44001593046FDF7E6FBA9
:102A90000546FDF723FE01B240F654200153B4F978
:102AA0004E0AFDF7D9FD01E034E023E0814640F213
:102AB0004C5001594846FDF77FFB80464FF4557056
:102AC00001594046FDF7CAFB07464FF47F70015994
:102AD0003846FDF7C3FB064640F2A4400159304694
:102AE000FDF7BCFB0546FDF7F9FD01B240F65620A7
:102AF00001531BE0204602F077FC40F29440A4F81A
:102B0000500A014640F652200153801C0153801C9C
:102B100001530BE04FF47870A4F8500A014640F6D8
:102B200052200153801C0153801C015304F5256081
:102B300003F04CFABDE8F087CDCCCC3D8FC2F53C1C
:102B40000AD7233C0AD7A33B2DE9FE4F06460C4685
:102B50001546A660E168A868FDF786FB029021692A
:102B60006868FDF781FB824621686869FDF77CFB98
:102B7000019061682869FDF777FB0090A168E8681B
:102B8000FDF772FB83460099FDF716FB814601991C
:102B9000FDF712FB80465146FDF760FB07460299A0
:102BA000FDF75CFB606160682060A0686060206980
:102BB000E060616921616069BDE8FE8FB0F90010D5
:102BC000B1F5787F06DBB0F9001040F2C672914291
:102BD00000DC7047B0F90010B1F5787F03DC4FF4EA
:102BE0007871018007E0B0F9001040F2C67291429E
:102BF00001DB1146018000BFEBE770474FF42F6106
:102C0000A0F8B4100022B6210A52B8210A524FF49B
:102C10002F62BA210A520022BC210A52BE210A5256
:102C200041F28832C0210A520022C2210A52C42134
:102C30000A524FF4FA62C6210A525200C8210A52BF
:102C40005200CA210A529210CC210A525200CE21BF
:102C50000A525200D0210A529210D2210A52002266
:102C6000D4210A52D6210A52D8210A52DA210A5214
:102C7000DC210A52DE210A52E0210A52E2210A52E4
:102C8000E4210A52E6210A52E8210A52EA210A52B4
:102C9000EC210A52EE210A527047000070B5064638
:102CA0003046FFF7ABFF3C242046E11704EB91715F
:102CB0008910A4EB8101091D09B1012100E0002167
:102CC00094FBF1F1CDB22A4606F1B401014803F0BC
:102CD00037F870BD000001081FB50121214800F040
:102CE0003DFB0121052002F049FF4FF40040ADF803
:102CF000040028208DF8070001A91B4800F0A2FA63
:102D00004FF40040029000208DF80C0008208DF850
:102D10000D0001208DF80E0002A800F05DF82820BB
:102D20008DF8000002208DF8010001208DF80200CE
:102D30008DF80300684601F03FFE0F21002000F0EF
:102D400061FA4FF4004000F02DF8282000F01F0237
:102D5000012191404209920002F1E022C2F80011E3
:102D600000BF1FBD000230000008014010B54FF445
:102D7000004000F01DF8012810D1094800F0C2FD04
:102D80000748FFF789FD064890F83A0A401C0449B5
:102D900081F83A0A4FF4004000F004F810BD00003A
:102DA00078010020014908607047000014040140C8
:102DB000014600200022074B1B6803EA0102054B75
:102DC00014331B680B4013B10AB1012000E000204E
:102DD0007047000000040140002123498279002A45
:102DE0003AD00A46126803689A430B461A600A1DD5
:102DF000126803689A430B1D1A60027911440A682D
:102E000003681A430A60184A0832126803689A4332
:102E1000154B08331A601A1D126803689A43124B47
:102E20000C331A604279102A0ED11A1F12680368F7
:102E30001A430D4B08331A601A1D126803681A43AF
:102E4000094B0C331A600DE00749427911440A68B6
:102E500003681A430A6005E0027911440A680368AE
:102E60009A430A60704700000004014030B50446F0
:102E700004254FF4302000F085F80546042D17D1C5
:102E80000C48006940F002000A49086108464461A4
:102E9000006940F0400008614FF4302000F072F803
:102EA00005460448006941F6FD7108400149086182
:102EB000284630BD0020024004200B49C96801F0BB
:102EC000010109B101200EE00749C96801F00401C0
:102ED00009B1022007E00449C96801F0100109B1F5
:102EE000032000E0042070470020024003480069EE
:102EF00040F0800001490861704700000020024056
:102F000078B506460C46042500200090E80200F043
:102F100039F80546042D24D11348006940F001001A
:102F2000114908613480E80200F02CF80546042DB0
:102F300010D1B01C0090200C00990880E80200F02D
:102F400021F805460848006941F6FE710840064927
:102F5000086106E00448006941F6FE710840024934
:102F60000861284678BD000000200240024803495D
:102F700048600348486070472301674500200240CD
:102F8000AB89EFCD00B502460423FFF795FF03465A
:102F900003E0FFF791FF0346521E012B01D1002AE7
:102FA000F7D102B90523184600BD00002DE9F0470E
:102FB0008246BAF9F00040F24C41884232DABAF95E
:102FC000F20040F23A7188422CDDBAF9F60040F284
:102FD0004C41884226DABAF9F40040F23A7188424C
:102FE00020DD9AF8450AE8B945480078012819D14A
:102FF00000204349087043480078142809DD012067
:103000008AF8450A00203F49087001203E490860BF
:1030100004E03C480078401C3A49087000203A49D6
:1030200008606AE0BAF9F00040F24C41884232DAB6
:10303000BAF9F20040F23A7188422CDDBAF9F60092
:1030400040F24C41884226DABAF9F40040F23A7173
:10305000884220DD9AF8450A01281CD128480078CA
:10306000012818D100202649087026480078142825
:1030700008DD00208AF8450A22490870012022490B
:10308000086004E01F480078401C1E4908700020BA
:103090001D49086031E0BAF9F200FDF701FB064670
:1030A00000221A4BFDF7F1F9804600221346FDF786
:1030B00087FB09D2BAF9F200FDF7F2FA06460022C0
:1030C000124BFDF7E2F909E0BAF9F2104842FDF7B8
:1030D000E7FA064600220D4BFDF7D7F90446002219
:1030E0000B4BFDF755FB02D201200549087001206A
:1030F00005490860002003490870BDE8F08700001A
:103100002900002028000020B001214200489740FB
:103110000000594010B50446204602F001FC20464C
:1031200001F03AFA10BD10B5044640F63E20005DAD
:1031300028B1002140F63E20015501F0BDF940F6CE
:103140003F20005D50B1002140F63F20015540F680
:103150004920005D012801D1FDF714FE40F63B2017
:10316000005D68B1002140F63B2001552046FFF785
:103170001DFF94F8450A012802D1204601F034FAD7
:103180004FF42460005D58B100214FF424600155D4
:1031900094F8460A012803D104F5106000F02AF9DA
:1031A00040F63D20005D60B1002140F63D20015514
:1031B00094F8460A28B994F8450A10B92046FEF753
:1031C0001FF840F63C20005D68B1002140F63C202D
:1031D0000155204600F08CFE94F8450A012802D1E2
:1031E0002046FFF797FF40F64120005D48B10021DF
:1031F00040F64120015594F8450A10B9204601F0E7
:10320000ABFD10BD30B500228B071C0F0F2303FA56
:1032100004F20B4B8C1053F824309343084C8D1060
:1032200044F8253023468C1053F824308C07240FA3
:1032300000FA04F42343024C8D1044F8253030BDCD
:10324000080001402DE9F04102460025002600203B
:1032500000230024002791F803C00CF00F0591F81B
:1032600003C00CF0100CBCF1000F03D091F802C0A9
:103270004CEA050591F800C0BCF1000F31D014688C
:1032800000202BE04FF0010C0CFA00F3B1F800C065
:103290000CEA03069E4220D183004FF00F0C0CFA7B
:1032A00003F7BC4305FA03FC4CEA040491F803C09D
:1032B000BCF1280F06D14FF0010C0CFA00FCC2F84B
:1032C00014C00AE091F803C0BCF1480F05D14FF0DB
:1032D000010C0CFA00FCC2F810C0401C0828D1D325
:1032E0001460B1F800C0BCF1FF0F34DD5468002059
:1032F0002EE000F1080C4FF0010808FA0CF3B1F8C9
:1033000000C00CEA03069E4221D183004FF00F0C4F
:103310000CFA03F7BC4305FA03FC4CEA040491F8E9
:1033200003C0BCF1280F05D100F1080C08FA0CF815
:10333000C2F8148091F803C0BCF1480F07D100F126
:10334000080C4FF0010808FA0CF8C2F81080401C75
:103350000828CED35460BDE8F0810000F0B50A46DD
:10336000002300240021002500F00046B6F1004FA4
:1033700002D11D4EF16901E01B4E7168C0F3034597
:1033800083B200F44016B6F5401F08D121F07061F9
:10339000154E766826F07066134F7E6012E000F4DA
:1033A0008016B6F5801F06D1032606FA05F4A14360
:1033B00041F0706106E0460D360103FA06F6B143AE
:1033C00041F0706122B1460D360103FA06F6314331
:1033D00000F00046B6F1004F02D1034EF16101E06A
:1033E000014E7160F0BD0000000001404161704776
:1033F0000161704710B50446611C204601F082F956
:1034000004F16501204601F037FA204600F00CF97E
:10341000204602F007FE10BD10B5094890F8460A94
:10342000012806D1082307A20621002001F023FE6F
:1034300005E0082307A20621002001F01CFE10BDB4
:10344000780100204750535F496E6974204F4B212B
:10345000000000004750535F496E69742045727246
:103460006F72000010B50446242C02D100203349AD
:103470000880324801880088401C304A108030485B
:103480004454C078522822D12D4800794D281ED1AD
:103490002B48407943281AD101202A4981F8460A4D
:1034A000274811460988405C0A2810D11046028836
:1034B00023492548FCF736FE0020204908800121D9
:1034C000204880F8401A64211D48FCF744FE1C483F
:1034D000C078472823D11A48007953281FD11848AB
:1034E000407956281BD10120164981F8460A144814
:1034F00012490988405C0A2811D1104802881049F5
:1035000011486430FCF70EFE00200C4908800121B0
:103510000C4880F8401A64210948FCF71CFE074853
:103520000088642809DB002004490880054981F8E7
:10353000460A0021034880F8401A10BD4A000020C6
:10354000E40C002078010020790A002010B54FF427
:10355000165004F057F84FF4FA7006F03FF80024C4
:103560000EE02C4830F814102B4804F0F2F900BF9C
:103570004021294804F020F90028F9D0601CC4B289
:103580004A2CEED3642006F029F800240EE02348EC
:1035900030F81410204804F0DCF900BF40211E4828
:1035A00004F00AF90028F9D0601CC4B22C2CEED328
:1035B000642006F013F800240EE0194830F81410C7
:1035C000154804F0C6F900BF4021134804F0F4F890
:1035D0000028F9D0601CC4B2182CEED3642005F08A
:1035E000FDFF00240EE00F4830F814100A4804F0E4
:1035F000B0F900BF4021084804F0DEF80028F9D0F7
:10360000601CC4B22A2CEED34FF4E13003F0FAFF71
:1036100010BD000034D80008004800407ED80008E3
:10362000AAD80008C2D800082DE9F04FA1B0824600
:10363000DAF81201FDF719F89B490590FCF746FEF0
:103640008346FDF791F8994A994BCDE90601FCF7BD
:1036500022FF0022974BCDE90801FCF78EFFCDE950
:103660000A01FDF7C5F81F90DAF80D01FCF7FDFF20
:103670008D490590FCF72AFE8346FDF775F88B4AC5
:103680008B4BCDE90601FCF706FF0022894BCDE903
:103690000801FCF772FFCDE90A01FDF7A9F81E90B9
:1036A00085498648CDE91C1000BF00BF00BF00BFA0
:1036B00000BF00BF4407824D824E834F22462B46F7
:1036C00030463946FCF759FF22462B46CDE9060124
:1036D00030463946FCF751FFCDE90401DDE9062308
:1036E000FCF7D9FE0022794BCDE90801FCF7D0FEAA
:1036F000CDE90A0109F01EFB8046894632463B4669
:1037000020462946FCF739FF32463B46CDE9060103
:1037100020462946FCF731FFCDE90401DDE9062307
:10372000FCF7B9FE0022694BCDE90801FCF7ADFEBC
:10373000CDE90A0109F0FEFACDE91801DDE91C0125
:1037400005F01EFECDE91401DDE9182310461946E7
:10375000FCF7A1FECDE90001DDE91423FCF79BFE97
:10376000CDE90201DDE91423FCF795FE0022574B59
:10377000CDE90401FCF7E8FDCDE9060109F0DAFA2C
:1037800022462B46CDE90A0120462946FCF783FE56
:1037900032463B46CDE90601FCF7EFFECDE90801D4
:1037A000DDE90A23FCF7E9FECDE91A01DDE914237E
:1037B000DDE91A01FCF76FFECDE916011E98FCF752
:1037C000D3FFCDE90A0109F0A1F9CDE912012146A3
:1037D0001E98FCF77BFD8346FCF7C6FF334A3C4B43
:1037E000CDE90801FCF7B0FDCDE90A0105F0F8FBD1
:1037F000CDE910010022234640464946FCF7BDFEB4
:10380000CDE90A0140464946DDE91223FCF743FEB3
:1038100000222E4BCDE90201FCF796FDCDE9060111
:1038200040464946DDE91223FCF735FE0022274BCE
:10383000CDE90201FCF72CFECDE90401DDE9062308
:10384000FCF79BFECDE90801DDE90A2307F0E6FF5E
:10385000CDE90E01DDE90E23DDE91001FCF71BFEC9
:10386000CDE90C01DDE90C0106F034FFCDE90801DA
:10387000DDE91623FCF70FFECDE90A01FCF7B8FFDE
:10388000CAF832011F98FCF76FFFCDE90801DDE9A6
:103890001623FCF700FECDE90A01FCF7A9FFCAF8E0
:1038A000360121B0BDE8F08F0050C34744174154A2
:1038B000FB21094000806640D8642B3852C1E03FAC
:1038C000A654584151DA1B14C43F58410000F03F40
:1038D000FB21E93F00BFFEE740F64C21095C0129CE
:1038E00007D1002240F64C210A54B0210A588C21FD
:1038F0000A5090F8441A042902D100228C210A505F
:10390000704700002DE9F04F8BB08246FC48FD491E
:10391000FD4BFE4ACDE900100AF10C01881D06F0AE
:103920002BF8F848008800F4807000287DD0F74913
:103930000868FCF7B5FE06460022F54BFCF71DFEB5
:103940000446FCF755FFF3490860F0494868FCF766
:10395000A7FE06460022EE4BFCF70FFE0446FCF7DE
:1039600047FFED490860E9498868FCF799FE06467B
:103970000022E74BFCF701FE0446FCF739FFE7495C
:103980000860E249C868FCF78BFE06460022E04B5F
:10399000FCF7F3FD0446FCF72BFFE1490860DF4824
:1039A00001684FF08040FCF75FFC0290DB48016843
:1039B0000298FCF759FC8146D74801684FF0404017
:1039C000FCF752FC0290D44801680298FCF74CFCCA
:1039D00083464946FCF742FC80464FF07E51FCF797
:1039E000EBFB0390FCF7C0FECDE90601C948016876
:1039F0004FF08040FCF738FC0390C74801680398FB
:103A0000FCF732FC8146C54801684FF08040FCF766
:103A10002BFC0390C24801680398FCF725FC834601
:103A20004946FCF7C9FB804600E0D3E0FCF79CFE6A
:103A3000CDE90401DDE9062305F0E2FB81F0004158
:103A4000B84AB94BCDE90801FCF725FD064600222E
:103A50004FF08043FCF719FD0446FCF7C9FECAF895
:103A60009000AC4801684FF08040FCF7FDFB0590EA
:103A7000AA4801680598FCF7F7FB0790A64801687B
:103A80004FF04040FCF7F0FB0590A5480168059811
:103A9000FCF7EAFB06900799FCF78EFB8346FCF7E0
:103AA00063FE804605F064F94FF066329E4B8A3320
:103AB000CDE90801FCF7EFFC06469C4A9C4BFCF75D
:103AC000E4FC0446FCF794FE942141F80A0099486E
:103AD00090F8490A00287DD1914801680068FCF7F8
:103AE000C3FB04908D4801680068FCF7BDFB0290A1
:103AF000894801680068FCF7B7FB019085480168B8
:103B00000068FCF7B1FB00900199FCF755FB834678
:103B10000299FCF7A3FB03900499FCF79FFB059027
:103B2000FCF722FE06460F467D480168794800688A
:103B3000FCF79AFB04907948016877480068FCF725
:103B400093FB03900499FCF737FB83464FF08041C9
:103B5000FCF78AFB0590FCF707FE32463B46CDE9B1
:103B6000060105F04DFB81F0004104466D4A6E4BA5
:103B7000FCF791FC00221346CDE90801FCF785FC17
:103B80008046FCF735FE6C4908606C4801686A485D
:103B90000068FCF763FB04466949FCF74FFE06D258
:103BA00068480088401E00B26649088010E06348FB
:103BB000016861480068FCF751FB04466249FCF764
:103BC00033FE05D25F480088401C00B25D49088082
:103BD0005C4900E014E0B1F900104FF4B47201FB4D
:103BE00002F0FCF739FD0446534801682046FCF713
:103BF000E3FA982141F80A004F4800684F490860ED
:103C00004048007800F07000002851D0BAF9120046
:103C1000FCF746FD06464D4A4D4BFCF73CFC04467E
:103C2000404A414BFCF737FC8046FCF7E1FDCAF8FF
:103C30001800BAF91400FCF733FD8046434A444BA0
:103C4000FCF729FC0646374A374BFCF724FC0446B0
:103C5000FCF7CEFDCAF81C00BAF91600FCF720FDEF
:103C600080463A4A3A4BFCF716FC06462D4A2E4B44
:103C7000FCF711FC0446FCF7BBFDCAF820003548F0
:103C8000DAF8181006F0F9FC80F00040CAF82400B9
:103C90003148DAF81C1006F0F0FCCAF828002F486A
:103CA000DAF8201006F0E9FC80F00041CAF82C1088
:103CB0001448007800F0080000287CD0BAF90C0005
:103CC000FCF7EEFC8046264A264BFCF7E4FB064652
:103CD0000022254BFCF7DFFB0446FCF789FDCAF800
:103CE0003000BAF90E00FCF7DBFC06461C4A1D4BFF
:103CF000FCF7D1FB804600221B4BFCF7CCFB35E0E8
:103D0000040100200601002070000020740E002035
:103D10000000D04160000020640000206800002006
:103D20006C0000204446671ADCA54C409A9999998A
:103D300099990140780100200C0100201001002019
:103D40000000344308010020000034C3C773C7AC2F
:103D5000286F513F740000208C000020A400002038
:103D6000D5CC5A0A48FB1F3F00A08E400446FCF702
:103D70003FFDCAF83400BAF91000FCF791FC804608
:103D80001A4A1B4BFCF787FB06460022194BFCF72F
:103D900082FB0446FCF72CFDCAF838001648DAF816
:103DA000301006F06AFC04461449FCF757FACAF8CA
:103DB0003C00134800E016E0DAF8341006F05DFC31
:103DC00080F000440F492046FCF748FACAF840004A
:103DD0000D48DAF8381006F050FC04460B49FCF7A1
:103DE0003DFACAF844000BB0BDE8F08FD5CC5A0AB2
:103DF00048FB1F3F00A08E40BC0000200000A041F7
:103E0000D40000200000A0C1EC000020000048C247
:103E100008B50121082001F0B1FE4FF4E040ADF8F3
:103E2000000010208DF8030003208DF80200694681
:103E30000448FFF707FA4FF4E0410248FFF7D8FAC9
:103E400008BD0000000C01402DE9F84F044624484D
:103E50008460244A1168244A9068FCF705FA214AD4
:103E600000905168204A5068FCF7FEF980461C4AD1
:103E700011681E4A9068FCF7F7F98146184A5168A4
:103E80001A4A5068FCF7F0F98246154A9168174AB9
:103E90001068FCF7E9F983465146FCF78DF90746AF
:103EA0004946FCF789F906464146FCF7D7F905462D
:103EB0000099FCF7D3F90B49886009484068084924
:103EC0000860084680684860064840680549086000
:103ED00008468068486008468068BDE8F88F0000A2
:103EE000140C0020200C002028D800081CD8000842
:103EF00090F8451A012946D10021334A1170012159
:103F0000324A11603249097811BB3249097821B926
:103F100000212E4A0832116014E02E490978012947
:103F200003D12A4A083211600CE02A490978032992
:103F300008D10021254A08321160264A117001215A
:103F4000234A117023490978491C224A117039E02B
:103F50001F490978012935D11E490978192908DD39
:103F600000211A4A083211601A4A1170184A117059
:103F700004E018490978491C164A11700121134AB6
:103F8000083211601EE090F8451AD9B901210F4A94
:103F90000832116000210F4A11700D4A11700A4950
:103FA000097801290BD10949096809B9012100E003
:103FB0000021064A11600021034A117002E001212C
:103FC000014A11707047000004000020B0812142B6
:103FD000060000200500002010B50446A1B20248EA
:103FE00003F070F810BD0000002C014010B504462D
:103FF000A1B2024803F068F810BD0000002C014097
:1040000010B50446A1B2024803F060F810BD0000EC
:10401000002C014010B50446A1B2024803F058F844
:1040200010BD0000002C014070B50124082323A21C
:104030000421002001F01FF800F092F8FEF74CFE7A
:1040400008E0082321A20421002001F014F806F062
:1040500071FDC4B2002CF4D13CBB792007F0DEFA2C
:10406000792006F009FDC82007F07EFA05F078FCFB
:104070001B4806F0C7FA054605F096FD194806F0FC
:10408000C1FA054605F090FD40F2731005F010FBF3
:10409000C82005F051FD012007F062F9082312A2A3
:1040A0000421002000F0E7FF07E005E0082313A249
:1040B0000421002000F0DFFFF8E770BD4D505539B6
:1040C0003235305F496E69742E2E2E004D505539B1
:1040D00032353020636F6E6E6563742E0000000011
:1040E0002D000020360000204D50555F496E697448
:1040F000206973204F4B2120000000004D50555F78
:10410000496E6974204572726F722E2E0000000095
:1041100010B500200F4908600F48006820F070407B
:104120000D4908600846006840F0405008600020D3
:104130000A49C1F89C01012005F076FA01200549E1
:104140000860022005F070FA00200449C1F89801C7
:1041500010BD000098812142000C014000802142E6
:1041600008B50121082001F009FDC020ADF80000CC
:1041700010208DF8030003208DF8020069460548E1
:10418000FFF760F80120044908600449C1F89C0168
:1041900008BD0000000C01409881214200802142AE
:1041A00010B500200E4908600E48006820F07040ED
:1041B0000C4908600846006840F040500860012043
:1041C0000949C1F89C0105F02FFA01200449086053
:1041D00005F02AFA00200449C1F8980110BD00003A
:1041E00098812142000C01400080214270B50546B3
:1041F00000241748006820F0704015490860084600
:10420000006840F000400860002616E000201149D8
:104210000860012005F008FA01200F49C1F8980153
:104220006006040E0B487C38006808B1601CC4B2FC
:10423000012005F0F9F9701CC6B2082EE6DB15B1B5
:10424000FFF766FF01E0FFF7ABFF204670BD0000FF
:10425000000C014098812142008021422DE9F04765
:1042600006460F4615469846002400F063F830468F
:1042700000F02EF800F0AAF820B100F081F801203B
:10428000BDE8F087384600F023F800F09FF800F012
:1042900051F8711CC8B200F01BF800F097F8002428
:1042A0000FE0681EA04204D00120FFF79FFF814667
:1042B00003E00020FFF79AFF814608F80490601C95
:1042C000C4B2AC42EDDB00F05BF80020D8E70000A0
:1042D00070B504461448006820F070401249086028
:1042E0000846006840F04050086000200F49086010
:1042F000002516E0E0090D49091D08606006040E5E
:10430000012005F091F901200949C1F8980105F053
:104310008BF9002005490860012005F085F9681C2B
:10432000C5B2082DE6DB70BD000C0140988121422A
:104330000080214210B50F48006820F070400D4900
:1043400008600846006840F04050086001200A49B3
:1043500008600A49C1F89801042005F065F90020B9
:1043600005490860042005F05FF900200349C1F801
:10437000980110BD000C01409C8121420080214227
:1043800010B50F48006820F070400D4908600846DD
:10439000006840F04050086000200A4908600A495F
:1043A000C1F89C01042005F03FF90120054908608F
:1043B0000549C1F89C01042005F036F910BD000044
:1043C000000C0140988121420080214210B5002458
:1043D0001448006820F070401249086008460068E0
:1043E00040F00040086001200F49086005F01CF90A
:1043F00001200E49C1F8980105F016F907E0601C8C
:10440000C4B2FA2C03DDFFF7BBFF012010BD064844
:10441000803800680028F2D10349091F086000BFF6
:10442000F4E70000000C01409C8121420080214201
:104430002DE9F04180460D4616461F460024FFF741
:1044400079FF4046FFF744FFFFF7C0FF20B1FFF7B9
:1044500097FF0120BDE8F0812846FFF739FFFFF7FD
:10446000B5FF00240BE0385DFFF732FFFFF7AEFF2A
:1044700018B1FFF785FF0120ECE7601CC4B2B4421D
:10448000F1DBFFF77DFF0020E4E7000008B5012124
:10449000082001F073FB4FF44070ADF800001020CD
:1044A0008DF8030003208DF8020069460148FEF7ED
:1044B000C9FE08BD000C014010B51D480078401C25
:1044C00040B21B49087008460078012804D105F065
:1044D00093FE05F087FE2AE015480078042804D1F1
:1044E00005F066FE05F0A2FE21E0114800780628DE
:1044F0001DD100200E49087005F098FD0D49D1F836
:10450000080105F05BFD0446FFF79EFC0949C1F870
:10451000FC000A46D2F8B010D2F8FC0000F00CF80B
:104520000449C1F800010121024880F84C1A10BD6D
:1045300048000020780100202DE9FC5F83460C46EE
:104540005846FCF711F907460E4A0F4BFBF7A3FF3D
:1045500081468A462046FCF707F907464FF0663247
:104560000A4BFBF798FF4A465346CDE90001FBF79B
:10457000EBFE0546FCF73CF9054908600846006873
:10458000BDE8FC9F9A9999999999A93F6666EE3F73
:104590004400002000BFFEE740F64721095C61B1FE
:1045A00000210F4A117001210E4A1160002240F6CD
:1045B0004A210A54C91E0A5410E0094909781329EE
:1045C00007DD0021074A1160012240F64A210A5402
:1045D00004E003490978491C014A11707047000042
:1045E0002B000020B481214290F8422A40F643215A
:1045F0000A54C91D095CB9BBB0F9F81040F2145255
:10460000914203DA012180F8421A46E0B0F9F8102D
:1046100040F21452914215DBB0F9F81040F2A46256
:1046200091420FDC90F8461A012907D190F8001941
:10463000012903D1032180F8421A2EE0022180F8DB
:10464000421A2AE0B0F9F81040F2A462914224DD47
:1046500090F8461A012908D190F80019012904D1CF
:10466000052180F8441A18E003E0042180F8441A78
:1046700013E040F64A21095C01290ED190F8461A50
:10468000012907D190F80019012903D1052180F8EB
:10469000441A02E0042180F8441A40F64321095CE0
:1046A00090F8422A914213D0012240F64B210A543D
:1046B00090F8421A022903D140F64C210A5407E02F
:1046C00090F8421A032903D1012240F64D210A54E1
:1046D00070470246134610E010782A2805D010785B
:1046E000202802DB10787A2801DDFF20704710783F
:1046F0002C2801D1481EC1B2521C0029ECD1D01A7D
:10470000C0B2F3E72DE9F04F85B00446884657A1C3
:104710004046FBF72BFD074602213846FFF7D9FF3D
:104720000546FF2D02D0785D84F817010321384635
:10473000FFF7CFFF0546FF2D46D0781904A900F0FA
:10474000C4F806469DF81000801CC1B20A2000F093
:10475000B1F8B6FBF0F0C4F80D019DF81000801C14
:10476000C1B20A2000F0A6F8B6FBF0F100FB116A16
:104770005046FBF77AFF81469DF81000C0F1050016
:10478000C1B20A2000F096F80090FBF76EFF834656
:104790004946FBF769FD82463649FBF797FD05213F
:1047A00002900A2000F086F8D4F80D1100FB01FAFF
:1047B0005046FBF75AFF01900299FBF7FDFC03906E
:1047C000FBF7A5FFC4F80D0105213846FFF781FF6F
:1047D0000546FF2D46D0781904A900F076F8064664
:1047E0009DF81000801CC1B20A2000F063F8B6FBEF
:1047F000F0F0C4F812019DF81000801CC1B20A202C
:1048000000F058F8B6FBF0F100FB116A5046FBF7D8
:104810002CFF81469DF81000C0F10500C1B20A20AE
:1048200000F048F80090FBF720FF83464946FBF76D
:104830001BFD82460F49FBF749FD052102900A2026
:1048400000F038F8D4F8121100FB01FA5046FBF7DB
:104850000CFF01900299FBF7AFFC0390FBF757FFA9
:10486000C4F8120105B0BDE8F08F0000474E524D6C
:1048700043000000000070422DE9F84304460D4655
:10488000A8460AA14046FBF771FC064603213046C4
:10489000FFF71FFF0746FF2F05D0F019694600F00C
:1048A00014F884F8C900BDE8F88300004750475366
:1048B0005600000010B50246012000E050430B1ED8
:1048C000A1F10104E1B2F9D110BD2DE9F34F81B09E
:1048D00007463C46002000908346814600268046DD
:1048E00028E020782D2802D148F00208641C2078A6
:1048F0002C2802D020782A2800D11CE020782E28ED
:1049000003D148F00108641C09E02078392802DC52
:104910002078302803DA4FF0000900260BE008F079
:10492000010010B1701CC6B203E009F1010000F0F3
:10493000FF09641CD5E700BF08F0020000B17F1C2E
:1049400000250EE0A9F10100401BC1B20A20FFF7CB
:10495000B1FF795D3039009A00FB01200090681C9E
:10496000C5B24D45EEDB052E00DD0526029806702A
:1049700000250EE0701E401BC1B20A20FFF79AFF0F
:1049800009F101012944795C303900FB01BB681C45
:10499000C5B2B542EEDB31460A20FFF78BFF009926
:1049A00001FB00BA08F0020008B1CAF1000A504643
:1049B000BDE8FE8F7047000070B5002100230F2274
:1049C000C47804B3154C246804F4E064C4F5E064CE
:1049D000210AC1F10403CA40447804FA03F184783F
:1049E0001440214309010E4C0678A155047804F0C7
:1049F0001F050124AC4005786D11AD0005F1E025DF
:104A0000C5F8004109E0047804F01F050124AC401A
:104A1000044D0678761145F8264070BD0CED00E097
:104A200000E400E080E100E002490143024A116035
:104A3000704700000000FA050CED00E070B500249E
:104A400018E004F1B000002100F032FB002108461C
:104A500000F02EFB0021102000F02AFB002505E0CD
:104A60000121002000F024FB681CC5B2802DF7DB7B
:104A7000601CC4B2082CE4DB70BD70B5022418E0E1
:104A800004F1B000002100F013FB0021084600F003
:104A90000FFB0021102000F00BFB002505E0012199
:104AA000002000F005FB681CC5B27F2DF7DD601CFF
:104AB000C4B2072CE4DD70BD2DE9F04F89B0044687
:104AC000884616469A464FF0000900213046FBF70B
:104AD000ABFE07D286F00046082339A241462046A5
:104AE00000F0C9FAE01DC4B2792C04DD002408F1FD
:104AF000020000F0FF0800253046FBF708FE0746DD
:104B000004E00A20B7FBF0F7681CC5B2002FF8D10B
:104B10004FF00609281D00FB09F0C0F18000A042FB
:104B200004DA002408F1020000F0FF083046FBF729
:104B3000EEFD8346012008212B465A46CDE90010A0
:104B40004146204600F04CFA05FB0940C4B2A11CC6
:104B5000C8B208231BA2414600F08DFA04EB0900FD
:104B6000C4B25046FBF7ADFD02460B46CDE900014D
:104B70000020154906F052FECDE904013846FBF746
:104B800074FD31460190FBF76CFB8346FBF7ECFDAF
:104B9000CDE90201DDE90423FBF77DFCCDE9060147
:104BA000FBF7C9FD0890002008215346CDE900100D
:104BB00041462046089A00F013FA09B0BDE8F08F8C
:104BC0002D0000002E0000000000244010B5102130
:104BD0000748FEF70DFC20210548FEF709FC2021BF
:104BE0000348FEF703FC10210148FEF7FFFB10BD50
:104BF0000008014010B510210548FEF7F9FB2021FF
:104C00000348FEF7F3FB20210148FEF7F1FB10BD3E
:104C10000008014010B510210348FEF7E9FB102100
:104C20000148FEF7E3FB10BD0008014008B5012173
:104C3000042000F0A3FF3020ADF8000010208DF814
:104C4000030003208DF8020069463F48FEF7FAFA98
:104C500030213D48FEF7CCFB082004F0BFFC0021CA
:104C6000AE2000F025FA0021084600F021FA0021CC
:104C7000102000F01DFA0021402000F019FA002158
:104C8000B02000F015FA0021812000F011FA002177
:104C9000FF2000F00DFA0021A12000F009FA002108
:104CA000A62000F005FA0021A82000F001FA00215A
:104CB0003F2000F0FDF90021C82000F0F9F90021A3
:104CC000D32000F0F5F90021084600F0F1F90021A9
:104CD000D52000F0EDF90021802000F0E9F9002155
:104CE000D82000F0E5F90021052000F0E1F90021CD
:104CF000D92000F0DDF90021F12000F0D9F90021E0
:104D0000DA2000F0D5F90021122000F0D1F90021BD
:104D1000DB2000F0CDF90021302000F0C9F900219E
:104D20008D2000F0C5F90021142000F0C1F9002108
:104D3000AF2000F0BDF9FFF781FE102303A2002190
:104D4000202000F098F908BD000801404167696C17
:104D50006974795F300000002DE9FC41044640F69B
:104D60004B20005D70B1002140F64B200155012021
:104D70000821CDE9001094F8422A0346002178204A
:104D800000F02EF9942108590021FBF74DFD06D2C1
:104D900008232D220221322000F0D0F805E008235C
:104DA00020220221322000F0C9F894210859FBF793
:104DB000DBFC21F000410646FBF7BDFC0546012067
:104DC000082102232A46CDE900101946402000F0B0
:104DD00007F90021D4F89000FBF726FD06D208233E
:104DE0002D220321322000F0A9F805E0082320221B
:104DF0000321322000F0A2F8D4F89000FBF7B4FCB5
:104E000021F000410646FBF796FC054601200821EB
:104E100002232A46CDE900100321402000F0E0F8EB
:104E2000982108590021FBF7FFFC06D208232D2208
:104E30000421322000F082F805E00823202204211A
:104E4000322000F07BF898210859FBF78DFC21F007
:104E500000410646FBF76FFC0546012008210323AD
:104E60002A46CDE9001004213A2000F0B9F84FF4A9
:104E7000847108592549FBF729FA054602232A4679
:104E800005211420FFF718FE4FF4827108591F49BD
:104E9000FBF71CFA054602232A4605214620FFF7A8
:104EA0000BFE94F8460A78B394F8172A08230021D9
:104EB0000A2000F043F801200821CDE9001094F801
:104EC000C92902230146042000F08AF8D4F8120A06
:104ED000FBF7CBFB06460E49FBF7F8F90546052321
:104EE0002A4606212D20FFF7E7FDD4F80D0AFBF72F
:104EF000BCFB06460649FBF7E9F9054605232A46A9
:104F000007212D20FFF7D8FDBDE8FC810000C84235
:104F10000050C34770B504460D4605F1B0000021AE
:104F200000F0C6F8102141EA1410002100F0C0F88A
:104F300004F00F00002100F0BBF870BD2DE9F04730
:104F400007460E469046994600250024A8F1200009
:104F5000C5B27F2F02DD0027B01CC6B2B9F1100F19
:104F600024D131463846FFF7D5FF002408E004EB92
:104F70000511194A505C012100F09AF8601CC4B276
:104F8000082CF4DB701CC1B23846FFF7C3FF0024C5
:104F900009E004EB051108310F4A505C012100F0D3
:104FA00087F8601CC4B2082CF3DB12E031463846A7
:104FB000FFF7B0FF00240AE005EB4501074A02EBCA
:104FC0004101085D012100F073F8601CC4B2062C99
:104FD000F2DBBDE8F08700006CD1000844CF000888
:104FE0002DE9F05F0546894690461E46DDF82CA067
:104FF0004FF0000B00243AE0301B401EC1B20A20E3
:1050000006F000FCB8FBF0F00A21B0FBF1F201FB66
:105010001207BBF1000F1CD1701EA04219DDB7B9F9
:10502000BAF1000F09D0072101FB0451C8B22022B8
:1050300049460A9BFFF782FF08E0072101FB045164
:10504000C8B2302249460A9BFFF778FF0DE04FF0C7
:10505000010B07F13001CAB2072101FB0451C8B2AC
:1050600049460A9BFFF76AFF00BF601CC4B2B44206
:10507000C2DBBDE8F09F2DE9F04104460F4615461E
:10508000984600260FE0AA5D434639462046FFF7C2
:1050900055FF04F10800C4B2782C02DD0024B81CCE
:1050A000C7B2701CC6B2A85D0028ECD1BDE8F08183
:1050B00070B504460D461DB1E0B202F091FC02E06D
:1050C000E0B202F077FC70BD10B5044644494FF4DD
:1050D000C87001514349001F015100214FF4CA70AB
:1050E000015141494FF4B07001513D494FF40E70E8
:1050F00001513C49001F015100214FF40F70015133
:1051000039494FF40270015138494FF43870015158
:105110000021001F01514FF43970015134494FF4FF
:105120002C70015130494FF4627001513149001F18
:10513000015131494FF46370015130494FF45670B9
:10514000015129494FF4866001512A49001F01513C
:1051500029490815015129494FF48060015124491A
:105160004FF49B6001510021001F015140F2DC40CF
:10517000015123494FF49560015100214FF4C5605E
:1051800001514FF4BF6001514FF4B06001514FF431
:10519000AA6001514FF4026001514FF4FE600151C9
:1051A0004FF4DA6001514FF4D460015140F6C80069
:1051B000015140F6980001514FF4EF6001514FF456
:1051C000E9600151204600F00FF9FDF757FB04F5A7
:1051D000707000F01DF904F5467000F019F910BD6B
:1051E0000000C8410000A040000096420000A0411D
:1051F0000000704200007041000048430000FA4384
:10520000000096432DE9F04F8BB004468846914646
:105210000025C4F80C80C4F81890A169E068FBF779
:105220001DF8606204F12400216F03F099FCE16A2B
:10523000606AFBF713F86064D4F84CA0A66C676C46
:1052400031465046FBF7FAFA01D2504600E03046AC
:10525000834639465846FBF7F1FA01D2584600E03A
:105260003846834631465046FBF7DEFA01D25046B7
:1052700000E030460A9039460A98FBF7D5FA01D289
:105280000A9800E038460A9050460A99FBF7D6FA89
:1052900006D259465046FBF7C7FA01D2C4F844A0DB
:1052A00030460A99FBF7CAFA05D259463046FBF751
:1052B000BBFA00D2666438460A99FBF7BFFA05D2FA
:1052C00059463846FBF7B0FA00D26764A16CE16436
:1052D000616CA16404250AE0681E04F1540151F8D0
:1052E000201004F1540040F82510681EC5B2002DAE
:1052F000F2DC04F1900204F17801606CFDF724FC0B
:105300006065364904F1540003F02AFC3349606DAE
:10531000FAF7DCFF4FF07E510890FAF74DFF099045
:10532000A168FAF7A1FF20650021606AFBF786FA01
:1053300001D2606A02E0606A80F000400990E16E8C
:10534000FBF772FA21D2616A6068FAF78DFF01906B
:10535000FBF70AFA224A234BCDE90201FBF79BF83F
:10536000CDE90601A06EFBF7FFF9CDE90401DDE907
:105370000623FAF7E9FFCDE90801FBF739FAA06641
:1053800004F16800616F03F0EBFB616A2068FAF7D3
:105390006BFF2063A06E6063D4E91401FAF764FF29
:1053A000A063D4E90C01FAF707FF0990A16BFAF7A3
:1053B00003FFE06304F13C00216C03F0D1FBE169E1
:1053C0002162A169E16121696161E1682161A16AEC
:1053D000E162616AA1620BB0BDE8F08F0000FA43A0
:1053E0007B14AE47E17A743F00224FF4C4710A5037
:1053F0004FF40C710A504FF436710A504FF460713B
:105400000A504FF485610A504FF49A610A50704770
:105410000146002006E0002301F1440242F820305A
:10542000421CD0B20328F6DB002006E0002301F185
:10543000540242F82030421CD0B20528F6DB00208E
:1054400009E0002301F1780242F820300C3242F8E2
:105450002030421CD0B20328F3DB70472DE9FF5FF8
:10546000044689469246C4F80C90C4F818A0A16975
:10547000E068FAF7F3FE606204F12400216F03F0A4
:105480006FFB0021606AFBF7D9F901D2606A02E084
:10549000606A80F000400546E16EFBF7C5F91FD257
:1054A000616A6068FAF7E0FE8346FBF75DF907463C
:1054B000214A224BFAF7EFFFCDE90201A06EFBF77C
:1054C00053F9CDE90001DDE90223FAF73DFF054676
:1054D000FBF78EF9A06604F16800616F03F040FBF2
:1054E000616A2068FAF7C0FE2063A06E6063D4E9A9
:1054F0000901FAF7B3FE0546A168FAF7B5FEA06305
:10550000D4E90C01FAF758FE0546A16BFAF754FEF0
:10551000E06304F13C00216C03F022FBE1692162AD
:10552000A169E16121696161E1682161A16AE162CA
:10553000616AA162BDE8FF9F7B14AE47E17A743FC8
:1055400070B504463C252846E91705EB9171891092
:10555000A5EB8101091D09B1012100E0002195FBA6
:10556000F1F1CEB2324604F1B4010D4800F0D4FBA3
:10557000204601F031FECC20005B4FF6FF718842DF
:105580000DD1C620005B884209D1D220005B884241
:1055900005D10020034908602046FDF77FFB70BD60
:1055A00000000108B001214270B50D4800F09CF8E0
:1055B0003C242046E11704EB91718910A4EB810192
:1055C000091D09B1012100E0002194FBF1F1CDB2E8
:1055D0002A460349B431034800F0B2FB70BD000015
:1055E000780100200000010810B5082310A207214F
:1055F0000020FFF740FD47214FF6FF7001F016FC39
:1056000047214FF6FF7001F09BFC472140F2E73045
:1056100001F05AFA0121880701F0BDF9012108487B
:1056200001F0B9F90121074801F0B5F910BD0000FA
:1056300050574D5F50504D5F496E69740000000037
:10564000000400400008004010B5044608231EA2D4
:1056500002210020FFF70FFD2046FFF771FF2046D3
:10566000FFF732FD0021C4F8461AC4F84A1A012196
:1056700040F64B200155401E0155002084F8450A94
:10568000012084F8420A002084F8440A242104F10D
:105690006C00FAF760FD142104F1FC00FAF75BFDE1
:1056A0000021C4F8F010C4F8F410C4F8F8104FF456
:1056B0009D7104F51060FAF74EFD082306A2022141
:1056C0000020FFF7D8FC10BD506172616D735F4917
:1056D0006E69742E2E2E0000506172616D735F49E9
:1056E0006E6974204F4B210070B504468B49D4F885
:1056F0002001FAF7B9FD0546FBF709F8A4F8B40054
:105700004FF4927108598549FAF7AEFD0546FAF74C
:10571000FEFF81B2B62001534FF4947108597F49BE
:10572000FAF7A2FD0546FAF7F2FF81B2B82001535D
:105730007A49D4F8C801FAF797FD0546FAF7E7FF6A
:1057400081B2BA2001534FF4E67108597349FAF750
:105750008BFD0546FAF7DBFF81B2BC2001534FF405
:10576000E87108596D49FAF77FFD0546FAF7CFFF52
:1057700081B2BE2001536949D4F87002FAF774FD72
:105780000546FAF7C4FF81B2C02001534FF41D71E2
:1057900008596249FAF768FD0546FAF7B8FF81B281
:1057A000C22001534FF41E7108595C49FAF75CFDA1
:1057B0000546FAF7ACFF81B2C42001535749D4F82B
:1057C0001803FAF751FD0546FAF7A1FF81B2C6208A
:1057D00001534FF4477108595049FAF745FD054602
:1057E000FAF795FF81B2C8200153810008594B494F
:1057F000FAF73AFD0546FAF78AFF81B2CA2001534B
:105800004649D4F8C003FAF72FFD0546FAF77FFFA3
:1058100081B2CC2001534FF4717108593F49FAF716
:1058200023FD0546FAF773FF81B2CE2001534FF4F2
:10583000727108593949FAF717FD0546FAF767FFFB
:1058400081B2D02001533549D4F86804FAF70CFD31
:105850000546FAF75CFF81B2D220015340F26C4159
:1058600008592E49FAF700FD0546FAF750FF81B2B4
:10587000D42001534FF48E6108592849FAF7F4FCFB
:105880000546FAF744FF81B2D62001532349D4F8E4
:105890001005FAF7E9FC0546FAF739FF81B2D8207E
:1058A000015340F2145108591C49FAF7DDFC054632
:1058B000FAF72DFF81B2DA2001534FF4A3610859A2
:1058C0001649FAF7D1FC0546FAF721FF81B2DC2030
:1058D00001531249D4F8B805FAF7C6FC0546FAF7A1
:1058E00016FF81B2DE20015340F2BC5108590B492A
:1058F000FAF7BAFC0546FAF70AFF81B2E020015335
:105900004FF4B86108590549FAF7AEFC0546FAF7B5
:10591000FEFE81B2E220015370BD000000007A4417
:1059200070B504461549D1F89400FAF71DFF21F02F
:10593000004105460022124BFAF742FF0CD30F49F3
:10594000D1F89000FAF710FF21F00041054600223F
:105950000B4BFAF735FF0CD20A480078401C094976
:105960000870084600780A2806DB002084F8450AFB
:1059700002E000200349087070BD0000780100209B
:1059800000004E402A0000202DE9F04F87B08246EB
:105990009AF8450A01287CD1BAF9F600FAF780FE98
:1059A00006460022534BFAF770FD21F000410446F1
:1059B0000022514BFAF704FF1AD2BAF9F600FAF7AF
:1059C0006FFE064600224B4BFAF75FFDCDE904015E
:1059D000FAF70EFF8346FAF7C7FE80460022474BD0
:1059E000FAF7CBFD0446FAF703FFCAF86C0002E0B1
:1059F0000020CAF86C00BAF9F400FAF751FE064626
:105A000000223C4BFAF741FD21F000410446002200
:105A1000394BFAF7D5FE1AD2BAF9F400FAF740FE7C
:105A20000022344BCDE90401FAF72FFD8046FAF746
:105A3000DFFE8346FAF798FE064600222F4BFAF760
:105A40009CFD0446FAF7D4FECAF8700002E000217B
:105A5000CAF87010BAF9F200FAF722FE06460022E0
:105A6000244BFAF712FD21F0004104460022224B9C
:105A7000FAF7A6FE3AD2BAF9F00040F21451884281
:105A800034DDBAF9F200FAF70BFE80460022194B1A
:105A900000E020E0FAF7F9FC0646FAF7A9FE834693
:105AA000FAF762FE0022164BCDE90001FAF765FD18
:105AB00004460D46DAF87400FAF756FE22462B46E5
:105AC000CDE90201FAF740FCCDE90401FAF790FEB6
:105AD000CAF874000AE0982050F80A10CAF8741046
:105AE0000021CAF870100020CAF86C0007B0BDE8A9
:105AF000F08F00000048974000002E400000344026
:105B000000407F4040F64D21095C01290DD190F8FD
:105B10000019012909D1002240F64D210A54D0F87C
:105B2000321A4165D0F8362A826590F8441A052960
:105B300003D1016E4165426E8265704729B1064A04
:105B4000D2690243044BDA6104E0034AD26982431A
:105B5000014BDA61704700000010024029B1064A8B
:105B600012690243044B1A6104E0034A126982433A
:105B7000014B1A61704700000010024029B1064A2B
:105B800092690243044B9A6104E0034A926982439A
:105B9000014B9A61704700000010024029B1064A8B
:105BA000D2680243044BDA6004E0034AD2688243BD
:105BB000014BDA60704700000010024030B5002150
:105BC0000022002400232D4D6D6805F00C0121B149
:105BD000042905D0082923D105E0294D056022E0DC
:105BE000274D05601FE0254D6D6805F47012234DAB
:105BF0006D6805F48034022505EB92421CB9214DF5
:105C0000554305600BE01D4D6D6805F400351DB171
:105C10001C4D5543056002E0194D5543056002E0F7
:105C2000174D056000BF00BF144D6D6805F0F00111
:105C30000909154D6B5C0568DD4045600F4D6D68C9
:105C400005F4E061090A104D6B5C4568DD40856034
:105C50000A4D6D6805F46051C90A0B4D6B5C4568CF
:105C6000DD40C560054D6D6805F44041890B074D69
:105C70006B5CC568B5FBF3F5056130BD00100240F3
:105C800000127A0000093D004C0100205C01002058
:105C90002DE9F0470024A14600200546064606E00F
:105CA000601C84B2FCF7CCFD0A2003F097FCC82CE2
:105CB000F6DD4FF0000A1AE0FCF7C2FD02280BD116
:105CC0001349D1F80801FAF74FFD07462A46334633
:105CD000FAF73AFB05460E4609F101001FFA80F972
:105CE0000A2003F07BFC0AF1010000F0FF0ABAF180
:105CF000140FE1DB0022074B28463146FAF73DFC42
:105D00000746FAF775FD0249C1F80C01BDE8F087B6
:105D1000780100200000244030B503460C461546AB
:105D2000002206E0184600F007F844F822001B1D88
:105D3000521CAA42F6D330BD0146086870470000E5
:105D40002DE9F04704460E4617464FF0040800259B
:105D5000A946B4F1006F02D31948844201D3BDE8CB
:105D6000F087FDF703F9254604EB870914488542BF
:105D700011D20DE02846FFF7DFFF401C38B1114873
:105D8000FDF774F88046B8F1040F01D002E02D1D34
:105D90004D45EFD300BFB8F1040F0CD108E0204609
:105DA0003168FDF7ADF8042800D003E0241D361D4E
:105DB0004C45F4D300BFFDF799F800BFCFE70000D2
:105DC0000000020800000108704710B500F002F85A
:105DD00010BD00000CB50020019000903348006811
:105DE00040F480303149086000BF3048006800F45A
:105DF000003000900198401C0190009818B901985B
:105E0000B0F5A06FF1D12948006800F4003010B15E
:105E10000120009001E0002000900098012843D16B
:105E20002348006840F010002149086008460068D7
:105E300020F0030008600846006840F00200086097
:105E40001A48406819494860084640684860084652
:105E5000406840F4806048600846406820F47C1048
:105E600048600846406840F4E8104860084600680A
:105E700040F08070086000BF0C48006800F00070BF
:105E80000028F9D00948406820F00300074948601D
:105E90000846406840F00200486000BF0348406880
:105EA00000F00C000828F9D10CBD000000100240E1
:105EB000002002402DE9F74F84B089461446494638
:105EC0000498FAF703FA03900398FAF74DFC074693
:105ED0003A460B463A483B49FAF74FFB0546FAF774
:105EE00087FC834606F04CFF824651465046FAF73F
:105EF000BBF98046344803F091FA83464FF0804165
:105F0000FAF7B2F907465146FAF7AEF906464FF0EE
:105F10007E51FAF751F905464146FAF74DF90290DC
:105F200000214846FAF780FC02D807B0BDE8F08FA0
:105F300051465046FAF798F905460299FAF7C6F91C
:105F4000E0604FF08040E168FAF78EF92061E16887
:105F500061614FF07E50206051465046FAF784F957
:105F600007464FF07E51FAF779F906464FF0804127
:105F7000FAF77AF905460299FAF7A8F960605146EE
:105F80005046FAF771F983460F4803F047FA4FF08D
:105F900080410190FAF768F980465146FAF764F9B2
:105FA00007464FF07E51FAF75CF906465946FAF774
:105FB00003F905460299FAF789F9A06000BFB4E732
:105FC00044174154FB210940DB0F493F70B504469B
:105FD000002514E034F9150040F2C671884203DB55
:105FE000084624F8150008E034F91500B0F5787F6C
:105FF00003DC4FF4787024F81500681CC5B2032D3B
:10600000E8DDB4F90000FDF7E7FFB4F90200FDF7A1
:10601000EDFFB4F90400FDF7F3FFB4F90600FDF756
:10602000F9FF70BD10B5044694F8C90006281CDBC2
:10603000D4F832010021FAF7F7FB16D0D4F8360174
:106040000021FAF7F1FB10D00948007850B901207F
:1060500007490870D4F8320106490866D4F83611A9
:10606000044841660120207001E00020207010BD2E
:106070004C00002078010020042808D14FF0E021D6
:10608000096941F004014FF0E022116107E04FF08F
:10609000E021096921F004014FF0E022116170470D
:1060A00010B51348006840F0010011490860084627
:1060B0004068104908400E494860084600680E498B
:1060C00008400B4908600846006820F480200860FA
:1060D0000846406820F4FE0048604FF41F008860C6
:1060E000FFF773FE4FF000600449086010BD000028
:1060F000001002400000FFF8FFFFF6FE08ED00E090
:10610000F0B50C46154600220021068C4FF6FE77AE
:106110003E400684028B018C4FF60C7632407E1C8A
:1061200006EA03162E433243104EB0420ED0104EF4
:10613000B0420BD0B0F1804F08D00E4EB04205D027
:106140000D4EB04202D00D4EB04206D14FF6FD7654
:10615000314044F00106314305E04FF6F576314019
:1061600044F00106314302830184F0BD002C01405C
:10617000003401400004004000080040000C0040D2
:10618000F0B50C461546002200210026078C4FF67C
:10619000EF7C07EA0C070784028B018C4FF6FF7730
:1061A00007EA041640F6FF473A404FF6FF7707EA42
:1061B00003373A434FF6FF7707EA05273A43114F73
:1061C000B8420ED0104FB8420BD0B0F1804F08D07B
:1061D0000E4FB84205D00E4FB84202D00D4FB84214
:1061E00006D14FF6DF77394046F01007394305E016
:1061F0004FF65F77394044F010073943028301843A
:10620000F0BD0000002C01400034014000040040BB
:1062100000080040000C0040F0B50C461546002276
:1062200000210026078C4FF6FF6C07EA0C07078455
:10623000828B018C4FF6FF7707EA04264FF60C7726
:106240003A404FF6FF7707EA03172F433A43114FBF
:10625000B8420ED0104FB8420BD0B0F1804F08D0EA
:106260000E4FB84205D00E4FB84202D00D4FB84283
:1062700006D14FF6FF57394046F48077394305E0A1
:106280004FF2FF57394044F48077394382830184C9
:10629000F0BD0000002C014000340140000400402B
:1062A00000080040000C0040F0B50C4615460022E6
:1062B00000210026078C4EF6FF7C07EA0C070784B6
:1062C000828B018C4FF6FF7707EA043640F6FF47D2
:1062D0003A404FF6FF7707EA05273A434FF6FF7734
:1062E00007EA03373A43114FB8420ED0104FB84275
:1062F0000BD0B0F1804F08D00E4FB84205D00E4FF2
:10630000B84202D00D4FB84206D14DF6FF77394062
:1063100046F48057394305E047F6FF57394044F4C7
:106320008057394382830184F0BD0000002C014076
:10633000003401400004004000080040000C004010
:1063400010B5FA48007800F0800000284FD10121F4
:10635000880700F048FBD0B1F448007800F0400016
:10636000A8B1F248007800F03F003F280AD1EF487A
:10637000007840F08000ED4908704FF6FF70EC495E
:10638000088004E0E9480078401CE84908700221D0
:10639000480700F028FB50B3E448007800F04000C4
:1063A00088B1E248007840F08000E04908704FF082
:1063B000804000F00BFBDE49088000214FF0804058
:1063C00000F0F8FB13E00020D8490870D849088095
:1063D00000214FF0804000F07EFED448007840F06D
:1063E0004000D24908700221480700F0E3FBCF4883
:1063F000007800F08000F0B1CC48007800F03F0059
:10640000CC49088008460088C0EB004000B20880F4
:1064100008460088C6490988084400B2C549088072
:106420000020C2490870C348FCF7C8FBC148018876
:10643000C148A0F8F410C148007800F0800000289E
:106440004FD10121880700F0CEFAD0B1BB480078C7
:1064500000F04000A8B1B948007800F03F003F28A4
:106460000AD1B648007840F08000B44908704FF671
:10647000FF70B349088004E0B0480078401CAF4981
:1064800008700421080700F0AEFA50B3AB4800785A
:1064900000F0400088B1A948007840F08000A7498A
:1064A00008704FF0804000F094FAA5490880002160
:1064B0004FF0804000F0E2FB13E000209F4908709D
:1064C0009F49088000214FF0804000F004FE9B4867
:1064D000007840F04000994908700221480700F018
:1064E000CDFB9648007800F08000F8B19348007822
:1064F00000F03F008F49488008464088C0EB0040CC
:1065000000B24880084640888D490988084400B296
:10651000884948800020894908708648801CFCF71B
:106520004DFB844841888448A0F8F61085480078DF
:1065300000F0800000284FD10121880700F053FAB5
:10654000D0B18048007800F04000A8B17D480078C4
:1065500000F03F003F280AD17A48007840F08000E0
:10656000784908704FF6FF707749088004E0754855
:106570000078401C734908700821C80600F033FAFF
:1065800050B37048007800F0400088B16D48007842
:1065900040F080006B4908704FF0804000F01CFA1A
:1065A0006949088000214FF0804000F0D1FB13E0E2
:1065B0000020644908706449088000214FF0804041
:1065C00000F089FD5F48007840F040005D490870A8
:1065D0000221480700F0BCFB5A48007800F0800018
:1065E00018B30121544880F8471A5648007800F043
:1065F0003F005049888008468088C0EB004000B2C8
:1066000088800846808850490988084400B2494972
:10661000888000204B4908704648001DFCF7CEFAE0
:10662000444880884449A1F8F0004848007800F0C8
:106630008000D0BB0121880700F0D5F9D0B14348D4
:10664000007800F04000A8B14048007800F03F001A
:106650003F280AD13D48007840F080003B4908704F
:106660004FF6FF703A49088004E038480078401C33
:10667000364908701021880600F0B5F9A8B13348F2
:10668000007800F0400088B13048007840F0800089
:106690002E4908704FF0804000F0A1F92C49088085
:1066A00000214FF0804000F0A7FB13E000202749B5
:1066B00008702749088000214FF0804000F00BFD52
:1066C0002248007840F04000204908700221480725
:1066D00000F092FB1D48007800F08000F8B11B48E4
:1066E000007800F03F001349C8800846C088C0EB1E
:1066F000004000B2C8800846C0881549098808448F
:1067000000B20C49C8800020104908700948801D5B
:10671000FCF754FA0748C1880748A0F8F2101F2177
:106720004FF0804000F034F910BD00000800002058
:106730000E00002018000020780100200900002031
:10674000100000200A000020120000200B00002092
:106750001400002010B53E48007800F080000028AA
:106760004CD101213B4800F03EF9D0B138480078C7
:1067700000F04000A8B13648007800F03F003F2804
:106780000AD13348007840F08000314908704FF654
:10679000FF703149088004E02D480078401C2C49E6
:1067A000087002212B4800F01EF938B32848007801
:1067B00000F0400078B12648007840F0800024497D
:1067C0000870244800F002F923490880002121487C
:1067D00000F0F0F912E000201D4908701E49088001
:1067E00000211C4800F077FC1948007840F0400078
:1067F000174908700221174800F0DCF914480078A6
:1068000000F08000F8B11248007800F03F00134912
:10681000088008460088C0EB004000B208800846A7
:1068200000880D490988084400B20C4908800020FE
:10683000074908700948FCF7C1F90848B0F9001089
:106840000748A0F8F8100321024800F0A1F810BD95
:106850000C00002000040040160000202000002052
:106860007801002010B501213B4800F0BCF8002859
:1068700071D00021384800F08EF80121364800F030
:1068800087F836480078012807D10121344880F87C
:106890003D1A00203149087004E030480078401C5F
:1068A0002E4908702F480078042807D101212C4870
:1068B00080F83E1A00202B49087004E0294800782F
:1068C000401C2849087028480078092807D1012170
:1068D000234880F83F1A00202349087004E022482A
:1068E0000078401C2049087020480078132807D100
:1068F00001211B4880F83B1A00201C49087004E065
:106900001A480078401C1949087019480078632813
:1069100007D10121124880F83C1A00201449087060
:1069200004E013480078401C1149087011480078B1
:10693000C72807D101210A4880F8411A00200D49D3
:10694000087004E00B480078401C0A4908700121D7
:10695000014800F020F810BD00080040220000208F
:1069600078010020230000202400002025000020C2
:10697000260000202700002021B1028842F080027A
:10698000028004E002884FF67F731A40028070474D
:10699000CA430282704721B1028842F0010202809C
:1069A00004E002884FF6FE731A400280704731B14E
:1069B000B0F8442042F40042A0F8442005E0B0F8CA
:1069C0004420C2F30E02A0F8442070470146888E8E
:1069D00070470146088F70470146888F704701460F
:1069E000B1F84000704730B5024600200023002473
:1069F000158A05EA0103958905EA010413B10CB172
:106A0000012000E0002030BD70B505460C4624484A
:106A100085420ED0234885420BD0B5F1804F08D077
:106A20002148854205D02148854202D02048854230
:106A300000D100E000BF208850B92389A288618876
:106A40002846FFF75DFBE188284600F046FB25E07D
:106A5000208804280AD12389A28861882846FFF764
:106A60008FFBE188284600F041FB17E020880828CA
:106A70000AD12389A28861882846FFF7CDFBE188E7
:106A8000284600F040FB09E02389A2886188284657
:106A9000FFF70AFCE188284600F03EFB70BD0000CD
:106AA000002C014000340140000400400008004078
:106AB000000C00401AB183890B43838102E0838973
:106AC0008B438381704700007FB505460C4601214A
:106AD0000420FFF733F8ADF80850ADF8044000206B
:106AE000ADF80A00ADF8060001A90B4800F022FB42
:106AF000012211460848FFF7DDFF1E208DF8000037
:106B000002208DF801008DF8020001208DF80300AD
:106B10006846FDF751FF7FBD0008004070B50024B6
:106B200000220023058C4FF6FE7635400584028C4A
:106B30008388048B4FF68F752C40B51E2C400D8832
:106B40002C43751E2A400D892A434D882A43144D33
:106B5000A8420BD0134DA84208D0134DA84205D02F
:106B6000124DA84202D0124DA84213D14FF6F7752C
:106B70002A404D892A434FF6FB752A408D882A43C7
:106B80004FF6FF652B404FF6FF552B408D892B4369
:106B9000CD892B4383800483CD888586028470BD94
:106BA000002C0140003401400040014000440140FD
:106BB000004801400A460021018C4FF6FD73194040
:106BC0001143018470470A460021018B4FF6F77389
:106BD000194011430183704770B50024002200233F
:106BE000058C4FF6EF7635400584028C8388048B44
:106BF00048F6FF752C404FF6FF452C400D884FF6A8
:106C0000FF7606EA05252C434FF6DF752A400D89ED
:106C100006EA05152A434D8806EA05152A43154D4F
:106C2000A84202D0144DA8421DD14FF67F752A40CC
:106C30004D894FF6FF7606EA05152A434FF6BF75D4
:106C40002A408D8806EA05152A434FF6FF352B406A
:106C50004FF2FF752B408D8906EA85052B43CD89C0
:106C600006EA85052B4383800483CD88058702844B
:106C700070BD0000002C0140003401400A46002194
:106C8000018C4FF6DF7319404FF6FF7303EA0213CE
:106C90001943018470470A460021018B4FF2FF73AC
:106CA00019404FF6FF7303EA02231943018370472B
:106CB00070B5002400220023058C4FF6FF66354096
:106CC0000584028C8388848B4FF68F752C404FF699
:106CD000FC752C400D882C434FF6FF552A400D893A
:106CE0004FF6FF7606EA05252A434D8806EA052574
:106CF0002A43154DA84202D0144DA8421DD14FF28F
:106D0000FF752A404D894FF6FF7606EA05252A438E
:106D10004FF6FF352A408D8806EA05252A434EF6B0
:106D2000FF752B404DF6FF752B408D8906EA051542
:106D30002B43CD8906EA05152B4383808483CD88B8
:106D40008587028470BD0000002C014000340140A2
:106D50000A460021018C4FF6FF5319404FF6FF738E
:106D600003EA02231943018470470A460021818BFC
:106D70004FF6F773194011438183704770B50022B5
:106D800000230024058C4EF6FF7635400584038CE5
:106D90008488828B48F6FF752A404FF6FF452A40CB
:106DA0000D884FF6FF7606EA05252A434DF6FF7556
:106DB0002B400D8906EA05352B434D8806EA05353B
:106DC0002B430B4DA84202D00A4DA84208D14BF6E6
:106DD000FF752C408D894FF6FF7606EA85152C430A
:106DE00084808283CD88A0F84050038470BD000069
:106DF000002C0140003401400A460021018C4DF670
:106E0000FF7319404FF6FF7303EA023319430184FD
:106E100070470A460021818B4FF2FF7319404FF6ED
:106E2000FF7303EA022319438183704730B589B0A9
:106E300005460C4601210846FEF780FE012104208C
:106E4000FEF79CFE0F20ADF8200028208DF82300CF
:106E500008A93A48FCF7F6F90F213848FCF7C6FABA
:106E6000ADF81850ADF814400020ADF81A00ADF898
:106E7000160005A94FF0804000F05CF90020ADF845
:106E80000400ADF806000120ADF808000020ADF8C0
:106E90000A00ADF80C0001A94FF08040FFF7B4FDE7
:106EA0000420ADF804000020ADF806000120ADF884
:106EB00008000020ADF80A00ADF80C0001A94FF061
:106EC0008040FFF7A1FD0820ADF804000020ADF8D8
:106ED00006000120ADF808000020ADF80A00ADF86A
:106EE0000C0001A94FF08040FFF78EFD0C20ADF89B
:106EF00004000020ADF806000120ADF808000020D5
:106F0000ADF80A00ADF80C0001A94FF08040FFF782
:106F10007BFD1C208DF8100001208DF811008DF8EC
:106F200012008DF8130004A8FDF746FD01221F2171
:106F30009007FFF7BFFD09B030BD00000008014019
:106F400030B589B005460C4601210220FEF7F6FD5A
:106F500001210420FEF712FEADF81850ADF81440E0
:106F60000020ADF81A00ADF8160005A91C4800F085
:106F7000E1F84020ADF8200028208DF8230008A972
:106F80001848FCF75FF90020ADF80800ADF80A00DA
:106F90000120ADF80C000020ADF80E00ADF8100097
:106FA00002A90F48FFF730FD1D208DF804000120D5
:106FB0008DF805008DF806008DF8070001A8FDF793
:106FC000FBFC012203210648FFF774FD0121044860
:106FD000FFF7E1FC01210248FFF7E9FC09B030BDF1
:106FE000000400400008014030B589B005460C4659
:106FF000012140F60400FEF7C1FD4FF47060ADF8CA
:10700000200018208DF8230003208DF8220008A905
:107010002A48FCF717F9ADF81850ADF814400020D5
:10702000ADF81A00ADF816008DF81C0005A924482B
:1070300000F080F86020ADF804000020ADF81000EA
:10704000ADF80C00ADF81200ADF80E000120ADF85F
:1070500006000020ADF808004FF47870ADF80A0083
:1070600001A91748FFF75AFD01A91548FFF7B4FD1C
:1070700001A91348FFF71CFE01A91148FFF77EFE86
:1070800000210F48FFF79FFD00210D48FFF703FE89
:1070900000210B48FFF769FE00210948FFF7B9FE00
:1070A00001210748FFF768FC01210548FFF773FC41
:1070B00001210348FFF77BFC09B030BD0008014007
:1070C000002C014081867047018770478187704797
:1070D000A0F84010704781847047028B4FF6F3731D
:1070E0001A400283028B0A4302837047028B4FF2DD
:1070F000FF331A400283028B4FF6FF7303EA01232A
:107100001A4302837047828B4FF6F3731A408283CF
:10711000828B0A4382837047828B4FF2FF331A407F
:107120008283828B4FF6FF7303EA01231A43828323
:1071300070470000002202881D4B98420ED01D4B64
:1071400098420BD0B0F1804F08D01B4B984205D02D
:107150001A4B984202D01A4B984204D14FF68F73C3
:107160001A404B881A43174B984207D0164B984247
:1071700004D04FF6FF431A40CB881A4302808B8815
:1071800083850B8803850A4B98420BD0094B9842A4
:1071900008D00E4B984205D00D4B984202D00D4BB3
:1071A000984201D10B7A0386012383827047000045
:1071B000002C014000340140000400400008004061
:1071C000000C00400010004000140040004001404E
:1071D000004401400048014070B50446B4F8B400D2
:1071E000F9F743FA0546BE49F9F770F8C4F82001EB
:1071F000B621085BF9F739FA0546B949F9F766F897
:107200004FF492710851B821085BF9F72EFA054640
:10721000B349F9F75BF84FF494710851BA21085B50
:10722000F9F723FA0546AE49F9F750F8C4F8C80152
:10723000BC21085BF9F719FA0546A949F9F746F8A0
:107240004FF4E6710851BE21085BF9F70EFA0546C6
:10725000A349F9F73BF84FF4E8710851C021085BE6
:10726000F9F703FA05469E49F9F730F8C4F87002B9
:10727000C221085BF9F7F9F905469949F9F726F8AB
:107280004FF41D710851C421085BF9F7EEF905466A
:107290009349F9F71BF84FF41E710851C621085B9A
:1072A000F9F7E3F905468E49F9F710F8C4F8180321
:1072B000C821085BF9F7D9F905468949F9F706F8B5
:1072C0004FF447710851CA21085BF9F7CEF905461A
:1072D0008349F8F7FBFF4FF448710851CC21085B54
:1072E000F9F7C3F905467E49F8F7F0FFC4F8C00383
:1072F000CE21085BF9F7B9F905467949F8F7E6FFB9
:107300004FF471710851D021085BF9F7AEF90546C9
:107310007349F8F7DBFF4FF472710851D221085B13
:10732000F9F7A3F905466E49F8F7D0FFC4F86804E9
:10733000D421085BF9F799F905466949F8F7C6FFC2
:1073400040F26C410851D621085BF9F78EF90546E9
:107350006349F8F7BBFF4FF48E610851D821085BF1
:10736000F9F783F905465E49F8F7B0FFC4F8100550
:10737000DA21085BF9F779F905465949F8F7A6FFCC
:1073800040F214510851DC21085BF9F76EF905460B
:107390005349F8F79BFF4FF4A3610851DE21085BC6
:1073A000F9F763F905464E49F8F790FFC4F8B805B8
:1073B000E021085BF9F759F905464949F8F786FFD6
:1073C00040F2BC510851E221085BF9F74EF905463D
:1073D0004349F8F77BFF4FF4B8610851E421085B9B
:1073E000F9F743F905463E49F8F770FFC4F860061F
:1073F000E621085BF9F739F905463949F8F766FFE0
:1074000040F264610851E821085BF9F72EF905465E
:107410003349F8F75BFF4FF4CD610851E421085B75
:10742000F9F723F905462E49F8F750FFC4F8080785
:10743000E621085BF9F719F905462949F8F746FFEF
:1074400040F20C710851E821085BF9F70EF9054686
:107450002349F8F73BFF4FF4E2610851EA21085B4A
:10746000F9F703F905461E49F8F730FFC4F8B007ED
:10747000EC21085BF9F7F9F805461949F8F726FFFA
:1074800040F2B4710851EE21085BF9F7EEF80546B9
:107490001349F8F71BFF4FF4F7610851EA21085B25
:1074A000F9F7E3F805460E49F8F710FFC4F8580855
:1074B000EC21085BF9F7D9F805460949F8F706FF0A
:1074C00040F65C010851EE21085BF9F7CEF805465D
:1074D0000349F8F7FBFE4FF40661085170BD000048
:1074E00000007A4410B540F225511D4800F071F9B2
:1074F00010B31B4800F028FAC4B21A48008800F400
:107500000040C8B91748008800F4804060B10A2CD8
:1075100003D000201349088020E01248008840F47E
:1075200000401049088019E00D2C06D10D48008854
:1075300040F480400B49088010E00A480088C0F3FE
:107540000D0009490C5407480088401C0549088073
:1075500008460088C72801DD0020088010BD000013
:10756000003801405C000020AC0D002010B5012166
:10757000224800F021F940B1204800F0E5F9204907
:10758000087001211D4800F0A5F808211B4800F0F3
:1075900013F940B1194800F0D7F9194908700821CA
:1075A000164800F097F80221144800F005F940B1A0
:1075B000124800F0C9F91249087002210F4800F082
:1075C00089F840F225510D4800F003F9A8B12021B7
:1075D0000A4800F07FF840F22551084800F083F88F
:1075E000064800F0B1F90649087008460078FBF734
:1075F00039FF03480078FAF741FC10BD004800400D
:107600004D00002010B586B0044601210820FEF789
:10761000B5FA01218804FEF791FA284800F07EF8B7
:107620004FF48060ADF8100003208DF81200182090
:107630008DF8130004A92248FBF704FE4FF4006004
:10764000ADF8100004208DF8130004A91C48FBF7C6
:10765000F9FD00940020ADF80400ADF80600ADF887
:107660000800ADF80C000C20ADF80A00694613487C
:1076700000F0FEF827208DF8140001208DF8150089
:1076800002208DF8160001208DF8170005A8FDF7DF
:1076900093F940F22551094800F025F8012240F203
:1076A0002551064800F0BFF80121044800F02AF8EF
:1076B00004A005F01FFC06B010BD0000004800400B
:1076C000000C01402E555341525433206973206FF2
:1076D0006B0D0A0001F40072B2F5007F00D100BF0B
:1076E000CA430280704710B50022002340F66A1496
:1076F000A14200D100BF0A1201249440A3B2DC438E
:10770000048010BD21B1828942F40052828104E0DC
:1077100082894DF6FF731A408281704710B5044686
:107720002048844209D101218803FEF737FA00215D
:107730004FF48040FEF732FA32E01B48844209D110
:1077400001214804FEF70AFA00214FF40030FEF749
:1077500005FA25E01548844209D101218804FEF785
:10776000FDF900214FF48020FEF7F8F918E01048E9
:10777000844209D10121C804FEF7F0F900214FF439
:107780000020FEF7EBF90BE00A48844208D1012102
:107790000805FEF7E3F900214FF48010FEF7DEF94B
:1077A00010BD000000380140004400400048004087
:1077B000004C00400050004002460020B1F5007F20
:1077C00000D100BF13880B400BB1012000E0002066
:1077D000704770B50246002400230025002040F6C3
:1077E0006A16B14200D100BFC1F3421501F01F0378
:1077F000012606FA03F3012D02D19689334006E0F3
:10780000022D02D1168A334001E0968A33400C12D1
:10781000012606FA04F41688344013B10CB1012095
:1078200000E0002070BDF0B50346002400260025CE
:10783000002040F66A17B94200D100BF1846C1F3D4
:10784000421401F01F06012707FA06F5012C01D1A9
:107850000C3004E0022C01D1103000E014301AB1D9
:1078600007682F43076002E00768AF430760F0BD79
:107870002DE9F04786B005460E460024A24600BF1B
:10788000A1460027B08900B100BF2F462C8A4CF6D4
:10789000FF700440F08804432C82AC894EF6F3104C
:1078A0000440B08831890843718908430443AC819E
:1078B000AC8A4FF6FF400440B0890443AC8201A873
:1078C000FEF77CF91F48874202D1DDF810A001E0E5
:1078D000DDF80CA0A88900F4004040B10AEBCA0012
:1078E00000EB0A1031684900B0FBF1F807E00AEB41
:1078F000CA0000EB0A1031688900B0FBF1F864207F
:10790000B8FBF0F004012009642101FB1089A8896B
:1079100000F4004040B1322000EBC900B0FBF1F0B0
:1079200000F00700044308E0322000EB0910642156
:10793000B0FBF1F000F00F0004432C8106B0BDE86D
:10794000F08700000038014001468888C0F3080035
:107950007047C1F308028280704700BFFEE7000055
:107960002DE9F04105462C4610211148FBF73EFD5C
:10797000002619E0274607F08007802F04D1202138
:107980000B48FBF735FD03E020210948FBF72EFDEE
:107990006006040E10210648FBF72AFD102104485A
:1079A000FBF724FD701CC6B2082EE3DBBDE8F081B6
:1079B0000008014010B50446FDF708F97820FFF7EC
:1079C000CFFFFDF727F90020FFF7CAFFFDF722F9E7
:1079D0002046FFF7C5FFFDF71DF9FDF70BF910BDB8
:1079E00010B50446FDF7F2F87820FFF7B9FFFDF770
:1079F00011F94020FFF7B4FFFDF70CF92046FFF71F
:107A0000AFFFFDF707F9FDF7F5F810BD37B51446E0
:107A10000846064B6A46214600F006FD04466946C4
:107A2000002001F098F820463EBD0000578B00086A
:107A3000490050EAC12018BF04204A0D18BF40F089
:107A4000010040F2FF72B2EB515F08BF40F002004C
:107A5000012808BF052070474100080218BF042014
:107A60000A0E18BF40F001004FF07F4232EA0101D8
:107A700008BF40F00200012808BF05207047000041
:107A80002DE9F74F144694B00021C4E9021115996D
:107A9000079121F00045C9498D4206DC1599C4E9DA
:107AA000000117B00020BDE8F08FC549DFF814A32E
:107AB000A9423CDD0799C44E0029C44FC44A159918
:107AC000534619DDF8F7E1FC554506D0C14AC24BD3
:107AD000F8F7DBFCC4E900010AE04FF0D352BE4BDB
:107AE000F8F7D3FC32463B46F8F7CFFCC4E9000177
:107AF00017B00120BDE8F08FF8F726FC554506D0F9
:107B0000B44AB54BF8F720FCC4E900010AE04FF095
:107B1000D352B14BF8F718FC32463B46F8F714FC49
:107B2000C4E9000117B04FF0FF30BDE8F08FAB495A
:107B3000A942159978DB21F0004183468846A84A7E
:107B4000A84BF8F7A8FC0022A74BF8F7FDFBF9F7C4
:107B50006FF80990F8F7A4FD06460F469C4A534675
:107B6000F8F799FC43465A46F8F792FC80468A4655
:107B7000984A994B30463946F8F78DFC2A0D012575
:107B80000B9242465346F8F783FC032DC4E90001EB
:107B900039D00B98C1F30A51401A05EB4511113940
:107BA000814230DA9148C346784400EB0510CDF8A5
:107BB0000CA00C90D0E9002330463946F8F76BFC56
:107BC00002460B460491069058460399F8F75DFC6F
:107BD00080468A4602460B4658460399F8F755FCFC
:107BE000049B069AF8F751FC83460C98039139469A
:107BF000D0E902233046F8F74EFC5A46039BF8F7CB
:107C000044FC6D1CBDE707980028A2BF099817B077
:107C1000BDE8F08F616881F000416160099817B09C
:107C20004042BDE8F08FFFE784461598C1F3130189
:107C3000C0F30A50A0F2F5304FEA601800F01F06BA
:107C4000C6F12000139000200690079041F4801E9A
:107C500005206D4676B1664A08EB00017A4452F879
:107C6000213002EB8101B3404A68139922FA01F1F5
:107C7000194305E05F4908EB0002794451F82210EE
:107C8000A1FB0E27A1FB0C131A449A4234BF012317
:107C9000002303EB070A05EB8003D3E901B70F4488
:107CA0008F4234BF0121002193448B4411B193458D
:107CB00002D903E0934501D2012100E00021C3E98C
:107CC00001B7514445F82010011EA0F10100C1DCAC
:107CD0000298059F00F10050800F12900298DDE994
:107CE00003568000F8F7DCFC834628460D91F8F730
:107CF000E8FC6FF01D02F8F7E1FECDE90E01304619
:107D0000F8F7DFFC6FF03D02F8F7D8FE80468A46B0
:107D10003846F8F7D6FC6FF05D02F8F7CFFE07465D
:107D2000424653461191F8F70FFBDDE90E23F8F7B1
:107D30000BFB5A460D9BF8F707FB00250E465A46EB
:107D400028460D9BF8F7A1FBDDE90E23F8F79DFB14
:107D500042465346F8F799FB3A46119BF8F798FBD1
:107D6000DFF898A0244A5346F8F795FB0746884663
:107D7000234A244B31462846F8F78DFB3A464346C2
:107D8000F8F7E2FA074688464FF0A84253463146D4
:107D90002846F8F780FB3A464346F8F7D5FA159A95
:107DA00012F0004F04D0129A81F000415242129218
:107DB000C4E90001129817B0BDE8F08FFB21E93F3C
:107DC0007CD90240FB21F93F7370032E8A19A33B33
:107DD000000040543163621A61B4D03DFB21394147
:107DE00083C8C96D305FE43F0000E03FBC6C000019
:107DF000386C00001A6C0000182D4454FB21F93D2A
:107E00003326A611460B113C2DE9FF4D21F0004809
:107E100007460C46B8F1795F08DAF8F709FF002841
:107E200001BF0020324904B0BDE8F08D3A46234638
:107E300010461946F8F72FFB054602462D480E4618
:107E40000B460621784400F05DF82A463346F8F7E1
:107E500022FBDDE9022382468B4638462146F8F7AD
:107E60001AFB04460F4652465B4628463146F8F751
:107E700012FB22463B46F8F708FB07468A464FF0BE
:107E8000FF3228463146F8F719FE1B4A90450ADAB8
:107E90003A465346F8F7F9FA04B00022BDE8F04D2F
:107EA000134BF8F7F5BA154A4245A8BFA8F50015D7
:107EB0004FF00004B8BF124D22462B46F8F7E5FA02
:107EC0000646884622462B4600200949F8F7DDFA87
:107ED00004460D463A46534630464146F8F7D5FA31
:107EE00004B022462B46BDE8F04DF8F7D1BA0000A9
:107EF0000000F03FE86900003333D33F0000E93F62
:107F00000000D23F2DE9F0414F1E00EBC7010446AF
:107F1000D1E9000115461E4637F006020DD02A466B
:107F20003346F8F7B8FA7F1E04EBC703D3E9002302
:107F3000F8F70AFA37F00602F1D1022F25D0042F04
:107F400013D0062F18BFBDE8F0812A463346F8F754
:107F5000A2FAD4E90A23F8F7F7F92A463346F8F7E4
:107F60009AFAD4E90823F8F7EFF92A463346F8F7E6
:107F700092FAD4E90623F8F7E7F92A463346F8F7E8
:107F80008AFAD4E90423F8F7DFF92A463346F8F7EA
:107F900082FAD4E90223F8F7D7F92A463346F8F7EC
:107FA0007AFAD4E90023BDE8F041F8F7CDB9000032
:107FB0002DE9FF4D054621F0004084B00C46B0F19C
:107FC000795F0BDA2846FFF733FD042808BF00F07D
:107FD0007FF8284608B02146BDE8F08D2A460B46BA
:107FE0001046F8F758FA06460F462A462346F8F791
:107FF00052FA804626488A4632463B460521784456
:10800000FFF780FF83461098029160B3214A224B0C
:1080100040465146F8F73FFACDE900015A4640463E
:108020005146029BF8F737FA82468846DDE9060199
:108030004FF0FF32F8F742FD52464346F8F725FA73
:1080400032463B46F8F727FADDE90623F8F71DFA32
:10805000DDE90023F8F719FA08B02A462346BDE8FF
:10806000F04DF8F715BA0B465A4630463946F8F740
:1080700012FA084A084BF8F767F942465346F8F7F0
:108080000AFA08B02A462346BDE8F04DF8F75CB975
:108090004E690000495555555555C5BF0022134638
:1080A00010460149F8F769BA0000F03F0122F8F7DD
:1080B00005BDF8F749B90022134610461146F8F7F6
:1080C0005CBA40F2013200204FF0E041F8F7F6BC14
:1080D000024A00201107F8F7F1BC000001FDFFFF84
:1080E00000214FF07E50F8F7F1B80121F8F75FBC9E
:1080F000F8F762B800210846F8F7E8B861214FF0B8
:10810000E040F8F754BC6FF05E010807F8F74FBC89
:108110002DE9F04D0D4614464FF07F41B1EB440F71
:108120009EBF4FF0FF312960BDE8F08D4FF0004059
:1081300040EA0421C4F3C750783810F01F024A4BBC
:108140004FEA601CC2F120067B44C4F3C750A0F183
:1081500078004FEA601003EB800053F82C3008BF22
:10816000D0E901C612D0D0F804C093402CFA06F72B
:108170003B4387680CFA02FC27FA06F8C06807FA46
:1081800002F2F0404CEA080C42EA0006A3FB01327E
:10819000ACFB01C0A6FB016101EB0C068E4234BFB3
:1081A0004FF0010C4FF0000CC1186144BCF1000FFE
:1081B00002D0814202D903E0814201D2012000E0D5
:1081C0000020104400F120024FEA92188006CA0CE9
:1081D00040EA42304F03C5F80080F8F73DFA824686
:1081E0003846F8F742FA6FF01201F8F7E0FB07465D
:1081F0003046F8F73AFA6FF02501F8F7D8FB8346D6
:1082000039465046F7F7D8FF5946F7F7D5FF00F53E
:1082100000666FF30B0651463046F8F71FF83946F3
:10822000F8F71CF85946F8F71CF81049F8F71CF84D
:1082300007460F493046F8F717F83946F7F7BCFFFD
:1082400007460C493046F8F70FF83946F7F7B4FF00
:1082500014F0004F08BFBDE8F08DC8F1805180F0E8
:1082600000402960BDE8F08DE4670000DB0FC92FF6
:1082700022AAFD290000C92F02E008C8121F08C168
:10828000002AFAD170477047002001E001C1121F97
:10829000002AFBD1704700000149086070470000C8
:1082A000740100202DE9FF5F82B00021DDE9043078
:1082B000020DDDF840B0034318D044F61050A2F28E
:1082C000FF3242431514119801281FD0A5EB0B0073
:1082D000401C5FEA000A4FF000064E4FDFF838916D
:1082E000B046504615D5CAF1000413E01198012498
:1082F0004AA3012801D16FEA0B010298119AC0E943
:108300000031C0E9024206B0BDE8F09FCBF10000A9
:10831000DFE704460021404A491842EB0450CDE90A
:10832000001012E0E00707D032463B46404649467F
:10833000F8F7B1F88046894632463B461046194662
:10834000F8F7A9F806460F466410002CEAD1DDE9DB
:108350000401DDE90023BAF1000F06DAF8F79BF813
:1083600042464B46F8F797F805E0F8F706F942461B
:108370004B46F8F702F904460E460022284BF8F760
:108380001FFA03D84FF0FF30014607E00022254BCB
:1083900020463146F7F7D8FFF8F7F8FB102409E03C
:1083A000002C0ADB0A220023F8F768FA039B30321C
:1083B0001A55641E50EA0102F2D1641C039AC4F1FA
:1083C00011031444119A012A03D0012208430DD14C
:1083D0000AE0084304D000204FF0110B119072E71F
:1083E000A3EB0B056D1E0DE05B4504DD4FF00002B5
:1083F00005F1010504E003DA4FF00002A5F10105E3
:10840000002AECD002981199C0E90231C0E9004578
:1084100079E70000000014400000F03F3000000049
:108420000000F0430000E03F2DE9FF4F95B09B4670
:108430008946064600250FE2252877D100242746E5
:10844000F84A0121059400E0044316F8013F203B5F
:1084500001FA03F01042F7D130782A2811D06FF0DA
:108460002F033078A0F13002092A16D8059A44F07B
:10847000020402EB820203EB42021044761C0590D8
:10848000EFE759F8042B0592002A03DA504244F42E
:108490000054059044F00204761C30782E2816D142
:1084A00016F8010F44F004042A280DD06FF02F02B3
:1084B0003078A0F13003092B09D807EB870302EBD2
:1084C0004303C718761CF3E759F8047B761C307811
:1084D0006C280FD006DC4C2817D068280DD06A28ED
:1084E00014D104E0742810D07A280FD10DE044F4A0
:1084F00000140AE044F4801401E044F4401472785B
:10850000824202D104F58014761C761C30786628ED
:108510000BD013DC582877D009DC002875D045280B
:10852000F6D04628F4D047281AD19DE118E06328F8
:1085300035D0642879D0652812D195E1702873D0A0
:1085400008DC6728F1D069286FD06E280DD06F281D
:1085500006D1B5E073282CD0752875D0782874D052
:108560005A46179990476D1C75E1C4F302500228D2
:1085700009D003280DD0D9F8001004280DD00D60C3
:1085800009F1040967E1D9F80010EA17C1E90052BE
:10859000F6E7D9F800100D80F2E70D70F0E719F852
:1085A000041B8DF8001000208DF80100EA46012020
:1085B00003E059F804AB4FF0FF3061074FF00001C2
:1085C00002D40DE008F101018846B9420FDA804576
:1085D000F8DB1AF808100029F4D108E008F10101CD
:1085E00088468142FADB1AF808100029F6D105986E
:1085F0005B46A0EB080721463846179A00F094FA2C
:10860000284400EB080507E04DE029E10DE01AF8E9
:10861000010B5A4617999047B8F10108F7D25B460B
:1086200021463846179A13E142E00A220092C4F329
:1086300002524FF0000A022A08D059F804CB032A4C
:108640004FEAEC710AD00DE029E02AE009F10701B8
:1086500021F00702F2E802C1914609E00FFA8CFC12
:108660004FEAEC71042A03D14FFA8CFC4FEAEC710B
:10867000002907DA0A460021DCF1000C61EB020157
:108680002D2202E0220504D52B228DF804200122A0
:1086900003E0E20701D02022F7E7904659E00A21E3
:1086A00002E010220DE010214FF0000A00910BE0D3
:1086B00010224FF0000A44F004040827009203E05F
:1086C00008224FF0000A0092C4F30252022A05D099
:1086D00059F804CB0021032A08D009E009F1070169
:1086E00021F00702F2E802C1914605E01FFA8CFC76
:1086F000042A01D10CF0FF0C4FF00008220728D506
:10870000702806D0009B83F0100353EA0A0305D0BB
:108710000EE040228DF80420012208E05CEA01020C
:1087200006D030228DF804208DF8050002229046F4
:10873000009B83F0080353EA0A030AD15CEA0102B2
:1087400001D1620705D530228DF804204FF00108D1
:108750007F1E582804D034A003900EA802900DE08C
:1087600036A0F9E753466046009AF8F787F8844642
:108770000398825C0298401E029002705CEA01003D
:10878000F0D1029806A9081A00F1200A600702D564
:1087900024F4803400E00127574502DDA7EB0A00EE
:1087A00000E0002000EB0A01009005984144401AC7
:1087B0000590E00306D45B462146179A059800F021
:1087C000B3F90544002706E001A85A46C05D179991
:1087D00090476D1C7F1C4745F6DBE0030CD55B46DC
:1087E0002146179A059800F09FF9054404E03020CF
:1087F0005A46179990476D1C0099481E0090002911
:10880000F5DC08E0029802995A460078491C02916A
:10881000179990476D1CBAF10001AAF1010AF1DC29
:1088200065E1000009280100303132333435363734
:1088300038396162636465660000000030313233AC
:10884000343536373839414243444546000000004C
:1088500000F058F90544761C307800287FF4ECAD20
:1088600019B02846BDE8F08F620700D4062709F149
:10887000070222F0070CFCE80223E14603F000485F
:108880005FEA080C02D00FF2702C0DE05FEA045C86
:1088900002D50FF2682C07E05FEAC47C02D00FF229
:1088A000602C01E0AFF2700C4FF0FF3823F0004372
:1088B000CDF850C065280CD006DC452809D04628E4
:1088C0001DD047283DD13DE0662818D067287ED1CD
:1088D00038E00021112F01DB112000E0781CCDE9E8
:1088E000000106A90EA8FFF7DDFCDDE90F010E9AD5
:1088F00003910021009207F1010A04914DE04FF02D
:1089000000400097CDE9011006A90EA8FFF7CAFCA8
:10891000DDE90F0203920E9B11990022DDF80CA0F5
:108920000093049211B9791C00EB010AB7EB0A001D
:1089300004D4C0F1FF3007F1010A0490AAEB07004C
:10894000019044E0012F00DA01270021112F01DD01
:10895000112000E03846CDE9000106A90EA8FFF776
:10896000A1FCDDE90F010E9A039100210491009210
:10897000BA4621070CD40399514500DA8A46BAF168
:10898000010F05DD009AAAF10101515C302908D0E0
:10899000B84202DA10F1040F06DA0121CDE9011024
:1089A00015E0AAF10101E9E7002805DC049901447A
:1089B0000491AAEB000102E0411C514500DD8A460A
:1089C0000499401A401C01904FF00040029020078B
:1089D00004D40198504501DBCDF8048000208DF8C7
:1089E0004F0002980DF14F07B0F1004F25D02B201A
:1089F0000E9002984FF0020800280CDA40420290D4
:108A00002D200E9007E00A210298F7F721FF303160
:108A1000029007F8011DB8F10001A8F10108F2DC8D
:108A200002980028EFD1791E0E980870307800F077
:108A3000200040F0450007F8020D12A8C01B00F10D
:108A400007081498007800B1012000EB0A01019892
:108A500001EBE07105984144401A401E0590E00387
:108A600006D45B462146179A059800F05DF8054448
:108A70001498007818B15A46179990476D1CE00376
:108A800024D55B462146179A059800F04DF8054419
:108A90001CE00498002807DBDDE90301884203DDC0
:108AA0000098405C179901E0179930205A4690478A
:108AB000049805F10105401C04900198401E0190A6
:108AC00004D12E205A46179990476D1CBAF1000127
:108AD000AAF1010ADDDC05E017F8010B5A461799E7
:108AE00090476D1CB8F10001A8F10108F4DC5B4669
:108AF0002146179A0598ABE62D0000002B000000D8
:108B0000200000002DE9F041044600251E461746CE
:108B1000880404D405E039462020B0476D1C641E4B
:108B2000F9D52846BDE8F0812DE9F041044600253D
:108B30001E469046C80301D5302700E02027880450
:108B400004D505E041463846B0476D1C641EF9D592
:108B50002846BDE8F0810A68531C0B60107070470E
:108B600070B504460D4629462068F7F767FE00D227
:108B7000256085F0004630462168F7F75FFE02D297
:108B800085F00040206070BD2DE9FC5F0446B4F91B
:108B90000050B4F90260B4F9040001900198F7F7AD
:108BA0005BFD82463D4881695046F7F75DFB804694
:108BB0003046F7F751FD00903848C1680098F7F744
:108BC00053FB82462846F7F747FD0090334801687B
:108BD0000098F7F749FB83465146F7F7EDFA8146CF
:108BE0004146F7F7E9FA074601F022FF00B220807C
:108BF0000198F7F731FD82462848C1695046F7F7DA
:108C000033FB80463046F7F727FD00902348016983
:108C10000098F7F729FB82462846F7F71DFD0090DC
:108C20001E4841680098F7F71FFB83465146F7F747
:108C3000C3FA81464146F7F7BFFA074601F0F8FE4E
:108C400000B260800198F7F707FD82461348016A79
:108C50005046F7F709FB80463046F7F7FDFC0090D9
:108C60000E4841690098F7F7FFFA82462846F7F761
:108C7000F3FC0090094881680098F7F7F5FA8346FD
:108C80005146F7F799FA81464146F7F795FA0746B4
:108C900001F0CEFE00B2A080BDE8FC9FD00B00200A
:108CA00070B505460C461646092E56D2DFE806F08A
:108CB00055050C152029343D4800288820806888F7
:108CC0006080A888A08049E0688820802888404289
:108CD00000B26080A888A08040E02888404200B2AE
:108CE00020806888404200B26080A888A08035E07B
:108CF0006888404200B2208028886080A888A080D0
:108D00002CE02888404200B2208068886080A888D3
:108D1000404200B2A08021E06888208028886080DE
:108D2000A888404200B2A08018E028882080688887
:108D3000404200B26080A888404200B2A0800DE0AE
:108D40006888404200B220802888404200B260809B
:108D5000A888404200B2A08000E000BF00BF0348E6
:108D6000007810B12046FFF70FFF70BD2C000020E7
:108D70002DE9F04D8D4F21F0004A86B005460C4696
:108D8000BA452ADBAAEB070028430AD08848824567
:108D900001DC1AD1CDB106B02846BDE8F04DFFF791
:108DA00085B9844A844B2846F7F775FB07460E467B
:108DB000824A834B28462146F7F76DFB06B03A46B8
:108DC0003346BDE8F04DF7F7BFBA0120FFF764FA6C
:108DD00006B0BDE8F04DFFF76EB97A48824542DA39
:108DE000BAF1795F0BDA2846FEF722FE042808BFA5
:108DF000FFF76EF9284606B02146BDE8F08D2A46F9
:108E00000B461046F7F747FB834602466E480E4670
:108E10000B4606217844FFF775F85A463346F7F7B4
:108E20003AFB804669488A465A46334604217844CC
:108E3000FFF768F85A463346F7F72DFB00223B460A
:108E4000F7F782FA02460B4640465146F7F795FB84
:108E50002A462346F7F71FFB06B02A462346BDE8FD
:108E6000F04DF7F771BA284624F0004100223D4644
:108E70003B46F7F70DFB4FF0FF32F7F71FFE0646B4
:108E8000024653480F460B4606217844FFF73AF84E
:108E900032463B46F7F7FFFACDE900014D4832462E
:108EA0003B4604217844FFF72DF832463B46F7F75E
:108EB000F2FA00222B46F7F747FA83460291304632
:108EC000394603F037FF804643480D46504517DCCE
:108ED000DDE900015A46029BF7F74FFB42462B465D
:108EE000F7F7D9FA42462B46F7F72EFA0122F7F7A1
:108EF000E5FD304A304BF7F7C8FA304A304B4CE0CA
:108F00004FF0000A52460B464046F7F71DFACDE9EE
:108F1000031052462B4610461946F7F7BCFA324664
:108F20003B46F7F7B5FADDE90332F7F726FB0646CD
:108F30000F46DDE900015A46029BF7F71EFB834608
:108F40000091012230463946F7F7B8FD194A1A4B0D
:108F5000F7F79EFA06460F46012240462946F7F7E4
:108F6000ADFD5A46009BF7F796FA32463B46F7F7B7
:108F70008CFA06460F46012250462946F7F79EFD19
:108F80000E4DDFF858802A464346F7F781FA3246FD
:108F90003B46F7F77DFA2A464346F7F779FA002C65
:108FA000D8BF81F0004106B0BDE8F08D0000F03F71
:108FB0000000F07F075C143326A6913C182D445422
:108FC000FB21F93F0000E03F30570000465700000A
:108FD000BA560000D05600003333EF3FFB21E93F83
:108FE0002DE9F84F04460D4621F0004000917349E9
:108FF000814211DC7249884201DC06D12CB1204645
:109000002946BDE8F84FFFF751B86E48002DCCBF98
:109010006D496E49BDE8F88F6D49814211DD6D499A
:109020008142D8BF4FF0FF366DDD20462946FEF75E
:10903000FFFC042808BFFFF74BF820462946BDE88F
:10904000F88F6549654F25F00045814233DD64495D
:10905000814219DD002632464FF0804320462946E2
:10906000F7F772F980468A46012220462946F7F72B
:1090700025FD00223B46F7F708FA42465346F7F72C
:109080007CFA04460D463EE001260022BA463B46E5
:1090900020462946F7F758F980460F4600225346E6
:1090A00020462946F7F7F1F942463B46F7F765FABD
:1090B00004460D4627E04B4981421BDDDFF828A11D
:1090C00002260022534620462946F7F7E4F90022FB
:1090D0003B46F7F739F980460F46002253462046B3
:1090E0002946F7F7D2F942463B46F7F746FA0446D7
:1090F0000D4608E0032622462B4600203B49F7F7A1
:109100003CFA04460D4622462B4610461946F7F710
:10911000C2F98B46824602460B46F7F7BCF9074672
:109120000246334888460B4606217844FEF7EAFE9D
:1091300052465B46F7F7AFF982462E488B463A46D1
:10914000434605217844FEF7DDFE3A464346F7F7ED
:10915000A2F902460B46002E504659460CDAF7F7A4
:10916000F3F822462B46F7F796F901B022462B4634
:10917000BDE8F04FF7F78CB9F7F7E6F822462B4633
:10918000F7F789F91C4A7A4402EBC603D3E90023B6
:10919000F7F77BF922462B46F7F777F9174A7A4417
:1091A00002EBC603D3E90023F7F772F9009A002A0D
:1091B000B8BF81F00041BDE8F88F00000000104406
:1091C0000000F07F182D4454FB21F93FFB21F9BF2B
:1091D0000000DC3F0000203E0000F33F0000F03FB5
:1091E0000000E63F008003400000F83F0000F0BFB1
:1091F000D2540000905400002E540000F65300009A
:109200002DE9F04D9446CCF1000423F000464CEAE1
:109210000404524F46EAD4749A46884621F000422C
:10922000BC4206D8454240EA050442EAD474BC4236
:1092300004D9BDE8F04D6246FEF73BBFAAF14055A8
:10924000A5F17F6555EA0C040BD0022404EAAA7448
:10925000434DDFF810E144EAD87452EA000B04D021
:109260000CE0BDE8F04DFFF7BBBE002C14BF012C95
:10927000BDE8F08D022C30D0032C32D056EA0C0B16
:109280000AD0BE4220D1BA4209D126F0804622F04F
:1092900080423346114617E000291ADB25E0DFF84B
:1092A000C8B0FB44002C04BFDBE90001BDE8F08D31
:1092B000012C02BFDBE9000181F00041BDE8F08D27
:1092C000022C0AD0032C0CD0BA4212D1B8F1000FF4
:1092D0000BDA23482549BDE8F08D28462449BDE82E
:1092E000F08D28467146BDE8F08D1D482149BDE846
:1092F000F08D921B12153C2AC4BF19481D490EDC83
:10930000BAF1000FBEBF12F13C0F0020014606DB90
:109310006246F7F732F921F00041FFF761FE002CB9
:1093200008BFBDE8F08D012C04BF81F00041BDE80D
:10933000F08D114A114B022C07D0F7F7A6F82A46F8
:10934000BDE8F04D0A4BF7F7A0B8F7F79EF82A46AC
:10935000BDE8F04D064BF7F79BB800000000F07F2A
:10936000182D4454FB2109C0BA550000FB21F9BF58
:10937000FB210940FB21F93F075C143326A6A13CE1
:1093800000B5244B21F0004287B09A42DCBF002296
:10939000134629DD204B9A4208D140B94FF0010015
:1093A000FEF77AFFFEF787FE07B000BD03DBFEF78E
:1093B0007DFE07B000BD02AAFEF762FB10F00301BC
:1093C00004BF0DF1080C9CE80F000DD0012001290D
:1093D0000ED0022914D00DF1080C00909CE80F006B
:1093E000FEF7E6FD07B000BDFEF70EFD07B000BDBD
:1093F0000DF1080C00909CE80F00FEF7D9FD05E088
:109400000DF1080C9CE80F00FEF7FEFC07B081F0A0
:10941000004100BDFB21E93F0000F07F2DE9F8434A
:10942000044602464F486946B0EB420F09D94FF057
:10943000E640B0EB420F94BF00204FF0FF300090A9
:1094400030E0494B22F00040834271D94749204621
:10945000F6F70AFFF7F7B7FA8046F7F73FF900F09B
:109460000300009042494046F6F7FEFE054641499A
:109470004046F6F7F9FE06463F494046F6F7F4FE49
:1094800007463E494046F6F7EFFE2146F6F7E9FE6D
:109490003946F6F7E3FE3146F6F7E0FE2946F6F7E1
:1094A000DDFE04462546009C002C45DB294614F0D1
:1094B000010F08461CD0F6F7D7FE06463049F6F7EE
:1094C000D3FE3049F6F7CDFE3146F6F7CDFE2E49F4
:1094D000F6F772FE3146F6F7C7FE2946F6F7C4FEE8
:1094E0002946F6F769FE14F0020F1CD0BDE8F88398
:1094F000F6F7BAFE05462549F6F7B6FE2449F6F713
:109500005BFE2946F6F7B0FE2249F6F755FE2946DE
:10951000F6F7AAFE4FF07E51F6F74EFE14F0020F5A
:1095200008BFBDE8F88380F00040BDE8F883FFE79E
:109530001046FEF7EDFDB4E76800B0F17F4F3CBF89
:109540004FF07E50BDE8F88307D14FF00100FEF7E1
:10955000A3FEBDE8F843FEF7CDBD2846BDE8F843BD
:10956000FEF7C3BDB61F927E490E494683F9223FDE
:109570001A61342C0020A23300A0FD390000C93F3D
:10958000336D4C39DA82083CA0AA2ABEB93AB2BA85
:10959000CA9F2A3DDDFFFFBE10B56FF00400FCF747
:1095A0006BFD0A4800680A49B0FBF1F009490870F0
:1095B0000846007800EB4001C1EBC0104FF6FF7188
:1095C00001EAC0000449088010BD000060010020CD
:1095D00000127A0000000020020000200146114A1B
:1095E00012884A434FF0E0235A6100229A611A46DA
:1095F000126942F001021A6100BF4FF0E0221069C7
:1096000000F001021AB100F48032002AF5D04FF0C8
:10961000E022126922F001024FF0E0231A610022D9
:109620009A617047020000200146114A12784A43AD
:109630004FF0E0235A6100229A611A46126942F003
:1096400001021A6100BF4FF0E022106900F0010230
:109650001AB100F48032002AF5D04FF0E0221269EE
:1096600022F001024FF0E0231A6100229A61704754
:109670000000002038B5044664B120208DF80000B9
:1096800028208DF8010030208DF8020038208DF858
:10969000030004E0A32204216846F6F755FD6A465C
:1096A000042140F69E2002F06DF801F061FC38BD07
:1096B0003EB5044602208DF80000CA208DF8010056
:1096C000E3208DF8020009208DF803006A4604218A
:1096D000682002F057F8A3208DF8000004F0400045
:1096E00048B1C0208DF80100C8208DF80200C220CA
:1096F0008DF8030006E0A3208DF801008DF802002C
:109700008DF8030004F4C07048B1C4208DF8040043
:10971000CC208DF80500C6208DF8060006E0A320B9
:109720008DF804008DF805008DF80600A3208DF853
:1097300007008DF808008DF809006A460A2140F6F6
:10974000A72002F01FF804F0030018B120208DF8C4
:10975000000002E0D8208DF800006A46012140F6A2
:10976000B62002F00FF804F0200018B1012000F03C
:10977000ADF802E0002000F0A9F804F4C07008B3CE
:1097800004F4807060B1B2208DF800008B208DF859
:109790000100B6208DF802009B208DF803000BE03D
:1097A000B0208DF8000080208DF80100B4208DF8E5
:1097B000020090208DF803006A46042140F6A220A2
:1097C00001F0E0FF04F0010020B3F8208DF8000064
:1097D0006A4601214FF40B6001F0D4FFFA21072003
:1097E00000F0F6FA072000F0BDFA012000F0DDFAE3
:1097F000642000F0BDFB4FF4FA7000F0CCFBC821F0
:10980000304800F06DFA282000F086FA0A2000F0B7
:1098100096FA08E0D8208DF800006A4601214FF43E
:109820000B6001F0AFFF04F0020018B1D9208DF8F1
:10983000000002E0D8208DF800006A46012140F2C5
:109840003D7001F09FFF04F0040018B1012000F00A
:1098500069F802E0002000F065F804F0100018B18B
:109860000120FFF707FF02E00020FFF703FF44F0AD
:1098700008001549488101F07BFB002012498873DC
:1098800004F0400018B10846807B801D887304F402
:10989000C07020B10C48807B801D0B49887304F098
:1098A000140020B10848807B10300749887304F009
:1098B000030020B10448807B001D03498873002009
:1098C0003EBD000009E3CA02840E00203EB50446F6
:1098D0006CB10EA1D1E900208968CDE90020029188
:1098E0006A4609214FF4976001F04CFF3EBD0AA281
:1098F000D2E900109268CDE9010200916A4609217F
:109900004FF4976001F03EFFF0E70000B8AAB38D76
:10991000B4980D355D000000B8AAAAAAB088C3C5E6
:10992000C700000038B5044664B1C0208DF80000BF
:10993000C2208DF80100C4208DF80200C6208DF8E9
:10994000030004E08B2204216846F6F7FDFB6A461B
:10995000042140F6982001F015FF01F009FB38BD05
:1099600010B5C8234FF48062024940F6F63001F08A
:1099700075F910BD4CD900082DE9F04F8DB00746A0
:10998000884615469946DDE9166B00240020308094
:109990006849887B5A4605A901F04AFA18B1601E49
:1099A0000DB0BDE8F08F6348807A00F01400002805
:1099B00069D04FF0000A9DF8140000069DF81510BC
:1099C00040EA01409DF8161040EA01209DF817106A
:1099D000084328609DF8180000069DF8191040EA19
:1099E00001409DF81A1040EA01209DF81B10084321
:1099F00068609DF81C0000069DF81D1040EA0140BB
:109A00009DF81E1040EA01209DF81F100843A86031
:109A10009DF8200000069DF8211040EA01409DF8C5
:109A2000221040EA01209DF823100843E86004F169
:109A30001000C4B2286800140190686800140290F5
:109A4000A86800140390E86800140490019840434B
:109A5000029901FB0100039901FB0100049901FB3C
:109A6000010ABAF1706F02DBBAF1885F05DD01F01F
:109A70007FFA00203080401E92E7B6F9000040F4E3
:109A80008070308000BF2B48807A00F0400020B307
:109A900005A9601C085C095D40EA012000B2A8F835
:109AA000000005A9E01C095C05AAA01C105C41EAA5
:109AB000002000B2A8F8020005A9601D095C201D65
:109AC000105C41EA002000B2A8F80400A01DC4B256
:109AD000B6F9000040F0080030801648408900F4D4
:109AE000C07008B305A9601C085C095D40EA01204C
:109AF00000B2388005A9E01C095C05AAA01C105C16
:109B000041EA002000B2788005A9601D095C201D93
:109B1000105C41EA002000B2B880A01DC4B2B6F9C2
:109B2000000040F070003080484600F07DFA0020D0
:109B300036E70000840E002030B585B0044616A23A
:109B400007CA02AB07C3C82C03DD4FF0FF3005B0D6
:109B500030BDC82090FBF4F0401E85B2280A8DF875
:109B60000000E8B28DF801006A46022140F216209A
:109B700001F008FE10B14FF0FF30E8E702AA0C2117
:109B800040F6C12001F0FEFD10B14FF0FF30DEE7DE
:109B9000044884810020DAE7FEF2ABC4AAF1DFDFDB
:109BA000BBAFDFDF840E002010B586B0044647A0AF
:109BB0000068039046A00068029046A000680190EB
:109BC00045A00068009004F0030003A9085C8DF82C
:109BD000140003A8C4F3C101405C8DF8150003A86C
:109BE000C4F38111405C8DF8160004F0030002A953
:109BF000085C8DF8100002A8C4F3C101405C8DF828
:109C0000110002A8C4F38111405C8DF8120005AA6E
:109C1000032140F2264001F0B5FD18B14FF0FF30AE
:109C200006B010BD04AA032140F22A4001F0AAFDAB
:109C300010B14FF0FF30F3E70198059000980490C1
:109C400004F0040058B19DF8140040F001008DF8B4
:109C500014009DF8100040F001008DF8100004F091
:109C6000200058B19DF8150040F001008DF8150056
:109C70009DF8110040F001008DF8110004F480708F
:109C800058B19DF8160040F001008DF816009DF8BF
:109C9000120040F001008DF8120005AA03214FF4D4
:109CA000886001F06FFD10B14FF0FF30B8E704AAF3
:109CB000032140F2314001F065FD10B14FF0FF305B
:109CC000AEE7064804810020AAE700004CCD6C00F6
:109CD0000CC92C003656760026466600840E0020FD
:109CE000F8B505460E464FF47A7095FBF0F000FB90
:109CF00006F4200E8DF80000200C8DF80100200ADB
:109D00008DF80200E0B28DF803006A4604214FF49A
:109D1000AE7001F037FDF8BD38B50446052094FB60
:109D2000F0F084B220128DF80000E0B28DF801004E
:109D30006A4602214FF4AD7001F024FD38BD38B5FC
:109D40000446052094FBF0F084B220128DF8000048
:109D5000E0B28DF801006A4602214FF4AC7001F0C8
:109D600011FD38BD38B504460020009004F0010014
:109D700020B19DF8000040F03000009004F0020097
:109D800020B19DF8000040F00C00009004F00400A9
:109D900020B19DF8000040F0030000906A460121C8
:109DA0004FF4A47001F0EEFC38BD38B50446012C28
:109DB00001DA012402E0042C00DD0424601EC0B29C
:109DC00000906A46012140F24F1001F0DBFC38BDE3
:109DD0002DE9FC4706460F4606F0070010B1B7F51F
:109DE000C86F03DD4FF0FF30BDE8FC873846F6F75B
:109DF0003CFC81465949F6F769FA8046684600F00E
:109E000073FE9DF80000022806D0042816D008280A
:109E100026D0102848D135E04FF08D414046F6F766
:109E200023FA8146F6F773FC84B24D494046F6F7B3
:109E30001BFA8146F6F76BFC85B238E04FF08C4197
:109E40004046F6F711FA8146F6F761FC84B24549BF
:109E50004046F6F709FA8146F6F759FC85B226E046
:109E60004FF08B414046F6F7FFF98146F6F74FFC7D
:109E700084B23D494046F6F7F7F98146F6F747FCCC
:109E800085B214E04FF08A414046F6F7EDF981467D
:109E9000F6F73DFC84B235494046F6F7E5F98146D0
:109EA000F6F735FC85B202E04FF0FF309CE700BFCB
:109EB00020128DF80400E0B28DF8050028128DF80C
:109EC0000600E8B28DF8070006F00100A0B101AA73
:109ED00002214FF4EA7001F055FC10B14FF0FF3051
:109EE00082E70DF1060202214FF4927001F04AFC64
:109EF00010B14FF0FF3077E706F00200A0B101AAE1
:109F000002214FF4EC7001F03DFC10B14FF0FF3036
:109F10006AE70DF1060202214FF4947001F032FC61
:109F200010B14FF0FF305FE706F00400A0B101AAC6
:109F300002214FF4EE7001F025FC10B14FF0FF301C
:109F400052E70DF1060202214FF4967001F01AFC5F
:109F500010B14FF0FF3047E7002045E700004843CD
:109F6000000040460000C045000040450000C044DD
:109F700038B50446052094FBF0F085B228128DF820
:109F80000000E8B28DF801006A4602214FF4EF703C
:109F900001F0F8FB38BD38B50446052094FBF0F01D
:109FA00085B228128DF80000E8B28DF801006A46EB
:109FB00002214FF4ED7001F0E5FB38BD2DE9FF41C2
:109FC0000446002102910391002001901248D0F82C
:109FD0000C112046F6F77AF90746F6F7C5FB054659
:109FE00000220E4BF6F757FACDE90201DDE9020136
:109FF000F6F7FEFB07460A4902F0FCF806464FF06A
:10A000007E51F6F72EF905460649F6F72DF901902F
:10A01000019804B0BDE8F081780100200000F03F15
:10A02000B1DC423ED048874A704700002DE9FF5F0F
:10A030005A48006959494989A0EB0120C7170646CB
:10A04000564880890021A0FB06C901FB069100FB50
:10A0500007114FEADC5040EA4129C8154FF4FA6C69
:10A0600019EB0C0240F100011046F6F703FB4C49D6
:10A07000C1F8040149488088000400224749098941
:10A08000A1FB06C902FB069301FB07334FEADC1173
:10A0900041EA4361401842EBE312CDE902023F4836
:10A0A00040884FEAC0304FF000023C49C988B446AE
:10A0B000A1FB0C9B02FB06B301FB07334FEA1921FE
:10A0C00041EA0361401842EB2322CDE90002344902
:10A0D000D1F804013349F6F7A7FB39D23049D1F85A
:10A0E00004013049F6F7BAF88146F6F7F7FA044664
:10A0F00004EB8400444365104FEAA4082849D1F8D2
:10A1000004012949F6F790FB13D22549D1F804013F
:10A110002649F6F751F88146F6F7E0FA044664431B
:10A12000072000FB045504EB440000EBC40008EBDF
:10A130006008DDE90201401B61EBE571CDE9020138
:10A14000DDE90001B0EB080061EBE871CDE9000149
:10A1500012484FF000094169DDE900C0A1FB0CABDA
:10A1600009FB0CBC01FB00C04FEA5A5141EAC0296F
:10A170004FEA6051DDE902C0B9EB0C0C61EB000164
:10A180004FEADC3040EA4142C9131046F6F772FA52
:10A190000349C1F80801BDE8FF9F0000F40B00204F
:10A1A000780100200000FA440080BBC40080BB445A
:10A1B00010B5EE2000F0F8F8002000F043F9EF2091
:10A1C00000F0F2F800F0E6F80549887500F0E2F8D2
:10A1D0000349487500F0E3F80149087510BD000017
:10A1E000F40B002010B5EE2000F0DEF8482000F05F
:10A1F00029F900F001F910BD10B5EE2000F0D4F8F7
:10A20000002000F01FF9EF2000F0CEF800F0C2F8B7
:10A210000549887400F0BEF80349487400F0BFF89F
:10A220000149087410BD0000F40B002010B5EE20A9
:10A2300000F0BAF8582000F005F900F0DDF810BD84
:10A2400038B500241FE0EE2000F0AEF86100A23126
:10A25000C8B200F0F7F80A20FFF7C0F9EF2000F0CD
:10A26000A3F80A20FFF7BAF900F094F88DF801007E
:10A2700000F095F88DF80000BDF80010034A601C4E
:10A2800022F81010C4B2062CDDDB38BDF40B002020
:10A2900010B500221E21772000F018F910BD70477C
:10A2A00070B5054600243A48006820F0F0003849AF
:10A2B00008600846006840F03000086048153449DE
:10A2C0000C310860FFF7EBFF3148006820F0F00028
:10A2D0002F4908600846006840F0800008600026AA
:10A2E00019E04FF480702A490C310860FFF7D7FF5E
:10A2F0006006040E2648001D0068C0F3402008B127
:10A30000601CC4B24FF48070214910310860FFF71F
:10A31000C6FF701CC6B2082EE3DB1D48006820F0A3
:10A32000F0001B4908600846006840F030000860F3
:10A33000B5B9481516490C310860FFF7B0FF4FF466
:10A34000807013490C310860FFF7A9FF4FF480704B
:10A350000F4910310860FFF7A2FF00F04DF814E03C
:10A360004FF400700A4910310860FFF798FF4FF46E
:10A37000807007490C310860FFF791FF4FF480703F
:10A38000034910310860FFF78AFF204670BD0000C6
:10A39000040C014010B50120FFF782FF10BD10B57D
:10A3A0000020FFF77DFF10BD10B50446114800687E
:10A3B00020F0F0000F4908600846006840F03000C7
:10A3C000086048150B490C31086040100860FFF721
:10A3D00066FF4FF40070074910310860FFF75FFF18
:10A3E0004FF48070034910310860204600F02AF8CD
:10A3F00010BD0000040C014010B51148006820F0A9
:10A40000F0000F4908600846006840F0300008601E
:10A4100088150B491031086040000860FFF73FFFC6
:10A420004FF4807006490C310860FFF738FF4FF495
:10A43000007003490C310860FFF731FF10BD0000C8
:10A44000040C014070B504461F48006820F0F0007D
:10A450001D4908600846006840F03000086000258B
:10A4600021E004F0800028B14FF4007016490C314F
:10A47000086004E04FF40070134910310860600672
:10A48000040EFFF70CFF4FF480700F490C31086089
:10A49000FFF705FF4FF480700B4910310860FFF79C
:10A4A000FEFE681CC5B2082DDBDB4FF48070064948
:10A4B0000C310860FFF7F3FE4FF480700249103151
:10A4C0000860FFF7ECFE70BD040C014070B5044657
:10A4D0000D4616466106080EFFF766FF2846FFF791
:10A4E000B1FF3046FFF7AEFFFFF786FF70BD0000FB
:10A4F0002DE9F04F87B001203F4908703F48D0F860
:10A500009070D0F89480D0F898903846FEF786FF87
:10A510000690384602F04AFB05464046FEF77EFFAD
:10A520000446404602F042FB06464846FEF776FFE8
:10A530000590484602F03AFB0490DDE90501F5F785
:10A5400093FE039021460598F5F78EFE8246069904
:10A550000498F5F789FE029028460599F5F784FEE0
:10A56000019028460499F5F77FFE00902448C0F832
:10A5700000A084F0004B58460499F5F775FE204979
:10A5800048600846866031460198F5F76DFE8346BF
:10A590000299F5F711FE1A49C86031460098F5F79F
:10A5A00063FE83460399F5F75CFE1549086185F063
:10A5B000004B21465846F5F757FE11494861314690
:10A5C0000398F5F751FE83460099F5F74AFE0C49CA
:10A5D000886131460298F5F747FE83460199F5F701
:10A5E000EBFD0749C86120460699F5F73DFE044991
:10A5F000086207B0BDE8F08F2C0000207801002031
:10A60000D00B002070B50546284600F00FF8044630
:10A61000E81C00F00BF844EAC00084B2A81D00F06A
:10A6200005F844EA801084B2204670BD014691F9D5
:10A630000020002A01DD00201EE091F90020002A00
:10A6400001DA042018E091F90120002A01DD01203F
:10A6500012E091F90120002A01DA05200CE091F9BD
:10A660000220002A01DD022006E091F90220002AE2
:10A6700001DA062000E0072070472DE9F04104468A
:10A680000D4621692068F5F797FD60606169606893
:10A69000F5F792FD064631466068F5F717FEE06073
:10A6A0002846A168F5F7DAFD0746E168F5F7DCFD15
:10A6B0000646A168F5F780FDA0604FF07E50E16886
:10A6C000F5F7CCFD06466168F5F7CEFD2060A06881
:10A6D000BDE8F0812DE9F04DC84A002490B09142C8
:10A6E00005DA21F00043934201D805D120B110B022
:10A6F000BDE8F04DFDF7DABCB1F5801F1BDA53EA77
:10A70000000209D0002911DA0120FDF7C5FD10B0C3
:10A71000BDE8F04DFDF7CFBC0220FDF7BDFDFDF714
:10A72000BDFC10B081F00041BDE8F08D6FF0350444
:10A730003622F6F7C3F904EB2152C1F31308B049EE
:10A74000A2F2FF33414401F4801282F07F6103EBF7
:10A75000225281F04051009241EA08010022A94BA7
:10A76000F5F793FE044608F10200A74EC0F313006C
:10A770000D467E44032867D2D6E900232046F6F72B
:10A7800007F81ED10098002802BFD6E9000110B0DA
:10A79000BDE8F08DF5F784FF07460C469B4A9C4BBD
:10A7A000F5F779FE06460D469A4A9B4B38462146F8
:10A7B000F5F771FE10B032462B46BDE8F04DF5F7C7
:10A7C000C3BD4FF05532954B20462946F5F763FE41
:10A7D0000022934BF5F75CFE06460F4622462B46B9
:10A7E00010461946F5F757FE32463B46F5F753FE3D
:10A7F000064600980F46F0B1F5F752FF80468A46AC
:10A80000824A834BF5F747FE32463B46F5F740FE5A
:10A8100022462B46F5F739FE05460C467D4A7E4B0F
:10A8200040465146F5F737FE10B02A462346BDE8AC
:10A83000F04DF5F72ABE0B4610B0324620462946A9
:10A84000BDE8F04DF5F721BE00224FF080432046D1
:10A85000F5F77AFD02460B4620462946F5F78DFEB0
:10A8600006460F460098F5F71BFFCDE90401324676
:10A870003B4610463946F5F70EFE0C9069480C9A97
:10A880004044019009910B461046F5F704FE8246BC
:10A89000024665488B46C8F151080B4608F5D72893
:10A8A00003217844FDF72EFB52465B46F5F7F3FD96
:10A8B0000A905E480D9152465B4604217844FDF7AC
:10A8C00021FB099B0C9AF5F7E6FD844601980D9B48
:10A8D00040EA080860460A9AF5F736FD8346089173
:10A8E000B8F1000F4EDD4FF0FF3220462946F6F753
:10A8F000E5F822462B46F5F7CEFD804600988A46BD
:10A9000060B3DDE90401414A414BF5F7C4FD09910B
:10A9100000905A4640465146089BF5F715FD3246D1
:10A920003B46F5F7B8FD099B009AF5F70DFD424649
:10A930005346F5F7ADFD22462B46F5F7A6FD044636
:10A940000D46DDE90401334A334BF5F7A4FD10B0A1
:10A9500022462B46BDE8F04DF5F797BD5A464046D6
:10A96000089BF5F7F1FC32463B46F5F794FD42466D
:10A970005346F5F78DFD10B022462B46BDE8F04D4D
:10A98000F5F786BD009840B3DDE904011F4A204B6E
:10A99000F5F781FD80468A465A4620462946089B9F
:10A9A000F5F773FD32463B46F5F775FD42465346D3
:10A9B000F5F76BFD22462B46F5F767FD04460D467D
:10A9C000DDE90401134A144BF5F765FD10B022468A
:10A9D0002B46BDE8F04DF5F758BD0B465A462046CC
:10A9E0002946F5F752FD32463B46F5F754FD10B0C7
:10A9F00022462B46BDE8F04DF5F74ABD0000F07F3A
:10AA0000645F09000000F03FEA400000763C7935C1
:10AA1000EF39EA3D0000E0FE422EE63F5555D53FB6
:10AA20000000E03F86EBF9FF8A3D0000883D000012
:10AA300070B50546F6F7C2F80446400010F1020F63
:10AA40000DD12846F5F7BFFF05462046F5F704FE71
:10AA50002946F5F7E9FE1CBF0120FDF71DFC204645
:10AA600070BD0000F7F76CFE02E00248F8F75BFBF0
:10AA7000FBE700007801002070B50446002624F0B2
:10AA80000104184890F8240008B1002070BD154852
:10AA9000807A10B94FF0FF30F8E71248057C807AD1
:10AAA0002040104908740846007CA04202D04FF0B4
:10AAB000FF3600E0002614B90A48007D18B10120D5
:10AAC00001F0A8FE02E0002001F0A4FE3CB100F07D
:10AAD0004FFA20B1034805744FF0FF30D6E73046F7
:10AAE000D4E700001401002001461148407A30B13B
:10AAF000012807D0022808D003280CD108E0022042
:10AB000008700BE00420087008E00820087005E0D9
:10AB10001020087002E04FF0FF30704700BF04487B
:10AB2000C07C18B108784006000E08700020F4E7D9
:10AB3000140100201CB580208DF80000464A1268E0
:10AB4000517D454A526810786B460122F9F770FC36
:10AB500010B14FF0FF301CBD6420FEF73FFD002018
:10AB60008DF800003C4A1268517D3B4A52681078CB
:10AB70006B460122F9F75CFC10B14FF0FF30EAE7B9
:10AB800048208DF80000344A1268117A324A52681F
:10AB900010786B460122F9F74BFC10B14FF0FF30F3
:10ABA000D9E7FF212C488172FF202B490872FF2131
:10ABB00029484172C1724FF6FF71C181FF210174B2
:10ABC00081744FF6FF7101850121017380F8221015
:10ABD000002180F823104175017516300160416035
:10ABE0008160163880F8241080F82510C1844FF455
:10ABF000FA6000F0FDFB10B14FF0FF30ABE704202E
:10AC000000F096FA10B14FF0FF30A4E72A2000F0D0
:10AC100069FC10B14FF0FF309DE7C82000F0A4FCA4
:10AC200010B14FF0FF3096E70020FFF725FF10B17D
:10AC30004FF0FF308FE700BF01F034FE0028FBD15A
:10AC4000642000F05DFB10B14FF0FF3083E700207F
:10AC500000F0E4FC00207EE7140100202DE9F04321
:10AC600085B005460E4690469946294890F825003D
:10AC700020B14FF0FF3005B0BDE8F08316B94FF0BA
:10AC8000FF30F8E7002423E0281B102801DD102006
:10AC900000E0281B87B232193946204600F072FDC9
:10ACA00010B14FF0FF30E6E701AA3946204600F028
:10ACB0001FF910B14FF0FF30DDE730193A4601A916
:10ACC000F5F76DFA10B16FF00100D4E7E01984B226
:10ACD000AC42D9DB4FEA28208DF8000008F0FF00D5
:10ACE0008DF801000A4A1268517F094A52681078AB
:10ACF0006B460222F9F79CFB10B14FF0FF30BAE728
:10AD00000121034880F82510A0F826900020B2E722
:10AD10001401002038B50446282C02DD4FF0FF3026
:10AD200038BDDCB9002000F0A7FB00208DF8000042
:10AD300007208DF801003D4A1268517D3B4A526858
:10AD400010786B460222F9F773FB10B14FF0FF3019
:10AD5000E6E70021354801750020E1E7012000F019
:10AD60008BFB012C03D102208DF8000033E0022C74
:10AD700003D103208DF800002DE0052C03DC042016
:10AD80008DF8000027E00A2C03DC05208DF8000078
:10AD900021E0142C03DC06208DF800001BE0282C99
:10ADA00003DC07208DF8000015E0502C03DC0820A0
:10ADB0008DF800000FE0A02C03DC09208DF80000C6
:10ADC00009E0B4F5A07F03DC0A208DF8000002E062
:10ADD0000B208DF80000154A1268517A134A526808
:10ADE00010786B460122F9F723FB10B14FF0FF30CA
:10ADF00096E720208DF800000C4A1268517D0B4A1E
:10AE0000526810786B460122F9F712FB10B14FF02F
:10AE1000FF3085E708210548817200210173012177
:10AE200001750020FFF728FE002079E714010020BB
:10AE3000F8B504460F4616462C4890F8240010B981
:10AE40004FF0FF30F8BD2948807A10B94FF0FF303D
:10AE5000F8E7264A1268117B244A526810786B463C
:10AE60000222F9F7FBF910B14FF0FF30EAE79DF845
:10AE700001009DF8001040EA0125A54203DA0020F8
:10AE80003070401EDEE7194840684088B5EB600F1F
:10AE900017DD164A1268D17C144A526810786B4646
:10AEA0000122F9F7DBF910B14FF0FF30CAE79DF846
:10AEB000000000F0100020B100F05AF86FF001001F
:10AEC000C0E7E2B2094B1B68597B084B5B681878F6
:10AED0003B46F9F7C3F910B14FF0FF30B2E795FBED
:10AEE000F4F0401E30700020ACE700001401002098
:10AEF000F8B504460D46164616B94FF0FF30F8BDBA
:10AF00001A48807A10B94FF0FF30F8E720128DF818
:10AF10000000E0B28DF801009DF8010028441349BB
:10AF200049684989884202DD4FF0FF30E7E70F4A60
:10AF30001268D17E0D4A526810786B460222F9F7EA
:10AF400077FA10B14FF0FF30D9E7EAB2074B1B6830
:10AF5000197E064B5B6818783346F9F77FF910B114
:10AF60004FF0FF30CBE70020C9E7000014010020BC
:10AF700008B56E48807A10B94FF0FF3008BD002048
:10AF800000906A4A1268517C684A526810786B4691
:10AF90000122F9F74DFA10B14FF0FF30EEE7634AA6
:10AFA00012685179614A526810786B460122F9F7AC
:10AFB0003FFA10B14FF0FF30E0E75C4A12681179B8
:10AFC0005A4A526810786B460122F9F731FA10B1EB
:10AFD0004FF0FF30D2E7554890F82400002850D0B9
:10AFE0000C200090514A12681179504A526810782A
:10AFF0006B460122F9F71CFA10B14FF0FF30BDE7A4
:10B00000C02000904948807A00F0010020B19DF8EE
:10B01000000040F020000090444A12681179434A31
:10B02000526810786B460122F9F702FA10B14FF01E
:10B03000FF30A3E73D48407C10B10220009001E0C2
:10B0400000200090394A1268517C384A52681078C2
:10B050006B460122F9F7ECF910B14FF0FF308DE7A4
:10B0600000200090314A12685179304A52681078B5
:10B070006B460122F9F7DCF9002855D04FF0FF307C
:10B080007CE704200090294A12681179274A526807
:10B0900010786B460122F9F7CBF910B14FF0FF3071
:10B0A0006CE72248807C20B92048807A00F00100BB
:10B0B00010B94020009001E0602000901B4A126807
:10B0C00011791A4A526810786B460122F9F7B0F9E3
:10B0D00010B14FF0FF3051E73220FEF77FFA1348EE
:10B0E000407C10B10120009001E0002000900F4A48
:10B0F0001268517C0D4A526810786B460122F9F7AC
:10B1000097F910B14FF0FF3038E7084A12685179CB
:10B11000064A52681078054B10330122F9F788F976
:10B1200010B14FF0FF3029E7002027E7140100207D
:10B1300038B504461E48807A10B94FF0FF3038BD4C
:10B14000022C06D0042C07D0082C08D0102C0CD1CF
:10B1500008E0002000900BE00820009008E010209C
:10B16000009005E01820009002E04FF0FF30E6E785
:10B1700000BF0F48407A9DF80010B0EBE10F01D1FD
:10B180000020DCE70A4A1268D179094A526810782F
:10B190006B460122F9F74CF910B14FF0FF30CEE7C2
:10B1A0009DF80000C110024841720020C7E700006E
:10B1B0001401002038B504465048807CA04201D1DB
:10B1C000002038BD002C46D04C4A126811794B4AF9
:10B1D000526810786B460122F9F740F810B14FF031
:10B1E000FF30EEE79DF8000020F020000090434A79
:10B1F00012681179414A526810786B460122F9F7BA
:10B2000017F910B14FF0FF30DBE70320FEF7E6F946
:10B2100002200090394890F8220020B19DF80000EB
:10B2200040F080000090354890F8230020B19DF850
:10B23000000040F030000090304A1268D17D2F4A63
:10B24000526810786B460122F9F7F2F8002851D0C5
:10B250004FF0FF30B5E7294A12681179274A526842
:10B2600010786B460122F8F7F9FF10B14FF0FF306C
:10B27000A7E72248807A00F0010028B19DF800007D
:10B2800040F02000009004E09DF8000020F0200035
:10B2900000901A4A12681179184A526810786B4661
:10B2A0000122F9F7C5F810B14FF0FF3089E703200C
:10B2B000FEF794F9114890F8220010B18020009018
:10B2C00001E0002000900D4890F8230020B19DF887
:10B2D000000040F030000090084A1268D17D074A13
:10B2E000526810786B460122F9F7A2F810B14FF0BE
:10B2F000FF3066E701488474002062E714010020F3
:10B3000038B504462CB11548C089A04201DB642C35
:10B3100002DD4FF0FF3038BD1048C08990FBF4F0DB
:10B32000401EC0B200900D4A126892F824100B4AD9
:10B33000526810786B460122F9F77AF810B14FF095
:10B34000FF30E8E70548C1899DF80000401C91FBEB
:10B35000F0F081B2014801850020DCE714010020F3
:10B3600038B50446214890F82400A04201D10020BD
:10B3700038BD24B31D4890F8250010B94FF0FF30B8
:10B38000F6E7002001F046FA0020FFF713FF174907
:10B39000C88C00F0E9F8002000901449496808784A
:10B3A0006B4601222321F9F743F801210F4880F869
:10B3B0002410012001F02EFAFFF7DAFD13E000203F
:10B3C00001F028FA0948007C00900849496808788B
:10B3D0006B4601222321F9F72BF80021034880F85E
:10B3E0002410FFF7C5FD0020C2E700001401002073
:10B3F00038B504461F48807A10B94FF0FF3038BD89
:10B40000FA2C09D0B4F5FA7F09D0B4F57A7F09D0C7
:10B41000B4F5FA6F0CD108E0002000900BE0082092
:10B42000009008E01020009005E01820009002E055
:10B430004FF0FF30E3E700BF0E48007A9DF80010A0
:10B44000B0EBE10F01D10020D9E70A4A12689179E7
:10B45000084A526810786B460122F8F7E9FF10B1EC
:10B460004FF0FF30CBE79DF80000C0100149087293
:10B470000020C4E71401002038B50446184890F8AD
:10B480002300A04201D1002038BD14B1302000902B
:10B4900001E0002000901248807C20B19DF800005F
:10B4A00040F0020000900E4890F8220020B19DF874
:10B4B000000040F080000090094A1268D17D084ADF
:10B4C000526810786B460122F8F7B2FF10B14FF0C6
:10B4D000FF30D9E7024880F823400020D4E700007D
:10B4E0001401002038B504461E48807A10B94FF088
:10B4F000FF3038BDBC2C02DB0120009015E0622C2F
:10B5000002DB0220009010E02A2C02DB03200090D6
:10B510000BE0142C02DB0420009006E00A2C02DB76
:10B520000520009001E0062000900E48C07A9DF8AA
:10B530000010884201D10020DBE70A4A12689178A6
:10B54000084A526810786B460122F8F771FF10B173
:10B550004FF0FF30CDE79DF800100248C172002087
:10B56000C7E700001401002038B504462A48807A55
:10B5700010B94FF0FF3038BD274890F8240010B1C3
:10B580004FF0FF30F7E72448007D50B134B1282C4C
:10B5900004DCE0B2FFF7BEFB0020ECE70020FFF781
:10B5A000B9FB042C01DA042404E0B4F57A7F01DD50
:10B5B0004FF47A744FF47A7090FBF4F0401EC0B2EE
:10B5C0000090154A12685178134A526810786B46F9
:10B5D0000122F8F72DFF10B14FF0FF30CBE79DF8B7
:10B5E0000000401C4FF47A7191FBF0F081B20A48E0
:10B5F000C1810146098D642902DA0146098D00E006
:10B6000064210846FFF77CFE0349C9894810FFF70B
:10B6100069FF0020AFE70000140100201CB50446BC
:10B6200004F0700010B10120019005E014B1002079
:10B63000019001E040200190514A1268517D504A2A
:10B640005268107801AB0122F8F7F2FE20B1002118
:10B650004B488172481E1CBD9DF8040020F040013B
:10B66000474801730020019004F0400020B99DF884
:10B67000040040F00400019004F0200020B99DF87F
:10B68000040040F00200019004F0100020B99DF881
:10B69000040040F00100019004F0080020B99DF87A
:10B6A000040040F038000190354A1268917D344A18
:10B6B0005268107801AB0122F8F7BAFE20B10021E0
:10B6C0002F488172481EC6E724B1082C02D0002002
:10B6D000FFF7D2FE2A4A12681179294A5268107877
:10B6E0006B460122F8F7BAFD10B14FF0FF30B2E718
:10B6F00004F0010038B1112001909DF8000040F0E5
:10B700002000009006E0102001909DF8000020F03D
:10B71000200000901A4890F8240028B19DF80000FD
:10B7200040F08000009004E09DF8000020F08000D0
:10B730000090134A126892F82610114A5268107845
:10B7400001AB0122F8F774FE10B14FF0FF3082E731
:10B750000B4A126811790A4A526810786B46012226
:10B76000F8F766FE10B14FF0FF3074E704488472BA
:10B77000002101753220FDF731FF00206BE700004A
:10B7800014010020F8B504460D46164616B94FF0D0
:10B79000FF30F8BD1A48807A10B94FF0FF30F8E753
:10B7A00020128DF80000E0B28DF801009DF8010034
:10B7B0002844134949684989884202DD4FF0FF3027
:10B7C000E7E70F4A1268D17E0D4A526810786B463F
:10B7D0000222F8F72DFE10B14FF0FF30D9E7EAB2A0
:10B7E000074B1B68197E064B5B6818783346F8F7E1
:10B7F0001FFE10B14FF0FF30CBE70020C9E700007B
:10B800001401002010B50246012000E050430B1E39
:10B81000A1F10104E1B2F9D110BD00002DE9F04D14
:10B820001D460C4698B0174621F0004123F0004316
:10B83000002814BF4FF0010C4FF0000C0CEB440C2F
:10B84000FE4A0CEB02064FEA620C66452BD33E0023
:10B8500018BF012606EB45061644F94A964222D344
:10B86000F84A53EA070C02D0944205D148B918B0FF
:10B8700000201146BDE8F08D002808BF4FF0000CF5
:10B8800001D04FF0010C0CEB440212F5001F0AD856
:10B89000002F14BF4FF0010C4FF0000C0CEB4502D1
:10B8A00012F5001F07D918B03A462B462146BDE8CD
:10B8B000F04DFCF7FEBB0022DFF88CA3002CB8BFD4
:10B8C000534526DADFF884C36345A8BF022220DA95
:10B8D000DFF870C39C451CDCDFF874C30CEB235C01
:10B8E000BCF1140F08DDCCF1340627FA06FC0CFA83
:10B8F00006F6BE420DD108E05FB9CCF1140623FA7A
:10B9000006FC0CFA06F69E4203D10CF00102C2F1CD
:10B91000020251EA000C19D1002D17DA002C18BFD1
:10B92000022A01D0012A07D00220FCF7B5FC18B08A
:10B93000BDE8F04DFCF7B2BB0220FCF7ADFCFCF714
:10B94000ADFB18B081F00041BDE8F08DB7F1000CFF
:10B950006CD1534525D104F1804212F5801201BF0C
:10B9600000280020B74918B008BFBDE8F08DB548E1
:10B97000884207DC002DA1BF6046294618B0BDE80B
:10B98000F08D07E0281E05DA80F0004118B060460F
:10B99000BDE8F08DAF497944D1E9000118B0BDE8A8
:10B9A000F08DDFF8A0C2634525D1002D1FDA19B153
:10B9B000514512D1D8B909E0002840F0EC82A24AE2
:10B9C000214618B062F31E01BDE8F08D002021462B
:10B9D00018B060F31E01BDE8F08D08DA18B02346F8
:10B9E000BDE8F04D024600206146F4F7C6BD18B030
:10B9F0002146BDE8F08D514518DAB5F1804F0DD0E4
:10BA0000A5F1005CBCF1FF5C10D1B4F1000C0DDBC2
:10BA100018B06146BDE8F04D01F08CB9234618B06E
:10BA20000246BDE8F04D1946F4F735BD060024F096
:10BA3000004C3BD1D9B1514533D1002C06DD002D4E
:10BA4000A1BF0020514618B0BDE8F08D002C01DDEB
:10BA5000002D1BDB002C13DA002D11DB012A4FF027
:10BA6000000014BF78497C4918B0BDE8F08D022A67
:10BA700018BF002C0AD0012A08D1002C06DA0AE0EF
:10BA8000002CB8BF002D11DA012A04D0002018B014
:10BA90000146BDE8F08D18B000204FF00041BDE830
:10BAA000F08DA1F14050B0F17F601AD0012000EB81
:10BAB000E47050EA020421D0624C521E4FF0000B99
:10BAC000104304BF4FF0000B644C654883427CDD9B
:10BAD000644A654893421FDD884217DB002D25DB51
:10BAE00037E0002C00DA4AB1022A0CBF01204FF0E7
:10BAF000FF3018B0BDE8F04DF4F7D2BD0120FCF7DF
:10BB0000CBFB18B0BDE8F04DFCF7D5BA4D4A8A42E0
:10BB100002DC002D0ADC1CE0814202DA002D18DA7A
:10BB200004E0484B994220DD002D12DD0220FCF795
:10BB3000B3FBFCF7C6FA05460E46002253465846AC
:10BB40002146F4F7A8FC18B066F31E012846BDE8AC
:10BB5000F08D0220FCF7A0FBFCF7BAFA0A4621465A
:10BB600018B062F31E01BDE8F08D00223046614638
:10BB7000F4F78BFC80460E466FF00102F4F79EFF4F
:10BB80004FF05532394BF4F783FC42463346F4F715
:10BB900082FC0022364BF4F77BFC82464246334659
:10BBA000049110461946F4F776FC5246049BF4F7CC
:10BBB00072FC8A4600904FF0C0422E4B4046314600
:10BBC000F4F769FC2C4A2B4B00E027E0CDE9060195
:10BBD00051460098F4F75FFC82460191274A284BB2
:10BBE00040463146F4F757FC5246019BF4F74DFCB2
:10BBF00082460B4602460591DDE90601F4F7A4FBF7
:10BC0000DDE90623002688463046F4F73EFC52461E
:10BC1000059BF4F73DFC024600F07EB90020B1F52B
:10BC2000801F07DA352230466146F4F747FF0646A3
:10BC30006FF0340000EB215024E00000FFFF1F00F4
:10BC4000FFFF0F000000F03F0000F07F00004043C6
:10BC500001FCFFFFC62E00000000F0FF0000F0BF57
:10BC60000000E0410000F043FFFFEF3F5555D53F96
:10BC70000000E03F4715F73FFE822B6544DF5DF88B
:10BC80000BAE543EA0F2FF300190C1F3130040F020
:10BC90007F6141F040510291FE498842D8BF0020A7
:10BCA00004DDFD498142C8BF012001DD0D9008E09F
:10BCB00000200D900198401C01900298A0F5801082
:10BCC00002900299F54878440B910D9900EBC10060
:10BCD000D0E900230F9330460A920B99F4F7D5FB75
:10BCE000CDE90601DDE90A2130460F9BF4F72CFB74
:10BCF00002460B460020EA49F4F73FFC0591024654
:10BD00000B460090DDE90601F4F7C5FB1490E54809
:10BD10008A464FF0000878440299006812904FF06C
:10BD2000005040EA61010D980F9B01EB804000F547
:10BD3000002109910A9A1298F4F7A7FB32460B9B4F
:10BD4000F4F7A6FB42465346F4F7A5FB06460291DC
:10BD500040465146099B129AF4F79DFBDDE9062304
:10BD6000F4F796FB3246029BF4F78FFB059B009A93
:10BD7000F4F791FB0091149A04905346104619462B
:10BD8000F4F789FB06460246C7480B460291062196
:10BD90007844FCF7B7F8CDE90510029B324610460F
:10BDA0001946F4F778FBDDE90532F4F774FB0591E9
:10BDB0000646534640461946149AF4F7C5FA009BC6
:10BDC000049AF4F768FB3246059BF4F7BDFACDE917
:10BDD00005104246534610461946F4F75CFB002214
:10BDE000B24B02910A90F4F7AFFADDE90532F4F7AD
:10BDF000ABFA0E464246AD4B4046F4F746FB029B7B
:10BE00000A9AF4F742FBDDE90532F4F741FB4246BA
:10BE100002910A90334610465146F4F73CFBCDE9B7
:10BE200006015346149A02990A98F4F734FB8A469D
:10BE300002903346424600990498F4F72CFB53468F
:10BE4000029AF4F781FA82460B4602460591DDE933
:10BE50000601F4F779FADDE9062300208846064654
:10BE6000F4F713FB5246059BF4F712FB8246099147
:10BE70004FF060428E4B30464146F4F70CFB049085
:10BE800006918C4A8A4B50460999F4F704FB824686
:10BE90000291894A894B30464146F4F7FCFA5246F2
:10BEA000029BF4F751FA864B7B440D9A03EBC203D5
:10BEB000D3E90023F4F748FA0E9007910198F4F7BC
:10BEC000EFFB0591DDE9061382460E9A0498F4F71C
:10BED0003BFA7C4A7A440D9B02EBC303D3E900236F
:10BEE00000930292F4F730FA5246059BF4F72CFACD
:10BEF0000026884652463046059BF4F7C6FA009B5A
:10BF0000029AF4F7C2FA069B049AF4F7BEFA079B6A
:10BF10000E9AF4F7BDFA024600200B46029038460E
:10BF20002946F4F7B8FA824601912B46384619465D
:10BF3000029AF4F7AAFA32464346F4F7ACFA5246AC
:10BF4000019BF4F701FA07468A46324643462946E2
:10BF50000298F4F7A0FA05460E463A465346F4F71F
:10BF6000F3F9594A8846914221DBA8EB020353EAD0
:10BF7000000210D12A463346F4F787FACDE90401CE
:10BF8000524A534B38465146F4F7DEF9DDE90423B3
:10BF9000F4F716FC21D20220FCF77EF9FCF791F8A9
:10BFA0000A46214618B062F31E01BDE8F08D494BE8
:10BFB00028F000429A4210D3474A08EB020353EAA2
:10BFC00000027FF4C6AD2A463346F4F75EFA3A46DD
:10BFD0005346F4F7F5FB7FF6BCAD0022019228F042
:10BFE00000403E493E4A01EB2051824223DA481C80
:10BFF0004FF4801121FA00F040443A4AC0F30A514C
:10C000007A44394BA1F2FF31CB4020EA0303C0F35D
:10C01000130040F48010C1F11401C840126801906F
:10C02000B8F1000FBCBF4042019028463146F4F7FA
:10C030002CFA05460E462A46334638465146F4F752
:10C0400083F94FF000084246284B40460591F4F72B
:10C0500022FACDE90601264A264B40460599F4F717
:10C060001AFA009102902A46334640460599F4F7A1
:10C070000CFA3A465346F4F70BFA1F4A1F4BF4F7F3
:10C080000AFA009B029AF4F75FF9074688460246CF
:10C090000B4635E08E9803007AB60B009E2900000F
:10C0A0000000F03F462B000004290000000008407B
:10C0B00009C7EE3FFD033ADCF5015B14E02F3EBEFD
:10C0C000DC270000A027000000009040FE822B65C6
:10C0D0004715973C00CC904000346F3F01FCFFFFB8
:10C0E0000000E03F5C280000FFFF0F00432EE63F0A
:10C0F000396CA80C615C20BEEF39FAFE422EE63F97
:10C10000DDE90601F4F720F9DDE9062305460E46D0
:10C11000F4F7BBF93A464346F4F7BAF90F462A4614
:10C120003346009010461946F4F7B5F982460246A8
:10C130002E4888460B4605217844FBF7E3FE52461D
:10C140004346F4F7A8F92A463346F4F7A1F98046A6
:10C150008A463B4628463146009AF4F79CF93B460E
:10C16000009AF4F7F1F80691009000224FF0804316
:10C1700040465146F4F789F90F460C904246534623
:10C1800028463146F4F787F93B460C9AF4F7F5F95F
:10C19000069B009AF4F779F92A463346F4F775F9C5
:10C1A0000022134BF4F774F9054601980E4601EB93
:10C1B00000510815002810DC28463146019AF4F792
:10C1C0007DFCFBF735FC042808BFFBF781FF284600
:10C1D0003146019AF4F772FC05460B4618B02A4620
:10C1E00058462146BDE8F04DF4F755B98C250000BE
:10C1F0000000F03F2DE9F04D0E460023A0F5000CA5
:10C200004FF00071354684B002464FF07E5401EB8A
:10C2100045014FF07F48BCF1FE4F80F09F81B1F1A6
:10C22000804FC0F0DB81FE490144B1F5005F40F270
:10C23000A78200F58021C90C01F00F07C1F3071197
:10C240007F39A2EBC15501EB030B3846F4F704FA32
:10C250006FF00301F4F7ABFB4FF07E51F3F7ACFF47
:10C26000014602902846F3F7F9FF0190284602990B
:10C27000F3F7A2FF00F5006A6FF30B0A0090514636
:10C280000298F3F7EBFF2946F3F796FF02904FF081
:10C290007E500099F4F71AF8014600900198F3F7E0
:10C2A000E3FF00F500656FF30B0528460299F3F7ED
:10C2B000DBFF029051462846F3F7D6FF0199F3F7CA
:10C2C000D0FF0299F3F7CAFF0099F3F7CDFF0146BB
:10C2D00001902846F3F770FF01460290F3F7C4FF80
:10C2E0008246D049F3F7C0FFCF49F3F765FF5146C7
:10C2F000F3F7BAFF824600212846F4F758FB009076
:10C3000051460298F3F7B0FF054600210198F4F773
:10C310004EFB2946F3F750FF824601460098F3F79B
:10C320004BFF00F500656FF30B0529460098F3F706
:10C3300095FF5146F3F740FF8246BC492846F3F784
:10C3400093FF0090BA495046F3F78EFF8246B949F1
:10C350002846F3F789FF5146F3F72EFF8246014640
:10C360000098F3F729FF00F500656FF30B052946E8
:10C370000098F3F773FF5146F3F71EFF8246AE486D
:10C38000784450F8371000EBC700019147684FEA36
:10C390000B10F4F761F9009039465046F3F70CFFA3
:10C3A0002946F3F709FF0199F3F706FF0099F3F720
:10C3B00003FF00F5006B6FF30B0B58460099F3F782
:10C3C0004DFF0199F3F74AFF2946F3F747FF394636
:10C3D000F3F744FF5146F3F744FF06F50067824642
:10C3E0006FF30B0739463046F3F738FF0021009012
:10C3F0000846F4F709FC00F00C0639465846F3F7F6
:10C4000033FF054620F00040B0F18B4F0ADDB8EB5A
:10C41000400F07D34FF08B4060F31E052F464FF0BF
:10C42000000A1FE038460099F3F7C6FE5146F3F7BD
:10C430001BFF074658460099F3F716FF3946F3F7F6
:10C44000BBFE824601462846F3F7B6FE00F50067BC
:10C450006FF30B0739462846F3F700FF5146F3F711
:10C46000ABFE824631460C20F4F7CEFB51463846EF
:10C47000F3F7A2FEF4F7A2FB06460511F4F7ECF879
:10C480003946F3F7EEFE5146F3F796FE07466B4941
:10C49000F3F7EAFE6A49F3F78FFE3946F3F7E4FE55
:10C4A0006849F3F789FE3946F3F7DEFE0146664830
:10C4B00006F00F06784450F82600F3F7D5FE6349DE
:10C4C000794451F82610F3F777FE6149794451F821
:10C4D0002610F3F771FE05F17D01FC2908D22946EB
:10C4E000F4F765FA04B02146BDE8F04DF3F7BCBEA1
:10C4F00005F1BF01B1F5BF7F16D82946F4F757FA09
:10C500002146F3F7B1FE0546B8EB450F1AD0680097
:10C510000CD02846FBF7A0FA042808BFFBF7F3FD70
:10C52000284604B0BDE8F08D002D0BDA0220FBF7A1
:10C53000B3FEFBF7E8FD0146204604B061F31E00A0
:10C54000BDE8F08D0220FBF7A7FEFBF7D7FD014603
:10C55000204604B061F31E00BDE8F08DB1F1804FBC
:10C560003CD300BF00F1FF41B1F1FE4F21D200BF2B
:10C5700020F00042C5F3C75110467F290DDB9729F3
:10C58000BFF651AEC1F196014FF0010C0CFA01F16A
:10C59000A1F1010C1CEA050F07D00120FBF77CFE7E
:10C5A00004B0BDE8F04DFBF7A5BD294218BF294CEA
:10C5B00039E641001CBF4FF08071B1EB400F09D943
:10C5C0001B21F4F7F4F902466FF01A0310F0004F44
:10C5D000CED128E6BCF1FE4F18D224E6B1F1007F9F
:10C5E0000ED336F0004105D006F0004141F0FC5575
:10C5F0002E46B7E7410018BFB8EB400F78D8B1E737
:10C60000B1F1807F38BFA5F50006ABD320F0004123
:10C610006FF0FF4C104C01EB0C03A3422FD31DE035
:10C62000001080C07EE24C3EABAAAA3E00B0384269
:10C630003BAA3842D49AB8BB6C230000FC5963373C
:10C64000C9FF753A1872313D38230000EC22000012
:10C65000A0220000000080BFFFFF3F0025F0004344
:10C660009C44A4450BD3B0F17E5F18BF5FEA450C34
:10C670003ED0B1F1FF4F98BFB3F1FF4F05D904B0E1
:10C680003146BDE8F04DFBF733BDB0F1FF4F0FD0A1
:10C69000C5F3C7517F2909DB972911DAC1F196014A
:10C6A000012202FA01F14A1E2A4205D0002108E0C7
:10C6B00015F0004F55D128E0294218BF012100D1C3
:10C6C000022110F5000F14D020B3B0F1004F27D095
:10C6D00010F1814F4ED04FF0FE41B1EB400F94BFAF
:10C6E00001200020012101EBE571884239D10CE0E5
:10C6F00040E015F0004F02D0012936D031E0012989
:10C7000002BF3F4804B0BDE8F08D4FF0FF4004B0D9
:10C71000BDE8F08D15F000400ED104B0BDE8F08DFD
:10C72000B5F1FF4F1DD015F5000F05D015F0004FE6
:10C7300014D009B1012907D00220FBF7ADFD04B0E8
:10C74000BDE8F04DFBF7CCBC0220FBF7A5FDFBF7E5
:10C75000C7FC04B080F00040BDE8F08D09B10129AC
:10C7600003D004B00020BDE8F08D04B04FF00040CD
:10C77000BDE8F08D04B04FF07E50BDE8F08D00BFF5
:10C780004FF07E51F3F76AFD05466FF00101F4F7B3
:10C790000EF91C49F3F765FD2946F3F765FD4FF0E7
:10C7A0007C51F3F75EFD074629460846F3F75CFD2A
:10C7B00080F000403946F3F757FD8246124928467B
:10C7C000F3F752FD074611495046F3F74DFD8246F7
:10C7D0000F492846F3F748FD5146F3F7EDFC0546AF
:10C7E00001463846F3F7E8FC00F5006B6FF30B0BDE
:10C7F00059463846F3F732FD2946F3F7DDFCECE500
:10C80000000080FFABAAAA3E00B0B8413BAAB841E5
:10C81000D49A38BB38B50446214890F82400C0B1FA
:10C8200014B10220009001E0002000901C4A126820
:10C83000517C1B4A526810786B460122F7F7F8FDCD
:10C8400010B14FF0FF3038BD9DF80010144841740E
:10C8500023E01348807A10B94FF0FF30F3E724B19A
:10C860000F48407C08B10020EDE714B10120009092
:10C8700001E0002000900A4A1268517C084A526880
:10C8800010786B460122F7F7D3FD10B14FF0FF305F
:10C89000D9E79DF80010024841740020D3E700005A
:10C8A0001401002038B50120FEF784FC0A20FCF7B3
:10C8B00095FE18240EE06B46012200212046F7F772
:10C8C000CDFC054625B99DF80000482800D103E0BD
:10C8D000601CC4B21E2CEEDD00BF1E2C08DD002043
:10C8E0008349086083A000F005FB4FF0FF3038BD9E
:10C8F000854880F82A4010208DF80000824991F880
:10C900002A006B4601220A21F7F792FD10B14FF081
:10C91000FF30ECE70120FCF761FE1F208DF80000DE
:10C92000794991F82A006B4601220A21F7F780FD28
:10C9300010B14FF0FF30DAE70120FCF74FFE7249EB
:10C9400091F82A006B4603221021F7F787FC10B1FB
:10C950004FF0FF30CBE79DF8000080306A498885B2
:10C960009DF8011080316848C1859DF80210803122
:10C97000018610208DF80000634991F82A006B466B
:10C9800001220A21F7F754FD10B14FF0FF30AEE756
:10C990000120FCF723FE0020FEF70CFC0A20FCF728
:10C9A0001DFE40208DF80000574A1268917E564ABD
:10C9B000526810786B460122F7F73AFD10B14FF03C
:10C9C000FF3094E7504890F82A0040F080008DF83E
:10C9D00000004D4A1268917F4B4A526810786B46AE
:10C9E0000122F7F725FD10B14FF0FF307FE702205D
:10C9F0008DF80000444A1268D17F434A526810788B
:10CA00006B460122F7F714FD10B14FF0FF306EE7CF
:10CA100088208DF800003C4A126892F820103A4AAB
:10CA2000526810786B460122F7F702FD10B14FF003
:10CA3000FF305CE7344890F82A008DF80000324A55
:10CA4000126892F82110304A526810786B46012221
:10CA5000F7F7EEFC10B14FF0FF3048E70A208DF8F1
:10CA60000000294A126892F82210274A526810786A
:10CA70006B460122F7F7DCFC10B14FF0FF3036E7D0
:10CA800081208DF80000204A126892F823101E4A77
:10CA9000526810786B460122F7F7CAFC10B14FF0CC
:10CAA000FF3024E711208DF80000174A126892F831
:10CAB0002610154A526810786B460122F7F7B8FC29
:10CAC00010B14FF0FF3012E703208DF800000E4A3E
:10CAD000126892F827100C4A526810786B460122AF
:10CAE000F7F7A6FC10B14FF0FF3000E70020FEE69C
:10CAF000B0012142436F6D70617373206E6F7420BB
:10CB0000666F756E642E0A001401002000B5254B77
:10CB100021F0004287B09A4203DC002213460092C3
:10CB20002BE0214B9A4208D140B94FF00100FBF7AE
:10CB3000B3FBFBF7C0FA07B000BD03DBFBF7B6FAA7
:10CB400007B000BD02AAFAF79BFF10F003014FF0F7
:10CB500001000DD0012914D002291AD00DF1080CC2
:10CB60009CE80F00FBF750F907B081F0004100BDD1
:10CB70000DF1080C00909CE80F00FBF719FA07B0C4
:10CB800000BD0DF1080C9CE80F00FBF73DF907B064
:10CB900000BD0DF1080C00909CE80F00FBF708FAAF
:10CBA000E2E70000FB21E93F0000F07F2DE9F843B8
:10CBB0000446024652486946B0EB420F09D94FF08D
:10CBC000E640B0EB420F94BF00204FF0FF300090E2
:10CBD00030E04C4B22F00040834271D94A49204654
:10CBE000F3F742FBF3F7EFFE8046F3F777FD00F033
:10CBF0000300009045494046F3F736FB054644499B
:10CC00004046F3F731FB064642494046F3F72CFB1A
:10CC1000074641494046F3F727FB2146F3F721FB3E
:10CC20003946F3F71BFB3146F3F718FB2946F3F7B8
:10CC300015FB04462546009C002C45DB294614F0D4
:10CC4000010F08461ED0F3F70FFB05463349F3F7F3
:10CC50000BFB3349F3F7B0FA2946F3F705FB3149EB
:10CC6000F3F7AAFA2946F3F7FFFA4FF07E51F3F7EC
:10CC7000A3FA14F0020F08BFBDE8F88380F000406B
:10CC8000BDE8F883F3F7F0FA06462749F3F7ECFA24
:10CC90002649F3F7E6FA3146F3F7E6FA2449F3F7C3
:10CCA0008BFA3146F3F7E0FA2946F3F7DDFA294625
:10CCB000F3F782FA14F0020FE0D1BDE8F883FFE742
:10CCC0001046FBF725FAB4E76800B0F17F4F09D2B0
:10CCD0002846FAF7C1FE042808BFFBF714FA2846D5
:10CCE000BDE8F88306D10120FBF7D6FABDE8F8438A
:10CCF000FBF700BA2846BDE8F843FBF7F6B9000099
:10CD0000B61F927E490E494683F9223F1A61342CA0
:10CD10000020A23300A0FD390000C93FB93AB2BAE1
:10CD2000CA9F2A3DDDFFFFBE336D4C39DA82083CD5
:10CD3000A0AA2ABE2DE9F04106460F46F3F7D5FE1C
:10CD4000041E0D4618BF0120284320F00040C0F10A
:10CD50007F6000F1E040C00F0ED0301C18BF0120F2
:10CD6000384320F00040C0F17F6000F1E040C00F88
:10CD700004BF0120FBF790FA20462946BDE8F08168
:10CD80002DE9F843044602464C486946B0EB420F91
:10CD900009D94FF0E640B0EB420F94BF00204FF0AE
:10CDA000FF30009030E0464B22F00040834265D9CE
:10CDB00044492046F3F758FAF3F705FE8046F3F7A7
:10CDC0008DFC00F0030000903F494046F3F74CFA19
:10CDD00005463E494046F3F747FA06463C49404679
:10CDE000F3F742FA07463B494046F3F73DFA21463E
:10CDF000F3F737FA3946F3F731FA3146F3F72EFAFB
:10CE00002946F3F72BFA0446009D002D3ADB214614
:10CE10000846F3F729FA06462F49F3F725FA2F4972
:10CE2000F3F7CAF93146F3F71FFA2D49F3F7C4F9BE
:10CE30003146F3F719FA2B49F3F7BEF93146F3F708
:10CE400013FA2949F3F7B8F93146F3F70DFA2749F0
:10CE5000F3F7B2F93146F3F707FA2146F3F704FA8C
:10CE60002146F3F7A9F915F0010F08BFBDE8F883D3
:10CE70000146BDE8F8431E48F3F728BA1046FBF711
:10CE800047F9C0E76000B0F17F4F09D22046FAF7BA
:10CE9000E3FD042808BFFBF736F92046BDE8F88318
:10CEA00006D10120FBF7F8F9BDE8F843FBF722B9FA
:10CEB0002046BDE8F843FBF718B90000B61F927E84
:10CEC000490E494683F9223F1A61342C0020A233CF
:10CED00000A0FD390000C93FBBE9223C0C6D063BB8
:10CEE0008A76CE3CACB5593D35A1083E29AAAA3E6A
:10CEF000000080BF0FB438B505A800900F48009A15
:10CF00000499FAF783FD002000900C48F3F740F9EC
:10CF100085B200240DE00948015D0948FAF719FDC2
:10CF200000BF40210648FAF747FC0028F9D0601CF2
:10CF300084B2AC42EFDB38BC5DF814FB800C0020FF
:10CF4000004800400000000000000000002F00002A
:10CF500000000700070000147F147F1400242A7FBC
:10CF60002A1200626408132300364955225000003B
:10CF70000503000000001C224100000041221C00AB
:10CF80000014083E08140008083E0808000000A02D
:10CF90006000000808080808000060600000002029
:10CFA00010080402003E5149453E0000427F400007
:10CFB000004261514946002141454B31001814128D
:10CFC0007F10002745454539003C4A49493000015A
:10CFD0007109050300364949493600064949291EA9
:10CFE000000036360000000056360000000814220B
:10CFF000410000141414141400004122140800020B
:10D000000151090600324959513E007C1211127C2F
:10D01000007F49494936003E41414122007F41415C
:10D02000221C007F49494941007F09090901003E4E
:10D030004149497A007F0808087F0000417F41008C
:10D04000002040413F01007F08142241007F404002
:10D050004040007F020C027F007F0408107F003EEA
:10D060004141413E007F09090906003E4151215ED0
:10D07000007F091929460046494949310001017FCD
:10D080000101003F4040403F001F2040201F003F63
:10D090004038403F00631408146300070870080715
:10D0A00000615149454300007F41410000552A5528
:10D0B0002A55000041417F000004020102040040A3
:10D0C00040404040000001020400002054545478C5
:10D0D000007F4844443800384444442000384444E5
:10D0E000487F00385454541800087E090102001883
:10D0F000A4A4A47C007F080404780000447D4000C0
:10D10000004080847D00007F102844000000417FA3
:10D110004000007C04180478007C0804047800387F
:10D120004444443800FC242424180018242418FC07
:10D13000007C0804040800485454542000043F4470
:10D140004020003C4040207C001C2040201C003C33
:10D150004030403C004428102844001CA0A0A07C83
:10D16000004464544C4414141414141400000000BB
:10D17000000000000000000000000000000000F8B7
:10D1800000000000000000333000000000100C061A
:10D19000100C0600000000000000000040C07840B5
:10D1A000C0784000043F04043F040400007088FC81
:10D1B00008300000001820FF211E0000F008F000D9
:10D1C000E018000000211C031E211E0000F008884A
:10D1D000700000001E2123241927211010160E00B4
:10D1E000000000000000000000000000000000E05F
:10D1F0001804020000000007182040000002041874
:10D20000E00000000040201807000000404080F0CF
:10D21000804040000202010F01020200000000F005
:10D22000000000000101011F0101010000000000D9
:10D230000000000080B0700000000000000000004E
:10D2400000000000000101010101010100000000D7
:10D25000000000000030300000000000000000006E
:10D2600080601804006018060100000000E010084B
:10D270000810E000000F102020100F00001010F820
:10D28000000000000020203F20200000007008085F
:10D2900008887000003028242221300000300888DF
:10D2A000884830000018202020110E000000C02007
:10D2B00010F8000000070424243F240000F8088828
:10D2C000880808000019212020110E0000E01088B5
:10D2D00088180000000F112020110E0000380808E7
:10D2E000C83808000000003F0000000000708808F7
:10D2F00008887000001C222121221C0000E0100878
:10D300000810E0000000312222110F00000000C0D0
:10D31000C00000000000003030000000000000806D
:10D32000000000000000806000000000000080405D
:10D330002010080000010204081020004040404076
:10D3400040404000040404040404040000081020C9
:10D35000408000000020100804020100007048080E
:10D360000808F0000000003036010000C030C82876
:10D37000E810E0000718272423140B000000C03831
:10D38000E0000000203C23020227382008F88888AB
:10D3900088700000203F202020110E00C0300808B7
:10D3A00008083800071820202010080008F808088E
:10D3B0000810E000203F202020100F0008F8888887
:10D3C000E8081000203F20202320180008F8888853
:10D3D000E8081000203F200003000000C0300808CB
:10D3E0000838000007182020221E020008F8080054
:10D3F0000008F808203F210101213F20000808F81B
:10D40000080800000020203F20200000000008083D
:10D41000F8080800C08080807F00000008F888C0FD
:10D4200028180800203F20012638200008F80800AE
:10D4300000000000203F20202020300008F8F800E5
:10D44000F8F80800203F003F003F200008F830C0F7
:10D450000008F808203F200007183F00E0100808E7
:10D460000810E0000F10202020100F0008F8080816
:10D470000808F000203F210101010000E010080829
:10D480000810E0000F18242438504F0008F888884E
:10D4900088887000203F2000030C3020007088082E
:10D4A000080838000038202121221C00180808F83C
:10D4B000080818000000203F2000000008F80800BD
:10D4C0000008F808001F202020201F00087888008E
:10D4D00000C83808000007380E010000F80800F8FE
:10D4E0000008F800033C0700073C030008186880A8
:10D4F0008068180820302C03032C30200838C8001E
:10D50000C83808000000203F20000000100808086C
:10D51000C83808002038262120201800000000FE0E
:10D52000020202000000007F40404000000C30C0BA
:10D5300000000000000000010638C00000020202E6
:10D54000FE000000004040407F0000000000040298
:10D5500002020400000000000000000000000000C3
:10D5600000000000808080808080808000020204B3
:10D5700000000000000000000000000000008080AB
:10D58000808000000019242222223F2008F8008019
:10D5900080000000003F112020110E0000000080DC
:10D5A00080800000000E112020201100000000806B
:10D5B0008088F800000E112020103F20000080809D
:10D5C00080800000001F222222221300008080F0B1
:10D5D000888888180020203F2020000000008080DC
:10D5E00080808000006B94949493600008F8008021
:10D5F00080800000203F210000203F20008098987C
:10D60000000000000020203F2020000000000080DB
:10D610009898000000C08080807F000008F800001B
:10D6200080808000203F24022D302000000808F870
:10D63000000000000020203F20200000808080802B
:10D6400080808000203F20003F20003F80800080BD
:10D6500080800000203F210000203F2000008080CB
:10D6600080800000001F202020201F00808000807C
:10D670008000000080FFA12020110E00000000802B
:10D6800080808000000E112020A0FF80808080001C
:10D690008080800020203F21200001000000808049
:10D6A000808080000033242424241900008080E03E
:10D6B000808000000000001F20200000808000000B
:10D6C00000808000001F202020103F2080808000EC
:10D6D0000080808000010E300806010080800080FC
:10D6E000008080800F300C030C300F000080800021
:10D6F000808080000020312E0E312000808080004C
:10D700000080808080818E701806010000808080FB
:10D71000808080000021302C222130000000000099
:10D72000807C020200000000003F4040000000003A
:10D73000FF00000000000000FF0000000002027C6B
:10D74000800000000040403F000000000006010192
:10D75000020204040000000000000000040C14FC9D
:10D76000140C448000000000008040000000007F96
:10D7700000004020110A040A11204000040C14FC8F
:10D78000140C040000000000000000000000007FF6
:10D79000006000000000000000000000040C14FC09
:10D7A000140C040000000000000000000000007FD6
:10D7B000006000780000000000000000040C14FC71
:10D7C000140C040000000000000000000000007FB6
:10D7D00000600078007E000000000000040C14FCD3
:10D7E000140C040000000080000000000000007F16
:10D7F00000600078007E007F00000000040C14FC34
:10D80000140C04000000008000E000000000007F15
:10D8100000600078007E007F007F00008CE05A3CB2
:10D820008CE0DA3C8CE05A3C0000803FF8DFD2BF4D
:10D83000F96D333FB50062000600000014000000DF
:10D840000100000000000000D000080000000000FF
:10D850000000C200010000000700000007000000F7
:10D860000000000000000000C4009600B500620047
:10D870000600000001000000010008002200B500C1
:10D8800062000600080006000000C8000000010059
:10D89000000001000000DE006A00B5006200060022
:10D8A0000800000000000E003000B5006200060015
:10D8B000040004000000000000000200000010004E
:10D8C0006800B5006200060009000D0000000000BD
:10D8D000000000000000FF00FF000000000000004A
:10D8E00000000000000017003100BF0075191A0C7D
:10D8F0006A231B1C1D1E1F207274433B4138393A9A
:10D90000696B6C376F77246D6E704925262728293F
:10D910002A3463646700D0000004800041010000E5
:10D92000000133138300000000080000000100180C
:10D9300032000500000020410000D242295C0F3E69
:10D940009A99993E3333733F295C0F3E0000700073
:10D9500000000024000000020003000000650054E5
:10D96000FFEF0000FA80000B12820001030C30C3AD
:10D970000E8C8CE914D5400213710F8E3883F88316
:10D980003000F883258EF8833000F883FFFFFFFF17
:10D990000FFEA9D6240004001A8279A10000003CE1
:10D9A000FFFF00000010000038836FA2003E03302C
:10D9B0004000000002CAE3093E8000002000000091
:10D9C000000000004000000060000000000C0000AB
:10D9D000000C186E000006920A16C0DFFFFF025608
:10D9E000FD8CD377FFE1C496E0C5BEAA000000001D
:10D9F000FFFF0B2B000016570000035940000000EA
:10DA000000001DFA00026C1D000000003FFFDFEB6C
:10DA1000003EB3B6000D227800002F3C000000004D
:10DA2000001942B5000039A20000B365D90E9FC9A4
:10DA30001DCF4C3430000000500000003BB67AE8A7
:10DA40000064000000C8000000000000100000009A
:10DA50001000FA921000225E000D229F00010000CB
:10DA600000320000FF46000063D4000010000000F8
:10DA700004D6000004CC000004CC000000001072AA
:10DA8000000000400000000000000000000600024E
:10DA90000005000700000000006400000000000016
:10DAA00000000005000500640020000000000000E8
:10DAB00000000000000040000000030000000032F1
:10DAC000F8980000FF650000830F0000FF9BFC003A
:10DAD0000000000000000000000000000000000046
:10DAE0000000000000000000000000000000000036
:10DAF00000000000000000000000100040000000D6
:10DB0000000000060000B26A000200000001FB8372
:10DB10000068000000D9FC007CF1FF8300000000D9
:10DB200000650000006403E8006400280000002590
:10DB30000000000016A0000000001000000010000F
:10DB4000002F0000000001F4000010000028000079
:10DB5000FFFF4581FFFFFA72000000000000000097
:10DB6000004400050005BAC6004778A20000000185
:10DB70000000000000000600000000140000254D19
:10DB8000002F706D000005AE000C02D000000000F8
:10DB9000000000000000000000000000001B00006A
:10DBA0000000000000000000000000000064000011
:10DBB000000800000000000000000000000000005D
:10DBC0000000000000000000000000000000000055
:10DBD0000000000000000000000000000000000045
:10DBE0000000000000000000000000000000000035
:10DBF0000000000000000000000000000000000025
:10DC0000000000000000000000000000001B0000F9
:10DC10000000000000000000000E000E00000AC717
:10DC20000004000000000032FFFFFF9C00000B2BEF
:10DC3000000000020000000100000064FFE5000099
:10DC400000000000000000000000000000000001D3
:10DC50000000000000010000000000000001800042
:10DC60000001800000018000002426D30000000095
:10DC700000000000000600100096003C00000000BC
:10DC80000000000000000000000000000C0A4E68C8
:10DC9000CDCF770950166759C619CE820000000013
:10DCA0000000000000000000000000000000000074
:10DCB0000000000017D784000300000000000000EF
:10DCC00000000000C7938F9D1E1B1C190000000060
:10DCD0000000000000000000000000000000000044
:10DCE000000000000203188500004000000000034F
:10DCF00000000003000000000000000040000000E1
:10DD00000000000000000000000000000000000013
:10DD10000000000000000000000000000000000003
:10DD200000000000000000000000000000000000F3
:10DD3000677DDF7E72902E554CF6E688000000006D
:10DD4000000000000000000000000000D8DCB4B8B3
:10DD5000B0D8B9ABF3F8FAB3B7BB8E9EAEF132F5DB
:10DD60001BF1B4B8B08097F1A9DFDFDFAADFDFDFF6
:10DD7000F2AAC5CDC7A90CC92C97F1A98926466678
:10DD8000B28999A92D557DB0B08AA896365676F1FC
:10DD9000BAA3B4B280C0B8A89711B28398BAA3F05E
:10DDA000240844106418B2B9B49883F1A329557DAE
:10DDB000BAB5B1A38393F0002850F5B2B6AA839305
:10DDC00028547CF1B9A3829361BAA2DADEDFDB8149
:10DDD0009AB9AEF5606870F1DABAA2DFD9BAA2FAE0
:10DDE000B9A38292DB31BAA2D9BAA2F8DF85A4D056
:10DDF000C1BBAD83C2C5C7B8A2DFDFDFBAA0DFDF1A
:10DE0000DFD8D8F1B8AAB38DB4980D355DB2B6BAE3
:10DE1000AF8C96198F9FA70E161EB49AB8AA872C9E
:10DE2000547CBAA4B08AB691325676B28494A4C80F
:10DE300008CDD8B8B4B0F19982A82D557D98A80E18
:10DE4000161EA22C547C92A4F02C5078F184A89831
:10DE5000C4CDFCD80DDBA8FC2DF3D9BAA6F8DABAEC
:10DE6000A6DED8BAB2B68696A6D0F3C841DAA6C85E
:10DE7000F8D8B0B4B882A892F52C548898F135D966
:10DE8000F418D8F1A2D0F8F9A884D9C7DFF8F8833C
:10DE9000C5DADF69DF83C1D8F40114F1A8824EA886
:10DEA00084F311D182F5D992289788F109F41C1CCA
:10DEB000D884A8F3C0F9D1D99782F129F40DD8F309
:10DEC000F9F9D1D982F4C203D8DEDF1AD8F1A2FA67
:10DED000F9A88498D9C7DFF8F8F883C7DADF69DFD3
:10DEE000F883C3D8F40114F198A8822EA884F31102
:10DEF000D182F5D992509788F109F41CD884A8F3FF
:10DF0000C0F8F9D1D99782F149F40DD8F3F9F9D1D4
:10DF1000D982F4C403D8DEDFD8F1AD8898CCA80943
:10DF2000F9D98292A8F57CF1883ACF944A6E98DBB1
:10DF30006931DAADF2DEF9D88795A8F221D1DAA5F8
:10DF4000F9F417D9F1AE8ED0C0C3AE82C684C3A88F
:10DF50008595C8A588F2C0F1F4010EF18E9EA8C681
:10DF60003E56F554F18872F40115F19845856EF529
:10DF70008E9E0488F142985A8E9E068869F4011C90
:10DF8000F1981E1108D0F504F11E9702029836256B
:10DF9000DBF9D985A5F3C1DA85A5F3DFD88595A886
:10DFA000F309DAA5FAD88292A8F578F1881A849F45
:10DFB00026889821DAF41DF3D8879F39D1AFD9DFAD
:10DFC000DFFBF9F40CF3D8FAD0F8DAF9F9D0DFD99D
:10DFD000F9D8F40BD8F3879F39D1AFD9DFDFF41D1F
:10DFE000F3D8FAFCA869F9F9AFD0DADEFAD9F88FDC
:10DFF0009FA8F1CCF398DB45D9AFDFD0F8D8F18FEB
:10E000009FA8CAF38809DAAF8FCBF8D8F2AD978D05
:10E010000CD9A5DFF9BAA6F3FAF412F2D8950DD10E
:10E02000D9BAA6F3FADAA5F2C1BAA6F3DFD8F1BAE3
:10E03000B2B68696A6D0CAF349DAA6CBF8D8B0B461
:10E04000B8D8AD84F2C0DFF18FCBC3A8B2B6869644
:10E05000C8C1CBC3F3B0B48898A821DB718D9D7182
:10E06000859521D9ADF2FAD88597A828D9F408D892
:10E07000F28D29DAF405D9F285A4C2F2D8A88D94DC
:10E0800001D1D9F411F2D88721D8F40AD8F28498B2
:10E09000A8C801D1D9F411D8F3A4C8BBAFD0F2DE1F
:10E0A000F8F8F8F8F8F8F8F8D8F1B8F6B5B9B08A91
:10E0B00095A3DE3CA3D9F8D85CA3D9F8D87CA3D922
:10E0C000F8D8F8F9D1A5D9DFDAFAD8B18530F7D97F
:10E0D000DED8F830ADDADED8F2B48C99A32D557DB8
:10E0E000A083DFDFDFB591A0F629D9FBD8A0FC29FA
:10E0F000D9FAD8A0D051D9F8D8FC51D9F9D879D9C2
:10E10000FBD8A0D0FC79D9FAD8A1F9F9F9F9F9A08E
:10E11000DADFDFDFD8A1F8F8F8F8F8ACDEF8ADDE2A
:10E120008393AC2C547CF1A8DFDFDFF69D2CDAA0C2
:10E13000DFD9FADB2DF8D8A850DAA0D0DED9D0F894
:10E14000F8F8DB55F8D8A878DAA0D0DFD9D0FAF8FB
:10E15000F8F8F8DB7DF8D89CA88CF530DB38D9D0FE
:10E16000DEDFA0D0DEDFD8A848DB58D9DFD0DEA0C4
:10E17000DFD0DED8A868DB70D9DFDFA0DFDFD8F121
:10E18000A888902C547C98A8D05C38D1DAF2AE8C58
:10E19000DFF9D8B087A8C1C1B188A8C6F9F9DA36C5
:10E1A000D8A8F9DA36D8A8F9DA36D8A8F9DA36D8FC
:10E1B000A8F9DA36D8F78D9DADF818DAF2AEDFD8C7
:10E1C000F7ADFA30D9A4DEF9D8F2AEDEFAF983A7BA
:10E1D000D9C3C5C7F1889BA77AADF7DEDFA4F88461
:10E1E0009408A797F300AEF29819A488C6A3948860
:10E1F000F632DFF28393DB09D9F2AADFD8D8AEF882
:10E20000F9D1DAF3A4DEA7F1889B7AD8F38494AE2F
:10E2100019F9DAAAF1DFD8A881C0C3C5C7A39283D0
:10E22000F628ADDED9F8D8A350ADD9F8D8A378AD8B
:10E23000D9F8D8F8F9D1A1DADEC3C5C7D8A181943D
:10E24000F818F2B089ACC3C5C7F1D8B8B4B0978696
:10E25000A8319B069907AB9728889BF00C201440A7
:10E26000B0B4B8F0A88A9A285078B79BA8295179F9
:10E27000247059446938644831F1BBAB88002C5490
:10E280007CF0B38BB8A804285078F1B088B49726F6
:10E29000A85998BBABB38B02264666B0B8F08A9CEF
:10E2A000A82951798B2951798A2470598B2058716A
:10E2B0008A4469388B3940688A6448318B304960B8
:10E2C00088F1AC002C547CF08CA804285078F1889C
:10E2D0009726A85998AC8C02264666F0899CA829F6
:10E2E0005179247059446938644831A98809205902
:10E2F00070AB11384069A8193148608CA83C415C6A
:10E30000207C00F187981986A86E767EA999882DC1
:10E31000557DD8B1B5B9A3DFDFDFAED0DFAAD0DE3F
:10E32000F2ABF8F9D9B087C4AAF1DFDFBBAFDFDF0A
:10E33000B9D8B1F1A3978E60DFB084F2C8F8F9D9EB
:10E34000DED89385F14AB183A308B5839A0810B744
:10E350009F10D8F1B0BAAEB08AC2B2B68E9EF1FBB1
:10E36000D9F41DD8F9D90CF1D8F8F8AD61D9AEFBC4
:10E37000D8F40CF1D8F8F8AD19D9AEFBDFD8F41603
:10E38000F1D8F8AD8D61D9F4F4ACF59C9C8DDF2B00
:10E39000BAB6AEFAF8F40BD8F1AED0F8AD51DAAEA9
:10E3A000FAF8F1D8B9B1B6A3839C08B9B1839AB58C
:10E3B000AAC0FD3083B79F10B58B93F20202D1AB98
:10E3C000DADED8F1B080BAABC0C3B284C1C3D8B171
:10E3D000B9F38BA391B609B4D9ABDEB0879CB9A3CE
:10E3E000DDF1B38B8B8B8B8BB087A3A3A3A3B28BF5
:10E3F000B69BF2A3A3A3A3A3A3A3A3A3A3F1B08754
:10E40000B59AA3F39BA3A3DCBAACDFB9A3A3A3A3E0
:10E41000A3A3A3A3A3A3A3A3A3A3A3A3D8D8D8BB15
:10E42000B3B7F1AAF9DAFFD9809AAA28B48098A7DD
:10E4300020B79787A86688F07951F1902C870CA7B0
:10E4400081976293F071716085940129517990A54B
:10E45000F1284C6C870C95188578A38390284C6C18
:10E46000886CD8F3A28200F210A8921980A2F2D987
:10E4700026D8F188A84DD948D896A83980D93CD853
:10E480009580A839A68698D92CDA87A72CD8A88990
:10E490009519A980D938D8A88939A980DA3CD8A893
:10E4A0002EA83990D90CD8A8953198D90CD8A8099C
:10E4B000D9FFD801DAFFD89539A9DA26FFD890A874
:10E4C0000D8999A810809821DA2ED88999A83180D1
:10E4D000DA2ED8A886963180DA2ED8A8873180DA4D
:10E4E0002ED8A88292F34180F1D92ED8A882F319B0
:10E4F00080F1D92ED882ACF3C0A28022F1A62EA73B
:10E500002EA92298A829DAACDEFFD8A2F22AF1A916
:10E510002E8292A8F23180A696F1D900AC8C9C0C88
:10E5200030ACDED0DEFFD88C9CACD010ACDE80925C
:10E53000A2F24C82A8F1CAF235F19688A6D900D889
:10E54000F1FF000000000000555555555555C53FD9
:10E550007D6FEB0312D6D4BF5544880E55C1C93F19
:10E560003B8F68B52882A4BF88B20175E0EF493FB0
:10E5700009F7FD0DE13D023F4B2D8A1C273A03C0F0
:10E58000C88A599CE52A004059018D1B6C06E6BFDC
:10E5900082922EB1C5B8B33F4FBB610567ACDD3F7A
:10E5A000182D4454FB21E93F9BF681D20B73EF3FBA
:10E5B000182D4454FB21F93FE2652F227F2B7A3C32
:10E5C000075C143326A6813CBDCBF07A8807703CEB
:10E5D000075C143326A6913CC4EB98999999C9BF5E
:10E5E000711623FEC671BCBF6D9A74AFF2B0B3BF93
:10E5F0009AFDDE522DDEADBF2F6C6A2C44B4A2BF53
:10E600000D5555555555D53FFF8300922449C23FBE
:10E610006E204CC5CD45B73F513DD0A0660DB13FF2
:10E62000EB0D76244B7BA93F11DA22E33AAD903F04
:10E6300004FA97999999D93FAF788E1DC571CC3F4F
:10E640009FC678D0099AC33F935555555555E53F18
:10E65000599322942449D23FDE03CB966446C73FA8
:10E6600044523EDF12F1C23F000000000000F03FC4
:10E67000000000000000F83F000000000000000063
:10E680000000004003B8E23F00000000000000006E
:10E6900006D0CF43EBFD4C3E033333333333E33FFC
:10E6A000FFAB6FDBB66DDB3F4D268F515555D53F28
:10E6B00001411DA96074D13F65DBC9934A86CD3FF6
:10E6C000EF4E454A287ECA3F3E5555555555C53FE4
:10E6D00093BDBE166CC166BF2CDE25AF6A56113FD6
:10E6E000F16BD2C541BDBBBED0A4BE726937663ED8
:10E6F00000000000000000000000B33FB2BE7D3A01
:10E7000000002E40DFCF513800007E40BF51FABAE2
:10E7100000E0A44019DAC3BA00E0C840C2ED8AB9EB
:10E720000040EB40CD1F2CBA001006412AFFFABA78
:10E7300000C01541DFCFD13700D024419A97703AFD
:10E740000050334189478E3600404141E75B9D3898
:10E7500000B04E41C00A98B900A05B41558F943A71
:10E7600000306841DA92C0BA0040744162B3C63AE0
:10E770000000803F00A0853F00908B3F00C0913F8C
:10E780000030983F00F09E3F00F0A53F0050AD3FA5
:10E790000000B53F0000BD3F0060C53F0020CE3FF8
:10E7A0000040D73F00C0E03F00C0EA3F0020F53FF7
:10E7B000000000007D36AC397D3C3839EBDCF438A4
:10E7C000320A7E39124C26399B6AED39A4EE833920
:10E7D0007F661E39F6398A392B426539A482113990
:10E7E0005B991F39C3EECD39DDE7C637A5A22F39B6
:10E7F0000000803FC3AA853FC2958B3FD3C3913FA2
:10E80000F037983F32F59E3FD7FEA53F3F58AD3FCA
:10E81000F304B53FA408BD3F2A67C53F8C24CE3F13
:10E82000FD44D73FDFCCE03FC7C0EA3F7D25F53F41
:10E830004C5555555555A53F7751C1166CC156BF1E
:10E840009015CB19A001FA3EAD529C804F7E92BE2E
:10E85000C4B1B4BD9EEE213ED43888BEE9FAA8BD4D
:10E86000000000000000000000004054FB21F93FC0
:10E870003163621A61B4D03D0000601A61B4D03DCA
:10E880007370032E8A19A33B0000002E8A19A33B44
:10E89000C14920259A837B39000000000000000058
:10E8A0006E83F9A22915444ED15727FCC0DD34F5FB
:10E8B000999562DB4190433CAB6351FE61C5BBDE81
:10E8C0003A6E24B7E0D24D42EA2E49061C92D10995
:10E8D0001CEB1DFE3EA729B1F53582E88444BB2E12
:10E8E00026709CE9417E5FB439D69139F43953835F
:10E8F0008B5F849C3B28F9BDFF97F81F0F9805DEBE
:10E900008B112FEF1F6D0A5ACF7E366DB709CB27BB
:10E91000663F464F2DEA5F9EC7BA27757BF1E5EB50
:10E92000F739073DEA92528AB15FFB6B085D8D1F94
:10E93000000000006E83F9A22915444ED15727FC30
:10E94000C0DD34F5999562DB4190433CAB6351FEE9
:10E95000A6F810111111813FD561C119A0012ABF7C
:10E960007DFEB157E31DC73EEB9C2B8AE6E55ABE00
:10E970007CD5CF5A3AD9E53D98E90008000000203F
:10E98000780100006E0C0008E8E90008780100201A
:10E990002011000088820008012D5AFF047A010925
:10E9A00001230310803FC50AD7A33C0809306F122A
:10E9B000833ACDCC4C3D180A1123180A2FCC1801EC
:10E9C0001013ECD8140816D9022C085A24302D0143
:10E9D000020304041009060708090204060884A2B9
:08E9E0004A046918410000001F
:04000005080000ED02
:00000001FF
